:020000040800F2
:10000000C8050020450100087719000813170008EB
:100010007519000807040008611F000800000000AF
:10002000000000000000000000000000AF19000800
:10003000090400080000000079190008B11900083F
:100040005F0100085F0100085F0100085F01000810
:100050005F0100085F0100085F0100085F01000800
:100060005F0100085F0100085F0100085F010008F0
:100070005F0100085F0100085F0100085F010008E0
:100080005F0100085F0100085F0100085F010008D0
:100090005F0100085F0100085F0100085F010008C0
:1000A0005F0100085F0100085F0100085F010008B0
:1000B0005F0100084D1A0008591A00085F01000886
:1000C0005F0100085F0100085F0100085F01000890
:1000D0005F0100085F010008D91E00081D1F00080D
:1000E0005F0100085F0100085F0100085F01000870
:1000F0005F0100085F0100085F0100085F01000860
:100100005F0100085F0100085F0100085F0100084F
:100110005F0100085F0100085F0100085F0100083F
:100120005F0100085F0100085F0100085F0100082F
:10013000DFF80CD000F046F90048004761220008C3
:10014000C80500200648804706480047FEE7FEE74E
:10015000FEE7FEE7FEE7FEE7FEE7FEE7FEE7FEE777
:10016000051A000831010008202A04DB203A21FA90
:1001700002F00021704721FA02F3D040C2F12002C0
:100180009140084319467047D2B201E000F8012BB4
:10019000491EFBD270470022F6E710B513460A4607
:1001A00004461946FFF7F0FF204610BD2DE9FE4F2B
:1001B00081EA030404F0004421F0004100944FF070
:1001C000000B23F0004350EA01045ED052EA03041E
:1001D0005BD0C3F30A54C1F30A552C44A4F2F334A0
:1001E0000194A0FB0254C1F3130141F48011C3F345
:1001F000130343F4801301FB024400FB034E840A03
:10020000970A44EA815447EA8357A4FB076802959A
:100210008D0A05FB07854FEA932C04FB0C54270538
:10022000029D4FEA065847EA1637B5EB08056EEB14
:10023000070C870E920E47EA811742EA8312A7FB4A
:100240000201B6EB0B0164EB00042B0D43EA0C3307
:100250005E1844EB1C50DA465146E7FB0201C5F339
:1002600013044FEA0B3343EA14534FEA0432019C60
:1002700043EA0603A4F10C040294009CCDE900B407
:1002800000F051F803B0BDE8F08F00200146F9E717
:100290000EB540F2334102910021CDE900110A462A
:1002A0000B4600F040F803B000BDC1F30A5210B590
:1002B000C1F3130140F2FF3341F480119A4201DA95
:1002C000002010BD40F233439A42A2F2334203DCD5
:1002D0005242FFF749FF10BD904010BD30B50B46AC
:1002E000014600202022012409E021FA02F59D4266
:1002F00005D303FA02F5491B04FA02F52844151E3A
:10030000A2F10102F1DC30BD10B5141E73F100043E
:1003100008DA401C41F1000192185B411A4301D1F7
:1003200020F0010010BD2DE9F04D92469B4611B121
:10033000B1FA81F202E0B0FA80F22032904600F089
:1003400053F804460F4640EA0A0041EA0B015346BF
:100350005A46084313D0114653EA010019D0C8F198
:1003600040025046FFF700FF05460E4650465946EC
:10037000424600F039F8084305D0012004E0204649
:100380003946BDE8F08D0020054346EAE0762C436F
:1003900037430A986305E40AA0EB08000022FD0A2F
:1003A00044EA47540A3002D500200146E9E7010536
:1003B00010196941DDE9084500196941BDE8F04DB2
:1003C000A2E70000064C074D06E0E06840F001039C
:1003D00094E8070098471034AC42F6D3FFF7ACFE20
:1003E000E825000808260008202A04DB203A00FA45
:1003F00002F1002070479140C2F1200320FA03F37C
:10040000194390407047FEE7704700002DE9F04126
:10041000094F0A244FF4FA754FF40066284600F09D
:10042000A5F83146384600F0AFF9641E14F0FF0419
:10043000F4D1BDE8F0810000000C01402DE9F05F2F
:1004400090F821100024022903D0042181630124A3
:1004500085E001680A6822F00E020A6001680A68F5
:1004600022F001020A603F4E3E4FB215DFF8F4C0A1
:10047000DFF8F090DFF8ECA0DFF8E8B0DFF8E4E0B8
:100480000168783F13011502ACF1640CA9F1500921
:10049000AAF13C0AABF1280BAEF1140E4FF4801810
:1004A000B14227D9B9420ED0614512D049451DD07D
:1004B000514518D0594518D0714501D1424615E033
:1004C000294EB14201D1012210E0274E1436B1422B
:1004D00001D110220AE0244E2836B14206D0224A29
:1004E0003C32914201D11A4600E02A461E49091FBA
:1004F0000A602BE0B94213D0614517D0494522D09C
:1005000051451DD059451DD0714501D142461AE0D3
:10051000B14202D14FF0807215E0134EB14201D1C9
:10052000012210E0104E1436B14201D110220AE02F
:100530000D4E2836B14206D00B4A3C32914201D1D1
:100540001A4600E02A46074980394A60012180F8AE
:100550002110002180F82010416B01B1884720460E
:10056000BDE8F09F800002400804024070B50446D8
:1005700000F016F90546601C02D0044800780444D7
:1005800000F00EF9401BA042FAD370BD0400002019
:100590002DE9F84FDFF8C891002409F1040A0AF1A7
:1005A000040B23460F270BF1040ED1E00125A540D3
:1005B00006EA0502AA4276D1DFF8A8C14E68A6EB8A
:1005C0000C0866452BD00DDC032E34D005DC36B389
:1005D000012E19D0022E2FD11BE0112E16D0122E73
:1005E0002AD119E0B8F5881F19D006DCB8F5803F8C
:1005F00015D0B8F5801F1FD111E0B8F5001F0ED03F
:10060000B8F5041F18D10AE0CB6815E0CB681B1DB4
:1006100012E0CB6808330FE0CB680C330CE08B683A
:100620002BB1012B4FF0080303D0456104E00423F4
:1006300002E0056100E00023FF2A01D8064601E040
:1006400000F104064FEA840501D9A5F12005D6F88A
:10065000008007FA05FC28EA0C0803FA05F548EAC9
:100660000508C6F800804D68ED0070D53E4DAE69B6
:1006700046F00106AE61AD6924F0030605F0010500
:1006800000953A4D06EB050CDCF80850A607360F2E
:1006900007FA06F825EA0805DFF8D480404503D1BB
:1006A0004FF0000825E052E0DFF8C880404502D155
:1006B0004FF001081DE0DFF8C080404502D14FF047
:1006C000020816E0DFF8B480404502D14FF003087D
:1006D0000FE0DFF8AC80404502D14FF0040808E09D
:1006E000DFF8A080404502D14FF0050801E04FF04F
:1006F000060808FA06F848EA0508CCF808804D68AC
:10070000D9F80060ED034D4601D5164300E096434D
:100710002E604D68DAF80060AD03554601D51643EA
:1007200000E096432E604D68DBF80060ED025D4608
:1007300001D5164300E096432E604D68DEF8006058
:10074000AD02754601D5164300E096432E60641C49
:100750000A681646E2407FF429AFBDE8F88F000032
:100760000004014000001110001002400000014090
:1007700000080140000C014000100140001401403D
:1007800000180140001C0140C2680A4201D04161CA
:100790007047016170470AB1016170470904FBE7C6
:1007A000014880687047000004000020024881680A
:1007B000027811448160704704000020074810B59A
:1007C000016841F010010160032000F079F8002079
:1007D00000F006F800F024F8002010BD00200240D0
:1007E00070B50D4D04464FF47A712878B1FBF0F0E6
:1007F0000A490968B1FBF0F000F0F0FA48B9102C92
:1008000007D200222146501E00F03AF800206C600A
:1008100070BD012070BD0000040000201000002009
:100820000E4808B5816941F001018161816901F0DB
:1008300001010091C16941F08051C161C06900F0BE
:1008400080500090052000F03BF80548416821F0F9
:10085000E06141F00071416008BD000000100240FD
:1008600000000140002809DB00F01F020121914037
:100870004009800000F1E020C0F80011704700003E
:10088000F0B40E4B1B680C46C3F30223C3F10705FB
:10089000042D00D90425191D072901D2002300E0E9
:1008A000DB1E012606FA05F1491E214099409E40B3
:1008B000761E16403143F0BC01F078BB0CED00E031
:1008C000064900F0070208684FF6FF03184040EAA7
:1008D0000220034A10430860704700000CED00E05E
:1008E0000000FA052DE9F0470F46050061D0434EA0
:1008F000306800F00700B84209D2306820F00700E5
:1009000038433060306800F00700B84251D12868A1
:100910003B4C810712D5400703D5606840F4E06086
:1009200060602878000703D5606840F4605060601C
:100930006068A96820F0F000084360602878C0076C
:1009400028D06868012810D02168022810D08907B3
:1009500000292EDA616821F0030101436160FFF78D
:100960001FFF804641F288390DE021688903EFE7D7
:100970008901EDE7FFF714FFA0EB0801494502D913
:100980000320BDE8F0876068696800F00C00B0EBF8
:10099000810FEFD1306800F00700B8420BD9306802
:1009A00020F0070038433060306800F00700B8429C
:1009B00001D00120E5E72878400705D56068E9689F
:1009C00020F4E060084360602878000706D560687E
:1009D000296920F4605040EAC100606000F038F8F6
:1009E0006168084AC1F30311515CC84006490860B8
:1009F00006480068FFF7F4FE0020C2E7002002402E
:100A000000100240D025000810000020080000203F
:100A10000448054900684968044AC1F30221515C51
:100A2000C84070471000002000100240E025000878
:100A30000448054900684968044AC1F3C221515C71
:100A4000C84070471000002000100240E025000858
:100A500012A185B00FC98DE80F0014A0144A0068D8
:100A600004905168134801F00C03042B10D0082B9C
:100A70000ED1C1F38343C9031DF803000AD55168A1
:100A800004AAC1F34041515C0A4A5043B0FBF1F063
:100A900005B0704708494843FAE70000020304051F
:100AA000060708090A0B0C0D0E0F101001020000BA
:100AB0000010024000127A0000093D002DE9F84FB5
:100AC000040070D02078C04DC00749D06868C0F3DA
:100AD0008100012807D06868C0F38100022809D18D
:100AE0006868C00306D52868800339D56068002887
:100AF000E7D035E06068B0F5803F0BD010B1B0F5BD
:100B0000A02F11D0286820F480302860286820F4B5
:100B1000802002E0286840F480302860606890B14E
:100B2000FFF73EFE06460AE0286840F48020286071
:100B3000F0E700BFFFF734FE801B642873D82868F5
:100B40008003F7D50CE0FFF72BFE064605E000BF5B
:100B5000FFF726FE801B6428F0D828688003F7D4AE
:100B600020789A4E80074FF001094FF0000839D5E0
:100B7000686810F00C0F07D06868C0F38100022885
:100B800009D16868C00306D42868800714D5206995
:100B9000012808D110E02069B0B1C6F80090FFF735
:100BA000FFFD074605E00AE1FFF7FAFDC01B02283A
:100BB000C4D828688007F7D52868616920F0F80054
:100BC00040EAC10028600DE0C6F80080FFF7E8FDAC
:100BD000074604E0FFF7E4FDC01B022823D828687D
:100BE0008007F7D4207800072CD57948A169D9B1BE
:100BF000C0F80090FFF7D4FD074604E0FFF7D0FDF2
:100C0000C01B02280FD8686A8007F7D571484FF4D7
:100C1000FA510068B0FBF1F0009000BF0098411E4F
:100C20000091FAD20EE080E0C0F80080FFF7B8FD36
:100C3000074604E0FFF7B4FDC01B022875D8686AB8
:100C40008007F7D42078400760D5E8690027C00006
:100C500008D4E86940F08050E861E869012700F0B5
:100C6000805000905C480168C90513D40168834630
:100C700041F480710160FFF793FD824606E000BFFA
:100C8000FFF78EFDA0EB0A0064284ED8DBF80000C9
:100C9000C005F5D5E06801280AD008B1052813D0B1
:100CA000286A20F001002862286A20F0040002E08F
:100CB000286A40F001002862E06841F2883B98B160
:100CC000FFF76EFD82460BE0286A40F004002862C0
:100CD000EEE700BFFFF764FDA0EB0A0159455AD8C3
:100CE000286A8007F6D50CE0FFF75AFD824605E03A
:100CF000FFF756FDA0EB0A0159454CD8286A80073A
:100D0000F6D41FB1E86920F08050E861E06988B34B
:100D10006968C1F38101022944D00228C6F86080C5
:100D200004D0FFF73DFD044638E034E0FFF738FD1E
:100D3000074604E0FFF734FDC01B02282BD82868C3
:100D40008001F7D4206AB0F5803F05D16868A168BA
:100D500020F4003008436860D4E90801084369685A
:100D600021F4741108436860C6F86090FFF718FD1D
:100D7000044606E025E000BFFFF712FD001B022835
:100D800009D828688001F7D51BE000BFFFF708FDF0
:100D9000001B022802D90320BDE8F88F28688001D3
:100DA000F4D40EE00128F7D06868226A00F480319C
:100DB000914204D1616A00F47010884201D0012090
:100DC000EAE70020E8E7000000100240000042428D
:100DD00080044242100000200070004010B5401E08
:100DE000B0F1807F01D3012010BD4FF0E02460619D
:100DF0000F21601701F0DAF80020A06107202061C0
:100E0000002010BD7047704770B590F83C20012A53
:100E100019D0012400F83C4F0222427050F83C3CAB
:100E20005A689D6822F070060A684968324325F0C6
:100E3000800529435A6050F83C2C91604470002191
:100E40000170084670BD022070BD10B5040003D0CB
:100E500094F83D0010B107E0012010BD002084F897
:100E60003C00204600F00CF8022084F83D00211DD3
:100E7000206800F0F7FD012084F83D00002010BD3F
:100E800008B5154A0168154891420ED1C16941F073
:100E90000201C161C069012200F00200009002213C
:100EA0001D20FFF7EDFC1D2010E00D4A914211D1ED
:100EB000C16941F00401C161C069022200F004006F
:100EC000009011461E20FFF7DBFC1E20BDE8084005
:100ED000FFF7C8BC08BD000000040040001002403D
:100EE000000800400168CA6842F00102CA60006858
:100EF000816801F00701062903D0016841F0010172
:100F000001600020704770B5044690F83C0001284D
:100F100017D0012584F83C50022084F83D00206859
:100F2000826822F0770222F47F42826008685028AB
:100F300030D00DDC20284DD005DC98B310283BD1F3
:100F400048E0022070BD302844D0402834D139E038
:100F5000602828D0702806D0B0F5805F2CD0B0F57E
:100F6000005F29D10AE0CB68D1E90121206800F0B7
:100F7000CCFD2068816841F0770109E0CB68D1E9B8
:100F80000121206800F0C1FD2068816841F48041A2
:100F9000816011E0CA684968206800F08BFE50212A
:100FA000206807E016E0CA684968206800F093FEF0
:100FB0006021206800F0B3FD84F83D50002084F8E3
:100FC0003C0070BDCA684968206800F073FE40218B
:100FD0002068EFE7226801461046EBE7704770B5DE
:100FE0000446006801694FF00005C943890715D41C
:100FF000C168C943890711D4E91E01610120207726
:10100000206880698007204602D0FFF7E7FF04E0F0
:1010100000F0D0F8204600F052F9257720680169E9
:10102000C943490717D4C168C943490713D46FF0AE
:1010300004010161022020772068806910F4407F5C
:10104000204602D0FFF7CAFF04E000F0B3F82046C4
:1010500000F035F9257720680169C943090716D4DE
:10106000C168C943090712D46FF008010161042067
:1010700020772068C0698007204602D0FFF7AEFFC6
:1010800004E000F097F8204600F019F92577206871
:101090000169C943C90617D4C168C943C90613D435
:1010A0006FF010010161082020772068C06910F4FA
:1010B000407F204602D0FFF791FF04E000F07AF86D
:1010C000204600F0FCF8257720680169C943C9076C
:1010D00008D1C168C943C90704D1891E01612046EE
:1010E00000F010F920680169C943090609D4C168F4
:1010F000C943090605D46FF0800101612046FFF75E
:1011000081FE20680169C943490609D4C168C94301
:10111000490605D46FF040010161204600F044F912
:1011200020680169C94389060BD4C168C94389068F
:1011300007D46FF0200101612046BDE87040FFF741
:1011400062BE70BD10B586B0002100910191029180
:10115000039100681349884221D11348816941F005
:1011600004018161816901F004010491816941F008
:10117000080181618069022400F008000490C02009
:10118000CDE90004694609480394FFF701FA0120FC
:10119000CDE90004694606480394FFF7F9F906B063
:1011A00010BD000000040040001002400008014093
:1011B000000C0140704770B5044690F83C000D46A5
:1011C00001280DD0012684F83C60022084F83D00FF
:1011D00042B1042A18D0082A2AD00C2A4DD139E06D
:1011E000022070BD206800F0A3FC2068816941F0F6
:1011F000080181612068816921F004018161206812
:1012000081692A69114311E0206800F0C1FC20685F
:10121000816941F4006181612068816921F4806104
:101220008161206881692A6941EA0221816124E0A3
:10123000206800F0E3FC2068C16941F00801C16149
:101240002068C16921F00401C1612068C1692A696F
:10125000114311E0206800F005FD2068C16941F4E8
:101260000061C1612068C16921F48061C1612068A9
:10127000C1692A6941EA0221C16184F83D60002008
:1012800084F83C0070BD10B5040003D094F83D0014
:1012900010B107E0012010BD002084F83C0020467A
:1012A00000F00CF8022084F83D00211D206800F0B9
:1012B000D9FB012084F83D00002010BD7047704725
:1012C00010B504460068012200F012FC0B492068AA
:1012D000884202D00A49884203D1416C41F400415E
:1012E00041642068816801F00701062903D0016884
:1012F00041F001010160002010BD0000002C014000
:10130000003401403EB5214DA8423ED12868C16855
:1013100021F00101C1601E481E4A1F4C0188491C72
:1013200089B201801378002213B1012B02D022E090
:1013300011B920E002291ED302802088ADF80000F8
:101340006088ADF80200A088ADF80400DDE9000176
:101350002823124A01F02CF803462088ADF8040037
:101360006088ADF80600A088ADF80800DDE901014D
:101370000B4A00F0B5FF4FF400610A48FFF704FA8A
:101380002868C16841F00101C1603EBD6C000020C9
:101390000000002016000020220000209A010020FA
:1013A00017000020000C01407047704710F8391FEB
:1013B000407808437047000070B502680446106822
:1013C000D168536910F00F0F50D003F0010501F4FC
:1013D000907635435DD0C20705D0CA0503D5E26BD0
:1013E00042F00102E263420705D5DA0703D0E26B5F
:1013F00042F00202E263820705D5DA0703D0E26B0E
:1014000042F00402E263020705D5DA0703D0E26B7B
:1014100042F00802E263E26B002A33D0800604D572
:10142000880602D5204600F07EFC20684069E16B0A
:10143000C0F38010090700D428B3204600F065FCF3
:101440002068416949061AD5416921F0400141618E
:10145000606BA0B11B494163606BFEF7EFFF002892
:1014600010D0606B416BBDE870400847830610D513
:101470008B060ED52046BDE8704000F054BC2046D7
:10148000FFF793FF70BD2046FFF78FFF0020E0635A
:1014900070BD030606D50B0604D52046BDE8704096
:1014A00000F0E8BC4006F3D54806F1D5D1682046E7
:1014B00021F04001D160202184F8391000F028F992
:1014C00070BD0000FB1C000870B5040004D094F847
:1014D0003900002510B106E0012070BD84F83850B5
:1014E000204600F023F8242084F839002068C168E1
:1014F00021F40051C160204600F060FC20680169C1
:1015000021F4904101612068416921F02A01416183
:101510002068C16841F40051C160E563202084F86F
:10152000390084F83A00002070BD0000F0B585B0A5
:10153000002400940194029403940368434F022012
:1015400043490322434D4602BB4220D18B6943F4F9
:1015500080438B618B6903F4804304938B6943F070
:1015600004038B618969039201F004010491010273
:10157000CDE9001069462846FFF70AF8CDE9006476
:10158000694628460294FFF703F805B0F0BD324FD4
:10159000BB4226D1CB6943F40033CB61CB6903F462
:1015A000003304938B6943F004038B6189690392D0
:1015B00001F0040104910421CDE900106946284698
:1015C000FEF7E6FF0820CDE90004694628460294AC
:1015D000FEF7DEFF022201212620FFF751F9262027
:1015E00031E01E4DAB42D0D1CB6943F48023CB61B7
:1015F000CB6903F4802304938B6943F010038B6160
:101600008969174D01F01001CDE90321CDE9006092
:1016100069462846FEF7BCFFE814CDE90004694698
:1016200028460294FEF7B4FF0E48416821F03001CD
:1016300041F0E06141F01001416001221146272094
:10164000FFF71EF92720FFF70DF99EE7003801404C
:1016500000100240000801400044004000480040E3
:10166000001001400000014090F83A30202B22D1B8
:10167000F9B1F2B190F83830012B1CD0816282852B
:10168000C2850021C163222280F83A2080F83810F8
:101690000168CA6842F48072CA6001684A6942F00F
:1016A00001024A610068C16841F02001C160002068
:1016B00070470120704702207047000070B5044653
:1016C0004FF400610C48FFF75FF80C4920680C4D9F
:1016D000884204D12A7828210A4800F042FC0A49AD
:1016E0002068884206D12A78BDE870402821074842
:1016F00000F037BC70BD0000000C01400044004009
:10170000140000206C010020004800409A010020D5
:101710007047FEE72DE9F04385B00024254800948A
:10172000019402940394816941F0200181618169EF
:1017300001F020010491816941F004018161816916
:1017400001F004010491816941F00801816181691E
:1017500001F008010491816941F010018161806903
:10176000DFF8548000F010004FF440650490002230
:1017700029464046FFF70FF8DFF840904FF47077A6
:10178000002239464846FFF706F800950226012553
:101790000396CDE9015469464046FEF7F9FE0097ED
:1017A0000396CDE9015469464846FEF7F1FE05B0BF
:1017B000BDE8F08300100240000C01400010014021
:1017C00010B58EB000240794089409940A940B94E1
:1017D0001C2168460C94FEF7DEFC2948274901606D
:1017E00040F21F31C0E90114C721C0E9031484612C
:1017F000FFF72BFB08B1FEF709FE4FF4805007906E
:1018000007A91F48FFF77FFB08B1FEF7FFFD1C4843
:10181000FFF739FD08B1FEF7F9FD0B940BA9184845
:101820000C94FFF7F1FA08B1FEF7F0FD602000908C
:101830000F20CDE901040022694611480494FFF706
:10184000BAFC08B1FEF7E2FD042269460C48019497
:10185000FFF7B1FC08B1FEF7D9FD08226946084838
:10186000FFF7A9FC08B1FEF7D1FD00210448FFF7FE
:1018700027FD0348FFF766FC0EB010BD00040040D2
:101880002C00002010B586B0002417480094019465
:1018900002940394049413490594016041F63F7146
:1018A000C0E901146321C0E903148461FFF7CDFA94
:1018B00008B1FEF7ABFD4FF48050009069460A482E
:1018C000FFF721FB08B1FEF7A1FD049404A9064827
:1018D0000594FFF799FA002801D0FEF797FD06B0AE
:1018E00010BD0000000800406C0000200E4810B53C
:1018F0000C4901604FF4E1314160002181600C220C
:10190000C160C0E904128161C161FFF7DDFD08B16A
:10191000FEF77CFDBDE81040012204490248FFF7B4
:10192000A3BE000000440040EC0000201400002092
:101930000E4810B50C4901604FF4E13141600021BF
:1019400081600C22C160C0E904128161C161FFF7AE
:10195000BBFD08B1FEF75AFDBDE810400122044965
:101960000248FFF781BE0000004800402C01002023
:1019700014000020FEE77047704710B583887BB1E4
:101980000488831DE35C13700288521CB2FBF1F3E0
:1019900001FB132101808188491E8180012010BD37
:1019A000002010BD00210180418081807047704778
:1019B000FEF7FCBE10B590B028216846FEF7EBFBA1
:1019C00014210AA8FEF7E7FB0220009001200490F2
:1019D00010200024059007946846FFF76FF808B1BF
:1019E000FEF714FD0F20CDE90A040C940D9400219C
:1019F0000AA80E94FEF776FF002801D0FEF706FD38
:101A000010B010BD0D48016841F00101016041684E
:101A10000B4A1140416001680A4A114001600168A7
:101A200021F480210160416821F4FE0141604FF4FE
:101A30001F0181600449C003086070470010024024
:101A40000000FFF8FFFFF6FE08ED00E00148FFF799
:101A5000C6BA00002C0000200148FFF7C0BA000001
:101A60006C000020F0B502681C4B1D4D1D4E1E4F32
:101A70001E4C4FF0804C984209D0A04207D06045E0
:101A800005D0A84203D0B04201D0B84204D122F020
:101A9000700E4A6842EA0E02984209D0A04207D06E
:101AA000604505D0A84203D0B04201D0B84203D16E
:101AB00022F44075CA682A434D6922F080022A4305
:101AC00002608A68C2620A688262984201D0A042BB
:101AD00001D10969016301214161F0BD002C014080
:101AE0000004004000080040000C004000340140A9
:101AF00010B501F01F030121046A99408C43046270
:101B0000016A9A401143016210BD10B5846842EA2F
:101B1000032224F47F440A432243826010BD82687A
:101B200022F070020A4342F0070181607047000012
:101B3000F0B5026A22F001020262036A4268846917
:101B4000124E24F073050C682C4323F002058B68B9
:101B50002B430D4DA84201D0B04205D123F0080718
:101B6000CB683B4323F00403A84201D0B04205D127
:101B70004D6922F4407215438A692A4342608461A8
:101B8000496841630362F0BD002C0140003401400C
:101B9000F0B5026A22F010020262026A43688469A8
:101BA0000D6824F4E64444EA05248D6822F02002FE
:101BB00042EA05120F4D104EA84201D0B04206D1A4
:101BC000CF6822F0800242EA071222F04002A842C7
:101BD00001D0B04207D14D6923F4406343EA850345
:101BE0008D6943EA850343608461496881630262C9
:101BF000F0BD0000002C014000340140F0B5026A45
:101C000022F480720262026A4368C46922F400729C
:101C100024F073050C68124E2C438D6842EA0522AD
:101C20000E4DA84201D0B04206D1CF6822F4006226
:101C300042EA072222F48062A84201D0B04207D1D2
:101C40004D6923F4405343EA05138D6943EA0513B4
:101C50004360C4614968C1630262F0BD002C014069
:101C60000034014030B5026A22F480520262046AF4
:101C70004268C3690D6823F4E64343EA05238D688F
:101C800024F4005444EA0534084DA84202D0084D1B
:101C9000A84204D14D6922F4804242EA8512426092
:101CA000C36149680164046230BD0000002C01403A
:101CB0000034014010B5036A046A24F00104046290
:101CC000846924F0F00444EA021423F00A020A436F
:101CD0008461026210BD10B5036A23F01003036231
:101CE0008369046A23F4704343EA023224F0A003B8
:101CF00043EA01118261016210BD10B5406A002102
:101D0000C185C184FFF751FB10BD0168CA6822F488
:101D10009072CA6001684A6922F001024A6120217A
:101D200080F83A10704710B590F83A10222901D087
:101D3000022010BD8168B1F5805F11D001690029D2
:101D400001681FD0496801F07F03816A4A1C8262E2
:101D50000B70C18D491E0904090CC18518D02BE0F8
:101D60000269816A002A0268526805D0D2B20A80EC
:101D7000816A491C8162ECE7C2F308020A80816A29
:101D8000891CF7E74A68816A4B1C83620A70E0E7A6
:101D90000168CA6822F02002CA600168CA6822F499
:101DA0008072CA6001684A6922F001024A612021FA
:101DB00080F83A10FFF782FC002010BD2DE9F041B9
:101DC000044600680169E26821F440511143016151
:101DD0002169A0680843616908432168CA6841F223
:101DE0000C639A430243CA6020684169A26921F4E6
:101DF0004071114341611E492068642532268842A2
:101E000002D1FEF715FE01E0FEF702FE00EBC00175
:101E100001EB001160686FF018078000B1FBF0F271
:101E2000B2FBF5F2B1FBF0F37A4303EB8202B1FBB4
:101E3000F0F306EB0212B2FBF5F2B3FBF5F302F09E
:101E4000F00202EB0312B1FBF0F3B1FBF0F0B0FBD8
:101E5000F5F0784303EB800006EB0010B0FBF5F0E3
:101E6000216800F00F0010448860BDE8F081000098
:101E70000038014090F83910212901D00220704724
:101E80008168B1F5805F016A0BD04A1C026202686A
:101E900009785160C18C491E0904090CC1840ED017
:101EA00017E009880268C1F308015160016900293F
:101EB000016A02D0491C0162ECE7891CFBE701685A
:101EC000CA6822F08002CA600068C16841F040011F
:101ED000C16000207047000070B500240C4D0D4813
:101EE000FFF76AFA02E0641CAC4204D80948FFF725
:101EF0005DFA2028F7D1002402E0641CAC4206D829
:101F0000012205490348FFF7AFFB0028F5D170BD5A
:101F1000FFFF0100EC0000201400002070B5002439
:101F20000C4D0D48FFF748FA02E0641CAC4204D89F
:101F30000948FFF73BFA2028F7D1002402E0641C8F
:101F4000AC4206D8012205490348FFF78DFB002863
:101F5000F5D170BDFFFF01002C010020140000200E
:101F6000FEE710B583888B4201D3002010BD448862
:101F7000831DE2544288521CB2FBF1F301FB132192
:101F800041808188491C8180012010BD0FB4054B20
:101F900010B503A9044A029800F028F810BC5DF8B7
:101FA00014FB0000BD210008280000200907090ECD
:101FB000002804DB00F1E02080F80014704700F0F6
:101FC0000F0000F1E02080F8141D704702E008C8FF
:101FD000121F08C1002AFAD170477047002001E0A3
:101FE00001C1121F002AFBD1704700002DE9FF4FED
:101FF00089B09B460446002506E025280BD05A46AA
:102000000B999047641C6D1C20780028F5D10DB009
:102010002846BDE8F08F0027B8460122474900E076
:10202000074314F8013F203B02FA03F00842F7D1BE
:1020300020782E2819D114F8010F47F004072A2818
:102040000ED06FF02F022078A0F1300109290CD8B2
:1020500008EB880102EB410100EB0108641CF2E788
:102060000A98641C50F8048B0A9020780028CED07F
:10207000642808D0692806D075281ED05A460B99C6
:1020800090476D1C58E00A994FF00A0901C90A915E
:10209000002802DA40422D2102E0390504D52B2127
:1020A0008DF82010012103E0F90704D02021F7E783
:1020B0008A4608AE0DE00021FAE70A994FF00A09B6
:1020C00001C90A91F7E74946FEF708F9303106F8E9
:1020D000011D0028F7D1ADEB060000F120097807BB
:1020E00001D44FF00108C84502DDA8EB090000E06B
:1020F00000208046002706E008A85A46C05D0B99DC
:1021000090476D1C7F1C5745F6DB04E030205A4693
:102110000B9990476D1CB8F10001A8F10108F5DC9E
:1021200005E016F8010B5A460B9990476D1CB9F162
:102130000001A9F10109F4DC641C65E7092801002C
:1021400010B5044609A0FFF721FF204600F050F823
:102150002046FEF79DF80022074BFEF727F8FEF712
:10216000A4F8BDE81040C0B200F0D2B96261636B60
:10217000776172640A0000000000F83F10B5044661
:1021800009A0FFF703FF204600F046F82046FEF7BF
:102190007FF8084A084BFEF709F8FEF786F8BDE815
:1021A0001040C0B200F0CAB9666F72776172640AFB
:1021B00000000000CDCCCCCCCCCCF43F04490A6864
:1021C0005206FCD5024AC1B2121D116070470000D0
:1021D0000038014010B504A0FFF7D8FE1921BDE872
:1021E0001040122000F0DEB96C6566740A00000031
:1021F00070B5074D0446002240212846FEF7CBFA71
:10220000012280212846FEF7C6FA0248046070BD0C
:10221000001001403804004070B5074D044601220B
:1022200040212846FEF7B7FA002280212846FEF713
:10223000B2FA0248046070BD00100140380400404A
:1022400010B5064C002240212046FEF7A4FA204695
:102250000022BDE810408021FEF79DBA0010014029
:10226000FEF7ACFA1A48FFF79DFB1A48FFF79AFBF6
:10227000FFF7A0FBFFF74EFA184817490822016044
:102280004FF4E131416000218160C160C0E9041276
:102290008161C161FFF718F908B1FEF7B7F8FFF7E0
:1022A00025FBFFF78DFAFFF7EDFAFFF741FB00F092
:1022B0006BF90A488038FEF715FE08484038FEF7EB
:1022C00011FE4FF4FA742046FEF750F9FBE70000C8
:1022D0006C0100209A01002000380140AC00002071
:1022E0002DE9F041264E15469846B288002419463D
:1022F00024A0FFF74BFE2CA0FFF748FE00272BA0E1
:10230000E95DFFF743FE7F1CFFB2052FF7D326A040
:10231000FFF73CFE0020C0F10402295C91402143FC
:10232000401CC0B28CB20528F5D3172C08D0152C50
:1023300006D01D2C04D01F2C02D0B188414509D3F2
:1023400000F022F96420FEF711F9BDE8F0411020F9
:10235000FFF7F6BE14F00E0F09D004F00700C4F327
:10236000C101884208D8BDE8F041FFF733BFBDE89E
:10237000F0411020FFF702BFBDE8F04100F0BAB80D
:102380001C0000206D696E696D756D206469737441
:10239000616E63653A25642C2073657420706172E8
:1023A000616D3A25640000000A00000025642000E9
:1023B0001FB514462821104604E06420FEF7D6F825
:1023C0002821204600F026F8C1B20F29F5D3BDF828
:1023D000023080B20E4901220024834201D30C70E6
:1023E00000E00A70BDF800300949491C83424FF0F3
:1023F000010304D3CA545B1C042BFBDB03E0CC5465
:102400005B1C042BFBDB0A700A7104B010BD0000DA
:1024100016000020FEB5064600208DF80800B088A2
:102420000F460F285FD36A4639463046FFF7A5FAB4
:10243000B088092803D39DF800007E28F3D16A46AE
:1024400039463046FFF799FA9DF800007E284AD1B8
:1024500000246A4639463046FFF78FFA641CE4B21E
:10246000032CF6D302AA39463046FFF786FA6A46AD
:1024700039463046FFF781FA01AA39463046FFF760
:102480007CFA9DF804009DF80010002540EA012424
:1024900012E000BFFFF771FA01AA39463046FFF794
:1024A0006CFA9DF804009DF8001040EA0120A0425B
:1024B00000D204466D1CEDB29DF808006A46401E2D
:1024C000854239463046E5DBFFF757FA01AA39461F
:1024D0003046FFF752FA9DF80000EF2803D19DF82F
:1024E0000400EF2801D00020FEBD9DF8080044EA5A
:1024F0000040FEBD10B504A0FFF748FD1221BDE865
:102500001040192000F04EB872696768740A000024
:1025100070B5084D044600224FF480712846FEF73E
:102520003AF9012251022846FEF735F902480460C3
:1025300070BD0000001001403C04004070B5074D24
:102540000446012211022846FEF725F900226915EA
:102550002846FEF720F90248046070BD00100140D3
:102560003C04004010B5074C00224FF48071204617
:10257000FEF711F9002261152046BDE81040FEF774
:102580000AB900000010014010B504A0FFF7FEFCDE
:10259000FFF7E8FFBDE81040FFF752BE73746F709D
:1025A0000A00000010B50C46FFF736FE2046FDF786
:1025B0006FFE4FF06632054BFDF7F8FDFDF775FE37
:1025C000BDE81040C0B2FFF7B9BF00006666F63F35
:1025D00000000000000000000102030406070809D3
:1025E000000000000102030408260008000000208B
:1025F0002C000000CC1F0008342600082C0000200E
:102600009C050000DC1F0008000000000100000025
:1026100010000000000000000024F4000000000092
:10262000000000002300960019002C012003C800C0
:0426300000000000A6
:0400000508000131BD
:00000001FF
