Component: ARM Compiler 5.06 update 6 (build 750) Tool: armlink [4d35ed]

==============================================================================

Section Cross References

    startup_stm32f103xe.o(RESET) refers to startup_stm32f103xe.o(STACK) for __initial_sp
    startup_stm32f103xe.o(RESET) refers to startup_stm32f103xe.o(.text) for Reset_Handler
    startup_stm32f103xe.o(RESET) refers to stm32f1xx_it.o(i.NMI_Handler) for NMI_Handler
    startup_stm32f103xe.o(RESET) refers to stm32f1xx_it.o(i.HardFault_Handler) for HardFault_Handler
    startup_stm32f103xe.o(RESET) refers to stm32f1xx_it.o(i.MemManage_Handler) for MemManage_Handler
    startup_stm32f103xe.o(RESET) refers to stm32f1xx_it.o(i.BusFault_Handler) for BusFault_Handler
    startup_stm32f103xe.o(RESET) refers to stm32f1xx_it.o(i.UsageFault_Handler) for UsageFault_Handler
    startup_stm32f103xe.o(RESET) refers to port.o(.emb_text) for SVC_Handler
    startup_stm32f103xe.o(RESET) refers to stm32f1xx_it.o(i.DebugMon_Handler) for DebugMon_Handler
    startup_stm32f103xe.o(RESET) refers to port.o(i.SysTick_Handler) for SysTick_Handler
    startup_stm32f103xe.o(RESET) refers to stm32f1xx_it.o(i.TIM3_IRQHandler) for TIM3_IRQHandler
    startup_stm32f103xe.o(RESET) refers to stm32f1xx_it.o(i.TIM4_IRQHandler) for TIM4_IRQHandler
    startup_stm32f103xe.o(RESET) refers to stm32f1xx_it.o(i.USART1_IRQHandler) for USART1_IRQHandler
    startup_stm32f103xe.o(RESET) refers to stm32f1xx_it.o(i.USART2_IRQHandler) for USART2_IRQHandler
    startup_stm32f103xe.o(RESET) refers to stm32f1xx_it.o(i.USART3_IRQHandler) for USART3_IRQHandler
    startup_stm32f103xe.o(.text) refers to system_stm32f1xx.o(i.SystemInit) for SystemInit
    startup_stm32f103xe.o(.text) refers to entry.o(.ARM.Collect$$$$00000000) for __main
    main.o(i.HAL_TIM_PeriodElapsedCallback) refers to stm32f1xx_hal.o(i.HAL_IncTick) for HAL_IncTick
==============================================================================

Removing Unused input sections from the image.

    Removing startup_stm32f103xe.o(HEAP), (512 bytes).
    Removing main.o(.rev16_text), (4 bytes).
    Removing main.o(.revsh_text), (4 bytes).
    Removing main.o(.rrx_text), (6 bytes).
    Removing main.o(i.Error_Handler), (2 bytes).
    Removing freertos.o(.rev16_text), (4 bytes).
    Removing freertos.o(.revsh_text), (4 bytes).
    Removing freertos.o(.rrx_text), (6 bytes).
    Removing stm32f1xx_it.o(.rev16_text), (4 bytes).
    Removing stm32f1xx_it.o(.revsh_text), (4 bytes).
    Removing stm32f1xx_it.o(.rrx_text), (6 bytes).
    Removing stm32f1xx_hal_msp.o(.rev16_text), (4 bytes).
    Removing stm32f1xx_hal_msp.o(.revsh_text), (4 bytes).
    Removing stm32f1xx_hal_msp.o(.rrx_text), (6 bytes).
    Removing stm32f1xx_hal_msp.o(i.HAL_TIM_Base_MspDeInit), (36 bytes).
    Removing stm32f1xx_hal_msp.o(i.HAL_UART_MspDeInit), (120 bytes).
    Removing stm32f1xx_hal_timebase_tim.o(.rev16_text), (4 bytes).
    Removing stm32f1xx_hal_timebase_tim.o(.revsh_text), (4 bytes).
==============================================================================

Image Symbol Table

    Local Symbols

    Symbol Name                              Value     Ov Type        Size  Object(Section)

    ../Core/Src/freertos.c                   0x00000000   Number         0  freertos.o ABSOLUTE
    ../Core/Src/main.c                       0x00000000   Number         0  main.o ABSOLUTE
    ../Core/Src/stm32f1xx_hal_msp.c          0x00000000   Number         0  stm32f1xx_hal_msp.o ABSOLUTE
    ../Core/Src/stm32f1xx_hal_timebase_tim.c 0x00000000   Number         0  stm32f1xx_hal_timebase_tim.o ABSOLUTE
    ../Core/Src/stm32f1xx_it.c               0x00000000   Number         0  stm32f1xx_it.o ABSOLUTE
    ../Core/Src/system_stm32f1xx.c           0x00000000   Number         0  system_stm32f1xx.o ABSOLUTE
    ../Drivers/STM32F1xx_HAL_Driver/Src/stm32f1xx_hal.c 0x00000000   Number         0  stm32f1xx_hal.o ABSOLUTE
    ../Drivers/STM32F1xx_HAL_Driver/Src/stm32f1xx_hal_cortex.c 0x00000000   Number         0  stm32f1xx_hal_cortex.o ABSOLUTE
    ../Drivers/STM32F1xx_HAL_Driver/Src/stm32f1xx_hal_dma.c 0x00000000   Number         0  stm32f1xx_hal_dma.o ABSOLUTE
    ../Drivers/STM32F1xx_HAL_Driver/Src/stm32f1xx_hal_exti.c 0x00000000   Number         0  stm32f1xx_hal_exti.o ABSOLUTE
    ../Drivers/STM32F1xx_HAL_Driver/Src/stm32f1xx_hal_flash.c 0x00000000   Number         0  stm32f1xx_hal_flash.o ABSOLUTE
    ../Drivers/STM32F1xx_HAL_Driver/Src/stm32f1xx_hal_flash_ex.c 0x00000000   Number         0  stm32f1xx_hal_flash_ex.o ABSOLUTE
    ../Drivers/STM32F1xx_HAL_Driver/Src/stm32f1xx_hal_gpio.c 0x00000000   Number         0  stm32f1xx_hal_gpio.o ABSOLUTE
    ../Drivers/STM32F1xx_HAL_Driver/Src/stm32f1xx_hal_gpio_ex.c 0x00000000   Number         0  stm32f1xx_hal_gpio_ex.o ABSOLUTE
    ../Drivers/STM32F1xx_HAL_Driver/Src/stm32f1xx_hal_pwr.c 0x00000000   Number         0  stm32f1xx_hal_pwr.o ABSOLUTE
    ../Drivers/STM32F1xx_HAL_Driver/Src/stm32f1xx_hal_rcc.c 0x00000000   Number         0  stm32f1xx_hal_rcc.o ABSOLUTE
    ../Drivers/STM32F1xx_HAL_Driver/Src/stm32f1xx_hal_rcc_ex.c 0x00000000   Number         0  stm32f1xx_hal_rcc_ex.o ABSOLUTE
    ../Drivers/STM32F1xx_HAL_Driver/Src/stm32f1xx_hal_tim.c 0x00000000   Number         0  stm32f1xx_hal_tim.o ABSOLUTE
    ../Drivers/STM32F1xx_HAL_Driver/Src/stm32f1xx_hal_tim_ex.c 0x00000000   Number         0  stm32f1xx_hal_tim_ex.o ABSOLUTE
    ../Drivers/STM32F1xx_HAL_Driver/Src/stm32f1xx_hal_uart.c 0x00000000   Number         0  stm32f1xx_hal_uart.o ABSOLUTE
    ../Middlewares/Third_Party/FreeRTOS/Source/CMSIS_RTOS/cmsis_os.c 0x00000000   Number         0  cmsis_os.o ABSOLUTE
    ../Middlewares/Third_Party/FreeRTOS/Source/croutine.c 0x00000000   Number         0  croutine.o ABSOLUTE
    ../Middlewares/Third_Party/FreeRTOS/Source/event_groups.c 0x00000000   Number         0  event_groups.o ABSOLUTE
    ../Middlewares/Third_Party/FreeRTOS/Source/list.c 0x00000000   Number         0  list.o ABSOLUTE
    ../Middlewares/Third_Party/FreeRTOS/Source/portable/MemMang/heap_4.c 0x00000000   Number         0  heap_4.o ABSOLUTE
    ../Middlewares/Third_Party/FreeRTOS/Source/portable/RVDS/ARM_CM3/port.c 0x00000000   Number         0  port.o ABSOLUTE
    ../Middlewares/Third_Party/FreeRTOS/Source/queue.c 0x00000000   Number         0  queue.o ABSOLUTE
    ../Middlewares/Third_Party/FreeRTOS/Source/stream_buffer.c 0x00000000   Number         0  stream_buffer.o ABSOLUTE
    ../Middlewares/Third_Party/FreeRTOS/Source/tasks.c 0x00000000   Number         0  tasks.o ABSOLUTE
    ../Middlewares/Third_Party/FreeRTOS/Source/timers.c 0x00000000   Number         0  timers.o ABSOLUTE
    ../clib/microlib/division.c              0x00000000   Number         0  uldiv.o ABSOLUTE
    ../clib/microlib/division.c              0x00000000   Number         0  uidiv.o ABSOLUTE
    ../clib/microlib/init/entry.s            0x00000000   Number         0  entry7b.o ABSOLUTE
    ../clib/microlib/init/entry.s            0x00000000   Number         0  entry5.o ABSOLUTE
    ../clib/microlib/init/entry.s            0x00000000   Number         0  entry2.o ABSOLUTE
    ../clib/microlib/init/entry.s            0x00000000   Number         0  entry9b.o ABSOLUTE
    ../clib/microlib/init/entry.s            0x00000000   Number         0  entry.o ABSOLUTE
    ../clib/microlib/init/entry.s            0x00000000   Number         0  entry11b.o ABSOLUTE
    ../clib/microlib/init/entry.s            0x00000000   Number         0  entry11a.o ABSOLUTE
    ../clib/microlib/init/entry.s            0x00000000   Number         0  entry10b.o ABSOLUTE
    ../clib/microlib/init/entry.s            0x00000000   Number         0  entry10a.o ABSOLUTE
    ../clib/microlib/init/entry.s            0x00000000   Number         0  entry7a.o ABSOLUTE
    ../clib/microlib/init/entry.s            0x00000000   Number         0  entry9a.o ABSOLUTE
    ../clib/microlib/init/entry.s            0x00000000   Number         0  entry8b.o ABSOLUTE
    ../clib/microlib/init/entry.s            0x00000000   Number         0  entry8a.o ABSOLUTE
    ../clib/microlib/longlong.c              0x00000000   Number         0  llushr.o ABSOLUTE
    ../clib/microlib/longlong.c              0x00000000   Number         0  llsshr.o ABSOLUTE
    ../clib/microlib/longlong.c              0x00000000   Number         0  llshl.o ABSOLUTE
    ../clib/microlib/printf/printf.c         0x00000000   Number         0  printfb.o ABSOLUTE
    ../clib/microlib/printf/printf.c         0x00000000   Number         0  printf0.o ABSOLUTE
    ../clib/microlib/printf/printf.c         0x00000000   Number         0  printf1.o ABSOLUTE
    ../clib/microlib/printf/printf.c         0x00000000   Number         0  printf3.o ABSOLUTE
    ../clib/microlib/printf/printf.c         0x00000000   Number         0  printf2.o ABSOLUTE
    ../clib/microlib/printf/printf.c         0x00000000   Number         0  printf4.o ABSOLUTE
    ../clib/microlib/printf/printf.c         0x00000000   Number         0  printf5.o ABSOLUTE
    ../clib/microlib/printf/printf.c         0x00000000   Number         0  printf6.o ABSOLUTE
    ../clib/microlib/printf/printf.c         0x00000000   Number         0  printf7.o ABSOLUTE
    ../clib/microlib/printf/printf.c         0x00000000   Number         0  printf8.o ABSOLUTE
    ../clib/microlib/printf/printf.c         0x00000000   Number         0  printfa.o ABSOLUTE
    ../clib/microlib/printf/stubs.s          0x00000000   Number         0  stubs.o ABSOLUTE
    ../clib/microlib/stdio/streams.c         0x00000000   Number         0  stdout.o ABSOLUTE
    ../clib/microlib/string/memcpy.c         0x00000000   Number         0  memcpya.o ABSOLUTE
    ../clib/microlib/string/memcpy.c         0x00000000   Number         0  memcpyb.o ABSOLUTE
    ../clib/microlib/string/memset.c         0x00000000   Number         0  memset.o ABSOLUTE
    ../clib/microlib/string/memset.c         0x00000000   Number         0  memseta.o ABSOLUTE
    ../clib/microlib/stubs.s                 0x00000000   Number         0  iusefp.o ABSOLUTE
    ../fplib/microlib/fpadd.c                0x00000000   Number         0  dadd.o ABSOLUTE
    ../fplib/microlib/fpdiv.c                0x00000000   Number         0  ddiv.o ABSOLUTE
    ../fplib/microlib/fpepilogue.c           0x00000000   Number         0  depilogue.o ABSOLUTE
    ../fplib/microlib/fpfix.c                0x00000000   Number         0  dfixui.o ABSOLUTE
    ../fplib/microlib/fpfix.c                0x00000000   Number         0  dfixul.o ABSOLUTE
    ../fplib/microlib/fpflt.c                0x00000000   Number         0  dfltui.o ABSOLUTE
    ../fplib/microlib/fpmul.c                0x00000000   Number         0  dmul.o ABSOLUTE
    ..\Core\Src\freertos.c                   0x00000000   Number         0  freertos.o ABSOLUTE
    ..\Core\Src\main.c                       0x00000000   Number         0  main.o ABSOLUTE
    ..\Core\Src\stm32f1xx_hal_msp.c          0x00000000   Number         0  stm32f1xx_hal_msp.o ABSOLUTE
    ..\Core\Src\stm32f1xx_hal_timebase_tim.c 0x00000000   Number         0  stm32f1xx_hal_timebase_tim.o ABSOLUTE
    ..\Core\Src\stm32f1xx_it.c               0x00000000   Number         0  stm32f1xx_it.o ABSOLUTE
    ..\Core\Src\system_stm32f1xx.c           0x00000000   Number         0  system_stm32f1xx.o ABSOLUTE
    ..\Drivers\STM32F1xx_HAL_Driver\Src\stm32f1xx_hal.c 0x00000000   Number         0  stm32f1xx_hal.o ABSOLUTE
    ..\Drivers\STM32F1xx_HAL_Driver\Src\stm32f1xx_hal_cortex.c 0x00000000   Number         0  stm32f1xx_hal_cortex.o ABSOLUTE
    ..\Drivers\STM32F1xx_HAL_Driver\Src\stm32f1xx_hal_dma.c 0x00000000   Number         0  stm32f1xx_hal_dma.o ABSOLUTE
    ..\Drivers\STM32F1xx_HAL_Driver\Src\stm32f1xx_hal_exti.c 0x00000000   Number         0  stm32f1xx_hal_exti.o ABSOLUTE
    ..\Drivers\STM32F1xx_HAL_Driver\Src\stm32f1xx_hal_flash.c 0x00000000   Number         0  stm32f1xx_hal_flash.o ABSOLUTE
    ..\Drivers\STM32F1xx_HAL_Driver\Src\stm32f1xx_hal_flash_ex.c 0x00000000   Number         0  stm32f1xx_hal_flash_ex.o ABSOLUTE
    ..\Drivers\STM32F1xx_HAL_Driver\Src\stm32f1xx_hal_gpio.c 0x00000000   Number         0  stm32f1xx_hal_gpio.o ABSOLUTE
    ..\Drivers\STM32F1xx_HAL_Driver\Src\stm32f1xx_hal_gpio_ex.c 0x00000000   Number         0  stm32f1xx_hal_gpio_ex.o ABSOLUTE
    ..\Drivers\STM32F1xx_HAL_Driver\Src\stm32f1xx_hal_pwr.c 0x00000000   Number         0  stm32f1xx_hal_pwr.o ABSOLUTE
    ..\Drivers\STM32F1xx_HAL_Driver\Src\stm32f1xx_hal_rcc.c 0x00000000   Number         0  stm32f1xx_hal_rcc.o ABSOLUTE
    ..\Drivers\STM32F1xx_HAL_Driver\Src\stm32f1xx_hal_rcc_ex.c 0x00000000   Number         0  stm32f1xx_hal_rcc_ex.o ABSOLUTE
    ..\Drivers\STM32F1xx_HAL_Driver\Src\stm32f1xx_hal_tim.c 0x00000000   Number         0  stm32f1xx_hal_tim.o ABSOLUTE
    ..\Drivers\STM32F1xx_HAL_Driver\Src\stm32f1xx_hal_tim_ex.c 0x00000000   Number         0  stm32f1xx_hal_tim_ex.o ABSOLUTE
    ..\Drivers\STM32F1xx_HAL_Driver\Src\stm32f1xx_hal_uart.c 0x00000000   Number         0  stm32f1xx_hal_uart.o ABSOLUTE
    ..\Middlewares\Third_Party\FreeRTOS\Source\CMSIS_RTOS\cmsis_os.c 0x00000000   Number         0  cmsis_os.o ABSOLUTE
    ..\Middlewares\Third_Party\FreeRTOS\Source\portable\RVDS\ARM_CM3\port.c 0x00000000   Number         0  port.o ABSOLUTE
    ..\USER\LiDar\LIDAR.c                    0x00000000   Number         0  lidar.o ABSOLUTE
    ..\USER\Motor\MOTOR.c                    0x00000000   Number         0  motor.o ABSOLUTE
    ..\USER\SERVO\SERVO.c                    0x00000000   Number         0  servo.o ABSOLUTE
    ..\USER\Utilities\util.c                 0x00000000   Number         0  util.o ABSOLUTE
    ..\\USER\\LiDar\\LIDAR.c                 0x00000000   Number         0  lidar.o ABSOLUTE
    ..\\USER\\Motor\\MOTOR.c                 0x00000000   Number         0  motor.o ABSOLUTE
    ..\\USER\\SERVO\\SERVO.c                 0x00000000   Number         0  servo.o ABSOLUTE
    ..\\USER\\Utilities\\util.c              0x00000000   Number         0  util.o ABSOLUTE
    cdrcmple.s                               0x00000000   Number         0  cdrcmple.o ABSOLUTE
    dc.s                                     0x00000000   Number         0  dc.o ABSOLUTE
    handlers.s                               0x00000000   Number         0  handlers.o ABSOLUTE
    init.s                                   0x00000000   Number         0  init.o ABSOLUTE
    startup_stm32f103xe.s                    0x00000000   Number         0  startup_stm32f103xe.o ABSOLUTE
    RESET                                    0x08000000   Section      304  startup_stm32f103xe.o(RESET)
    .ARM.Collect$$$$00000000                 0x08000130   Section        0  entry.o(.ARM.Collect$$$$00000000)
    .ARM.Collect$$$$00000001                 0x08000130   Section        4  entry2.o(.ARM.Collect$$$$00000001)
    .ARM.Collect$$$$00000004                 0x08000134   Section        4  entry5.o(.ARM.Collect$$$$00000004)
    .ARM.Collect$$$$00000008                 0x08000138   Section        0  entry7b.o(.ARM.Collect$$$$00000008)
    .ARM.Collect$$$$0000000A                 0x08000138   Section        0  entry8b.o(.ARM.Collect$$$$0000000A)
    .ARM.Collect$$$$0000000B                 0x08000138   Section        8  entry9a.o(.ARM.Collect$$$$0000000B)
    .ARM.Collect$$$$0000000D                 0x08000140   Section        0  entry10a.o(.ARM.Collect$$$$0000000D)
    .ARM.Collect$$$$0000000F                 0x08000140   Section        0  entry11a.o(.ARM.Collect$$$$0000000F)
    .ARM.Collect$$$$00002712                 0x08000140   Section        4  entry2.o(.ARM.Collect$$$$00002712)
    __lit__00000000                          0x08000140   Data           4  entry2.o(.ARM.Collect$$$$00002712)
    .emb_text                                0x08000144   Section      150  port.o(.emb_text)
    .text                                    0x080001dc   Section       36  startup_stm32f103xe.o(.text)
    .text                                    0x08000200   Section        0  llushr.o(.text)
    .text                                    0x08000220   Section        0  memcpya.o(.text)
    .text                                    0x08000244   Section        0  memseta.o(.text)
    .text                                    0x08000268   Section        0  dmul.o(.text)
    .text                                    0x0800034c   Section        0  dfltui.o(.text)
    .text                                    0x08000366   Section        0  dfixui.o(.text)
    .text                                    0x08000398   Section        0  uidiv.o(.text)
    .text                                    0x080003c4   Section        0  iusefp.o(.text)
    .text                                    0x080003c4   Section        0  depilogue.o(.text)
    .text                                    0x08000480   Section       36  init.o(.text)
    .text                                    0x080004a4   Section        0  llshl.o(.text)
    i.BusFault_Handler                       0x080004c2   Section        0  stm32f1xx_it.o(i.BusFault_Handler)
    i.DebugMon_Handler                       0x080004c4   Section        0  stm32f1xx_it.o(i.DebugMon_Handler)
    i.HAL_DMA_Abort_IT                       0x080004c8   Section        0  stm32f1xx_hal_dma.o(i.HAL_DMA_Abort_IT)
    i.HAL_Delay                              0x080005f8   Section        0  stm32f1xx_hal.o(i.HAL_Delay)
    i.HAL_GPIO_Init                          0x0800061c   Section        0  stm32f1xx_hal_gpio.o(i.HAL_GPIO_Init)
    i.HAL_GPIO_TogglePin                     0x08000814   Section        0  stm32f1xx_hal_gpio.o(i.HAL_GPIO_TogglePin)
    i.HAL_GPIO_WritePin                      0x08000822   Section        0  stm32f1xx_hal_gpio.o(i.HAL_GPIO_WritePin)
    i.HAL_GetTick                            0x0800082c   Section        0  stm32f1xx_hal.o(i.HAL_GetTick)
    i.HAL_IncTick                            0x08000838   Section        0  stm32f1xx_hal.o(i.HAL_IncTick)
    i.HAL_Init                               0x08000848   Section        0  stm32f1xx_hal.o(i.HAL_Init)
    i.HAL_InitTick                           0x0800086c   Section        0  stm32f1xx_hal_timebase_tim.o(i.HAL_InitTick)
    i.HAL_MspInit                            0x080008e0   Section        0  stm32f1xx_hal_msp.o(i.HAL_MspInit)
    i.HAL_NVIC_EnableIRQ                     0x0800091c   Section        0  stm32f1xx_hal_cortex.o(i.HAL_NVIC_EnableIRQ)
    i.HAL_NVIC_SetPriority                   0x08000938   Section        0  stm32f1xx_hal_cortex.o(i.HAL_NVIC_SetPriority)
    i.HAL_NVIC_SetPriorityGrouping           0x08000978   Section        0  stm32f1xx_hal_cortex.o(i.HAL_NVIC_SetPriorityGrouping)
    i.HAL_RCC_ClockConfig                    0x0800099c   Section        0  stm32f1xx_hal_rcc.o(i.HAL_RCC_ClockConfig)
    i.HAL_RCC_GetClockConfig                 0x08000ac8   Section        0  stm32f1xx_hal_rcc.o(i.HAL_RCC_GetClockConfig)
    i.HAL_RCC_GetPCLK1Freq                   0x08000b08   Section        0  stm32f1xx_hal_rcc.o(i.HAL_RCC_GetPCLK1Freq)
    i.HAL_RCC_GetPCLK2Freq                   0x08000b28   Section        0  stm32f1xx_hal_rcc.o(i.HAL_RCC_GetPCLK2Freq)
    i.HAL_RCC_GetSysClockFreq                0x08000b48   Section        0  stm32f1xx_hal_rcc.o(i.HAL_RCC_GetSysClockFreq)
    i.HAL_RCC_OscConfig                      0x08000bb4   Section        0  stm32f1xx_hal_rcc.o(i.HAL_RCC_OscConfig)
    i.HAL_TIMEx_BreakCallback                0x08000ed4   Section        0  stm32f1xx_hal_tim_ex.o(i.HAL_TIMEx_BreakCallback)
    i.HAL_TIMEx_CommutCallback               0x08000ed6   Section        0  stm32f1xx_hal_tim_ex.o(i.HAL_TIMEx_CommutCallback)
    i.HAL_TIMEx_MasterConfigSynchronization  0x08000ed8   Section        0  stm32f1xx_hal_tim_ex.o(i.HAL_TIMEx_MasterConfigSynchronization)
    i.HAL_TIM_Base_Init                      0x08000f1a   Section        0  stm32f1xx_hal_tim.o(i.HAL_TIM_Base_Init)
    i.HAL_TIM_Base_MspInit                   0x08000f50   Section        0  stm32f1xx_hal_msp.o(i.HAL_TIM_Base_MspInit)
    i.HAL_TIM_Base_Start_IT                  0x08000f8c   Section        0  stm32f1xx_hal_tim.o(i.HAL_TIM_Base_Start_IT)
    i.HAL_TIM_ConfigClockSource              0x08000fae   Section        0  stm32f1xx_hal_tim.o(i.HAL_TIM_ConfigClockSource)
    i.HAL_TIM_IC_CaptureCallback             0x08001084   Section        0  stm32f1xx_hal_tim.o(i.HAL_TIM_IC_CaptureCallback)
    i.HAL_TIM_IRQHandler                     0x08001086   Section        0  stm32f1xx_hal_tim.o(i.HAL_TIM_IRQHandler)
    i.HAL_TIM_MspPostInit                    0x080011ec   Section        0  stm32f1xx_hal_msp.o(i.HAL_TIM_MspPostInit)
    i.HAL_TIM_OC_DelayElapsedCallback        0x0800125c   Section        0  stm32f1xx_hal_tim.o(i.HAL_TIM_OC_DelayElapsedCallback)
    i.HAL_TIM_PWM_ConfigChannel              0x0800125e   Section        0  stm32f1xx_hal_tim.o(i.HAL_TIM_PWM_ConfigChannel)
    i.HAL_TIM_PWM_Init                       0x0800132e   Section        0  stm32f1xx_hal_tim.o(i.HAL_TIM_PWM_Init)
    i.HAL_TIM_PWM_MspInit                    0x08001364   Section        0  stm32f1xx_hal_tim.o(i.HAL_TIM_PWM_MspInit)
    i.HAL_TIM_PWM_PulseFinishedCallback      0x08001366   Section        0  stm32f1xx_hal_tim.o(i.HAL_TIM_PWM_PulseFinishedCallback)
    i.HAL_TIM_PWM_Start                      0x08001368   Section        0  stm32f1xx_hal_tim.o(i.HAL_TIM_PWM_Start)
    i.HAL_TIM_PeriodElapsedCallback          0x080013ac   Section        0  main.o(i.HAL_TIM_PeriodElapsedCallback)
    i.HAL_TIM_TriggerCallback                0x080013c0   Section        0  stm32f1xx_hal_tim.o(i.HAL_TIM_TriggerCallback)
    i.HAL_UART_ErrorCallback                 0x080013c2   Section        0  stm32f1xx_hal_uart.o(i.HAL_UART_ErrorCallback)
    i.HAL_UART_GetState                      0x080013c4   Section        0  stm32f1xx_hal_uart.o(i.HAL_UART_GetState)
    i.HAL_UART_IRQHandler                    0x080013d0   Section        0  stm32f1xx_hal_uart.o(i.HAL_UART_IRQHandler)
    i.HAL_UART_Init                          0x080014e0   Section        0  stm32f1xx_hal_uart.o(i.HAL_UART_Init)
    i.HAL_UART_MspInit                       0x08001544   Section        0  stm32f1xx_hal_msp.o(i.HAL_UART_MspInit)
    i.HAL_UART_Receive_IT                    0x0800168c   Section        0  stm32f1xx_hal_uart.o(i.HAL_UART_Receive_IT)
    i.HAL_UART_RxCpltCallback                0x080016e0   Section        0  util.o(i.HAL_UART_RxCpltCallback)
    i.HAL_UART_Transmit                      0x08001708   Section        0  stm32f1xx_hal_uart.o(i.HAL_UART_Transmit)
    i.HAL_UART_TxCpltCallback                0x080017c2   Section        0  stm32f1xx_hal_uart.o(i.HAL_UART_TxCpltCallback)
    i.HardFault_Handler                      0x080017c4   Section        0  stm32f1xx_it.o(i.HardFault_Handler)
    i.MX_GPIO_Init                           0x080017c8   Section        0  main.o(i.MX_GPIO_Init)
    MX_GPIO_Init                             0x080017c9   Thumb Code   226  main.o(i.MX_GPIO_Init)
    i.MX_TIM3_Init                           0x080018c0   Section        0  main.o(i.MX_TIM3_Init)
    MX_TIM3_Init                             0x080018c1   Thumb Code   146  main.o(i.MX_TIM3_Init)
    i.MemManage_Handler                      0x0800195c   Section        0  stm32f1xx_it.o(i.MemManage_Handler)
    i.NMI_Handler                            0x0800195e   Section        0  stm32f1xx_it.o(i.NMI_Handler)
    i.SysTick_Handler                        0x08001960   Section        0  port.o(i.SysTick_Handler)
    i.SystemClock_Config                     0x0800198c   Section        0  main.o(i.SystemClock_Config)
    i.SystemInit                             0x080019dc   Section        0  system_stm32f1xx.o(i.SystemInit)
    i.TIM3_IRQHandler                        0x08001a24   Section        0  stm32f1xx_it.o(i.TIM3_IRQHandler)
    i.TIM4_IRQHandler                        0x08001a30   Section        0  stm32f1xx_it.o(i.TIM4_IRQHandler)
    i.TIM_Base_SetConfig                     0x08001a3c   Section        0  stm32f1xx_hal_tim.o(i.TIM_Base_SetConfig)
    i.TIM_CCxChannelCmd                      0x08001ac8   Section        0  stm32f1xx_hal_tim.o(i.TIM_CCxChannelCmd)
    i.TIM_ETR_SetConfig                      0x08001ae2   Section        0  stm32f1xx_hal_tim.o(i.TIM_ETR_SetConfig)
    i.TIM_ITRx_SetConfig                     0x08001af6   Section        0  stm32f1xx_hal_tim.o(i.TIM_ITRx_SetConfig)
    TIM_ITRx_SetConfig                       0x08001af7   Thumb Code    16  stm32f1xx_hal_tim.o(i.TIM_ITRx_SetConfig)
    i.TIM_OC1_SetConfig                      0x08001b08   Section        0  stm32f1xx_hal_tim.o(i.TIM_OC1_SetConfig)
    TIM_OC1_SetConfig                        0x08001b09   Thumb Code    88  stm32f1xx_hal_tim.o(i.TIM_OC1_SetConfig)
    i.TIM_OC2_SetConfig                      0x08001b68   Section        0  stm32f1xx_hal_tim.o(i.TIM_OC2_SetConfig)
    i.TIM_OC3_SetConfig                      0x08001bd4   Section        0  stm32f1xx_hal_tim.o(i.TIM_OC3_SetConfig)
    TIM_OC3_SetConfig                        0x08001bd5   Thumb Code    96  stm32f1xx_hal_tim.o(i.TIM_OC3_SetConfig)
    i.TIM_OC4_SetConfig                      0x08001c3c   Section        0  stm32f1xx_hal_tim.o(i.TIM_OC4_SetConfig)
    TIM_OC4_SetConfig                        0x08001c3d   Thumb Code    70  stm32f1xx_hal_tim.o(i.TIM_OC4_SetConfig)
    i.TIM_TI1_ConfigInputStage               0x08001c8c   Section        0  stm32f1xx_hal_tim.o(i.TIM_TI1_ConfigInputStage)
    TIM_TI1_ConfigInputStage                 0x08001c8d   Thumb Code    34  stm32f1xx_hal_tim.o(i.TIM_TI1_ConfigInputStage)
    i.TIM_TI2_ConfigInputStage               0x08001cae   Section        0  stm32f1xx_hal_tim.o(i.TIM_TI2_ConfigInputStage)
    TIM_TI2_ConfigInputStage                 0x08001caf   Thumb Code    36  stm32f1xx_hal_tim.o(i.TIM_TI2_ConfigInputStage)
    i.UART_DMAAbortOnError                   0x08001cd2   Section        0  stm32f1xx_hal_uart.o(i.UART_DMAAbortOnError)
    UART_DMAAbortOnError                     0x08001cd3   Thumb Code    16  stm32f1xx_hal_uart.o(i.UART_DMAAbortOnError)
    i.UART_EndRxTransfer                     0x08001ce2   Section        0  stm32f1xx_hal_uart.o(i.UART_EndRxTransfer)
    UART_EndRxTransfer                       0x08001ce3   Thumb Code    28  stm32f1xx_hal_uart.o(i.UART_EndRxTransfer)
    i.UART_Receive_IT                        0x08001cfe   Section        0  stm32f1xx_hal_uart.o(i.UART_Receive_IT)
    UART_Receive_IT                          0x08001cff   Thumb Code   150  stm32f1xx_hal_uart.o(i.UART_Receive_IT)
    i.UART_SetConfig                         0x08001d94   Section        0  stm32f1xx_hal_uart.o(i.UART_SetConfig)
    UART_SetConfig                           0x08001d95   Thumb Code   178  stm32f1xx_hal_uart.o(i.UART_SetConfig)
    i.UART_Transmit_IT                       0x08001e4c   Section        0  stm32f1xx_hal_uart.o(i.UART_Transmit_IT)
    UART_Transmit_IT                         0x08001e4d   Thumb Code    98  stm32f1xx_hal_uart.o(i.UART_Transmit_IT)
    i.UART_WaitOnFlagUntilTimeout            0x08001eae   Section        0  stm32f1xx_hal_uart.o(i.UART_WaitOnFlagUntilTimeout)
    UART_WaitOnFlagUntilTimeout              0x08001eaf   Thumb Code   100  stm32f1xx_hal_uart.o(i.UART_WaitOnFlagUntilTimeout)
    i.USART1_IRQHandler                      0x08001f14   Section        0  stm32f1xx_it.o(i.USART1_IRQHandler)
    i.USART2_IRQHandler                      0x08001f20   Section        0  stm32f1xx_it.o(i.USART2_IRQHandler)
    i.USART3_IRQHandler                      0x08001f64   Section        0  stm32f1xx_it.o(i.USART3_IRQHandler)
    i.UsageFault_Handler                     0x08001f70   Section        0  stm32f1xx_it.o(i.UsageFault_Handler)
    i.__0printf$1                            0x08001f74   Section        0  printf1.o(i.__0printf$1)
    i.__NVIC_SetPriority                     0x08001f94   Section        0  stm32f1xx_hal_cortex.o(i.__NVIC_SetPriority)
    __NVIC_SetPriority                       0x08001f95   Thumb Code    32  stm32f1xx_hal_cortex.o(i.__NVIC_SetPriority)
    i.__scatterload_copy                     0x08001fb4   Section       14  handlers.o(i.__scatterload_copy)
    i.__scatterload_null                     0x08001fc2   Section        2  handlers.o(i.__scatterload_null)
    i.__scatterload_zeroinit                 0x08001fc4   Section       14  handlers.o(i.__scatterload_zeroinit)
    i._printf_core                           0x08001fd4   Section        0  printf1.o(i._printf_core)
    _printf_core                             0x08001fd5   Thumb Code   336  printf1.o(i._printf_core)
    i.backward                               0x08002128   Section        0  motor.o(i.backward)
    i.forward                                0x08002164   Section        0  motor.o(i.forward)
    i.fputc                                  0x080021a4   Section        0  util.o(i.fputc)
    i.func_LED_blink                         0x080021bc   Section        0  main.o(i.func_LED_blink)
    i.func_initialize                        0x080021dc   Section        0  main.o(i.func_initialize)
    i.func_lidar                             0x080021fc   Section        0  main.o(i.func_lidar)
    i.func_motor                             0x080023ec   Section        0  main.o(i.func_motor)
    i.func_servo                             0x080024a4   Section        0  main.o(i.func_servo)
    i.inHandlerMode                          0x080024d8   Section        0  cmsis_os.o(i.inHandlerMode)
    inHandlerMode                            0x080024d9   Thumb Code    12  cmsis_os.o(i.inHandlerMode)
    i.initialize_servo                       0x080024e4   Section        0  servo.o(i.initialize_servo)
    i.left_steel                             0x08002534   Section        0  motor.o(i.left_steel)
    i.left_wheel_backward                    0x08002550   Section        0  motor.o(i.left_wheel_backward)
    i.left_wheel_forward                     0x08002578   Section        0  motor.o(i.left_wheel_forward)
    i.main                                   0x080025a0   Section        0  main.o(i.main)
    i.makeFreeRtosPriority                   0x0800270c   Section        0  cmsis_os.o(i.makeFreeRtosPriority)
    makeFreeRtosPriority                     0x0800270d   Thumb Code    12  cmsis_os.o(i.makeFreeRtosPriority)
    i.osDelay                                0x08002718   Section        0  cmsis_os.o(i.osDelay)
    i.osKernelStart                          0x08002726   Section        0  cmsis_os.o(i.osKernelStart)
    i.osMessageCreate                        0x08002730   Section        0  cmsis_os.o(i.osMessageCreate)
    i.osMessageGet                           0x08002758   Section        0  cmsis_os.o(i.osMessageGet)
    i.osMessagePut                           0x080027ec   Section        0  cmsis_os.o(i.osMessagePut)
    i.osMessageWaiting                       0x08002848   Section        0  cmsis_os.o(i.osMessageWaiting)
    i.osSemaphoreCreate                      0x08002866   Section        0  cmsis_os.o(i.osSemaphoreCreate)
    i.osSemaphoreRelease                     0x080028a4   Section        0  cmsis_os.o(i.osSemaphoreRelease)
    i.osSemaphoreWait                        0x080028f4   Section        0  cmsis_os.o(i.osSemaphoreWait)
    i.osThreadCreate                         0x08002958   Section        0  cmsis_os.o(i.osThreadCreate)
    i.osThreadTerminate                      0x080029ac   Section        0  cmsis_os.o(i.osThreadTerminate)
    i.prvAddCurrentTaskToDelayedList         0x080029b8   Section        0  tasks.o(i.prvAddCurrentTaskToDelayedList)
    prvAddCurrentTaskToDelayedList           0x080029b9   Thumb Code   102  tasks.o(i.prvAddCurrentTaskToDelayedList)
    i.prvAddNewTaskToReadyList               0x08002a28   Section        0  tasks.o(i.prvAddNewTaskToReadyList)
    prvAddNewTaskToReadyList                 0x08002a29   Thumb Code   194  tasks.o(i.prvAddNewTaskToReadyList)
    i.prvCopyDataFromQueue                   0x08002af8   Section        0  queue.o(i.prvCopyDataFromQueue)
    prvCopyDataFromQueue                     0x08002af9   Thumb Code    38  queue.o(i.prvCopyDataFromQueue)
    i.prvCopyDataToQueue                     0x08002b1e   Section        0  queue.o(i.prvCopyDataToQueue)
    prvCopyDataToQueue                       0x08002b1f   Thumb Code   108  queue.o(i.prvCopyDataToQueue)
    i.prvDeleteTCB                           0x08002b8a   Section        0  tasks.o(i.prvDeleteTCB)
    prvDeleteTCB                             0x08002b8b   Thumb Code    52  tasks.o(i.prvDeleteTCB)
    i.prvHeapInit                            0x08002bc0   Section        0  heap_4.o(i.prvHeapInit)
    prvHeapInit                              0x08002bc1   Thumb Code    66  heap_4.o(i.prvHeapInit)
    i.prvIdleTask                            0x08002c0c   Section        0  tasks.o(i.prvIdleTask)
    prvIdleTask                              0x08002c0d   Thumb Code    82  tasks.o(i.prvIdleTask)
    i.prvInitialiseNewQueue                  0x08002c6c   Section        0  queue.o(i.prvInitialiseNewQueue)
    prvInitialiseNewQueue                    0x08002c6d   Thumb Code    22  queue.o(i.prvInitialiseNewQueue)
    i.prvInitialiseNewTask                   0x08002c82   Section        0  tasks.o(i.prvInitialiseNewTask)
    prvInitialiseNewTask                     0x08002c83   Thumb Code   142  tasks.o(i.prvInitialiseNewTask)
    i.prvInsertBlockIntoFreeList             0x08002d10   Section        0  heap_4.o(i.prvInsertBlockIntoFreeList)
    prvInsertBlockIntoFreeList               0x08002d11   Thumb Code    72  heap_4.o(i.prvInsertBlockIntoFreeList)
    i.prvIsQueueEmpty                        0x08002d5c   Section        0  queue.o(i.prvIsQueueEmpty)
    prvIsQueueEmpty                          0x08002d5d   Thumb Code    28  queue.o(i.prvIsQueueEmpty)
    i.prvResetNextTaskUnblockTime            0x08002d78   Section        0  tasks.o(i.prvResetNextTaskUnblockTime)
    prvResetNextTaskUnblockTime              0x08002d79   Thumb Code    26  tasks.o(i.prvResetNextTaskUnblockTime)
    i.prvTaskExitError                       0x08002d98   Section        0  port.o(i.prvTaskExitError)
    prvTaskExitError                         0x08002d99   Thumb Code    36  port.o(i.prvTaskExitError)
    i.prvUnlockQueue                         0x08002dc0   Section        0  queue.o(i.prvUnlockQueue)
    prvUnlockQueue                           0x08002dc1   Thumb Code   106  queue.o(i.prvUnlockQueue)
    i.pvPortMalloc                           0x08002e2c   Section        0  heap_4.o(i.pvPortMalloc)
    i.pvTaskIncrementMutexHeldCount          0x08002f04   Section        0  tasks.o(i.pvTaskIncrementMutexHeldCount)
    i.pxPortInitialiseStack                  0x08002f1c   Section        0  port.o(i.pxPortInitialiseStack)
    i.read_one_frame                         0x08002f40   Section        0  lidar.o(i.read_one_frame)
    i.right_steel                            0x08002fe8   Section        0  motor.o(i.right_steel)
    i.right_wheel_backward                   0x08003004   Section        0  motor.o(i.right_wheel_backward)
    i.right_wheel_forward                    0x08003030   Section        0  motor.o(i.right_wheel_forward)
    i.spin_servo                             0x08003058   Section        0  servo.o(i.spin_servo)
    i.turn                                   0x0800309c   Section        0  motor.o(i.turn)
    i.uxListRemove                           0x080030c8   Section        0  list.o(i.uxListRemove)
    i.uxQueueMessagesWaiting                 0x080030ee   Section        0  queue.o(i.uxQueueMessagesWaiting)
    i.uxQueueMessagesWaitingFromISR          0x08003112   Section        0  queue.o(i.uxQueueMessagesWaitingFromISR)
    i.vApplicationGetIdleTaskMemory          0x08003128   Section        0  freertos.o(i.vApplicationGetIdleTaskMemory)
    i.vListInitialise                        0x0800313c   Section        0  list.o(i.vListInitialise)
    i.vListInitialiseItem                    0x08003152   Section        0  list.o(i.vListInitialiseItem)
    i.vListInsert                            0x08003158   Section        0  list.o(i.vListInsert)
    i.vListInsertEnd                         0x08003188   Section        0  list.o(i.vListInsertEnd)
    i.vPortEnterCritical                     0x080031a0   Section        0  port.o(i.vPortEnterCritical)
    i.vPortExitCritical                      0x080031e0   Section        0  port.o(i.vPortExitCritical)
    i.vPortFree                              0x08003208   Section        0  heap_4.o(i.vPortFree)
    i.vPortSetupTimerInterrupt               0x08003264   Section        0  port.o(i.vPortSetupTimerInterrupt)
    i.vPortValidateInterruptPriority         0x08003288   Section        0  port.o(i.vPortValidateInterruptPriority)
    i.vTaskDelay                             0x080032dc   Section        0  tasks.o(i.vTaskDelay)
    i.vTaskDelete                            0x08003328   Section        0  tasks.o(i.vTaskDelete)
    i.vTaskInternalSetTimeOutState           0x080033d4   Section        0  tasks.o(i.vTaskInternalSetTimeOutState)
    i.vTaskMissedYield                       0x080033e4   Section        0  tasks.o(i.vTaskMissedYield)
    i.vTaskPlaceOnEventList                  0x080033f0   Section        0  tasks.o(i.vTaskPlaceOnEventList)
    i.vTaskPriorityDisinheritAfterTimeout    0x08003420   Section        0  tasks.o(i.vTaskPriorityDisinheritAfterTimeout)
    i.vTaskStartScheduler                    0x080034c8   Section        0  tasks.o(i.vTaskStartScheduler)
    i.vTaskSuspendAll                        0x08003534   Section        0  tasks.o(i.vTaskSuspendAll)
    i.vTaskSwitchContext                     0x08003544   Section        0  tasks.o(i.vTaskSwitchContext)
    i.xPortStartScheduler                    0x080035a0   Section        0  port.o(i.xPortStartScheduler)
    i.xQueueGenericCreate                    0x08003648   Section        0  queue.o(i.xQueueGenericCreate)
    i.xQueueGenericCreateStatic              0x08003690   Section        0  queue.o(i.xQueueGenericCreateStatic)
    i.xQueueGenericReset                     0x080036f8   Section        0  queue.o(i.xQueueGenericReset)
    i.xQueueGenericSend                      0x08003780   Section        0  queue.o(i.xQueueGenericSend)
    i.xQueueGenericSendFromISR               0x080038e0   Section        0  queue.o(i.xQueueGenericSendFromISR)
    i.xQueueGiveFromISR                      0x0800399c   Section        0  queue.o(i.xQueueGiveFromISR)
    i.xQueueReceive                          0x08003a38   Section        0  queue.o(i.xQueueReceive)
    i.xQueueReceiveFromISR                   0x08003b70   Section        0  queue.o(i.xQueueReceiveFromISR)
    i.xQueueSemaphoreTake                    0x08003c0c   Section        0  queue.o(i.xQueueSemaphoreTake)
    i.xTaskCheckForTimeOut                   0x08003d84   Section        0  tasks.o(i.xTaskCheckForTimeOut)
    i.xTaskCreate                            0x08003df8   Section        0  tasks.o(i.xTaskCreate)
    i.xTaskCreateStatic                      0x08003e52   Section        0  tasks.o(i.xTaskCreateStatic)
    i.xTaskGetSchedulerState                 0x08003ea8   Section        0  tasks.o(i.xTaskGetSchedulerState)
    i.xTaskIncrementTick                     0x08003ec4   Section        0  tasks.o(i.xTaskIncrementTick)
    i.xTaskPriorityDisinherit                0x08003f8c   Section        0  tasks.o(i.xTaskPriorityDisinherit)
    i.xTaskPriorityInherit                   0x08004024   Section        0  tasks.o(i.xTaskPriorityInherit)
    i.xTaskRemoveFromEventList               0x080040b8   Section        0  tasks.o(i.xTaskRemoveFromEventList)
    i.xTaskResumeAll                         0x0800412c   Section        0  tasks.o(i.xTaskResumeAll)
    .constdata                               0x080041f0   Section      196  main.o(.constdata)
    .constdata                               0x080042b4   Section       16  system_stm32f1xx.o(.constdata)
    .constdata                               0x080042c4   Section        8  system_stm32f1xx.o(.constdata)
    .conststring                             0x080042cc   Section       67  main.o(.conststring)
    .data                                    0x20000000   Section       49  main.o(.data)
    initial_array_fill_flag                  0x20000001   Data           1  main.o(.data)
    deducted_obstacle_array                  0x2000002c   Data           5  main.o(.data)
    .data                                    0x20000034   Section       12  stm32f1xx_hal.o(.data)
    .data                                    0x20000040   Section        4  system_stm32f1xx.o(.data)
    .data                                    0x20000044   Section       60  tasks.o(.data)
    pxDelayedTaskList                        0x20000048   Data           4  tasks.o(.data)
    pxOverflowDelayedTaskList                0x2000004c   Data           4  tasks.o(.data)
    uxDeletedTasksWaitingCleanUp             0x20000050   Data           4  tasks.o(.data)
    uxCurrentNumberOfTasks                   0x20000054   Data           4  tasks.o(.data)
    xTickCount                               0x20000058   Data           4  tasks.o(.data)
    uxTopReadyPriority                       0x2000005c   Data           4  tasks.o(.data)
    xSchedulerRunning                        0x20000060   Data           4  tasks.o(.data)
    uxPendedTicks                            0x20000064   Data           4  tasks.o(.data)
    xYieldPending                            0x20000068   Data           4  tasks.o(.data)
    xNumOfOverflows                          0x2000006c   Data           4  tasks.o(.data)
    uxTaskNumber                             0x20000070   Data           4  tasks.o(.data)
    xNextTaskUnblockTime                     0x20000074   Data           4  tasks.o(.data)
    xIdleTaskHandle                          0x20000078   Data           4  tasks.o(.data)
    uxSchedulerSuspended                     0x2000007c   Data           4  tasks.o(.data)
    .data                                    0x20000080   Section       24  heap_4.o(.data)
    pxEnd                                    0x20000080   Data           4  heap_4.o(.data)
    xFreeBytesRemaining                      0x20000084   Data           4  heap_4.o(.data)
    xMinimumEverFreeBytesRemaining           0x20000088   Data           4  heap_4.o(.data)
    xBlockAllocatedBit                       0x2000008c   Data           4  heap_4.o(.data)
    xStart                                   0x20000090   Data           8  heap_4.o(.data)
    .data                                    0x20000098   Section       12  port.o(.data)
    ucMaxSysCallPriority                     0x20000098   Data           1  port.o(.data)
    uxCriticalNesting                        0x2000009c   Data           4  port.o(.data)
    ulMaxPRIGROUPValue                       0x200000a0   Data           4  port.o(.data)
    .data                                    0x200000a4   Section        1  util.o(.data)
    .data                                    0x200000a5   Section        1  servo.o(.data)
    .data                                    0x200000a6   Section        1  servo.o(.data)
    .data                                    0x200000a7   Section        1  servo.o(.data)
    .data                                    0x200000a8   Section        1  servo.o(.data)
    .data                                    0x200000a9   Section        4  lidar.o(.data)
    .data                                    0x200000ad   Section        9  lidar.o(.data)
    .data                                    0x200000b6   Section        2  lidar.o(.data)
    .data                                    0x200000b8   Section        4  stdout.o(.data)
    .bss                                     0x200000bc   Section      316  main.o(.bss)
    obstacle_array                           0x200000bc   Data          40  main.o(.bss)
    obstacle_array_bitmask                   0x200000e4   Data          20  main.o(.bss)
    .bss                                     0x200001f8   Section      596  freertos.o(.bss)
    xIdleTaskTCBBuffer                       0x200001f8   Data          84  freertos.o(.bss)
    xIdleStack                               0x2000024c   Data         512  freertos.o(.bss)
    .bss                                     0x2000044c   Section       64  stm32f1xx_hal_timebase_tim.o(.bss)
    .bss                                     0x2000048c   Section      240  tasks.o(.bss)
    pxReadyTasksLists                        0x2000048c   Data         140  tasks.o(.bss)
    xDelayedTaskList1                        0x20000518   Data          20  tasks.o(.bss)
    xDelayedTaskList2                        0x2000052c   Data          20  tasks.o(.bss)
    xPendingReadyList                        0x20000540   Data          20  tasks.o(.bss)
    xTasksWaitingTermination                 0x20000554   Data          20  tasks.o(.bss)
    xSuspendedTaskList                       0x20000568   Data          20  tasks.o(.bss)
    .bss                                     0x2000057c   Section    10240  heap_4.o(.bss)
    ucHeap                                   0x2000057c   Data       10240  heap_4.o(.bss)
    STACK                                    0x20002d80   Section     1024  startup_stm32f103xe.o(STACK)

    Global Symbols

    Symbol Name                              Value     Ov Type        Size  Object(Section)

    BuildAttributes$$THM_ISAv4$P$D$K$B$S$PE$A:L22UL41UL21$X:L11$S22US41US21$IEEE1$IW$USESV6$~STKCKD$USESV7$~SHL$OSPACE$ROPI$EBA8$MICROLIB$REQ8$PRES8$EABIv2 0x00000000   Number         0  anon$$obj.o ABSOLUTE
    __ARM_use_no_argv                        0x00000000   Number         0  main.o ABSOLUTE
    _printf_a                                0x00000000   Number         0  stubs.o ABSOLUTE
    _printf_c                                0x00000000   Number         0  stubs.o ABSOLUTE
    _printf_charcount                        0x00000000   Number         0  stubs.o ABSOLUTE
    _printf_d                                0x00000000   Number         0  stubs.o ABSOLUTE
    _printf_e                                0x00000000   Number         0  stubs.o ABSOLUTE
    _printf_f                                0x00000000   Number         0  stubs.o ABSOLUTE
    _printf_flags                            0x00000000   Number         0  stubs.o ABSOLUTE
    _printf_fp_dec                           0x00000000   Number         0  stubs.o ABSOLUTE
    _printf_fp_hex                           0x00000000   Number         0  stubs.o ABSOLUTE
    _printf_g                                0x00000000   Number         0  stubs.o ABSOLUTE
    _printf_i                                0x00000000   Number         0  stubs.o ABSOLUTE
    _printf_int_dec                          0x00000000   Number         0  stubs.o ABSOLUTE
    _printf_l                                0x00000000   Number         0  stubs.o ABSOLUTE
    _printf_lc                               0x00000000   Number         0  stubs.o ABSOLUTE
    _printf_ll                               0x00000000   Number         0  stubs.o ABSOLUTE
    _printf_lld                              0x00000000   Number         0  stubs.o ABSOLUTE
    _printf_lli                              0x00000000   Number         0  stubs.o ABSOLUTE
    _printf_llo                              0x00000000   Number         0  stubs.o ABSOLUTE
    _printf_llu                              0x00000000   Number         0  stubs.o ABSOLUTE
    _printf_llx                              0x00000000   Number         0  stubs.o ABSOLUTE
    _printf_longlong_dec                     0x00000000   Number         0  stubs.o ABSOLUTE
    _printf_longlong_hex                     0x00000000   Number         0  stubs.o ABSOLUTE
    _printf_longlong_oct                     0x00000000   Number         0  stubs.o ABSOLUTE
    _printf_ls                               0x00000000   Number         0  stubs.o ABSOLUTE
    _printf_mbtowc                           0x00000000   Number         0  stubs.o ABSOLUTE
    _printf_n                                0x00000000   Number         0  stubs.o ABSOLUTE
    _printf_o                                0x00000000   Number         0  stubs.o ABSOLUTE
    _printf_p                                0x00000000   Number         0  stubs.o ABSOLUTE
    _printf_percent                          0x00000000   Number         0  stubs.o ABSOLUTE
    _printf_pre_padding                      0x00000000   Number         0  stubs.o ABSOLUTE
    _printf_return_value                     0x00000000   Number         0  stubs.o ABSOLUTE
    _printf_s                                0x00000000   Number         0  stubs.o ABSOLUTE
    _printf_sizespec                         0x00000000   Number         0  stubs.o ABSOLUTE
    _printf_str                              0x00000000   Number         0  stubs.o ABSOLUTE
    _printf_truncate_signed                  0x00000000   Number         0  stubs.o ABSOLUTE
    _printf_truncate_unsigned                0x00000000   Number         0  stubs.o ABSOLUTE
    _printf_u                                0x00000000   Number         0  stubs.o ABSOLUTE
    _printf_wc                               0x00000000   Number         0  stubs.o ABSOLUTE
    _printf_wctomb                           0x00000000   Number         0  stubs.o ABSOLUTE
    _printf_widthprec                        0x00000000   Number         0  stubs.o ABSOLUTE
    _printf_x                                0x00000000   Number         0  stubs.o ABSOLUTE
    __cpp_initialize__aeabi_                  - Undefined Weak Reference
    __cxa_finalize                            - Undefined Weak Reference
    __decompress                              - Undefined Weak Reference
    _clock_init                               - Undefined Weak Reference
    _microlib_exit                            - Undefined Weak Reference
    __Vectors_Size                           0x00000130   Number         0  startup_stm32f103xe.o ABSOLUTE
    __Vectors                                0x08000000   Data           4  startup_stm32f103xe.o(RESET)
    __Vectors_End                            0x08000130   Data           0  startup_stm32f103xe.o(RESET)
    __main                                   0x08000131   Thumb Code     0  entry.o(.ARM.Collect$$$$00000000)
    _main_stk                                0x08000131   Thumb Code     0  entry2.o(.ARM.Collect$$$$00000001)
    _main_scatterload                        0x08000135   Thumb Code     0  entry5.o(.ARM.Collect$$$$00000004)
    __main_after_scatterload                 0x08000139   Thumb Code     0  entry5.o(.ARM.Collect$$$$00000004)
    _main_clock                              0x08000139   Thumb Code     0  entry7b.o(.ARM.Collect$$$$00000008)
    _main_cpp_init                           0x08000139   Thumb Code     0  entry8b.o(.ARM.Collect$$$$0000000A)
    _main_init                               0x08000139   Thumb Code     0  entry9a.o(.ARM.Collect$$$$0000000B)
    __rt_final_cpp                           0x08000141   Thumb Code     0  entry10a.o(.ARM.Collect$$$$0000000D)
    __rt_final_exit                          0x08000141   Thumb Code     0  entry11a.o(.ARM.Collect$$$$0000000F)
    SVC_Handler                              0x08000145   Thumb Code    32  port.o(.emb_text)
    __asm___6_port_c_39a90d8d__prvStartFirstTask 0x08000169   Thumb Code    28  port.o(.emb_text)
    PendSV_Handler                           0x08000189   Thumb Code    72  port.o(.emb_text)
    vPortGetIPSR                             0x080001d5   Thumb Code     6  port.o(.emb_text)
    Reset_Handler                            0x080001dd   Thumb Code     8  startup_stm32f103xe.o(.text)
    ADC1_2_IRQHandler                        0x080001f7   Thumb Code     0  startup_stm32f103xe.o(.text)
    ADC3_IRQHandler                          0x080001f7   Thumb Code     0  startup_stm32f103xe.o(.text)
    CAN1_RX1_IRQHandler                      0x080001f7   Thumb Code     0  startup_stm32f103xe.o(.text)
    CAN1_SCE_IRQHandler                      0x080001f7   Thumb Code     0  startup_stm32f103xe.o(.text)
    DMA1_Channel1_IRQHandler                 0x080001f7   Thumb Code     0  startup_stm32f103xe.o(.text)
    DMA1_Channel2_IRQHandler                 0x080001f7   Thumb Code     0  startup_stm32f103xe.o(.text)
    DMA1_Channel3_IRQHandler                 0x080001f7   Thumb Code     0  startup_stm32f103xe.o(.text)
    DMA1_Channel4_IRQHandler                 0x080001f7   Thumb Code     0  startup_stm32f103xe.o(.text)
    DMA1_Channel5_IRQHandler                 0x080001f7   Thumb Code     0  startup_stm32f103xe.o(.text)
    DMA1_Channel6_IRQHandler                 0x080001f7   Thumb Code     0  startup_stm32f103xe.o(.text)
    DMA1_Channel7_IRQHandler                 0x080001f7   Thumb Code     0  startup_stm32f103xe.o(.text)
    DMA2_Channel1_IRQHandler                 0x080001f7   Thumb Code     0  startup_stm32f103xe.o(.text)
    DMA2_Channel2_IRQHandler                 0x080001f7   Thumb Code     0  startup_stm32f103xe.o(.text)
    DMA2_Channel3_IRQHandler                 0x080001f7   Thumb Code     0  startup_stm32f103xe.o(.text)
    DMA2_Channel4_5_IRQHandler               0x080001f7   Thumb Code     0  startup_stm32f103xe.o(.text)
    EXTI0_IRQHandler                         0x080001f7   Thumb Code     0  startup_stm32f103xe.o(.text)
    EXTI15_10_IRQHandler                     0x080001f7   Thumb Code     0  startup_stm32f103xe.o(.text)
    EXTI1_IRQHandler                         0x080001f7   Thumb Code     0  startup_stm32f103xe.o(.text)
    EXTI2_IRQHandler                         0x080001f7   Thumb Code     0  startup_stm32f103xe.o(.text)
    EXTI3_IRQHandler                         0x080001f7   Thumb Code     0  startup_stm32f103xe.o(.text)
    EXTI4_IRQHandler                         0x080001f7   Thumb Code     0  startup_stm32f103xe.o(.text)
    EXTI9_5_IRQHandler                       0x080001f7   Thumb Code     0  startup_stm32f103xe.o(.text)
    FLASH_IRQHandler                         0x080001f7   Thumb Code     0  startup_stm32f103xe.o(.text)
    FSMC_IRQHandler                          0x080001f7   Thumb Code     0  startup_stm32f103xe.o(.text)
    I2C1_ER_IRQHandler                       0x080001f7   Thumb Code     0  startup_stm32f103xe.o(.text)
    I2C1_EV_IRQHandler                       0x080001f7   Thumb Code     0  startup_stm32f103xe.o(.text)
    I2C2_ER_IRQHandler                       0x080001f7   Thumb Code     0  startup_stm32f103xe.o(.text)
    I2C2_EV_IRQHandler                       0x080001f7   Thumb Code     0  startup_stm32f103xe.o(.text)
    PVD_IRQHandler                           0x080001f7   Thumb Code     0  startup_stm32f103xe.o(.text)
    RCC_IRQHandler                           0x080001f7   Thumb Code     0  startup_stm32f103xe.o(.text)
    RTC_Alarm_IRQHandler                     0x080001f7   Thumb Code     0  startup_stm32f103xe.o(.text)
    RTC_IRQHandler                           0x080001f7   Thumb Code     0  startup_stm32f103xe.o(.text)
    SDIO_IRQHandler                          0x080001f7   Thumb Code     0  startup_stm32f103xe.o(.text)
    SPI1_IRQHandler                          0x080001f7   Thumb Code     0  startup_stm32f103xe.o(.text)
    SPI2_IRQHandler                          0x080001f7   Thumb Code     0  startup_stm32f103xe.o(.text)
    SPI3_IRQHandler                          0x080001f7   Thumb Code     0  startup_stm32f103xe.o(.text)
    TAMPER_IRQHandler                        0x080001f7   Thumb Code     0  startup_stm32f103xe.o(.text)
    TIM1_BRK_IRQHandler                      0x080001f7   Thumb Code     0  startup_stm32f103xe.o(.text)
    TIM1_CC_IRQHandler                       0x080001f7   Thumb Code     0  startup_stm32f103xe.o(.text)
    TIM1_TRG_COM_IRQHandler                  0x080001f7   Thumb Code     0  startup_stm32f103xe.o(.text)
    TIM1_UP_IRQHandler                       0x080001f7   Thumb Code     0  startup_stm32f103xe.o(.text)
    TIM2_IRQHandler                          0x080001f7   Thumb Code     0  startup_stm32f103xe.o(.text)
    TIM5_IRQHandler                          0x080001f7   Thumb Code     0  startup_stm32f103xe.o(.text)
    TIM6_IRQHandler                          0x080001f7   Thumb Code     0  startup_stm32f103xe.o(.text)
    TIM7_IRQHandler                          0x080001f7   Thumb Code     0  startup_stm32f103xe.o(.text)
    TIM8_BRK_IRQHandler                      0x080001f7   Thumb Code     0  startup_stm32f103xe.o(.text)
    TIM8_CC_IRQHandler                       0x080001f7   Thumb Code     0  startup_stm32f103xe.o(.text)
    TIM8_TRG_COM_IRQHandler                  0x080001f7   Thumb Code     0  startup_stm32f103xe.o(.text)
    TIM8_UP_IRQHandler                       0x080001f7   Thumb Code     0  startup_stm32f103xe.o(.text)
    UART4_IRQHandler                         0x080001f7   Thumb Code     0  startup_stm32f103xe.o(.text)
    UART5_IRQHandler                         0x080001f7   Thumb Code     0  startup_stm32f103xe.o(.text)
    USBWakeUp_IRQHandler                     0x080001f7   Thumb Code     0  startup_stm32f103xe.o(.text)
    USB_HP_CAN1_TX_IRQHandler                0x080001f7   Thumb Code     0  startup_stm32f103xe.o(.text)
    USB_LP_CAN1_RX0_IRQHandler               0x080001f7   Thumb Code     0  startup_stm32f103xe.o(.text)
    WWDG_IRQHandler                          0x080001f7   Thumb Code     0  startup_stm32f103xe.o(.text)
    __aeabi_llsr                             0x08000201   Thumb Code    32  llushr.o(.text)
    _ll_ushift_r                             0x08000201   Thumb Code     0  llushr.o(.text)
    __aeabi_memcpy                           0x08000221   Thumb Code    36  memcpya.o(.text)
    __aeabi_memcpy4                          0x08000221   Thumb Code     0  memcpya.o(.text)
    __aeabi_memcpy8                          0x08000221   Thumb Code     0  memcpya.o(.text)
    __aeabi_memset                           0x08000245   Thumb Code    14  memseta.o(.text)
    __aeabi_memset4                          0x08000245   Thumb Code     0  memseta.o(.text)
    __aeabi_memset8                          0x08000245   Thumb Code     0  memseta.o(.text)
    __aeabi_memclr                           0x08000253   Thumb Code     4  memseta.o(.text)
    __aeabi_memclr4                          0x08000253   Thumb Code     0  memseta.o(.text)
    __aeabi_memclr8                          0x08000253   Thumb Code     0  memseta.o(.text)
    memset                                   0x08000257   Thumb Code    18  memseta.o(.text)
    __aeabi_dmul                             0x08000269   Thumb Code   228  dmul.o(.text)
    __aeabi_ui2d                             0x0800034d   Thumb Code    26  dfltui.o(.text)
    __aeabi_d2uiz                            0x08000367   Thumb Code    50  dfixui.o(.text)
    __aeabi_uidiv                            0x08000399   Thumb Code     0  uidiv.o(.text)
    __aeabi_uidivmod                         0x08000399   Thumb Code    44  uidiv.o(.text)
    __I$use$fp                               0x080003c5   Thumb Code     0  iusefp.o(.text)
    _double_round                            0x080003c5   Thumb Code    30  depilogue.o(.text)
    _double_epilogue                         0x080003e3   Thumb Code   156  depilogue.o(.text)
    __scatterload                            0x08000481   Thumb Code    28  init.o(.text)
    __scatterload_rt2                        0x08000481   Thumb Code     0  init.o(.text)
    __aeabi_llsl                             0x080004a5   Thumb Code    30  llshl.o(.text)
    _ll_shift_l                              0x080004a5   Thumb Code     0  llshl.o(.text)
    BusFault_Handler                         0x080004c3   Thumb Code     2  stm32f1xx_it.o(i.BusFault_Handler)
    DebugMon_Handler                         0x080004c5   Thumb Code     2  stm32f1xx_it.o(i.DebugMon_Handler)
    HAL_DMA_Abort_IT                         0x080004c9   Thumb Code   296  stm32f1xx_hal_dma.o(i.HAL_DMA_Abort_IT)
    HAL_Delay                                0x080005f9   Thumb Code    32  stm32f1xx_hal.o(i.HAL_Delay)
    HAL_GPIO_Init                            0x0800061d   Thumb Code   462  stm32f1xx_hal_gpio.o(i.HAL_GPIO_Init)
    HAL_GPIO_TogglePin                       0x08000815   Thumb Code    14  stm32f1xx_hal_gpio.o(i.HAL_GPIO_TogglePin)
    HAL_GPIO_WritePin                        0x08000823   Thumb Code    10  stm32f1xx_hal_gpio.o(i.HAL_GPIO_WritePin)
    HAL_GetTick                              0x0800082d   Thumb Code     6  stm32f1xx_hal.o(i.HAL_GetTick)
    HAL_IncTick                              0x08000839   Thumb Code    12  stm32f1xx_hal.o(i.HAL_IncTick)
    HAL_Init                                 0x08000849   Thumb Code    32  stm32f1xx_hal.o(i.HAL_Init)
    HAL_InitTick                             0x0800086d   Thumb Code   100  stm32f1xx_hal_timebase_tim.o(i.HAL_InitTick)
    HAL_MspInit                              0x080008e1   Thumb Code    52  stm32f1xx_hal_msp.o(i.HAL_MspInit)
    HAL_NVIC_EnableIRQ                       0x0800091d   Thumb Code    26  stm32f1xx_hal_cortex.o(i.HAL_NVIC_EnableIRQ)
    HAL_NVIC_SetPriority                     0x08000939   Thumb Code    60  stm32f1xx_hal_cortex.o(i.HAL_NVIC_SetPriority)
    HAL_NVIC_SetPriorityGrouping             0x08000979   Thumb Code    26  stm32f1xx_hal_cortex.o(i.HAL_NVIC_SetPriorityGrouping)
    HAL_RCC_ClockConfig                      0x0800099d   Thumb Code   280  stm32f1xx_hal_rcc.o(i.HAL_RCC_ClockConfig)
    HAL_RCC_GetClockConfig                   0x08000ac9   Thumb Code    54  stm32f1xx_hal_rcc.o(i.HAL_RCC_GetClockConfig)
    HAL_RCC_GetPCLK1Freq                     0x08000b09   Thumb Code    20  stm32f1xx_hal_rcc.o(i.HAL_RCC_GetPCLK1Freq)
    HAL_RCC_GetPCLK2Freq                     0x08000b29   Thumb Code    20  stm32f1xx_hal_rcc.o(i.HAL_RCC_GetPCLK2Freq)
    HAL_RCC_GetSysClockFreq                  0x08000b49   Thumb Code    74  stm32f1xx_hal_rcc.o(i.HAL_RCC_GetSysClockFreq)
    HAL_RCC_OscConfig                        0x08000bb5   Thumb Code   778  stm32f1xx_hal_rcc.o(i.HAL_RCC_OscConfig)
    HAL_TIMEx_BreakCallback                  0x08000ed5   Thumb Code     2  stm32f1xx_hal_tim_ex.o(i.HAL_TIMEx_BreakCallback)
    HAL_TIMEx_CommutCallback                 0x08000ed7   Thumb Code     2  stm32f1xx_hal_tim_ex.o(i.HAL_TIMEx_CommutCallback)
    HAL_TIMEx_MasterConfigSynchronization    0x08000ed9   Thumb Code    66  stm32f1xx_hal_tim_ex.o(i.HAL_TIMEx_MasterConfigSynchronization)
    HAL_TIM_Base_Init                        0x08000f1b   Thumb Code    54  stm32f1xx_hal_tim.o(i.HAL_TIM_Base_Init)
    HAL_TIM_Base_MspInit                     0x08000f51   Thumb Code    50  stm32f1xx_hal_msp.o(i.HAL_TIM_Base_MspInit)
    HAL_TIM_Base_Start_IT                    0x08000f8d   Thumb Code    34  stm32f1xx_hal_tim.o(i.HAL_TIM_Base_Start_IT)
    HAL_TIM_ConfigClockSource                0x08000faf   Thumb Code   214  stm32f1xx_hal_tim.o(i.HAL_TIM_ConfigClockSource)
    HAL_TIM_IC_CaptureCallback               0x08001085   Thumb Code     2  stm32f1xx_hal_tim.o(i.HAL_TIM_IC_CaptureCallback)
    HAL_TIM_IRQHandler                       0x08001087   Thumb Code   358  stm32f1xx_hal_tim.o(i.HAL_TIM_IRQHandler)
    HAL_TIM_MspPostInit                      0x080011ed   Thumb Code    94  stm32f1xx_hal_msp.o(i.HAL_TIM_MspPostInit)
    HAL_TIM_OC_DelayElapsedCallback          0x0800125d   Thumb Code     2  stm32f1xx_hal_tim.o(i.HAL_TIM_OC_DelayElapsedCallback)
    HAL_TIM_PWM_ConfigChannel                0x0800125f   Thumb Code   208  stm32f1xx_hal_tim.o(i.HAL_TIM_PWM_ConfigChannel)
    HAL_TIM_PWM_Init                         0x0800132f   Thumb Code    54  stm32f1xx_hal_tim.o(i.HAL_TIM_PWM_Init)
    HAL_TIM_PWM_MspInit                      0x08001365   Thumb Code     2  stm32f1xx_hal_tim.o(i.HAL_TIM_PWM_MspInit)
    HAL_TIM_PWM_PulseFinishedCallback        0x08001367   Thumb Code     2  stm32f1xx_hal_tim.o(i.HAL_TIM_PWM_PulseFinishedCallback)
    HAL_TIM_PWM_Start                        0x08001369   Thumb Code    58  stm32f1xx_hal_tim.o(i.HAL_TIM_PWM_Start)
    HAL_TIM_PeriodElapsedCallback            0x080013ad   Thumb Code    14  main.o(i.HAL_TIM_PeriodElapsedCallback)
    HAL_TIM_TriggerCallback                  0x080013c1   Thumb Code     2  stm32f1xx_hal_tim.o(i.HAL_TIM_TriggerCallback)
    HAL_UART_ErrorCallback                   0x080013c3   Thumb Code     2  stm32f1xx_hal_uart.o(i.HAL_UART_ErrorCallback)
    HAL_UART_GetState                        0x080013c5   Thumb Code    10  stm32f1xx_hal_uart.o(i.HAL_UART_GetState)
    HAL_UART_IRQHandler                      0x080013d1   Thumb Code   266  stm32f1xx_hal_uart.o(i.HAL_UART_IRQHandler)
    HAL_UART_Init                            0x080014e1   Thumb Code    98  stm32f1xx_hal_uart.o(i.HAL_UART_Init)
    HAL_UART_MspInit                         0x08001545   Thumb Code   300  stm32f1xx_hal_msp.o(i.HAL_UART_MspInit)
    HAL_UART_Receive_IT                      0x0800168d   Thumb Code    82  stm32f1xx_hal_uart.o(i.HAL_UART_Receive_IT)
    HAL_UART_RxCpltCallback                  0x080016e1   Thumb Code    26  util.o(i.HAL_UART_RxCpltCallback)
    HAL_UART_Transmit                        0x08001709   Thumb Code   186  stm32f1xx_hal_uart.o(i.HAL_UART_Transmit)
    HAL_UART_TxCpltCallback                  0x080017c3   Thumb Code     2  stm32f1xx_hal_uart.o(i.HAL_UART_TxCpltCallback)
    HardFault_Handler                        0x080017c5   Thumb Code     2  stm32f1xx_it.o(i.HardFault_Handler)
    MemManage_Handler                        0x0800195d   Thumb Code     2  stm32f1xx_it.o(i.MemManage_Handler)
    NMI_Handler                              0x0800195f   Thumb Code     2  stm32f1xx_it.o(i.NMI_Handler)
    SysTick_Handler                          0x08001961   Thumb Code    38  port.o(i.SysTick_Handler)
    SystemClock_Config                       0x0800198d   Thumb Code    78  main.o(i.SystemClock_Config)
    SystemInit                               0x080019dd   Thumb Code    56  system_stm32f1xx.o(i.SystemInit)
    TIM3_IRQHandler                          0x08001a25   Thumb Code     6  stm32f1xx_it.o(i.TIM3_IRQHandler)
    TIM4_IRQHandler                          0x08001a31   Thumb Code     6  stm32f1xx_it.o(i.TIM4_IRQHandler)
    TIM_Base_SetConfig                       0x08001a3d   Thumb Code   120  stm32f1xx_hal_tim.o(i.TIM_Base_SetConfig)
    TIM_CCxChannelCmd                        0x08001ac9   Thumb Code    26  stm32f1xx_hal_tim.o(i.TIM_CCxChannelCmd)
    TIM_ETR_SetConfig                        0x08001ae3   Thumb Code    20  stm32f1xx_hal_tim.o(i.TIM_ETR_SetConfig)
    TIM_OC2_SetConfig                        0x08001b69   Thumb Code    98  stm32f1xx_hal_tim.o(i.TIM_OC2_SetConfig)
    USART1_IRQHandler                        0x08001f15   Thumb Code     6  stm32f1xx_it.o(i.USART1_IRQHandler)
    USART2_IRQHandler                        0x08001f21   Thumb Code    56  stm32f1xx_it.o(i.USART2_IRQHandler)
    USART3_IRQHandler                        0x08001f65   Thumb Code     6  stm32f1xx_it.o(i.USART3_IRQHandler)
    UsageFault_Handler                       0x08001f71   Thumb Code     2  stm32f1xx_it.o(i.UsageFault_Handler)
    __0printf$1                              0x08001f75   Thumb Code    22  printf1.o(i.__0printf$1)
    __1printf$1                              0x08001f75   Thumb Code     0  printf1.o(i.__0printf$1)
    __2printf                                0x08001f75   Thumb Code     0  printf1.o(i.__0printf$1)
    __scatterload_copy                       0x08001fb5   Thumb Code    14  handlers.o(i.__scatterload_copy)
    __scatterload_null                       0x08001fc3   Thumb Code     2  handlers.o(i.__scatterload_null)
    __scatterload_zeroinit                   0x08001fc5   Thumb Code    14  handlers.o(i.__scatterload_zeroinit)
    backward                                 0x08002129   Thumb Code    44  motor.o(i.backward)
    forward                                  0x08002165   Thumb Code    44  motor.o(i.forward)
    fputc                                    0x080021a5   Thumb Code    18  util.o(i.fputc)
    func_LED_blink                           0x080021bd   Thumb Code    26  main.o(i.func_LED_blink)
    func_initialize                          0x080021dd   Thumb Code    26  main.o(i.func_initialize)
    func_lidar                               0x080021fd   Thumb Code   456  main.o(i.func_lidar)
    func_motor                               0x080023ed   Thumb Code   138  main.o(i.func_motor)
    func_servo                               0x080024a5   Thumb Code    32  main.o(i.func_servo)
    initialize_servo                         0x080024e5   Thumb Code    78  servo.o(i.initialize_servo)
    left_steel                               0x08002535   Thumb Code    20  motor.o(i.left_steel)
    left_wheel_backward                      0x08002551   Thumb Code    32  motor.o(i.left_wheel_backward)
    left_wheel_forward                       0x08002579   Thumb Code    32  motor.o(i.left_wheel_forward)
    main                                     0x080025a1   Thumb Code   336  main.o(i.main)
    osDelay                                  0x08002719   Thumb Code    14  cmsis_os.o(i.osDelay)
    osKernelStart                            0x08002727   Thumb Code    10  cmsis_os.o(i.osKernelStart)
    osMessageCreate                          0x08002731   Thumb Code    38  cmsis_os.o(i.osMessageCreate)
    osMessageGet                             0x08002759   Thumb Code   144  cmsis_os.o(i.osMessageGet)
    osMessagePut                             0x080027ed   Thumb Code    86  cmsis_os.o(i.osMessagePut)
    osMessageWaiting                         0x08002849   Thumb Code    30  cmsis_os.o(i.osMessageWaiting)
    osSemaphoreCreate                        0x08002867   Thumb Code    62  cmsis_os.o(i.osSemaphoreCreate)
    osSemaphoreRelease                       0x080028a5   Thumb Code    74  cmsis_os.o(i.osSemaphoreRelease)
    osSemaphoreWait                          0x080028f5   Thumb Code    96  cmsis_os.o(i.osSemaphoreWait)
    osThreadCreate                           0x08002959   Thumb Code    84  cmsis_os.o(i.osThreadCreate)
    osThreadTerminate                        0x080029ad   Thumb Code    10  cmsis_os.o(i.osThreadTerminate)
    pvPortMalloc                             0x08002e2d   Thumb Code   210  heap_4.o(i.pvPortMalloc)
    pvTaskIncrementMutexHeldCount            0x08002f05   Thumb Code    18  tasks.o(i.pvTaskIncrementMutexHeldCount)
    pxPortInitialiseStack                    0x08002f1d   Thumb Code    32  port.o(i.pxPortInitialiseStack)
    read_one_frame                           0x08002f41   Thumb Code   160  lidar.o(i.read_one_frame)
    right_steel                              0x08002fe9   Thumb Code    20  motor.o(i.right_steel)
    right_wheel_backward                     0x08003005   Thumb Code    34  motor.o(i.right_wheel_backward)
    right_wheel_forward                      0x08003031   Thumb Code    32  motor.o(i.right_wheel_forward)
    spin_servo                               0x08003059   Thumb Code    64  servo.o(i.spin_servo)
    turn                                     0x0800309d   Thumb Code    38  motor.o(i.turn)
    uxListRemove                             0x080030c9   Thumb Code    38  list.o(i.uxListRemove)
    uxQueueMessagesWaiting                   0x080030ef   Thumb Code    36  queue.o(i.uxQueueMessagesWaiting)
    uxQueueMessagesWaitingFromISR            0x08003113   Thumb Code    22  queue.o(i.uxQueueMessagesWaitingFromISR)
    vApplicationGetIdleTaskMemory            0x08003129   Thumb Code    16  freertos.o(i.vApplicationGetIdleTaskMemory)
    vListInitialise                          0x0800313d   Thumb Code    22  list.o(i.vListInitialise)
    vListInitialiseItem                      0x08003153   Thumb Code     6  list.o(i.vListInitialiseItem)
    vListInsert                              0x08003159   Thumb Code    48  list.o(i.vListInsert)
    vListInsertEnd                           0x08003189   Thumb Code    24  list.o(i.vListInsertEnd)
    vPortEnterCritical                       0x080031a1   Thumb Code    54  port.o(i.vPortEnterCritical)
    vPortExitCritical                        0x080031e1   Thumb Code    34  port.o(i.vPortExitCritical)
    vPortFree                                0x08003209   Thumb Code    88  heap_4.o(i.vPortFree)
    vPortSetupTimerInterrupt                 0x08003265   Thumb Code    32  port.o(i.vPortSetupTimerInterrupt)
    vPortValidateInterruptPriority           0x08003289   Thumb Code    74  port.o(i.vPortValidateInterruptPriority)
    vTaskDelay                               0x080032dd   Thumb Code    66  tasks.o(i.vTaskDelay)
    vTaskDelete                              0x08003329   Thumb Code   158  tasks.o(i.vTaskDelete)
    vTaskInternalSetTimeOutState             0x080033d5   Thumb Code    12  tasks.o(i.vTaskInternalSetTimeOutState)
    vTaskMissedYield                         0x080033e5   Thumb Code     8  tasks.o(i.vTaskMissedYield)
    vTaskPlaceOnEventList                    0x080033f1   Thumb Code    44  tasks.o(i.vTaskPlaceOnEventList)
    vTaskPriorityDisinheritAfterTimeout      0x08003421   Thumb Code   160  tasks.o(i.vTaskPriorityDisinheritAfterTimeout)
    vTaskStartScheduler                      0x080034c9   Thumb Code    90  tasks.o(i.vTaskStartScheduler)
    vTaskSuspendAll                          0x08003535   Thumb Code    10  tasks.o(i.vTaskSuspendAll)
    vTaskSwitchContext                       0x08003545   Thumb Code    82  tasks.o(i.vTaskSwitchContext)
    xPortStartScheduler                      0x080035a1   Thumb Code   154  port.o(i.xPortStartScheduler)
    xQueueGenericCreate                      0x08003649   Thumb Code    72  queue.o(i.xQueueGenericCreate)
    xQueueGenericCreateStatic                0x08003691   Thumb Code   102  queue.o(i.xQueueGenericCreateStatic)
    xQueueGenericReset                       0x080036f9   Thumb Code   132  queue.o(i.xQueueGenericReset)
    xQueueGenericSend                        0x08003781   Thumb Code   346  queue.o(i.xQueueGenericSend)
    xQueueGenericSendFromISR                 0x080038e1   Thumb Code   188  queue.o(i.xQueueGenericSendFromISR)
    xQueueGiveFromISR                        0x0800399d   Thumb Code   156  queue.o(i.xQueueGiveFromISR)
    xQueueReceive                            0x08003a39   Thumb Code   308  queue.o(i.xQueueReceive)
    xQueueReceiveFromISR                     0x08003b71   Thumb Code   154  queue.o(i.xQueueReceiveFromISR)
    xQueueSemaphoreTake                      0x08003c0d   Thumb Code   372  queue.o(i.xQueueSemaphoreTake)
    xTaskCheckForTimeOut                     0x08003d85   Thumb Code   112  tasks.o(i.xTaskCheckForTimeOut)
    xTaskCreate                              0x08003df9   Thumb Code    90  tasks.o(i.xTaskCreate)
    xTaskCreateStatic                        0x08003e53   Thumb Code    86  tasks.o(i.xTaskCreateStatic)
    xTaskGetSchedulerState                   0x08003ea9   Thumb Code    22  tasks.o(i.xTaskGetSchedulerState)
    xTaskIncrementTick                       0x08003ec5   Thumb Code   192  tasks.o(i.xTaskIncrementTick)
    xTaskPriorityDisinherit                  0x08003f8d   Thumb Code   144  tasks.o(i.xTaskPriorityDisinherit)
    xTaskPriorityInherit                     0x08004025   Thumb Code   138  tasks.o(i.xTaskPriorityInherit)
    xTaskRemoveFromEventList                 0x080040b9   Thumb Code   108  tasks.o(i.xTaskRemoveFromEventList)
    xTaskResumeAll                           0x0800412d   Thumb Code   182  tasks.o(i.xTaskResumeAll)
    avoid_params                             0x080041f0   Data           6  main.o(.constdata)
    AHBPrescTable                            0x080042b4   Data          16  system_stm32f1xx.o(.constdata)
    APBPrescTable                            0x080042c4   Data           8  system_stm32f1xx.o(.constdata)
    Region$$Table$$Base                      0x08004310   Number         0  anon$$obj.o(Region$$Table)
    Region$$Table$$Limit                     0x08004330   Number         0  anon$$obj.o(Region$$Table)
    ZONE_FLAG                                0x20000000   Data           1  main.o(.data)
    task_LED_blinkHandle                     0x20000004   Data           4  main.o(.data)
    task_motorHandle                         0x20000008   Data           4  main.o(.data)
    task_initializeHandle                    0x2000000c   Data           4  main.o(.data)
    task_servoHandle                         0x20000010   Data           4  main.o(.data)
    task_lidarHandle                         0x20000014   Data           4  main.o(.data)
    byte_form_data_queueHandle               0x20000018   Data           4  main.o(.data)
    min_dist_queueHandle                     0x2000001c   Data           4  main.o(.data)
    lidar_data_transmission_queueHandle      0x20000020   Data           4  main.o(.data)
    servo_moved_flagHandle                   0x20000024   Data           4  main.o(.data)
    initial_array_fill_flagHandle            0x20000028   Data           4  main.o(.data)
    uwTickFreq                               0x20000034   Data           1  stm32f1xx_hal.o(.data)
    uwTickPrio                               0x20000038   Data           4  stm32f1xx_hal.o(.data)
    uwTick                                   0x2000003c   Data           4  stm32f1xx_hal.o(.data)
    SystemCoreClock                          0x20000040   Data           4  system_stm32f1xx.o(.data)
    pxCurrentTCB                             0x20000044   Data           4  tasks.o(.data)
    aRxBuffer                                0x200000a4   Data           1  util.o(.data)
    start_angle_pos                          0x200000a5   Data           1  servo.o(.data)
    end_angle_pos                            0x200000a6   Data           1  servo.o(.data)
    servo_pos                                0x200000a7   Data           1  servo.o(.data)
    direction                                0x200000a8   Data           1  servo.o(.data)
    read_command                             0x200000a9   Data           4  lidar.o(.data)
    frame_data                               0x200000ad   Data           9  lidar.o(.data)
    lidar_distance                           0x200000b6   Data           2  lidar.o(.data)
    __stdout                                 0x200000b8   Data           4  stdout.o(.data)
    htim3                                    0x200000f8   Data          64  main.o(.bss)
    huart1                                   0x20000138   Data          64  main.o(.bss)
    huart2                                   0x20000178   Data          64  main.o(.bss)
    huart3                                   0x200001b8   Data          64  main.o(.bss)
    htim4                                    0x2000044c   Data          64  stm32f1xx_hal_timebase_tim.o(.bss)
    __initial_sp                             0x20003180   Data           0  startup_stm32f103xe.o(STACK)



==============================================================================

Memory Map of the image

  Image Entry point : 0x08000131

  Load Region LR_IROM1 (Base: 0x08000000, Size: 0x000043ec, Max: 0x00040000, ABSOLUTE)

    Execution Region ER_IROM1 (Exec base: 0x08000000, Load base: 0x08000000, Size: 0x00004330, Max: 0x00040000, ABSOLUTE)

    Exec Addr    Load Addr    Size         Type   Attr      Idx    E Section Name        Object

    0x08000000   0x08000000   0x00000130   Data   RO            3    RESET               startup_stm32f103xe.o
    0x08000130   0x08000130   0x00000000   Code   RO         4284  * .ARM.Collect$$$$00000000  mc_w.l(entry.o)
    0x08000130   0x08000130   0x00000004   Code   RO         4564    .ARM.Collect$$$$00000001  mc_w.l(entry2.o)
    0x08000134   0x08000134   0x00000004   Code   RO         4567    .ARM.Collect$$$$00000004  mc_w.l(entry5.o)
    0x08000138   0x08000138   0x00000000   Code   RO         4569    .ARM.Collect$$$$00000008  mc_w.l(entry7b.o)
    0x08000138   0x08000138   0x00000000   Code   RO         4571    .ARM.Collect$$$$0000000A  mc_w.l(entry8b.o)
    0x08000138   0x08000138   0x00000008   Code   RO         4572    .ARM.Collect$$$$0000000B  mc_w.l(entry9a.o)
    0x08000140   0x08000140   0x00000000   Code   RO         4574    .ARM.Collect$$$$0000000D  mc_w.l(entry10a.o)
    0x08000140   0x08000140   0x00000000   Code   RO         4576    .ARM.Collect$$$$0000000F  mc_w.l(entry11a.o)
    0x08000140   0x08000140   0x00000004   Code   RO         4565    .ARM.Collect$$$$00002712  mc_w.l(entry2.o)
    0x08000144   0x08000144   0x00000096   Code   RO         3970    .emb_text           port.o
    0x080001da   0x080001da   0x00000002   PAD
    0x080001dc   0x080001dc   0x00000024   Code   RO            4    .text               startup_stm32f103xe.o
    0x08000200   0x08000200   0x00000020   Code   RO         4287    .text               mc_w.l(llushr.o)
    0x08000220   0x08000220   0x00000024   Code   RO         4289    .text               mc_w.l(memcpya.o)
    0x08000244   0x08000244   0x00000024   Code   RO         4293    .text               mc_w.l(memseta.o)
    0x08000268   0x08000268   0x000000e4   Code   RO         4558    .text               mf_w.l(dmul.o)
    0x0800034c   0x0800034c   0x0000001a   Code   RO         4560    .text               mf_w.l(dfltui.o)
    0x08000366   0x08000366   0x00000032   Code   RO         4562    .text               mf_w.l(dfixui.o)
    0x08000398   0x08000398   0x0000002c   Code   RO         4579    .text               mc_w.l(uidiv.o)
    0x080003c4   0x080003c4   0x00000000   Code   RO         4583    .text               mc_w.l(iusefp.o)
    0x080003c4   0x080003c4   0x000000ba   Code   RO         4584    .text               mf_w.l(depilogue.o)
    0x0800047e   0x0800047e   0x00000002   PAD
    0x08000480   0x08000480   0x00000024   Code   RO         4594    .text               mc_w.l(init.o)
    0x080004a4   0x080004a4   0x0000001e   Code   RO         4596    .text               mc_w.l(llshl.o)
    0x080004c2   0x080004c2   0x00000002   Code   RO          292    i.BusFault_Handler  stm32f1xx_it.o
    0x080004c4   0x080004c4   0x00000002   Code   RO          293    i.DebugMon_Handler  stm32f1xx_it.o
    0x080004c6   0x080004c6   0x00000002   PAD
    0x080004c8   0x080004c8   0x00000130   Code   RO          896    i.HAL_DMA_Abort_IT  stm32f1xx_hal_dma.o
    0x080005f8   0x080005f8   0x00000024   Code   RO          523    i.HAL_Delay         stm32f1xx_hal.o
    0x0800061c   0x0800061c   0x000001f8   Code   RO          831    i.HAL_GPIO_Init     stm32f1xx_hal_gpio.o
    0x08000814   0x08000814   0x0000000e   Code   RO          834    i.HAL_GPIO_TogglePin  stm32f1xx_hal_gpio.o
    0x08000822   0x08000822   0x0000000a   Code   RO          835    i.HAL_GPIO_WritePin  stm32f1xx_hal_gpio.o
    0x0800082c   0x0800082c   0x0000000c   Code   RO          527    i.HAL_GetTick       stm32f1xx_hal.o
    0x08000838   0x08000838   0x00000010   Code   RO          533    i.HAL_IncTick       stm32f1xx_hal.o
    0x08000848   0x08000848   0x00000024   Code   RO          534    i.HAL_Init          stm32f1xx_hal.o
    0x0800086c   0x0800086c   0x00000074   Code   RO          441    i.HAL_InitTick      stm32f1xx_hal_timebase_tim.o
    0x080008e0   0x080008e0   0x0000003c   Code   RO          387    i.HAL_MspInit       stm32f1xx_hal_msp.o
    0x0800091c   0x0800091c   0x0000001a   Code   RO          991    i.HAL_NVIC_EnableIRQ  stm32f1xx_hal_cortex.o
    0x08000936   0x08000936   0x00000002   PAD
    0x08000938   0x08000938   0x00000040   Code   RO          997    i.HAL_NVIC_SetPriority  stm32f1xx_hal_cortex.o
    0x08000978   0x08000978   0x00000024   Code   RO          998    i.HAL_NVIC_SetPriorityGrouping  stm32f1xx_hal_cortex.o
    0x0800099c   0x0800099c   0x0000012c   Code   RO          691    i.HAL_RCC_ClockConfig  stm32f1xx_hal_rcc.o
    0x08000ac8   0x08000ac8   0x00000040   Code   RO          695    i.HAL_RCC_GetClockConfig  stm32f1xx_hal_rcc.o
    0x08000b08   0x08000b08   0x00000020   Code   RO          698    i.HAL_RCC_GetPCLK1Freq  stm32f1xx_hal_rcc.o
    0x08000b28   0x08000b28   0x00000020   Code   RO          699    i.HAL_RCC_GetPCLK2Freq  stm32f1xx_hal_rcc.o
    0x08000b48   0x08000b48   0x0000006c   Code   RO          700    i.HAL_RCC_GetSysClockFreq  stm32f1xx_hal_rcc.o
    0x08000bb4   0x08000bb4   0x00000320   Code   RO          703    i.HAL_RCC_OscConfig  stm32f1xx_hal_rcc.o
    0x08000ed4   0x08000ed4   0x00000002   Code   RO         2168    i.HAL_TIMEx_BreakCallback  stm32f1xx_hal_tim_ex.o
    0x08000ed6   0x08000ed6   0x00000002   Code   RO         2169    i.HAL_TIMEx_CommutCallback  stm32f1xx_hal_tim_ex.o
    0x08000ed8   0x08000ed8   0x00000042   Code   RO         2186    i.HAL_TIMEx_MasterConfigSynchronization  stm32f1xx_hal_tim_ex.o
    0x08000f1a   0x08000f1a   0x00000036   Code   RO         1493    i.HAL_TIM_Base_Init  stm32f1xx_hal_tim.o
    0x08000f50   0x08000f50   0x0000003c   Code   RO          389    i.HAL_TIM_Base_MspInit  stm32f1xx_hal_msp.o
    0x08000f8c   0x08000f8c   0x00000022   Code   RO         1498    i.HAL_TIM_Base_Start_IT  stm32f1xx_hal_tim.o
    0x08000fae   0x08000fae   0x000000d6   Code   RO         1502    i.HAL_TIM_ConfigClockSource  stm32f1xx_hal_tim.o
    0x08001084   0x08001084   0x00000002   Code   RO         1522    i.HAL_TIM_IC_CaptureCallback  stm32f1xx_hal_tim.o
    0x08001086   0x08001086   0x00000166   Code   RO         1536    i.HAL_TIM_IRQHandler  stm32f1xx_hal_tim.o
    0x080011ec   0x080011ec   0x00000070   Code   RO          390    i.HAL_TIM_MspPostInit  stm32f1xx_hal_msp.o
    0x0800125c   0x0800125c   0x00000002   Code   RO         1539    i.HAL_TIM_OC_DelayElapsedCallback  stm32f1xx_hal_tim.o
    0x0800125e   0x0800125e   0x000000d0   Code   RO         1560    i.HAL_TIM_PWM_ConfigChannel  stm32f1xx_hal_tim.o
    0x0800132e   0x0800132e   0x00000036   Code   RO         1563    i.HAL_TIM_PWM_Init  stm32f1xx_hal_tim.o
    0x08001364   0x08001364   0x00000002   Code   RO         1565    i.HAL_TIM_PWM_MspInit  stm32f1xx_hal_tim.o
    0x08001366   0x08001366   0x00000002   Code   RO         1566    i.HAL_TIM_PWM_PulseFinishedCallback  stm32f1xx_hal_tim.o
    0x08001368   0x08001368   0x00000044   Code   RO         1568    i.HAL_TIM_PWM_Start  stm32f1xx_hal_tim.o
    0x080013ac   0x080013ac   0x00000014   Code   RO           14    i.HAL_TIM_PeriodElapsedCallback  main.o
    0x080013c0   0x080013c0   0x00000002   Code   RO         1579    i.HAL_TIM_TriggerCallback  stm32f1xx_hal_tim.o
    0x080013c2   0x080013c2   0x00000002   Code   RO         2440    i.HAL_UART_ErrorCallback  stm32f1xx_hal_uart.o
    0x080013c4   0x080013c4   0x0000000a   Code   RO         2442    i.HAL_UART_GetState  stm32f1xx_hal_uart.o
    0x080013ce   0x080013ce   0x00000002   PAD
    0x080013d0   0x080013d0   0x00000110   Code   RO         2443    i.HAL_UART_IRQHandler  stm32f1xx_hal_uart.o
    0x080014e0   0x080014e0   0x00000062   Code   RO         2444    i.HAL_UART_Init     stm32f1xx_hal_uart.o
    0x08001542   0x08001542   0x00000002   PAD
    0x08001544   0x08001544   0x00000148   Code   RO          392    i.HAL_UART_MspInit  stm32f1xx_hal_msp.o
    0x0800168c   0x0800168c   0x00000052   Code   RO         2449    i.HAL_UART_Receive_IT  stm32f1xx_hal_uart.o
    0x080016de   0x080016de   0x00000002   PAD
    0x080016e0   0x080016e0   0x00000028   Code   RO         4050    i.HAL_UART_RxCpltCallback  util.o
    0x08001708   0x08001708   0x000000ba   Code   RO         2452    i.HAL_UART_Transmit  stm32f1xx_hal_uart.o
    0x080017c2   0x080017c2   0x00000002   Code   RO         2455    i.HAL_UART_TxCpltCallback  stm32f1xx_hal_uart.o
    0x080017c4   0x080017c4   0x00000002   Code   RO          294    i.HardFault_Handler  stm32f1xx_it.o
    0x080017c6   0x080017c6   0x00000002   PAD
    0x080017c8   0x080017c8   0x000000f8   Code   RO           15    i.MX_GPIO_Init      main.o
    0x080018c0   0x080018c0   0x0000009c   Code   RO           16    i.MX_TIM3_Init      main.o
    0x0800195c   0x0800195c   0x00000002   Code   RO          295    i.MemManage_Handler  stm32f1xx_it.o
    0x0800195e   0x0800195e   0x00000002   Code   RO          296    i.NMI_Handler       stm32f1xx_it.o
    0x08001960   0x08001960   0x0000002c   Code   RO         3971    i.SysTick_Handler   port.o
    0x0800198c   0x0800198c   0x0000004e   Code   RO           17    i.SystemClock_Config  main.o
    0x080019da   0x080019da   0x00000002   PAD
    0x080019dc   0x080019dc   0x00000048   Code   RO         2746    i.SystemInit        system_stm32f1xx.o
    0x08001a24   0x08001a24   0x0000000c   Code   RO          297    i.TIM3_IRQHandler   stm32f1xx_it.o
    0x08001a30   0x08001a30   0x0000000c   Code   RO          298    i.TIM4_IRQHandler   stm32f1xx_it.o
    0x08001a3c   0x08001a3c   0x0000008c   Code   RO         1581    i.TIM_Base_SetConfig  stm32f1xx_hal_tim.o
    0x08001ac8   0x08001ac8   0x0000001a   Code   RO         1582    i.TIM_CCxChannelCmd  stm32f1xx_hal_tim.o
    0x08001ae2   0x08001ae2   0x00000014   Code   RO         1592    i.TIM_ETR_SetConfig  stm32f1xx_hal_tim.o
    0x08001af6   0x08001af6   0x00000010   Code   RO         1593    i.TIM_ITRx_SetConfig  stm32f1xx_hal_tim.o
    0x08001b06   0x08001b06   0x00000002   PAD
    0x08001b08   0x08001b08   0x00000060   Code   RO         1594    i.TIM_OC1_SetConfig  stm32f1xx_hal_tim.o
    0x08001b68   0x08001b68   0x0000006c   Code   RO         1595    i.TIM_OC2_SetConfig  stm32f1xx_hal_tim.o
    0x08001bd4   0x08001bd4   0x00000068   Code   RO         1596    i.TIM_OC3_SetConfig  stm32f1xx_hal_tim.o
    0x08001c3c   0x08001c3c   0x00000050   Code   RO         1597    i.TIM_OC4_SetConfig  stm32f1xx_hal_tim.o
    0x08001c8c   0x08001c8c   0x00000022   Code   RO         1599    i.TIM_TI1_ConfigInputStage  stm32f1xx_hal_tim.o
    0x08001cae   0x08001cae   0x00000024   Code   RO         1601    i.TIM_TI2_ConfigInputStage  stm32f1xx_hal_tim.o
    0x08001cd2   0x08001cd2   0x00000010   Code   RO         2457    i.UART_DMAAbortOnError  stm32f1xx_hal_uart.o
    0x08001ce2   0x08001ce2   0x0000001c   Code   RO         2467    i.UART_EndRxTransfer  stm32f1xx_hal_uart.o
    0x08001cfe   0x08001cfe   0x00000096   Code   RO         2469    i.UART_Receive_IT   stm32f1xx_hal_uart.o
    0x08001d94   0x08001d94   0x000000b8   Code   RO         2470    i.UART_SetConfig    stm32f1xx_hal_uart.o
    0x08001e4c   0x08001e4c   0x00000062   Code   RO         2471    i.UART_Transmit_IT  stm32f1xx_hal_uart.o
    0x08001eae   0x08001eae   0x00000064   Code   RO         2472    i.UART_WaitOnFlagUntilTimeout  stm32f1xx_hal_uart.o
    0x08001f12   0x08001f12   0x00000002   PAD
    0x08001f14   0x08001f14   0x0000000c   Code   RO          299    i.USART1_IRQHandler  stm32f1xx_it.o
    0x08001f20   0x08001f20   0x00000044   Code   RO          300    i.USART2_IRQHandler  stm32f1xx_it.o
    0x08001f64   0x08001f64   0x0000000c   Code   RO          301    i.USART3_IRQHandler  stm32f1xx_it.o
    0x08001f70   0x08001f70   0x00000002   Code   RO          302    i.UsageFault_Handler  stm32f1xx_it.o
    0x08001f72   0x08001f72   0x00000002   PAD
    0x08001f74   0x08001f74   0x00000020   Code   RO         4342    i.__0printf$1       mc_w.l(printf1.o)
    0x08001f94   0x08001f94   0x00000020   Code   RO         1004    i.__NVIC_SetPriority  stm32f1xx_hal_cortex.o
    0x08001fb4   0x08001fb4   0x0000000e   Code   RO         4602    i.__scatterload_copy  mc_w.l(handlers.o)
    0x08001fc2   0x08001fc2   0x00000002   Code   RO         4603    i.__scatterload_null  mc_w.l(handlers.o)
    0x08001fc4   0x08001fc4   0x0000000e   Code   RO         4604    i.__scatterload_zeroinit  mc_w.l(handlers.o)
    0x08001fd2   0x08001fd2   0x00000002   PAD
    0x08001fd4   0x08001fd4   0x00000154   Code   RO         4349    i._printf_core      mc_w.l(printf1.o)
    0x08002128   0x08002128   0x0000003c   Code   RO         4110    i.backward          motor.o
    0x08002164   0x08002164   0x00000040   Code   RO         4111    i.forward           motor.o
    0x080021a4   0x080021a4   0x00000018   Code   RO         4051    i.fputc             util.o
    0x080021bc   0x080021bc   0x00000020   Code   RO           18    i.func_LED_blink    main.o
    0x080021dc   0x080021dc   0x00000020   Code   RO           19    i.func_initialize   main.o
    0x080021fc   0x080021fc   0x000001f0   Code   RO           20    i.func_lidar        main.o
    0x080023ec   0x080023ec   0x000000b8   Code   RO           21    i.func_motor        main.o
    0x080024a4   0x080024a4   0x00000034   Code   RO           22    i.func_servo        main.o
    0x080024d8   0x080024d8   0x0000000c   Code   RO         3540    i.inHandlerMode     cmsis_os.o
    0x080024e4   0x080024e4   0x0000004e   Code   RO         4205    i.initialize_servo  servo.o
    0x08002532   0x08002532   0x00000002   PAD
    0x08002534   0x08002534   0x0000001c   Code   RO         4112    i.left_steel        motor.o
    0x08002550   0x08002550   0x00000028   Code   RO         4113    i.left_wheel_backward  motor.o
    0x08002578   0x08002578   0x00000028   Code   RO         4114    i.left_wheel_forward  motor.o
    0x080025a0   0x080025a0   0x0000016c   Code   RO           23    i.main              main.o
    0x0800270c   0x0800270c   0x0000000c   Code   RO         3542    i.makeFreeRtosPriority  cmsis_os.o
    0x08002718   0x08002718   0x0000000e   Code   RO         3544    i.osDelay           cmsis_os.o
    0x08002726   0x08002726   0x0000000a   Code   RO         3547    i.osKernelStart     cmsis_os.o
    0x08002730   0x08002730   0x00000026   Code   RO         3556    i.osMessageCreate   cmsis_os.o
    0x08002756   0x08002756   0x00000002   PAD
    0x08002758   0x08002758   0x00000094   Code   RO         3558    i.osMessageGet      cmsis_os.o
    0x080027ec   0x080027ec   0x0000005c   Code   RO         3560    i.osMessagePut      cmsis_os.o
    0x08002848   0x08002848   0x0000001e   Code   RO         3561    i.osMessageWaiting  cmsis_os.o
    0x08002866   0x08002866   0x0000003e   Code   RO         3573    i.osSemaphoreCreate  cmsis_os.o
    0x080028a4   0x080028a4   0x00000050   Code   RO         3576    i.osSemaphoreRelease  cmsis_os.o
    0x080028f4   0x080028f4   0x00000064   Code   RO         3577    i.osSemaphoreWait   cmsis_os.o
    0x08002958   0x08002958   0x00000054   Code   RO         3581    i.osThreadCreate    cmsis_os.o
    0x080029ac   0x080029ac   0x0000000a   Code   RO         3590    i.osThreadTerminate  cmsis_os.o
    0x080029b6   0x080029b6   0x00000002   PAD
    0x080029b8   0x080029b8   0x00000070   Code   RO         3239    i.prvAddCurrentTaskToDelayedList  tasks.o
    0x08002a28   0x08002a28   0x000000d0   Code   RO         3240    i.prvAddNewTaskToReadyList  tasks.o
    0x08002af8   0x08002af8   0x00000026   Code   RO         2924    i.prvCopyDataFromQueue  queue.o
    0x08002b1e   0x08002b1e   0x0000006c   Code   RO         2925    i.prvCopyDataToQueue  queue.o
    0x08002b8a   0x08002b8a   0x00000034   Code   RO         3241    i.prvDeleteTCB      tasks.o
    0x08002bbe   0x08002bbe   0x00000002   PAD
    0x08002bc0   0x08002bc0   0x0000004c   Code   RO         3909    i.prvHeapInit       heap_4.o
    0x08002c0c   0x08002c0c   0x00000060   Code   RO         3242    i.prvIdleTask       tasks.o
    0x08002c6c   0x08002c6c   0x00000016   Code   RO         2927    i.prvInitialiseNewQueue  queue.o
    0x08002c82   0x08002c82   0x0000008e   Code   RO         3243    i.prvInitialiseNewTask  tasks.o
    0x08002d10   0x08002d10   0x0000004c   Code   RO         3910    i.prvInsertBlockIntoFreeList  heap_4.o
    0x08002d5c   0x08002d5c   0x0000001c   Code   RO         2928    i.prvIsQueueEmpty   queue.o
    0x08002d78   0x08002d78   0x00000020   Code   RO         3244    i.prvResetNextTaskUnblockTime  tasks.o
    0x08002d98   0x08002d98   0x00000028   Code   RO         3972    i.prvTaskExitError  port.o
    0x08002dc0   0x08002dc0   0x0000006a   Code   RO         2929    i.prvUnlockQueue    queue.o
    0x08002e2a   0x08002e2a   0x00000002   PAD
    0x08002e2c   0x08002e2c   0x000000d8   Code   RO         3911    i.pvPortMalloc      heap_4.o
    0x08002f04   0x08002f04   0x00000018   Code   RO         3246    i.pvTaskIncrementMutexHeldCount  tasks.o
    0x08002f1c   0x08002f1c   0x00000024   Code   RO         3973    i.pxPortInitialiseStack  port.o
    0x08002f40   0x08002f40   0x000000a8   Code   RO         4255    i.read_one_frame    lidar.o
    0x08002fe8   0x08002fe8   0x0000001c   Code   RO         4116    i.right_steel       motor.o
    0x08003004   0x08003004   0x0000002c   Code   RO         4117    i.right_wheel_backward  motor.o
    0x08003030   0x08003030   0x00000028   Code   RO         4118    i.right_wheel_forward  motor.o
    0x08003058   0x08003058   0x00000044   Code   RO         4206    i.spin_servo        servo.o
    0x0800309c   0x0800309c   0x0000002c   Code   RO         4121    i.turn              motor.o
    0x080030c8   0x080030c8   0x00000026   Code   RO         2884    i.uxListRemove      list.o
    0x080030ee   0x080030ee   0x00000024   Code   RO         2930    i.uxQueueMessagesWaiting  queue.o
    0x08003112   0x08003112   0x00000016   Code   RO         2931    i.uxQueueMessagesWaitingFromISR  queue.o
    0x08003128   0x08003128   0x00000014   Code   RO          251    i.vApplicationGetIdleTaskMemory  freertos.o
    0x0800313c   0x0800313c   0x00000016   Code   RO         2885    i.vListInitialise   list.o
    0x08003152   0x08003152   0x00000006   Code   RO         2886    i.vListInitialiseItem  list.o
    0x08003158   0x08003158   0x00000030   Code   RO         2887    i.vListInsert       list.o
    0x08003188   0x08003188   0x00000018   Code   RO         2888    i.vListInsertEnd    list.o
    0x080031a0   0x080031a0   0x00000040   Code   RO         3975    i.vPortEnterCritical  port.o
    0x080031e0   0x080031e0   0x00000028   Code   RO         3976    i.vPortExitCritical  port.o
    0x08003208   0x08003208   0x0000005c   Code   RO         3912    i.vPortFree         heap_4.o
    0x08003264   0x08003264   0x00000024   Code   RO         3977    i.vPortSetupTimerInterrupt  port.o
    0x08003288   0x08003288   0x00000054   Code   RO         3978    i.vPortValidateInterruptPriority  port.o
    0x080032dc   0x080032dc   0x0000004c   Code   RO         3252    i.vTaskDelay        tasks.o
    0x08003328   0x08003328   0x000000ac   Code   RO         3253    i.vTaskDelete       tasks.o
    0x080033d4   0x080033d4   0x00000010   Code   RO         3255    i.vTaskInternalSetTimeOutState  tasks.o
    0x080033e4   0x080033e4   0x0000000c   Code   RO         3256    i.vTaskMissedYield  tasks.o
    0x080033f0   0x080033f0   0x00000030   Code   RO         3258    i.vTaskPlaceOnEventList  tasks.o
    0x08003420   0x08003420   0x000000a8   Code   RO         3260    i.vTaskPriorityDisinheritAfterTimeout  tasks.o
    0x080034c8   0x080034c8   0x0000006c   Code   RO         3265    i.vTaskStartScheduler  tasks.o
    0x08003534   0x08003534   0x00000010   Code   RO         3267    i.vTaskSuspendAll   tasks.o
    0x08003544   0x08003544   0x0000005c   Code   RO         3268    i.vTaskSwitchContext  tasks.o
    0x080035a0   0x080035a0   0x000000a8   Code   RO         3979    i.xPortStartScheduler  port.o
    0x08003648   0x08003648   0x00000048   Code   RO         2938    i.xQueueGenericCreate  queue.o
    0x08003690   0x08003690   0x00000066   Code   RO         2939    i.xQueueGenericCreateStatic  queue.o
    0x080036f6   0x080036f6   0x00000002   PAD
    0x080036f8   0x080036f8   0x00000088   Code   RO         2940    i.xQueueGenericReset  queue.o
    0x08003780   0x08003780   0x00000160   Code   RO         2941    i.xQueueGenericSend  queue.o
    0x080038e0   0x080038e0   0x000000bc   Code   RO         2942    i.xQueueGenericSendFromISR  queue.o
    0x0800399c   0x0800399c   0x0000009c   Code   RO         2943    i.xQueueGiveFromISR  queue.o
    0x08003a38   0x08003a38   0x00000138   Code   RO         2948    i.xQueueReceive     queue.o
    0x08003b70   0x08003b70   0x0000009a   Code   RO         2949    i.xQueueReceiveFromISR  queue.o
    0x08003c0a   0x08003c0a   0x00000002   PAD
    0x08003c0c   0x08003c0c   0x00000178   Code   RO         2950    i.xQueueSemaphoreTake  queue.o
    0x08003d84   0x08003d84   0x00000074   Code   RO         3269    i.xTaskCheckForTimeOut  tasks.o
    0x08003df8   0x08003df8   0x0000005a   Code   RO         3270    i.xTaskCreate       tasks.o
    0x08003e52   0x08003e52   0x00000056   Code   RO         3271    i.xTaskCreateStatic  tasks.o
    0x08003ea8   0x08003ea8   0x0000001c   Code   RO         3275    i.xTaskGetSchedulerState  tasks.o
    0x08003ec4   0x08003ec4   0x000000c8   Code   RO         3278    i.xTaskIncrementTick  tasks.o
    0x08003f8c   0x08003f8c   0x00000098   Code   RO         3281    i.xTaskPriorityDisinherit  tasks.o
    0x08004024   0x08004024   0x00000094   Code   RO         3282    i.xTaskPriorityInherit  tasks.o
    0x080040b8   0x080040b8   0x00000074   Code   RO         3283    i.xTaskRemoveFromEventList  tasks.o
    0x0800412c   0x0800412c   0x000000c4   Code   RO         3284    i.xTaskResumeAll    tasks.o
    0x080041f0   0x080041f0   0x000000c4   Data   RO           25    .constdata          main.o
    0x080042b4   0x080042b4   0x00000010   Data   RO         2747    .constdata          system_stm32f1xx.o
    0x080042c4   0x080042c4   0x00000008   Data   RO         2748    .constdata          system_stm32f1xx.o
    0x080042cc   0x080042cc   0x00000043   Data   RO           26    .conststring        main.o
    0x0800430f   0x0800430f   0x00000001   PAD
    0x08004310   0x08004310   0x00000020   Data   RO         4600    Region$$Table       anon$$obj.o


    Execution Region RW_IRAM1 (Exec base: 0x20000000, Load base: 0x08004330, Size: 0x00003180, Max: 0x0000c000, ABSOLUTE)

    Exec Addr    Load Addr    Size         Type   Attr      Idx    E Section Name        Object

    0x20000000   0x08004330   0x00000031   Data   RW           27    .data               main.o
    0x20000031   0x08004361   0x00000003   PAD
    0x20000034   0x08004364   0x0000000c   Data   RW          541    .data               stm32f1xx_hal.o
    0x20000040   0x08004370   0x00000004   Data   RW         2749    .data               system_stm32f1xx.o
    0x20000044   0x08004374   0x0000003c   Data   RW         3287    .data               tasks.o
    0x20000080   0x080043b0   0x00000018   Data   RW         3917    .data               heap_4.o
    0x20000098   0x080043c8   0x0000000c   Data   RW         3980    .data               port.o
    0x200000a4   0x080043d4   0x00000001   Data   RW         4053    .data               util.o
    0x200000a5   0x080043d5   0x00000001   Data   RW         4207    .data               servo.o
    0x200000a6   0x080043d6   0x00000001   Data   RW         4208    .data               servo.o
    0x200000a7   0x080043d7   0x00000001   Data   RW         4209    .data               servo.o
    0x200000a8   0x080043d8   0x00000001   Data   RW         4211    .data               servo.o
    0x200000a9   0x080043d9   0x00000004   Data   RW         4256    .data               lidar.o
    0x200000ad   0x080043dd   0x00000009   Data   RW         4257    .data               lidar.o
    0x200000b6   0x080043e6   0x00000002   Data   RW         4258    .data               lidar.o
    0x200000b8   0x080043e8   0x00000004   Data   RW         4578    .data               mc_w.l(stdout.o)
    0x200000bc        -       0x0000013c   Zero   RW           24    .bss                main.o
    0x200001f8        -       0x00000254   Zero   RW          252    .bss                freertos.o
    0x2000044c        -       0x00000040   Zero   RW          444    .bss                stm32f1xx_hal_timebase_tim.o
    0x2000048c        -       0x000000f0   Zero   RW         3286    .bss                tasks.o
    0x2000057c        -       0x00002800   Zero   RW         3916    .bss                heap_4.o
    0x20002d7c   0x080043ec   0x00000004   PAD
    0x20002d80        -       0x00000400   Zero   RW            1    STACK               startup_stm32f103xe.o


==============================================================================

Image component sizes


      Code (inc. data)   RO Data    RW Data    ZI Data      Debug   Object Name

       692         20          0          0          0      32707   cmsis_os.o
         0          0          0          0          0      18196   event_groups.o
        20          4          0          0        596       1240   freertos.o
       460         24          0         24      10240       7239   heap_4.o
       168          8          0         15          0       1578   lidar.o
       138          0          0          0          0       3402   list.o
      1662        184        263         49        316     521474   main.o
       388         92          0          0          0       5230   motor.o
       662         70          0         12          0      11165   port.o
      2208         18          0          0          0      19776   queue.o
       146          4          0          4          0       2249   servo.o
        36          8        304          0       1024        796   startup_stm32f103xe.o
       100         18          0         12          0       5858   stm32f1xx_hal.o
       158         14          0          0          0      28190   stm32f1xx_hal_cortex.o
       304          8          0          0          0       1167   stm32f1xx_hal_dma.o
       528         42          0          0          0       3505   stm32f1xx_hal_gpio.o
       560         64          0          0          0       3174   stm32f1xx_hal_msp.o
      1336        110          0          0          0       5821   stm32f1xx_hal_rcc.o
      1660         66          0          0          0      15786   stm32f1xx_hal_tim.o
        70          0          0          0          0       2353   stm32f1xx_hal_tim_ex.o
       116         16          0          0         64       1423   stm32f1xx_hal_timebase_tim.o
      1228         12          0          0          0       9919   stm32f1xx_hal_uart.o
       128         36          0          0          0       4925   stm32f1xx_it.o
         0          0          0          0          0        392   stream_buffer.o
        72         16         24          4          0       1183   system_stm32f1xx.o
      2506        186          0         60        240      24905   tasks.o
        64         20          0          1          0       2807   util.o

    ----------------------------------------------------------------------
     15446       1040        624        184      12484     736460   Object Totals
         0          0         32          0          0          0   (incl. Generated)
        36          0          1          3          4          0   (incl. Padding)

    ----------------------------------------------------------------------

      Code (inc. data)   RO Data    RW Data    ZI Data      Debug   Library Member Name

         0          0          0          0          0          0   entry.o
         0          0          0          0          0          0   entry10a.o
         0          0          0          0          0          0   entry11a.o
         8          4          0          0          0          0   entry2.o
         4          0          0          0          0          0   entry5.o
         0          0          0          0          0          0   entry7b.o
         0          0          0          0          0          0   entry8b.o
         8          4          0          0          0          0   entry9a.o
        30          0          0          0          0          0   handlers.o
        36          8          0          0          0         68   init.o
         0          0          0          0          0          0   iusefp.o
        30          0          0          0          0         68   llshl.o
        32          0          0          0          0         68   llushr.o
        36          0          0          0          0         68   memcpya.o
        36          0          0          0          0        108   memseta.o
       372         14          0          0          0        184   printf1.o
         0          0          0          4          0          0   stdout.o
        44          0          0          0          0         80   uidiv.o
       186          0          0          0          0        176   depilogue.o
        50          0          0          0          0         76   dfixui.o
        26          0          0          0          0         76   dfltui.o
       228          0          0          0          0         96   dmul.o

    ----------------------------------------------------------------------
      1130         30          0          4          0       1068   Library Totals
         4          0          0          0          0          0   (incl. Padding)

    ----------------------------------------------------------------------

      Code (inc. data)   RO Data    RW Data    ZI Data      Debug   Library Name

       636         30          0          4          0        644   mc_w.l
       490          0          0          0          0        424   mf_w.l

    ----------------------------------------------------------------------
      1130         30          0          4          0       1068   Library Totals

    ----------------------------------------------------------------------

==============================================================================


      Code (inc. data)   RO Data    RW Data    ZI Data      Debug   

     16576       1070        624        188      12484     728580   Grand Totals
     16576       1070        624        188      12484     728580   ELF Image Totals
     16576       1070        624        188          0          0   ROM Totals

==============================================================================

    Total RO  Size (Code + RO Data)                17200 (  16.80kB)
    Total RW  Size (RW Data + ZI Data)             12672 (  12.38kB)
    Total ROM Size (Code + RO Data + RW Data)      17388 (  16.98kB)

==============================================================================

