:020000040800F2
:1000000080310020DD0100085F190008C5170008D5
:100010005D190008C3040008711F000800000000FB
:100020000000000000000000000000004501000882
:10003000C5040008000000008901000861190008DB
:10004000F7010008F7010008F7010008F7010008B0
:10005000F7010008F7010008F7010008F7010008A0
:10006000F7010008F7010008F7010008F701000890
:10007000F7010008F7010008F7010008F701000880
:10008000F7010008F7010008F7010008F701000870
:10009000F7010008F7010008F7010008F701000860
:1000A000F7010008F7010008F7010008F701000850
:1000B000F7010008251A0008311A0008F7010008A6
:1000C000F7010008F7010008F7010008F701000830
:1000D000F7010008151F0008211F0008651F000810
:1000E000F7010008F7010008F7010008F701000810
:1000F000F7010008F7010008F7010008F701000800
:10010000F7010008F7010008F7010008F7010008EF
:10011000F7010008F7010008F7010008F7010008DF
:10012000F7010008F7010008F7010008F7010008CF
:10013000DFF80CD000F0A4F900480047A125000822
:1001400080310020224B19680868B0E8F00F80F376
:100150000988BFF36F8F4FF0000080F311884EF0D5
:100160000D0E70470000000006480068006880F32C
:10017000088862B661B6BFF34F8FBFF36F8F00DFA1
:1001800000BF00BF08ED00E0EFF30980BFF36F8F01
:100190000F4B1A6820E9F00F106008B54FF05000BF
:1001A00080F31188BFF34F8FBFF36F8F03F0CAF94D
:1001B0004FF0000080F31188BDE808401968086816
:1001C000B0E8F00F80F30988BFF36F8F704700BF6E
:1001D00044000020EFF30580704700000648804788
:1001E00006480047FEE7FEE7FEE7FEE7FEE7FEE71C
:1001F000FEE7FEE7FEE7FEE7DD1900083101000833
:10020000202A04DB203A21FA02F00021704721FA6B
:1002100002F3D040C2F120029140084319467047D2
:1002200040EA01039B0703D009E008C9121F08C078
:10023000042AFAD203E011F8013B00F8013B521EF8
:10024000F9D27047D2B201E000F8012B491EFBD26F
:1002500070470022F6E710B513460A4604461946D1
:10026000FFF7F0FF204610BD2DE9FE4F81EA0304A1
:1002700004F0004421F0004100944FF0000B23F003
:10028000004350EA01045ED052EA03045BD0C3F39A
:100290000A54C1F30A552C44A4F2F3340194A0FB90
:1002A0000254C1F3130141F48011C3F3130343F467
:1002B000801301FB024400FB034E840A970A44EAC0
:1002C000815447EA8357A4FB076802958D0A05FB12
:1002D00007854FEA932C04FB0C542705029D4FEA37
:1002E000065847EA1637B5EB08056EEB070C870E84
:1002F000920E47EA811742EA8312A7FB0201B6EB8E
:100300000B0164EB00042B0D43EA0C335E1844EB45
:100310001C50DA465146E7FB0201C5F313044FEACD
:100320000B3343EA14534FEA0432019C43EA0603B9
:10033000A4F10C040294009CCDE900B400F051F843
:1003400003B0BDE8F08F00200146F9E70EB540F29A
:10035000334102910021CDE900110A460B4600F01D
:1003600040F803B000BDC1F30A5210B5C1F3130148
:1003700040F2FF3341F480119A4201DA002010BDAF
:1003800040F233439A42A2F2334203DC5242FFF777
:1003900037FF10BD904010BD30B50B460146002020
:1003A0002022012409E021FA02F59D4205D303FA37
:1003B00002F5491B04FA02F52844151EA2F10102B8
:1003C000F1DC30BD10B5141E73F1000408DA401CD6
:1003D00041F1000192185B411A4301D120F0010064
:1003E00010BD2DE9F04D92469B4611B1B1FA81F254
:1003F00002E0B0FA80F22032904600F053F8044652
:100400000F4640EA0A0041EA0B0153465A460843A8
:1004100013D0114653EA010019D0C8F140025046EA
:10042000FFF7EEFE05460E4650465946424600F09E
:1004300039F8084305D0012004E020463946BDE8DC
:10044000F08D0020054346EAE0762C4337430A98B6
:100450006305E40AA0EB08000022FD0A44EA4754C1
:100460000A3002D500200146E9E70105101969416B
:10047000DDE9084500196941BDE8F04DA2E700003B
:10048000064C074D06E0E06840F0010394E80700E1
:1004900098471034AC42F6D3FFF74EFE10430008E5
:1004A00030430008202A04DB203A00FA02F1002041
:1004B00070479140C2F1200320FA03F319439040A2
:1004C0007047FEE7704700002DE9F05F90F82110BB
:1004D0000024022903D004218163012485E00168FE
:1004E0000A6822F00E020A6001680A6822F001021E
:1004F0000A603F4E3E4FB215DFF8F4C0DFF8F090CF
:10050000DFF8ECA0DFF8E8B0DFF8E4E00168783F5E
:1005100013011502ACF1640CA9F15009AAF13C0ACF
:10052000ABF1280BAEF1140E4FF48018B14227D96D
:10053000B9420ED0614512D049451DD0514518D061
:10054000594518D0714501D1424615E0294EB142B6
:1005500001D1012210E0274E1436B14201D1102200
:100560000AE0244E2836B14206D0224A3C3291425B
:1005700001D11A4600E02A461E49091F0A602BE0F5
:10058000B94213D0614517D0494522D051451DD0FD
:1005900059451DD0714501D142461AE0B14202D100
:1005A0004FF0807215E0134EB14201D1012210E0EC
:1005B000104E1436B14201D110220AE00D4E2836F9
:1005C000B14206D00B4A3C32914201D11A4600E0BA
:1005D0002A46074980394A60012180F8211000210C
:1005E00080F82010416B01B188472046BDE8F09F9C
:1005F000800002400804024070B5044600F016F97D
:100600000546601C02D004480078044400F00EF94E
:10061000401BA042FAD370BD340000202DE9F84FF2
:10062000DFF8C891002409F1040A0AF1040B2346FB
:100630000F270BF1040ED1E00125A54006EA0502C3
:10064000AA4276D1DFF8A8C14E68A6EB0C08664531
:100650002BD00DDC032E34D005DC36B3012E19D09F
:10066000022E2FD11BE0112E16D0122E2AD119E006
:10067000B8F5881F19D006DCB8F5803F15D0B8F55D
:10068000801F1FD111E0B8F5001F0ED0B8F5041F70
:1006900018D10AE0CB6815E0CB681B1D12E0CB68CF
:1006A00008330FE0CB680C330CE08B682BB1012BC7
:1006B0004FF0080303D0456104E0042302E0056124
:1006C00000E00023FF2A01D8064601E000F10406FD
:1006D0004FEA840501D9A5F12005D6F8008007FA74
:1006E00005FC28EA0C0803FA05F548EA0508C6F8EF
:1006F00000804D68ED0070D53E4DAE6946F00106B4
:10070000AE61AD6924F0030605F0010500953A4D90
:1007100006EB050CDCF80850A607360F07FA06F8BA
:1007200025EA0805DFF8D480404503D14FF00008E2
:1007300025E052E0DFF8C880404502D14FF00108C3
:100740001DE0DFF8C080404502D14FF0020816E0FE
:10075000DFF8B480404502D14FF003080FE0DFF826
:10076000AC80404502D14FF0040808E0DFF8A080DB
:10077000404502D14FF0050801E04FF0060808FAA5
:1007800006F848EA0508CCF808804D68D9F80060FA
:10079000ED034D4601D5164300E096432E604D68AB
:1007A000DAF80060AD03554601D5164300E09643E4
:1007B0002E604D68DBF80060ED025D4601D5164302
:1007C00000E096432E604D68DEF80060AD0275468D
:1007D00001D5164300E096432E60641C0A68164655
:1007E000E2407FF429AFBDE8F88F0000000401402B
:1007F00000001110001002400000014000080140FC
:10080000000C01400010014000140140001801409C
:10081000001C0140C2680A4201D041617047016179
:1008200070470AB1016170470904FBE7014880681D
:1008300070470000340000200248816802781144AB
:100840008160704734000020074810B5016841F00E
:1008500010010160032000F08FF8002000F006F87E
:1008600000F03EF8002010BD0020024000B5014617
:1008700087B000221E2000F05FF81E2000F04EF826
:100880001348C16941F00401C161C06905A900F0C4
:1008900004000690684600F017F900F035F90D499C
:1008A0004000B0FBF1F10D480B4A491E0260416067
:1008B00040F2E7320021C0E90321816000F02DFB06
:1008C00010B1012007B000BD044800F05FFBF9E75C
:1008D0000010024040420F00000800404C0400207D
:1008E0000C4808B5816941F001018161816901F01D
:1008F00001010091C16941F08051C161C06900F0FE
:10090000805000900448416821F0E06141F000719E
:10091000416008BD0010024000000140002809DBD2
:1009200000F01F02012191404009800000F1E02009
:10093000C0F8001170470000F0B40E4B1B680C4665
:10094000C3F30223C3F10705042D00D90425191DA3
:10095000072901D2002300E0DB1E012606FA05F17B
:10096000491E214099409E40761E16403143F0BCFE
:1009700001F010BB0CED00E0064900F0070208682A
:100980004FF6FF03184040EA0220034A1043086074
:10099000704700000CED00E00000FA052DE9F0477B
:1009A0000F46050061D0434E306800F00700B842A2
:1009B00009D2306820F0070038433060306800F01A
:1009C0000700B84251D128683B4C810712D5400737
:1009D00003D5606840F4E06060602878000703D5C4
:1009E000606840F4605060606068A96820F0F000C2
:1009F000084360602878C00728D06868012810D0B4
:100A00002168022810D0890700292EDA616821F0B8
:100A1000030101436160FFF709FF804641F2883915
:100A20000DE021688903EFE78901EDE7FFF7FEFE9E
:100A3000A0EB0801494502D90320BDE8F0876068B2
:100A4000696800F00C00B0EB810FEFD1306800F066
:100A50000700B8420BD9306820F0070038433060F7
:100A6000306800F00700B84201D00120E5E728789F
:100A7000400705D56068E96820F4E06008436060DD
:100A80002878000706D56068296920F4605040EA9C
:100A9000C100606000F058F86168084AC1F30311B2
:100AA000515CC8400649086006480068FFF7DEFE52
:100AB0000020C2E70020024000100240B4420008BB
:100AC00040000020380000200F2202600C4A5368CA
:100AD00003F003034360536803F0F003836053683B
:100AE00003F4E063C36052684FF4E06303EAD202A8
:100AF00002610448006800F00700086070470000C9
:100B0000001002400020024004480549006849687E
:100B1000044AC1F30221515CC840704740000020E4
:100B200000100240C44200080448054900684968B2
:100B3000044AC1F3C221515CC84070474000002004
:100B400000100240C442000812A185B00FC98DE810
:100B50000F0014A0144A006804905168134801F073
:100B60000C03042B10D0082B0ED1C1F38343C9030F
:100B70001DF803000AD5516804AAC1F34041515C35
:100B80000A4A5043B0FBF1F005B0704708494843AA
:100B9000FAE7000002030405060708090A0B0C0D1A
:100BA0000E0F1010010200000010024000127A0027
:100BB00000093D002DE9F84F040070D02078C04DA9
:100BC000C00749D06868C0F38100012807D0686871
:100BD000C0F38100022809D16868C00306D52868DF
:100BE000800339D560680028E7D035E06068B0F54B
:100BF000803F0BD010B1B0F5A02F11D0286820F4A1
:100C000080302860286820F4802002E0286840F4C2
:100C100080302860606890B1FFF708FE06460AE061
:100C2000286840F480202860F0E700BFFFF7FEFD51
:100C3000801B642873D828688003F7D50CE0FFF781
:100C4000F5FD064605E000BFFFF7F0FD801B6428B8
:100C5000F0D828688003F7D420789A4E80074FF0A8
:100C600001094FF0000839D5686810F00C0F07D063
:100C70006868C0F38100022809D16868C00306D4FF
:100C80002868800714D52069012808D110E0206960
:100C9000B0B1C6F80090FFF7C9FD074605E00AE1CC
:100CA000FFF7C4FDC01B0228C4D828688007F7D509
:100CB0002868616920F0F80040EAC10028600DE072
:100CC000C6F80080FFF7B2FD074604E0FFF7AEFD6F
:100CD000C01B022823D828688007F7D42078000793
:100CE0002CD57948A169D9B1C0F80090FFF79EFDD5
:100CF000074604E0FFF79AFDC01B02280FD8686A78
:100D00008007F7D571484FF4FA510068B0FBF1F055
:100D1000009000BF0098411E0091FAD20EE080E0E2
:100D2000C0F80080FFF782FD074604E0FFF77EFD74
:100D3000C01B022875D8686A8007F7D4207840075E
:100D400060D5E8690027C00008D4E86940F0805009
:100D5000E861E869012700F0805000905C48016874
:100D6000C90513D40168834641F480710160FFF71F
:100D70005DFD824606E000BFFFF758FDA0EB0A00CC
:100D800064284ED8DBF80000C005F5D5E0680128DE
:100D90000AD008B1052813D0286A20F00100286283
:100DA000286A20F0040002E0286A40F0010028626E
:100DB000E06841F2883B98B1FFF738FD82460BE0CE
:100DC000286A40F004002862EEE700BFFFF72EFD1E
:100DD000A0EB0A0159455AD8286A8007F6D50CE0DD
:100DE000FFF724FD824605E0FFF720FDA0EB0A0196
:100DF00059454CD8286A8007F6D41FB1E86920F01D
:100E00008050E861E06988B36968C1F38101022913
:100E100044D00228C6F8608004D0FFF707FD0446DE
:100E200038E034E0FFF702FD074604E0FFF7FEFC80
:100E3000C01B02282BD828688001F7D4206AB0F59F
:100E4000803F05D16868A16820F4003008436860DD
:100E5000D4E908010843696821F474110843686003
:100E6000C6F86090FFF7E2FC044606E025E000BF0C
:100E7000FFF7DCFC001B022809D828688001F7D5A1
:100E80001BE000BFFFF7D2FC001B022802D90320A1
:100E9000BDE8F88F28688001F4D40EE00128F7D06F
:100EA0006868226A00F48031914204D1616A00F4DA
:100EB0007010884201D00120EAE70020E8E7000036
:100EC00000100240000042428004424240000020E4
:100ED000007000407047704770B590F83C20012AC0
:100EE00019D0012400F83C4F0222427050F83C3CDB
:100EF0005A689D6822F070060A684968324325F0F6
:100F0000800529435A6050F83C2C916044700021C0
:100F10000170084670BD022070BD10B5040003D0FA
:100F200094F83D0010B107E0012010BD002084F8C6
:100F30003C00204600F00CF8022084F83D00211D02
:100F4000206800F07BFD012084F83D00002010BDEA
:100F500008B500680B49884212D10B48C16941F0BD
:100F60000201C161C069002200F00200009003216B
:100F70001D20FFF7E1FCBDE808401D20FFF7CEBCB7
:100F800008BD000000040040001002400168CA686B
:100F900042F00102CA600068816801F00701062979
:100FA00003D0016841F0010101600020704770B575
:100FB000044690F83C00012817D0012584F83C50E5
:100FC000022084F83D002068826822F0770222F433
:100FD0007F4282600868502830D00DDC20284DD038
:100FE00005DC98B310283BD148E0022070BD3028C2
:100FF00044D0402834D139E0602828D0702806D069
:10100000B0F5805F2CD0B0F5005F29D10AE0CB6845
:10101000D1E90121206800F064FD2068816841F079
:10102000770109E0CB68D1E90121206800F059FD82
:101030002068816841F48041816011E0CA68496894
:10104000206800F023FE5021206807E016E0CA68FF
:101050004968206800F02BFE6021206800F04BFDFD
:1010600084F83D50002084F83C0070BDCA6849688F
:10107000206800F00BFE40212068EFE7226801465F
:101080001046EBE7704770B50446006801694FF001
:101090000005C943890715D4C168C943890711D41C
:1010A000E91E0161012020772068806980072046C1
:1010B00002D0FFF7E7FF04E000F0D0F8204600F090
:1010C00052F9257720680169C943490717D4C168D7
:1010D000C943490713D46FF004010161022020774E
:1010E0002068806910F4407F204602D0FFF7CAFFD5
:1010F00004E000F0B3F8204600F035F925772068C9
:101100000169C943090716D4C168C943090712D444
:101110006FF008010161042020772068C069800712
:10112000204602D0FFF7AEFF04E000F097F820461B
:1011300000F019F9257720680169C943C90617D459
:10114000C168C943C90613D46FF0100101610820BA
:1011500020772068C06910F4407F204602D0FFF756
:1011600091FF04E000F07AF8204600F0FCF82577C3
:1011700020680169C943C90708D1C168C943C907C3
:1011800004D1891E0161204600F010F92068016930
:10119000C943090609D4C168C943090605D46FF0DB
:1011A000800101612046FFF795FE20680169C9436F
:1011B000490609D4C168C943490605D46FF0400106
:1011C0000161204600F0FCF820680169C9438906E6
:1011D0000BD4C168C943890607D46FF020010161AF
:1011E0002046BDE87040FFF776BE70BD10B586B0F2
:1011F00000210091019102910391006813498842F6
:1012000021D11348816941F004018161816901F0B4
:1012100004010491816941F008018161806902241F
:1012200000F008000490C020CDE900046946094898
:101230000394FFF7F3F90120CDE90004694606485D
:101240000394FFF7EBF906B010BD00000004004066
:101250000010024000080140000C0140704770B5CA
:10126000044690F83C000D4601280DD0012684F874
:101270003C60022084F83D0042B1042A18D0082ABC
:101280002AD00C2A4DD139E0022070BD206800F030
:101290003BFC2068816941F0080181612068816917
:1012A00021F004018161206881692A69114311E0FC
:1012B000206800F059FC2068816941F40061816177
:1012C0002068816921F480618161206881692A69CF
:1012D00041EA0221816124E0206800F07BFC206863
:1012E000C16941F00801C1612068C16921F00401B0
:1012F000C1612068C1692A69114311E0206800F0CA
:101300009DFC2068C16941F40061C1612068C16928
:1013100021F48061C1612068C1692A6941EA022122
:10132000C16184F83D60002084F83C0070BD10B5B8
:10133000040003D094F83D0010B107E0012010BD77
:10134000002084F83C00204600F00CF8022084F8CD
:101350003D00211D206800F071FB012084F83D0054
:10136000002010BD7047704710B504460068012288
:1013700000F0AAFB0B492068884202D00A49884243
:1013800003D1416C41F4004141642068816801F05F
:101390000701062903D0016841F001010160002026
:1013A00010BD0000002C01400034014000680349DA
:1013B000884201D1FFF740BA7047000000080040A2
:1013C0007047704710F8391F407808437047000095
:1013D00070B5026804461068D168536910F00F0FA9
:1013E00050D003F0010501F4907635435DD0C2077B
:1013F00005D0CA0503D5E26B42F00102E263420761
:1014000005D5DA0703D0E26B42F00202E2638207FD
:1014100005D5DA0703D0E26B42F00402E26302076B
:1014200005D5DA0703D0E26B42F00802E263E26B13
:10143000002A33D0800604D5880602D5204600F065
:101440005EFC20684069E16BC0F38010090700D49E
:1014500028B3204600F045FC2068416949061AD5AA
:10146000416921F040014161606BA0B11B494163BA
:10147000606BFFF729F8002810D0606B416BBDE866
:1014800070400847830610D58B060ED52046BDE870
:10149000704000F034BC2046FFF793FF70BD20463B
:1014A000FFF78FFF0020E06370BD030606D50B0633
:1014B00004D52046BDE8704000F0C8BC4006F3D516
:1014C0004806F1D5D168204621F04001D1602021A5
:1014D00084F8391000F075F970BD0000D31C0008C5
:1014E00070B5040004D094F83900002510B106E06E
:1014F000012070BD84F83850204600F023F82420E5
:1015000084F839002068C16821F40051C160204688
:1015100000F040FC2068016921F4904101612068DD
:10152000416921F02A0141612068C16841F40051FC
:10153000C160E563202084F8390084F83A00002077
:1015400070BD0000F0B585B00024009401940294B1
:1015500003940368464F022046490322464D460243
:10156000BB4225D18B6943F480438B618B6903F4C3
:10157000804304938B6943F004038B618969039270
:1015800001F0040104910102CDE9001069462846EA
:10159000FFF744F8CDE90064694628460294FFF756
:1015A0003DF8002206212520FFF7C6F9252028E076
:1015B000324FBB4229D1CB6943F40033CB61CB69B5
:1015C00003F4003304938B6943F004038B6189694E
:1015D000039201F0040104910421CDE90010694651
:1015E0002846FFF71BF80820CDE900046946284685
:1015F0000294FFF713F8002207212620FFF79CF939
:101600002620FFF78BF905B0F0BD1D4DAB42FAD196
:10161000CB6943F48023CB61CB6903F4802304932B
:101620008B6943F010038B618969164D01F010013D
:10163000CDE90321CDE9006069462846FEF7EEFFBB
:10164000E814CDE90004694628460294FEF7E6FF57
:101650000D48416821F0300141F0E06141F0100196
:101660004160002208212720FFF766F92720C8E7FC
:1016700000380140001002400008014000440040D2
:1016800000480040001001400000014090F83A304E
:10169000202B22D1F9B1F2B190F83830012B1CD0B7
:1016A00081628285C2850021C163222280F83A20AE
:1016B00080F838100168CA6842F48072CA60016814
:1016C0004A6942F001024A610068C16841F02001A4
:1016D000C160002070470120704702207047000061
:1016E00000680649884207D105484FF0FF3201786B
:1016F0000448006801F07AB87047000000440040D8
:10170000A4000020200000202DE9F843044690F8B2
:1017100039001F4616460D46202850D1A5B19EB16E
:1017200094F8380001284AD0012084F838004FF09E
:101730000008C4F83C80212084F83900FFF776F8CF
:10174000A6848146E68426E00120BDE8F883E08C8B
:10175000401EE084A0684B46B0F5805F4FF0000269
:101760004FF080012046009703D000F0A0FBE8B9BD
:101770000DE000F09CFBC8B928882168C0F3080080
:101780004860206908B16D1C05E0AD1C03E02168CC
:1017900015F8010B4860E08C0028D8D14B46002298
:1017A00040212046009700F082FB08B10320CCE7DF
:1017B000202084F8390084F838800020C5E7022012
:1017C000C3E77047FEE700002DE9F04786B000252B
:1017D00036480095019502950395816941F0100105
:1017E0008161816901F010010491816941F020015A
:1017F0008161816901F020010491816941F0040156
:101800008161816901F004010491816941F008015D
:1018100081618069DFF8989000F008004FF400665D
:101820000490002231464846FEF7FBFFDFF884A013
:101830004FF47078002241465046FEF7F2FF4FF217
:101840003F000324CDE9000469465046FEF7E6FE5A
:1018500049F63310CDE9000469461748FEF7DEFE6D
:101860004FF2F670CDE9000469464846FEF7D6FE11
:101870000096022701260397CDE90165694648468F
:10188000FEF7CCFECDF800800397CDE901656946EF
:101890005046FEF7C3FE0420CDE900046946074820
:1018A000FEF7BCFE06B0BDE8F08700000010024065
:1018B000000C0140001001400008014000140140EC
:1018C00010B58EB000240794089409940A940B94E0
:1018D0001C2168460C94FEF7BCFC1F481D490160A2
:1018E00041F61F41C0E90114C721C0E90314846116
:1018F000FFF713FB4FF48050079007A91648FFF736
:1019000056FB1548FFF713FD0B940BA912480C94D6
:10191000FFF7E2FA602000900F20CDE901040022D9
:1019200069460D480494FFF79AFC042269460A4868
:101930000194FFF794FC082269460748FFF78FFCE3
:1019400000210548FFF710FD0348FFF74FFC0EB0DC
:1019500010BD000000040040F8000020FEE77047C2
:1019600010B5502080F31188BFF34F8FBFF36F8FF6
:1019700002F0A8FA18B104494FF080500860002026
:1019800080F3118810BD000004ED00E030B58FB089
:1019900028216846FEF75DFC14210AA8FEF759FCD1
:1019A00001210804CDE900100024029402250491CD
:1019B000CDE907504FF4E01009906846FFF7FAF8B8
:1019C0000F20CDE90A056802CDE90C4002210AA8E2
:1019D0000E94FEF7E3FF0FB030BD00000D48016824
:1019E00041F00101016041680B4A1140416001680A
:1019F0000A4A11400160016821F4802101604168B8
:101A000021F4FE0141604FF41F0181600449C003CD
:101A100008607047001002400000FFF8FFFFF6FE6C
:101A200008ED00E00148FFF72EBB0000F8000020A1
:101A30000148FFF728BB00004C040020F0B5026805
:101A40001C4B1D4D1D4E1E4F1E4C4FF0804C98429E
:101A500009D0A04207D0604505D0A84203D0B042CB
:101A600001D0B84204D122F0700E4A6842EA0E0258
:101A7000984209D0A04207D0604505D0A84203D0C3
:101A8000B04201D0B84203D122F44075CA682A435B
:101A90004D6922F080022A4302608A68C2620A68A5
:101AA0008262984201D0A04201D1096901630121FB
:101AB0004161F0BD002C01400004004000080040DE
:101AC000000C00400034014010B501F01F0301215B
:101AD000046A99408C430462016A9A40114301628E
:101AE00010BD10B5846842EA032224F47F440A43FF
:101AF0002243826010BD826822F070020A4342F0E5
:101B00000701816070470000F0B5026A22F001020F
:101B10000262036A42688469124E24F073050C68FD
:101B20002C4323F002058B682B430D4DA84201D0B6
:101B3000B04205D123F00807CB683B4323F00403F0
:101B4000A84201D0B04205D14D6922F4407215433C
:101B50008A692A4342608461496841630362F0BD37
:101B6000002C014000340140F0B5026A22F010025E
:101B70000262026A436884690D6824F4E64444EA18
:101B800005248D6822F0200242EA05120F4D104E06
:101B9000A84201D0B04206D1CF6822F0800242EACA
:101BA000071222F04002A84201D0B04207D14D698D
:101BB00023F4406343EA85038D6943EA8503436068
:101BC0008461496881630262F0BD0000002C01401D
:101BD00000340140F0B5026A22F480720262026AA7
:101BE0004368C46922F4007224F073050C68124E35
:101BF0002C438D6842EA05220E4DA84201D0B04226
:101C000006D1CF6822F4006242EA072222F4806201
:101C1000A84201D0B04207D14D6923F4405343EAB2
:101C200005138D6943EA05134360C4614968C163C4
:101C30000262F0BD002C01400034014030B5026A60
:101C400022F480520262046A4268C3690D6823F478
:101C5000E64343EA05238D6824F4005444EA05343E
:101C6000084DA84202D0084DA84204D14D6922F483
:101C7000804242EA85124260C3614968016404629D
:101C800030BD0000002C01400034014010B5036A53
:101C9000046A24F001040462846924F0F00444EA34
:101CA000021423F00A020A438461026210BD10B5D7
:101CB000036A23F0100303628369046A23F4704308
:101CC00043EA023224F0A00343EA01118261016277
:101CD00010BD10B5406A0021C185C184FFF771FBBA
:101CE00010BD0168CA6822F49072CA6001684A692E
:101CF00022F001024A61202180F83A10704710B5A5
:101D000090F83A10222901D0022010BD8168B1F567
:101D1000805F11D00169002901681FD0496801F076
:101D20007F03816A4A1C82620B70C18D491E0904BF
:101D3000090CC18518D02BE00269816A002A02686B
:101D4000526805D0D2B20A80816A491C8162ECE7F0
:101D5000C2F308020A80816A891CF7E74A68816A2F
:101D60004B1C83620A70E0E70168CA6822F0200217
:101D7000CA600168CA6822F48072CA6001684A6950
:101D800022F001024A61202180F83A10FFF7A8FCF6
:101D9000002010BD2DE9F041044600680169E268A9
:101DA00021F44051114301612169A0680843616930
:101DB00008432168CA6841F20C639A430243CA602F
:101DC00020684169A26921F44071114341611E49B3
:101DD000206864253226884202D1FEF7A5FE01E084
:101DE000FEF792FE00EBC00101EB001160686FF09E
:101DF00018078000B1FBF0F2B2FBF5F2B1FBF0F393
:101E00007A4303EB8202B1FBF0F306EB0212B2FB62
:101E1000F5F2B3FBF5F302F0F00202EB0312B1FBB3
:101E2000F0F3B1FBF0F0B0FBF5F0784303EB80008A
:101E300006EB0010B0FBF5F0216800F00F00104435
:101E40008860BDE8F08100000038014090F839104A
:101E5000212901D0022070478168B1F5805F016AB5
:101E60000BD04A1C0262026809785160C18C491E7D
:101E70000904090CC1840ED017E009880268C1F377
:101E80000801516001690029016A02D0491C016200
:101E9000ECE7891CFBE70168CA6822F08002CA608F
:101EA0000068C16841F04001C160002070472DE921
:101EB000F041984617460E460446069D1DE0681CF4
:101EC0001BD02DB1FEF7B2FCA0EB0800A84214D93C
:101ED0002068C16821F4D071C1602068416921F097
:101EE00001014161202084F8390084F83A00002083
:101EF00084F838000320BDE8F0812068006836EAE5
:101F0000000004D00020B842D9D00020F3E701201F
:101F1000F9E700000148FFF75BBA00003801002034
:101F200070B500240C4D0D48FFF752FA02E0641C16
:101F3000AC4204D80948FFF745FA2028F7D100241D
:101F400002E0641CAC4206D8012205490348FFF7B1
:101F50009DFB0028F5D170BDFFFF01007801002036
:101F6000A40000200148FFF733BA0000B8010020A8
:101F7000FEE700000FB4054B10B503A9044A029810
:101F800000F028F810BC5DF814FB0000A521000843
:101F9000B80000200907090E002804DB00F1E0204A
:101FA00080F80014704700F00F0000F1E02080F886
:101FB000141D704702E008C8121F08C1002AFAD198
:101FC00070477047002001E001C1121F002AFBD1B9
:101FD000704700002DE9FF4F89B09B46044600255D
:101FE00006E025280BD05A460B999047641C6D1CBF
:101FF00020780028F5D10DB02846BDE8F08F0027E5
:10200000B8460122474900E0074314F8013F203B4E
:1020100002FA03F00842F7D120782E2819D114F8DB
:10202000010F47F004072A280ED06FF02F02207806
:10203000A0F1300109290CD808EB880102EB41011D
:1020400000EB0108641CF2E70A98641C50F8048B4A
:102050000A9020780028CED0642808D0692806D0BD
:1020600075281ED05A460B9990476D1C58E00A9966
:102070004FF00A0901C90A91002802DA40422D21D5
:1020800002E0390504D52B218DF82010012103E051
:10209000F90704D02021F7E78A4608AE0DE00021B9
:1020A000FAE70A994FF00A0901C90A91F7E7494688
:1020B000FEF772F9303106F8011D0028F7D1ADEBBB
:1020C000060000F12009780701D44FF00108C84547
:1020D00002DDA8EB090000E000208046002706E0B2
:1020E00008A85A46C05D0B9990476D1C7F1C574548
:1020F000F6DB04E030205A460B9990476D1CB8F18E
:102100000001A8F10108F5DC05E016F8010B5A46BC
:102110000B9990476D1CB9F10001A9F10109F4DC9C
:10212000641C65E70928010010B5044609A0FFF703
:1021300021FF204600F00CFA2046FEF707F90022A6
:10214000074BFEF791F8FEF70EF9BDE81040C0B25C
:1021500000F058BF6261636B776172640A0000002F
:102160000000F83F10B5044609A0FFF703FF204622
:1021700000F002FA2046FEF7E9F8084A084BFEF79D
:1021800073F8FEF7F0F8BDE81040C0B200F050BFA1
:10219000666F72776172640A00000000CDCCCCCC0F
:1021A000CCCCF43F04490A685206FCD5024AC1B2BD
:1021B000121D11607047000000380140064E4FF4B8
:1021C000FA744FF40065204600F0A6FA294630461E
:1021D000FEF720FBF7E70000000C0140064C322020
:1021E000FEF70AFA962201210F2000F07BF9E06841
:1021F00000F0DCFBF3E700000000002071480178EC
:102200007148DFF8C8B1DFF8C8810078081A0521E5
:1022100090FBF1F1C0F1140000EBD070C0F3470463
:10222000CDB26042142101EB400A00BF4FF0FF31F4
:102230004746D8F8240000F05DFB664A66496348CB
:1022400000F07EFEBBF800005E46022807D2142094
:1022500000F062FA5F4A60495C4800F071FE5F4836
:10226000B34631885C4E0078BC3E06EB4000B84671
:1022700020F80A1C7878824506DD401CC0B288F838
:102280000100FF280DD099E0534804218038FFF762
:102290006BF8514808218038FFF766F8FF2188F86D
:1022A000011016F814902046C4F1140207E000BF94
:1022B00036F81010494501D801F0FF09401C824250
:1022C000F6DC0021204603E036F81030401C1944AB
:1022D0008242F9DC142091FBF0F1414842888A42A5
:1022E00001DB002100E0012188F800100088BBF824
:1022F0000010884201D8002100E00121374A364809
:10230000334E1278943810442C3600F8051C002007
:10231000314930700123307104EB850294390AE0B1
:102320002718CF5D012F00D133701718CF5D012F13
:1023300000D13371401CA842F2DB01208E466A08AE
:10234000002100FB05E3315406E0671816F800C0D1
:10235000DF5D491C67443754A942F6DB315CB1FBB1
:10236000F2F1012901D9012100E000213154401C82
:102370000428E5DB1BA0FFF7FDFD00271AA0F15D97
:10238000FFF7F8FD7F1C052FF8DB16A0FFF7F2FD25
:1023900000210846C0F10403325C9A400A43401C05
:1023A00091B20528F6DB32224646D8F8180000F034
:1023B0001DFA32224946F06900F018FA642000F054
:1023C000ABF933E7A6000020A5000020B6000020EE
:1023D00000000020AD00002078010020A7000020B0
:1023E000F04100080A000000256420000EB500241A
:1023F000214E224F25464FF0FF3842466846B169CC
:1024000000F0AAF9DDE90010102900D10446642289
:102410006846F16900F0A0F9DDE90010102900D14B
:1024200085B2BA88294616A0FFF7A4FD172C08D05C
:10243000152C06D01D2C04D01F2C02D0B888A84221
:1024400003D31220FFF770FE11E014F00E0F08D036
:1024500004F00700C4F3C101884206D800F06AF80E
:1024600005E01120FFF77EFE01E000F0BDFD322007
:1024700000F052F9C1E7000000000020F041000820
:102480006D696E696D756D2064697374616E6365E5
:102490003A25642C2073657420706172616D3A2551
:1024A000640A0000074C084E084D2378327808492A
:1024B000084800F0D1FD686A00F0F4F9AA2000F0A5
:1024C0002BF9F2E7A5000020A60000200000002064
:1024D000A8000020A7000020EFF30580002800D00E
:1024E000012070472DE9FC41064605208DF80000CB
:1024F000012017460D468DF80400002405231922FB
:1025000001A9684600F0A8FD0BE03846FEF774F814
:102510000523192201A9684600F09EFD08B1641C3C
:10252000E4B2AC42F1D39DF80000B042EDD1BDE879
:10253000FC81000010B504A0FFF71CFD1921BDE8C7
:102540001040122000F0AABD6C6566740A000000FD
:1025500070B5074D0446002240212846FEF761F978
:10256000012280212846FEF75CF90248046070BD14
:10257000001001403804004070B5074D04460122A8
:1025800040212846FEF74DF9002280212846FEF71B
:1025900048F90248046070BD001001403804004052
:1025A000B4B0FEF751F9FFF7F1F9FFF70DF9FFF7B6
:1025B00087F950484E494FF4E13500240160C0E9E5
:1025C00001540C26C460C0E904468461C461FEF76E
:1025D00087FF4848484940300160C0E90154C46061
:1025E000C0E904468461C461FEF77AFF41480122D4
:1025F00042494030FFF74AF83E4841498030016087
:10260000C0E90154C460C0E904468461C461FEF7B6
:1026100067FF2F9401212FA8309400F024F9394D41
:1026200001216862319431A8329400F01CF9364CD3
:10263000A8620DF18C0C94E80F008CE80F000021CB
:1026400023A8083C00F074F81834A86194E80F003F
:102650000DF19C0C183C8CE80F00002127A800F01D
:1026600067F82834E86194E80F000DF1AC0C8CE8B1
:102670000F0000212BA800F05BF828621C2204F157
:1026800010016846FDF7CCFD0021684600F064F9B2
:1026900068601C2204F12C0107A8FDF7C1FD002190
:1026A00007A800F059F9A8601C2204F148010EA8FF
:1026B000FDF7B6FD00210EA800F04EF9E8601C22DF
:1026C00004F1640115A8FDF7ABFD002115A800F089
:1026D00043F928611C2204F180011CA8FDF7A0FD2C
:1026E00000211CA800F038F9686100F01CF8FEE732
:1026F000003801403801002000440040A4000020C0
:102700000048004000000020F84100080146002079
:10271000842900D0C81C704710B500B9012000F012
:10272000DDFD002010BD10B500F0CEFE002010BD74
:1027300038B5D0E9011204683AB1C3682BB1002062
:102740000090204600F0A4FF38BD2046BDE8384088
:10275000002200F079BF00002DE9FF410D004FF08D
:102760000006CDE9016507461ED000240396501CE3
:102770001FD002B11446FFF7AFFE69464FF01008B4
:10278000E8B103AA2846091D01F0F2F9012813D087
:1027900000960398E8B114494FF080500860BFF3E9
:1027A0004F8FBFF36F8F14E0802031462A46009090
:1027B00011E04FF0FF34DEE7CDF80080E9E7224674
:1027C0002846091D01F038F9012808D054B14020ED
:1027D00000909DE8070087E80700BDE8FF81CDF87D
:1027E0000080F6E70020F3E704ED00E037B505468A
:1027F00082B000200090140000D10124FFF76CFE8D
:102800004FF0000388B16A4603A9284601F068F832
:10281000012811D1009890B10A494FF0805008600A
:10282000BFF34F8FBFF36F8F09E0224603A92846FD
:1028300000F0A6FF012802D0FF2005B030BD002027
:10284000FBE7000004ED00E010B50446FFF744FE8E
:102850000028204603D0BDE8104000F05ABCBDE877
:10286000104000F044BC38B543684BB1012909D190
:102870000320002200901146012000F009FF38BD1E
:10288000012901D0002038BD03220021012000F0E1
:10289000DBFE040004D000231A46194600F070FF46
:1028A000204638BD38B5002405460094FFF714FED5
:1028B00090B16946284601F071F8012801D0FF2047
:1028C00038BD009888B10A494FF080500860BFF3C6
:1028D0004F8FBFF36F8F08E000231A461946284632
:1028E00000F04EFF012800D0FF24204638BD000034
:1028F00004ED00E038B505004FF0000000900FD067
:102900000024481C0ED001B10C46FFF7E5FDB8B11C
:102910006A460021284601F02BF9012816D104E06F
:10292000802038BD4FF0FF34EFE7009880B10949AF
:102930004FF080500860BFF34F8FBFF36F8F07E0F9
:102940002146284601F062F9012801D0FF2038BD58
:10295000002038BD04ED00E07FB50D460446416916
:10296000B0F9080081B1A16971B1FFF7CFFED4E9D8
:1029700005128DE80700D4E900102B46226901F00A
:1029800068FA039004B070BDFFF7C0FE03A9CDE95B
:102990000001208A2B4682B2D4E9001001F02CFA03
:1029A000012801D00020EDE70398EBE710B500F017
:1029B000BBFC002010BD00002DE9F041184C0F4673
:1029C000054666692068001D00F07EFB38B9206866
:1029D00090F82C1001208840A1698143A161681CF6
:1029E00007D137B12168BDE8F0410E48091D00F05C
:1029F000CBBB20683544B5424560216805D2A0684C
:102A0000BDE8F041091D00F0A7BB6068091D00F09A
:102A1000A3FB206B854200D22563BDE8F081000056
:102A200044000020680500202DE9F041054600F033
:102A3000B7FB2E4C2069401C206120682C4F10B140
:102A4000E06940B32DE025602069012829D10026E6
:102A500006EB860007EB800000F070FB761C072E6B
:102A6000F6D323488C3000F069FB2148A03000F0F9
:102A700065FB1F48B43000F061FB1D48C83000F012
:102A80005DFB1B48DC3000F059FB19488C3060605E
:102A90001430A06005E02068E96AC06A884200D866
:102AA0002560E06A401CE062E96A0120A269884072
:102AB0001043A06101EB810007EB8000291D00F0AD
:102AC00063FB00F08DFBE06900280CD02068E96A08
:102AD000C06A884207D207494FF080500860BFF3B0
:102AE0004F8FBFF36F8FBDE8F081000044000020DE
:102AF0008C04002004ED00E030B4026C0B46002A88
:102B00000BD0C1681144C1604468A14201D301687F
:102B1000C16030BC1846FDF783BB30BC70472DE95F
:102B2000F041856B174604460026026C82B1C7B19E
:102B3000E068FDF775FBE168206C091AE160226826
:102B4000914202D26168081AE060022F16D017E0A5
:102B50002068A8B9606801F019FA06460020606094
:102B60000EE0A068FDF75CFB216CA0680844A06043
:102B70006168884204D32068A06001E005B16D1E41
:102B80006D1CA5633046BDE8F08110B5044690F891
:102B9000510058B101280CD002280FD0502080F3EA
:102BA0001188BFF34F8FBFF36F8FFEE7206B00F0EC
:102BB0002BFB2046BDE8104000F026BB10BD0000F6
:102BC00010484FF42051420706D0C01D0D4920F097
:102BD0000700411AC1F520510B4A00230144C2E904
:102BE00000030839103A21F0070111604B600B60B7
:102BF0000B1AC0E9001393604FF000405360D0609F
:102C0000704700007C05002090000020144E154CF9
:102C1000A6F1C8074FF08058DFF84C9012E000BFD3
:102C200000F0BEFAF068C568281D00F04DFA206972
:102C3000401E2061E068401EE06000F0D1FA2846A6
:102C4000FFF7A3FFE0680028EAD138680128F9D926
:102C5000C9F80080BFF34F8FBFF36F8FF2E700001A
:102C6000540500204400002004ED00E003460098D5
:102C700029B10260C0E90F31012100F03DBD0060C3
:102C8000F8E72DE9F0479A46DDE9098481466FF0BF
:102C90000303206B03EB82021044089D20F007061B
:102CA000700707D0502080F31188BFF34F8FBFF318
:102CB0006F8FFEE723180A5C83F834200A5C12B198
:102CC000401C1028F6D3002784F84370072D00D34A
:102CD0000625E562C4E91157201D00F03AFA04F117
:102CE000180000F036FA2461C5F107006462A061A3
:102CF000E76484F8507052464946304600F00EF9B9
:102D00002060B8F1000F01D0C8F80040BDE8F0879E
:102D100030B5114900E011460A688242FBD34B6886
:102D20005C18844203D140681844486008464368F0
:102D30001C18944209D1084C103C2468A24209D0C6
:102D400052681A4442600A6812680260814200D0E8
:102D5000086030BD0460F9E79000002010B504461B
:102D600000F01EFAA06B28B15FF0000400F038FA02
:102D7000204610BD0124F9E706484168096829B1D9
:102D80004168C968C9684968016370474FF0FF31FD
:102D9000FAE700004400002008484068401C4FF05B
:102DA000500080F3118804D0BFF34F8FBFF36F8FB3
:102DB000FEE7BFF34F8FBFF36F8FFEE79800002051
:102DC0002DE9F041044600F0EBF994F9455004F187
:102DD000240609E0606A48B1304601F06DF908B197
:102DE00000F000FB6D1E6DB2002DF3DC4FF0FF36DE
:102DF00084F8456000F0F4F900F0D2F994F94450F9
:102E000004F1100709E0206948B1384601F054F98F
:102E100008B100F0E7FA6D1E6DB2002DF3DC84F806
:102E20004460BDE8F04100F0DBB900002DE9F0415D
:102E30000546002700F07EFB314E306808B9FFF7E9
:102E4000BFFEF06805424BD1C5B3083568070ED008
:102E500005F00700C0F108000544680707D05020BE
:102E600080F31188BFF34F8FBFF36F8FFEE72DB351
:102E70007068854234D82248103001460C6801E061
:102E800020460C466168A94202D221680029F7D188
:102E900031688C4224D00768216801606068083777
:102EA000411B10290FD96019420708D0502080F328
:102EB0001188BFF34F8FBFF36F8FFEE710E04160C3
:102EC0006560FFF725FF61687068401A7060B2683E
:102ED000904200D2B060F06801430020C4E90001D4
:102EE00001F024F9780707D0502080F31188BFF350
:102EF0004F8FBFF36F8FFEE73846BDE8F0810000CB
:102F0000800000200449086818B10868826C521CCF
:102F100082640868704700004400002010B5031F59
:102F20004FF080741C601B1F21F001011960191FF4
:102F3000024B0B60143940380A6010BD992D00080F
:102F40002DE9FE430D461446804600273223042215
:102F500023492846FEF7D8FB0120FDF74DFB214D04
:102F60002868FFF771FC092838D36422684629686D
:102F7000FFF7F2FB019820702868FFF765FC10B19D
:102F800020785928F1D1642268462968FFF7E4FBCC
:102F90000198C0B2607059280CD10026642268469E
:102FA0002968FFF7D9FBA119761C0198F6B2887041
:102FB000072EF3D30020215C401C3944C0B2CFB2AD
:102FC0000828F8D3207AB84208D1A078E17800EB3D
:102FD0000120A8F800000120BDE8FE830020FBE7E7
:102FE000A90000202000002010B504A0FEF7C2FFB9
:102FF0001221BDE81040192000F050B872696768CE
:10300000740A000070B5084D044600224FF4807128
:103010002846FDF706FC012251022846FDF701FC77
:103020000248046070BD0000001001403C040040F4
:1030300070B5074D0446012211022846FDF7F1FB49
:10304000002269152846FDF7ECFB0248046070BDBC
:10305000001001403C04004030B504780025521EA9
:10306000944202DB0270002203E09C4203D803700A
:1030700001220A700125097831B1012901D00F21FF
:1030800004E00178491C01E00178491E0170C8B2D2
:1030900001490860284630BD3404004010B50C4694
:1030A000FFF76AFA2046FDF751F94FF06632054BFB
:1030B000FDF7DAF8FDF757F9BDE81040C0B2FFF7A9
:1030C000B7BF00006666F63FD0E9013201699A6039
:1030D000D0E901235A604A68824201D182684A607D
:1030E000002202610868401E08600868704710B539
:1030F000040006D000F054F8A46B00F071F82046EC
:1031000010BD502080F31188BFF34F8FBFF36F8F36
:10311000FEE708B1806B7047502080F31188BFF341
:103120004F8FBFF36F8FFEE7034B036003F1540033
:103130000860802010607047F801002000F108014D
:103140004FF0FF32C0E90112C1600161002101604E
:10315000704700210161704730B50B685A1C02D0DE
:1031600000F1080202E0026904E022465468256882
:103170009D42FAD953684B6099608A60516008613A
:103180000168491C016030BD42684A6093688B60E9
:1031900093685960916008610168491C016070473B
:1031A000502080F31188BFF34F8FBFF36F8F0A4910
:1031B0004868401C486001280CD10848006810F09D
:1031C000FF0F07D0502080F31188BFF34F8FBFF35C
:1031D0006F8FFEE7704700009800002004ED00E0CC
:1031E0000849486828B1401E486001D180F3118821
:1031F0007047502080F31188BFF34F8FBFF36F8F5C
:10320000FEE700009800002070B5002827D0144D7C
:10321000A0F108046168E868014207D1502080F3FA
:103220001188BFF34F8FBFF36F8FFEE722683AB16B
:10323000502080F31188BFF34F8FBFF36F8FFEE7ED
:103240008143616000F076F96068696808446860ED
:103250002046FFF75DFDBDE8704000F067BF70BD20
:10326000800000204FF0E0200021016181610549CC
:103270004FF47A720968B1FBF2F1491E41610721EE
:10328000016170474000002010B5FCF7A3FF114911
:1032900010280ED300F1E02090F8F0030A78904255
:1032A00007D2502080F31188BFF34F8FBFF36F8F89
:1032B000FEE709480068896800F4E060884207D9A1
:1032C000502080F31188BFF34F8FBFF36F8FFEE75D
:1032D00010BD0000980000200CED00E010B50200C9
:1032E00014D00F48806B38B1502080F31188BFF3A1
:1032F0004F8FBFF36F8FFEE700F01CF900211046DF
:10330000FFF75AFB00F012FF002807D105494FF0E4
:1033100080500860BFF34F8FBFF36F8F10BD000068
:103320004400002004ED00E070B50546FFF738FFCB
:10333000254C05B92568281DFFF7C6FE58B9E86A6F
:10334000224A00EB800152F8211021B9012181406D
:10335000A0698843A061A86A18B105F11800FFF7B9
:10336000B3FEE06A401CE0622068854208D117483D
:10337000291DC830FFF708FFE068401CE06007E047
:103380002069401E20612846FFF7FFFBFFF7F4FC91
:10339000FFF726FFE069002814D02068854211D18C
:1033A000A06B38B1502080F31188BFF34F8FBFF36B
:1033B0006F8FFEE706494FF080500860BFF34F8FD4
:1033C000BFF36F8F70BD0000440000208C0400200C
:1033D00004ED00E002498A6A026049694160704771
:1033E0004400002001490120486270474400002049
:1033F00010B50C4650B1094909681831FFF7ACFE09
:103400002046BDE810400121FFF7D6BA502080F3D6
:103410001188BFF34F8FBFF36F8FFEE7440000208A
:1034200070B504004BD0A26CA2B1606C884200D38E
:103430000146E06A884242D0012A40D1204D2A68E4
:1034400094420FD1502080F31188BFF34F8FBFF308
:103450006F8FFEE7502080F31188BFF34F8FBFF3CB
:103460006F8FFEE7E162A269002A02DBC1F107016A
:10347000A161144E00EB8000616906EB800081427F
:103480001DD1201DFFF720FE012150B9E06A00EB9D
:10349000800256F8222022B9AA6901FA00F082437C
:1034A000AA61E06AAA6981401143A96100EB80002A
:1034B00006EB8000211DBDE87040FFF765BE70BDC2
:1034C000440000208C04002010B586B00024039432
:1034D00005AA04A903A80494FFF726FEDDE9030169
:1034E0000094CDE9011000230EA11048059A00F0C8
:1034F000B0FC0F490028486311D0502080F3118898
:10350000BFF34F8FBFF36F8F4FF0FF300863012081
:10351000C8614C6106B0BDE8104000F041B806B08B
:1035200010BD000049444C45000000000D2C00086F
:10353000440000200248816B491C816370470000F1
:10354000440000201448816B11B101214162704791
:10355000002141628169B1FA81F1C1F11F0101EBE2
:1035600081020E4951F822306BB101EB820101F169
:1035700008034A6852684A609A4201D152684A6018
:10358000D16801607047502080F31188BFF34F8FDE
:10359000BFF36F8FFEE70000440000208C04002082
:1035A0001CB5264908780190FF20087008788DF82E
:1035B00000009DF800009DF8002000F0F00090420F
:1035C00007D0502080F31188BFF34F8FBFF36F8F68
:1035D000FEE79DF800001A4B00F05000187007201D
:1035E000986005E09DF8002052008DF80020401EF4
:1035F0009DF800201206F5D49860032807D05020CB
:1036000080F31188BFF34F8FBFF36F8FFEE74FF446
:1036100040709860019808700A48016841F4700190
:103620000160016841F070410160FFF71BFE00205E
:103630005860FCF799FD00201CBD000000E400E08C
:103640009800002020ED00E0F8B517460E46050072
:1036500014D0DEB105FB06F04830FFF7E7FB0400AD
:103660000AD0002084F8460004F148023B46314667
:1036700028460094FFF7FAFA2046F8BD502080F360
:103680001188BFF34F8FBFF36F8FFEE70020E3E792
:1036900038B5049D18B153B1CAB181B120E05020B2
:1036A00080F31188BFF34F8FBFF36F8FFEE7502079
:1036B00080F31188BFF34F8FBFF36F8FFEE7502069
:1036C00080F31188BFF34F8FBFF36F8FFEE739B1DF
:1036D000502080F31188BFF34F8FBFF36F8FFEE749
:1036E00048241C46012384F846302B460094FFF7FB
:1036F000BDFA204638BD000070B50D46040025D047
:10370000FFF74EFDD4E90F20216802FB0011616034
:103710000021A1632168A1600A46D4E90F01401E7F
:1037200000FB0121E16021464FF0FF3001F8440F1A
:10373000487004F110008DB1FFF700FD04F1240082
:10374000FFF7FCFCFFF74CFD012070BD502080F31B
:103750001188BFF34F8FBFF36F8FFEE721690029F8
:10376000F0D000F0A9FC0028ECD004494FF08050C4
:103770000860BFF34F8FBFF36F8FE3E704ED00E006
:103780002DE9FF4782B01D468A464FF0000804002D
:1037900003D0BAF1000F08D011E0502080F3118857
:1037A000BFF34F8FBFF36F8FFEE7206C38B150200F
:1037B00080F31188BFF34F8FBFF36F8FFEE7022DA9
:1037C0000AD1E06B012807D0502080F31188BFF3A5
:1037D0004F8FBFF36F8FFEE700F066FB3F4F4FF058
:1037E00000094FF0805648B9049838B1502080F352
:1037F0001188BFF34F8FBFF36F8FFEE7FFF7D0FC49
:10380000A06BE16B884207D3022D05D00498D0B19C
:10381000B8F1000F1AD01EE02A4651462046FFF7A5
:103820007EF9616A19B104F1240000F045FC20B171
:103830003E60BFF34F8FBFF36F8FFFF7D1FC0120C6
:1038400006B0BDE8F087FFF7CBFC22E06846FFF743
:10385000C1FD4FF00108FFF7C3FCFFF76BFEFFF758
:103860009FFC94F94400401C01D184F8449094F9E1
:103870004500401C01D184F84590FFF7B1FC04A934
:10388000684600F07FFA30B12046FFF799FA00F061
:103890004DFC0020D4E7FFF783FCA06BE16B88426E
:1038A00013D1FFF79DFC04F110000499FFF7A0FD70
:1038B0002046FFF785FA00F039FC00289ED13E60D3
:1038C000BFF34F8FBFF36F8F98E7FFF789FC204658
:1038D000FFF776FA00F02AFC90E7000004ED00E024
:1038E0002DE9F0471F4690468946040003D0B9F100
:1038F000000F08D011E0502080F31188BFF34F8FE4
:10390000BFF36F8FFEE7206C38B1502080F3118831
:10391000BFF34F8FBFF36F8FFEE7022F0AD1E06B2B
:10392000012807D0502080F31188BFF34F8FBFF3D9
:103930006F8FFEE7FFF7A8FC5020EFF3118680F3AE
:103940001188BFF34F8FBFF36F8FA06BE16B88427D
:1039500006D3022F04D0002086F31188BDE8F0873B
:1039600094F945503A4649462046FFF7D8F8681C76
:1039700004D06D1C84F845500120EDE7606A0028F2
:10398000FAD004F1240000F097FB0028F4D0B8F13D
:10399000000FF1D00121C8F80010EDE770B50E4618
:1039A000040009D0206C78B1502080F31188BFF357
:1039B0004F8FBFF36F8FFEE7502080F31188BFF366
:1039C0004F8FBFF36F8FFEE7206848B9606838B14A
:1039D000502080F31188BFF34F8FBFF36F8FFEE746
:1039E000FFF752FC5020EFF3118580F31188BFF3ED
:1039F0004F8FBFF36F8FA16BE06B884218D994F99A
:103A00004500491CA163411C04D0401C84F84500BA
:103A100001200EE0606A0028FAD004F1240000F0D2
:103A20004BFB0028F4D0002EF2D001203060EFE7ED
:103A3000002085F3118870BD2DE9F747002683B07B
:103A40008A46040003D0BAF1000F08D011E05020DC
:103A500080F31188BFF34F8FBFF36F8FFEE7206CA9
:103A600038B1502080F31188BFF34F8FBFF36F8FB1
:103A7000FEE700F019FADFF8F4804FF000094FF08C
:103A8000805748B9059838B1502080F31188BFF3AA
:103A90004F8FBFF36F8FFEE7FFF782FBA56BC5B1BA
:103AA00051462046FFF728F86D1EA563206950B1E6
:103AB00004F1100000F000FB28B1C8F80070BFF35B
:103AC0004F8FBFF36F8FFFF78BFB012006B0BDE870
:103AD000F087059808B11EB106E0FFF781FB27E0EB
:103AE0006846FFF777FC0126FFF77AFBFFF722FD18
:103AF000FFF756FB94F94400401C01D184F8449030
:103B000094F94500401C01D184F84590FFF768FB0B
:103B100005A9684600F036F9002820460AD0FFF7CC
:103B20004FF900F003FB2046FFF718F90028B3D047
:103B30000020CBE7FFF712F990B104F124000599BA
:103B4000FFF756FC2046FFF73BF900F0EFFA00289C
:103B5000A2D1C8F80070BFF34F8FBFF36F8F9BE700
:103B60002046FFF72DF900F0E1FA95E704ED00E0BB
:103B70002DE9F04790468946040003D0B9F1000FC3
:103B800008D011E0502080F31188BFF34F8FBFF3AE
:103B90006F8FFEE7206C38B1502080F31188BFF39F
:103BA0004F8FBFF36F8FFEE7FFF76EFB5020EFF3F1
:103BB000118680F31188BFF34F8FBFF36F8FA76B10
:103BC000F7B194F9445049462046FEF795FF7F1E11
:103BD000A763681C04D06D1C84F84450012010E0D9
:103BE00020690028FAD004F1100000F065FA0028DE
:103BF000F4D0B8F1000FF1D00121C8F80010EDE7C2
:103C0000002086F31188BDE8F08700002DE9F3431A
:103C1000002683B00400354609D0206C78B15020CE
:103C200080F31188BFF34F8FBFF36F8FFEE75020F3
:103C300080F31188BFF34F8FBFF36F8FFEE700F063
:103C400033F9DFF83C814FF000094FF0805748B955
:103C5000049838B1502080F31188BFF34F8FBFF321
:103C60006F8FFEE7FFF79CFAA06BC8B1401EA06300
:103C7000206810B9FFF746F96060206950B104F17F
:103C8000100000F019FA28B1C8F80070BFF34F8F88
:103C9000BFF36F8FFFF7A4FA012005B0BDE8F083F2
:103CA000049808B166B10FE03DB1502080F311884F
:103CB000BFF34F8FBFF36F8FFEE7FFF791FA5DE021
:103CC0006846FFF787FB0126FFF78AFAFFF732FC09
:103CD000FFF766FA94F94400401C01D184F844903F
:103CE00094F94500401C01D184F84590FFF778FA1B
:103CF00004A9684600F046F80028204612D0FFF7D5
:103D00005FF800F013FA2046FFF728F80028A9D042
:103D10009DB3FFF745FA606A50B3206B0068C0F1AD
:103D2000070126E0FFF71AF8E0B1206838B9FFF77D
:103D300037FA606800F076F90546FFF751FA04F1AA
:103D400024000499FFF754FB2046FFF739F800F0F0
:103D5000EDF9002886D1C8F80070BFF34F8FBFF38C
:103D60006F8F7FE72046FFF72BF800F0DFF979E748
:103D700000216068FFF754FB9FE7FFE700208CE716
:103D800004ED00E02DE9F0410C46050011D0C4B16E
:103D9000FFF706FA174B5A696E682068911B471C9B
:103DA00017D02F689B6A9F4219D0964217D80124DA
:103DB00010E0502080F31188BFF34F8FBFF36F8F57
:103DC000FEE7502080F31188BFF34F8FBFF36F8F52
:103DD000FEE70024FFF704FA2046BDE8F0818842A0
:103DE00005D9401A20602846FFF7F4FAF1E70020D1
:103DF0002060DCE7440000202DE9FF5F8346DDE919
:103E00000E87994616468A469000FFF70FF8050080
:103E10001CD05420FFF70AF8040014D000202563BA
:103E200084F85100CDE90240CDE900874B46324687
:103E300051465846FEF725FF2046FEF7F5FD0120C6
:103E400004B0BDE8F09F2846FFF7DEF94FF0FF30E1
:103E5000F6E7F0B585B0DDE90B640A9DA6B1DCB1EB
:103E6000542700972663022684F85160002604AF89
:103E7000CDE90246CDE90057FEF703FF2046FEF7E5
:103E8000D3FD049805B0F0BD502080F31188BFF336
:103E90004F8FBFF36F8FFEE7502080F31188BFF381
:103EA0004F8FBFF36F8FFEE70548C16919B1806B73
:103EB00018B10020704701207047022070470000B1
:103EC000440000202DE9F0412E4C0027A06B40B1AA
:103ED000206A401C2062606A00B101273846BDE8B4
:103EE000F0816669761C666113D16068006838B13C
:103EF000502080F31188BFF34F8FBFF36F8FFEE721
:103F00006068A1686160A060A06A401CA062FEF7C2
:103F100033FF206BDFF87080864209D36068006849
:103F200080B16068C068C568686886420DD2206349
:103F30002068C06A00EB800158F821000128CAD926
:103F40000127C8E74FF0FF30F1E7281DFFF7BCF865
:103F5000A86A18B105F11800FFF7B6F8E86A012160
:103F6000A26981401143A16100EB800108EB81004F
:103F7000291DFFF709F9E86A2168C96A8842CDD38B
:103F80000127CBE7440000208C04002070B504001A
:103F90004FF0000140D0214D2868844207D05020C6
:103FA00080F31188BFF34F8FBFF36F8FFEE7A06CD4
:103FB00038B1401EA064636CE26A9A422CD040B1D2
:103FC0002AE0502080F31188BFF34F8FBFF36F8F2B
:103FD000FEE7201DFFF778F8114A012150B9E06A89
:103FE00000EB800352F8233023B9AB6901FA00F0EB
:103FF0008343AB61606CE062C0F10700A061E06ADE
:10400000AB6981401943A96100EB800002EB80009D
:10401000211DFFF7B9F80121084670BD44000020BA
:104020008C04002070B504004FF0000038D0204D03
:10403000E16A2A68D26A914233D2A069002804DB7F
:104040002868C06AC0F10700A0611A4E01EB810127
:10405000606906EB810188421ED1201DFFF734F80C
:10406000012150B9E06A00EB800256F8222022B903
:10407000AA6901FA00F08243AA612868C06AE06276
:10408000AA6981401143A96100EB800006EB800022
:10409000211DFFF779F802E02868C06AE06201207C
:1040A00070BD616C2A68D26A9142F8D370BD00007D
:1040B000440000208C0400202DE9F041C068C46851
:1040C000ACB104F118000746FEF7FEFF154DA86BD2
:1040D0000126A0B139461448FFF756F8E06A29686E
:1040E000C96A88421CD901206E62BDE8F081502067
:1040F00080F31188BFF34F8FBFF36F8FFEE7201D52
:10410000FEF7E2FFE16AAA6906FA01F01043A8612E
:1041100001EB81000449B43901EB8000211DDBE78C
:104120000020E2E744000020400500202DE9F04790
:104130002C4D00242746A86B38B1FFF731F8A86B47
:10414000401EA863A86B40B146E0502080F3118860
:10415000BFF34F8FBFF36F8FFEE72969224E012017
:10416000D1B3A6F1B40980463068E8B1F068C468FC
:1041700004F11800FEF7A8FF201DFEF7A5FFE06A76
:10418000AA6908FA00F11143A96100EB800109EB6B
:104190008100211DFEF7F8FFE06A2968C96A88429C
:1041A000E2D3C5F82480DFE70CB1FEF7E5FD2C6A09
:1041B00044B14646FFF786FE00B16E62641EF9D137
:1041C00000202862686A38B108490127380708606A
:1041D000BFF34F8FBFF36F8FFFF702F83846BDE88C
:1041E000F0870000440000204005002004ED00E0BE
:1041F000230032000A00000001000000040000005B
:1042000000000000000000000100000002000000AB
:10421000000000000000000020000000010000007D
:104220000000000000000000DC420008BD21000882
:10423000FDFF000000000000800000000000000002
:104240000000000004430008ED2300080000000007
:1042500000000000800000000000000000000000DE
:10426000CC420008DD210008020000000000000030
:10427000800000000000000000000000EC42000888
:10428000A5240008010000000000000080000000DC
:104290000000000000000000F8420008FD210008B6
:1042A000000000000000000080000000000000008E
:1042B00000000000000000000000000001020304F4
:1042C0000607080900000000010203047461736B13
:1042D0005F696E697469616C697A65007461736B9A
:1042E0005F4C45445F626C696E6B00007461736B78
:1042F0005F736572766F00007461736B5F6C6964E5
:10430000617200007461736B5F6D6F746F72000097
:104310003043000800000020BC000000B41F00086B
:10432000EC430008BC000020C4300000C41F00089B
:10433000000000000000000000000000000000007D
:10434000000000000000000000000000000000006D
:10435000000000000000000000000000000000005D
:10436000000000000100000010000000000000003C
:104370000024F40000000000000000000000000025
:10438000000000000000000000000000000000002D
:10439000000000000000000000000000000000001D
:1043A000000000000000000000000000000000000D
:1043B00000000000000000000000000000000000FD
:1043C000000000000000000000000000AAAAAAAA45
:1043D00000000000000A1405015A040462FFFFFFF8
:0C43E000FFFFFFFFFFFF000000000000D7
:0400000508000131BD
:00000001FF
