Component: ARM Compiler 5.06 update 6 (build 750) Tool: armlink [4d35ed]

==============================================================================

Section Cross References

    startup_stm32f103xe.o(RESET) refers to startup_stm32f103xe.o(STACK) for __initial_sp
    startup_stm32f103xe.o(RESET) refers to startup_stm32f103xe.o(.text) for Reset_Handler
    startup_stm32f103xe.o(RESET) refers to stm32f1xx_it.o(i.NMI_Handler) for NMI_Handler
    startup_stm32f103xe.o(RESET) refers to stm32f1xx_it.o(i.HardFault_Handler) for HardFault_Handler
    startup_stm32f103xe.o(RESET) refers to stm32f1xx_it.o(i.MemManage_Handler) for MemManage_Handler
    startup_stm32f103xe.o(RESET) refers to stm32f1xx_it.o(i.BusFault_Handler) for BusFault_Handler
    startup_stm32f103xe.o(RESET) refers to stm32f1xx_it.o(i.UsageFault_Handler) for UsageFault_Handler
    startup_stm32f103xe.o(RESET) refers to port.o(.emb_text) for SVC_Handler
    startup_stm32f103xe.o(RESET) refers to stm32f1xx_it.o(i.DebugMon_Handler) for DebugMon_Handler
    startup_stm32f103xe.o(RESET) refers to port.o(i.SysTick_Handler) for SysTick_Handler
    startup_stm32f103xe.o(RESET) refers to stm32f1xx_it.o(i.TIM3_IRQHandler) for TIM3_IRQHandler
    startup_stm32f103xe.o(RESET) refers to stm32f1xx_it.o(i.TIM4_IRQHandler) for TIM4_IRQHandler
    startup_stm32f103xe.o(RESET) refers to stm32f1xx_it.o(i.USART1_IRQHandler) for USART1_IRQHandler
    startup_stm32f103xe.o(RESET) refers to stm32f1xx_it.o(i.USART2_IRQHandler) for USART2_IRQHandler
    startup_stm32f103xe.o(RESET) refers to stm32f1xx_it.o(i.USART3_IRQHandler) for USART3_IRQHandler
    startup_stm32f103xe.o(.text) refers to system_stm32f1xx.o(i.SystemInit) for SystemInit
    startup_stm32f103xe.o(.text) refers to entry.o(.ARM.Collect$$$$00000000) for __main
    main.o(i.HAL_TIM_PeriodElapsedCallback) refers to stm32f1xx_hal.o(i.HAL_IncTick) for HAL_IncTick
==============================================================================

Removing Unused input sections from the image.

    Removing startup_stm32f103xe.o(HEAP), (512 bytes).
    Removing main.o(.rev16_text), (4 bytes).
    Removing main.o(.revsh_text), (4 bytes).
    Removing main.o(.rrx_text), (6 bytes).
    Removing main.o(i.Error_Handler), (2 bytes).
    Removing main.o(.data), (1 bytes).
    Removing freertos.o(.rev16_text), (4 bytes).
    Removing freertos.o(.revsh_text), (4 bytes).
    Removing freertos.o(.rrx_text), (6 bytes).
    Removing stm32f1xx_it.o(.rev16_text), (4 bytes).
    Removing stm32f1xx_it.o(.revsh_text), (4 bytes).
    Removing stm32f1xx_it.o(.rrx_text), (6 bytes).
    Removing stm32f1xx_hal_msp.o(.rev16_text), (4 bytes).
    Removing stm32f1xx_hal_msp.o(.revsh_text), (4 bytes).
    Removing stm32f1xx_hal_msp.o(.rrx_text), (6 bytes).
    Removing stm32f1xx_hal_msp.o(i.HAL_TIM_Base_MspDeInit), (36 bytes).
    Removing stm32f1xx_hal_msp.o(i.HAL_UART_MspDeInit), (120 bytes).
    Removing stm32f1xx_hal_timebase_tim.o(.rev16_text), (4 bytes).
==============================================================================

Image Symbol Table

    Local Symbols

    Symbol Name                              Value     Ov Type        Size  Object(Section)

    ../Core/Src/freertos.c                   0x00000000   Number         0  freertos.o ABSOLUTE
    ../Core/Src/main.c                       0x00000000   Number         0  main.o ABSOLUTE
    ../Core/Src/stm32f1xx_hal_msp.c          0x00000000   Number         0  stm32f1xx_hal_msp.o ABSOLUTE
    ../Core/Src/stm32f1xx_hal_timebase_tim.c 0x00000000   Number         0  stm32f1xx_hal_timebase_tim.o ABSOLUTE
    ../Core/Src/stm32f1xx_it.c               0x00000000   Number         0  stm32f1xx_it.o ABSOLUTE
    ../Core/Src/system_stm32f1xx.c           0x00000000   Number         0  system_stm32f1xx.o ABSOLUTE
    ../Drivers/STM32F1xx_HAL_Driver/Src/stm32f1xx_hal.c 0x00000000   Number         0  stm32f1xx_hal.o ABSOLUTE
    ../Drivers/STM32F1xx_HAL_Driver/Src/stm32f1xx_hal_cortex.c 0x00000000   Number         0  stm32f1xx_hal_cortex.o ABSOLUTE
    ../Drivers/STM32F1xx_HAL_Driver/Src/stm32f1xx_hal_dma.c 0x00000000   Number         0  stm32f1xx_hal_dma.o ABSOLUTE
    ../Drivers/STM32F1xx_HAL_Driver/Src/stm32f1xx_hal_exti.c 0x00000000   Number         0  stm32f1xx_hal_exti.o ABSOLUTE
    ../Drivers/STM32F1xx_HAL_Driver/Src/stm32f1xx_hal_flash.c 0x00000000   Number         0  stm32f1xx_hal_flash.o ABSOLUTE
    ../Drivers/STM32F1xx_HAL_Driver/Src/stm32f1xx_hal_flash_ex.c 0x00000000   Number         0  stm32f1xx_hal_flash_ex.o ABSOLUTE
    ../Drivers/STM32F1xx_HAL_Driver/Src/stm32f1xx_hal_gpio.c 0x00000000   Number         0  stm32f1xx_hal_gpio.o ABSOLUTE
    ../Drivers/STM32F1xx_HAL_Driver/Src/stm32f1xx_hal_gpio_ex.c 0x00000000   Number         0  stm32f1xx_hal_gpio_ex.o ABSOLUTE
    ../Drivers/STM32F1xx_HAL_Driver/Src/stm32f1xx_hal_pwr.c 0x00000000   Number         0  stm32f1xx_hal_pwr.o ABSOLUTE
    ../Drivers/STM32F1xx_HAL_Driver/Src/stm32f1xx_hal_rcc.c 0x00000000   Number         0  stm32f1xx_hal_rcc.o ABSOLUTE
    ../Drivers/STM32F1xx_HAL_Driver/Src/stm32f1xx_hal_rcc_ex.c 0x00000000   Number         0  stm32f1xx_hal_rcc_ex.o ABSOLUTE
    ../Drivers/STM32F1xx_HAL_Driver/Src/stm32f1xx_hal_tim.c 0x00000000   Number         0  stm32f1xx_hal_tim.o ABSOLUTE
    ../Drivers/STM32F1xx_HAL_Driver/Src/stm32f1xx_hal_tim_ex.c 0x00000000   Number         0  stm32f1xx_hal_tim_ex.o ABSOLUTE
    ../Drivers/STM32F1xx_HAL_Driver/Src/stm32f1xx_hal_uart.c 0x00000000   Number         0  stm32f1xx_hal_uart.o ABSOLUTE
    ../Middlewares/Third_Party/FreeRTOS/Source/CMSIS_RTOS/cmsis_os.c 0x00000000   Number         0  cmsis_os.o ABSOLUTE
    ../Middlewares/Third_Party/FreeRTOS/Source/croutine.c 0x00000000   Number         0  croutine.o ABSOLUTE
    ../Middlewares/Third_Party/FreeRTOS/Source/event_groups.c 0x00000000   Number         0  event_groups.o ABSOLUTE
    ../Middlewares/Third_Party/FreeRTOS/Source/list.c 0x00000000   Number         0  list.o ABSOLUTE
    ../Middlewares/Third_Party/FreeRTOS/Source/portable/MemMang/heap_4.c 0x00000000   Number         0  heap_4.o ABSOLUTE
    ../Middlewares/Third_Party/FreeRTOS/Source/portable/RVDS/ARM_CM3/port.c 0x00000000   Number         0  port.o ABSOLUTE
    ../Middlewares/Third_Party/FreeRTOS/Source/queue.c 0x00000000   Number         0  queue.o ABSOLUTE
    ../Middlewares/Third_Party/FreeRTOS/Source/stream_buffer.c 0x00000000   Number         0  stream_buffer.o ABSOLUTE
    ../Middlewares/Third_Party/FreeRTOS/Source/tasks.c 0x00000000   Number         0  tasks.o ABSOLUTE
    ../Middlewares/Third_Party/FreeRTOS/Source/timers.c 0x00000000   Number         0  timers.o ABSOLUTE
    ../clib/microlib/division.c              0x00000000   Number         0  uldiv.o ABSOLUTE
    ../clib/microlib/division.c              0x00000000   Number         0  uidiv.o ABSOLUTE
    ../clib/microlib/init/entry.s            0x00000000   Number         0  entry10b.o ABSOLUTE
    ../clib/microlib/init/entry.s            0x00000000   Number         0  entry10a.o ABSOLUTE
    ../clib/microlib/init/entry.s            0x00000000   Number         0  entry9b.o ABSOLUTE
    ../clib/microlib/init/entry.s            0x00000000   Number         0  entry9a.o ABSOLUTE
    ../clib/microlib/init/entry.s            0x00000000   Number         0  entry8b.o ABSOLUTE
    ../clib/microlib/init/entry.s            0x00000000   Number         0  entry8a.o ABSOLUTE
    ../clib/microlib/init/entry.s            0x00000000   Number         0  entry7b.o ABSOLUTE
    ../clib/microlib/init/entry.s            0x00000000   Number         0  entry7a.o ABSOLUTE
    ../clib/microlib/init/entry.s            0x00000000   Number         0  entry2.o ABSOLUTE
    ../clib/microlib/init/entry.s            0x00000000   Number         0  entry5.o ABSOLUTE
    ../clib/microlib/init/entry.s            0x00000000   Number         0  entry11b.o ABSOLUTE
    ../clib/microlib/init/entry.s            0x00000000   Number         0  entry11a.o ABSOLUTE
    ../clib/microlib/init/entry.s            0x00000000   Number         0  entry.o ABSOLUTE
    ../clib/microlib/longlong.c              0x00000000   Number         0  llshl.o ABSOLUTE
    ../clib/microlib/longlong.c              0x00000000   Number         0  llsshr.o ABSOLUTE
    ../clib/microlib/longlong.c              0x00000000   Number         0  llushr.o ABSOLUTE
    ../clib/microlib/printf/printf.c         0x00000000   Number         0  printf2.o ABSOLUTE
    ../clib/microlib/printf/printf.c         0x00000000   Number         0  printf1.o ABSOLUTE
    ../clib/microlib/printf/printf.c         0x00000000   Number         0  printf3.o ABSOLUTE
    ../clib/microlib/printf/printf.c         0x00000000   Number         0  printf8.o ABSOLUTE
    ../clib/microlib/printf/printf.c         0x00000000   Number         0  printf6.o ABSOLUTE
    ../clib/microlib/printf/printf.c         0x00000000   Number         0  printfb.o ABSOLUTE
    ../clib/microlib/printf/printf.c         0x00000000   Number         0  printf0.o ABSOLUTE
    ../clib/microlib/printf/printf.c         0x00000000   Number         0  printf5.o ABSOLUTE
    ../clib/microlib/printf/printf.c         0x00000000   Number         0  printf4.o ABSOLUTE
    ../clib/microlib/printf/printf.c         0x00000000   Number         0  printf7.o ABSOLUTE
    ../clib/microlib/printf/printf.c         0x00000000   Number         0  printfa.o ABSOLUTE
    ../clib/microlib/printf/stubs.s          0x00000000   Number         0  stubs.o ABSOLUTE
    ../clib/microlib/stdio/streams.c         0x00000000   Number         0  stdout.o ABSOLUTE
    ../clib/microlib/string/memcpy.c         0x00000000   Number         0  memcpyb.o ABSOLUTE
    ../clib/microlib/string/memcpy.c         0x00000000   Number         0  memcpya.o ABSOLUTE
    ../clib/microlib/string/memset.c         0x00000000   Number         0  memset.o ABSOLUTE
    ../clib/microlib/string/memset.c         0x00000000   Number         0  memseta.o ABSOLUTE
    ../clib/microlib/stubs.s                 0x00000000   Number         0  iusefp.o ABSOLUTE
    ../fplib/microlib/fpadd.c                0x00000000   Number         0  dadd.o ABSOLUTE
    ../fplib/microlib/fpdiv.c                0x00000000   Number         0  ddiv.o ABSOLUTE
    ../fplib/microlib/fpepilogue.c           0x00000000   Number         0  depilogue.o ABSOLUTE
    ../fplib/microlib/fpfix.c                0x00000000   Number         0  dfixul.o ABSOLUTE
    ../fplib/microlib/fpfix.c                0x00000000   Number         0  dfixui.o ABSOLUTE
    ../fplib/microlib/fpflt.c                0x00000000   Number         0  dfltui.o ABSOLUTE
    ../fplib/microlib/fpmul.c                0x00000000   Number         0  dmul.o ABSOLUTE
    ..\Core\Src\freertos.c                   0x00000000   Number         0  freertos.o ABSOLUTE
    ..\Core\Src\main.c                       0x00000000   Number         0  main.o ABSOLUTE
    ..\Core\Src\stm32f1xx_hal_msp.c          0x00000000   Number         0  stm32f1xx_hal_msp.o ABSOLUTE
    ..\Core\Src\stm32f1xx_hal_timebase_tim.c 0x00000000   Number         0  stm32f1xx_hal_timebase_tim.o ABSOLUTE
    ..\Core\Src\stm32f1xx_it.c               0x00000000   Number         0  stm32f1xx_it.o ABSOLUTE
    ..\Core\Src\system_stm32f1xx.c           0x00000000   Number         0  system_stm32f1xx.o ABSOLUTE
    ..\Drivers\STM32F1xx_HAL_Driver\Src\stm32f1xx_hal.c 0x00000000   Number         0  stm32f1xx_hal.o ABSOLUTE
    ..\Drivers\STM32F1xx_HAL_Driver\Src\stm32f1xx_hal_cortex.c 0x00000000   Number         0  stm32f1xx_hal_cortex.o ABSOLUTE
    ..\Drivers\STM32F1xx_HAL_Driver\Src\stm32f1xx_hal_dma.c 0x00000000   Number         0  stm32f1xx_hal_dma.o ABSOLUTE
    ..\Drivers\STM32F1xx_HAL_Driver\Src\stm32f1xx_hal_exti.c 0x00000000   Number         0  stm32f1xx_hal_exti.o ABSOLUTE
    ..\Drivers\STM32F1xx_HAL_Driver\Src\stm32f1xx_hal_flash.c 0x00000000   Number         0  stm32f1xx_hal_flash.o ABSOLUTE
    ..\Drivers\STM32F1xx_HAL_Driver\Src\stm32f1xx_hal_flash_ex.c 0x00000000   Number         0  stm32f1xx_hal_flash_ex.o ABSOLUTE
    ..\Drivers\STM32F1xx_HAL_Driver\Src\stm32f1xx_hal_gpio.c 0x00000000   Number         0  stm32f1xx_hal_gpio.o ABSOLUTE
    ..\Drivers\STM32F1xx_HAL_Driver\Src\stm32f1xx_hal_gpio_ex.c 0x00000000   Number         0  stm32f1xx_hal_gpio_ex.o ABSOLUTE
    ..\Drivers\STM32F1xx_HAL_Driver\Src\stm32f1xx_hal_pwr.c 0x00000000   Number         0  stm32f1xx_hal_pwr.o ABSOLUTE
    ..\Drivers\STM32F1xx_HAL_Driver\Src\stm32f1xx_hal_rcc.c 0x00000000   Number         0  stm32f1xx_hal_rcc.o ABSOLUTE
    ..\Drivers\STM32F1xx_HAL_Driver\Src\stm32f1xx_hal_rcc_ex.c 0x00000000   Number         0  stm32f1xx_hal_rcc_ex.o ABSOLUTE
    ..\Drivers\STM32F1xx_HAL_Driver\Src\stm32f1xx_hal_tim.c 0x00000000   Number         0  stm32f1xx_hal_tim.o ABSOLUTE
    ..\Drivers\STM32F1xx_HAL_Driver\Src\stm32f1xx_hal_tim_ex.c 0x00000000   Number         0  stm32f1xx_hal_tim_ex.o ABSOLUTE
    ..\Drivers\STM32F1xx_HAL_Driver\Src\stm32f1xx_hal_uart.c 0x00000000   Number         0  stm32f1xx_hal_uart.o ABSOLUTE
    ..\Middlewares\Third_Party\FreeRTOS\Source\CMSIS_RTOS\cmsis_os.c 0x00000000   Number         0  cmsis_os.o ABSOLUTE
    ..\Middlewares\Third_Party\FreeRTOS\Source\portable\RVDS\ARM_CM3\port.c 0x00000000   Number         0  port.o ABSOLUTE
    ..\USER\LiDar\LIDAR.c                    0x00000000   Number         0  lidar.o ABSOLUTE
    ..\USER\MMwave\MMWAVE.c                  0x00000000   Number         0  mmwave.o ABSOLUTE
    ..\USER\Motor\MOTOR.c                    0x00000000   Number         0  motor.o ABSOLUTE
    ..\USER\SERVO\SERVO.c                    0x00000000   Number         0  servo.o ABSOLUTE
    ..\USER\Utilities\util.c                 0x00000000   Number         0  util.o ABSOLUTE
    ..\\USER\\LiDar\\LIDAR.c                 0x00000000   Number         0  lidar.o ABSOLUTE
    ..\\USER\\MMwave\\MMWAVE.c               0x00000000   Number         0  mmwave.o ABSOLUTE
    ..\\USER\\Motor\\MOTOR.c                 0x00000000   Number         0  motor.o ABSOLUTE
    ..\\USER\\SERVO\\SERVO.c                 0x00000000   Number         0  servo.o ABSOLUTE
    ..\\USER\\Utilities\\util.c              0x00000000   Number         0  util.o ABSOLUTE
    cdrcmple.s                               0x00000000   Number         0  cdrcmple.o ABSOLUTE
    dc.s                                     0x00000000   Number         0  dc.o ABSOLUTE
    handlers.s                               0x00000000   Number         0  handlers.o ABSOLUTE
    init.s                                   0x00000000   Number         0  init.o ABSOLUTE
    startup_stm32f103xe.s                    0x00000000   Number         0  startup_stm32f103xe.o ABSOLUTE
    RESET                                    0x08000000   Section      304  startup_stm32f103xe.o(RESET)
    .ARM.Collect$$$$00000000                 0x08000130   Section        0  entry.o(.ARM.Collect$$$$00000000)
    .ARM.Collect$$$$00000001                 0x08000130   Section        4  entry2.o(.ARM.Collect$$$$00000001)
    .ARM.Collect$$$$00000004                 0x08000134   Section        4  entry5.o(.ARM.Collect$$$$00000004)
    .ARM.Collect$$$$00000008                 0x08000138   Section        0  entry7b.o(.ARM.Collect$$$$00000008)
    .ARM.Collect$$$$0000000A                 0x08000138   Section        0  entry8b.o(.ARM.Collect$$$$0000000A)
    .ARM.Collect$$$$0000000B                 0x08000138   Section        8  entry9a.o(.ARM.Collect$$$$0000000B)
    .ARM.Collect$$$$0000000D                 0x08000140   Section        0  entry10a.o(.ARM.Collect$$$$0000000D)
    .ARM.Collect$$$$0000000F                 0x08000140   Section        0  entry11a.o(.ARM.Collect$$$$0000000F)
    .ARM.Collect$$$$00002712                 0x08000140   Section        4  entry2.o(.ARM.Collect$$$$00002712)
    __lit__00000000                          0x08000140   Data           4  entry2.o(.ARM.Collect$$$$00002712)
    .emb_text                                0x08000144   Section      150  port.o(.emb_text)
    .text                                    0x080001dc   Section       36  startup_stm32f103xe.o(.text)
    .text                                    0x08000200   Section        0  memcpya.o(.text)
    .text                                    0x08000224   Section        0  memseta.o(.text)
    .text                                    0x08000248   Section        0  uidiv.o(.text)
    .text                                    0x08000274   Section       36  init.o(.text)
    i.BusFault_Handler                       0x08000298   Section        0  stm32f1xx_it.o(i.BusFault_Handler)
    i.DebugMon_Handler                       0x0800029a   Section        0  stm32f1xx_it.o(i.DebugMon_Handler)
    i.HAL_DMA_Abort_IT                       0x0800029c   Section        0  stm32f1xx_hal_dma.o(i.HAL_DMA_Abort_IT)
    i.HAL_Delay                              0x080003cc   Section        0  stm32f1xx_hal.o(i.HAL_Delay)
    i.HAL_GPIO_Init                          0x080003f0   Section        0  stm32f1xx_hal_gpio.o(i.HAL_GPIO_Init)
    i.HAL_GPIO_TogglePin                     0x080005e8   Section        0  stm32f1xx_hal_gpio.o(i.HAL_GPIO_TogglePin)
    i.HAL_GPIO_WritePin                      0x080005f6   Section        0  stm32f1xx_hal_gpio.o(i.HAL_GPIO_WritePin)
    i.HAL_GetTick                            0x08000600   Section        0  stm32f1xx_hal.o(i.HAL_GetTick)
    i.HAL_IncTick                            0x0800060c   Section        0  stm32f1xx_hal.o(i.HAL_IncTick)
    i.HAL_Init                               0x0800061c   Section        0  stm32f1xx_hal.o(i.HAL_Init)
    i.HAL_InitTick                           0x08000640   Section        0  stm32f1xx_hal_timebase_tim.o(i.HAL_InitTick)
    i.HAL_MspInit                            0x080006b4   Section        0  stm32f1xx_hal_msp.o(i.HAL_MspInit)
    i.HAL_NVIC_EnableIRQ                     0x080006f0   Section        0  stm32f1xx_hal_cortex.o(i.HAL_NVIC_EnableIRQ)
    i.HAL_NVIC_SetPriority                   0x0800070c   Section        0  stm32f1xx_hal_cortex.o(i.HAL_NVIC_SetPriority)
    i.HAL_NVIC_SetPriorityGrouping           0x0800074c   Section        0  stm32f1xx_hal_cortex.o(i.HAL_NVIC_SetPriorityGrouping)
    i.HAL_RCC_ClockConfig                    0x08000770   Section        0  stm32f1xx_hal_rcc.o(i.HAL_RCC_ClockConfig)
    i.HAL_RCC_GetClockConfig                 0x0800089c   Section        0  stm32f1xx_hal_rcc.o(i.HAL_RCC_GetClockConfig)
    i.HAL_RCC_GetPCLK1Freq                   0x080008dc   Section        0  stm32f1xx_hal_rcc.o(i.HAL_RCC_GetPCLK1Freq)
    i.HAL_RCC_GetPCLK2Freq                   0x080008fc   Section        0  stm32f1xx_hal_rcc.o(i.HAL_RCC_GetPCLK2Freq)
    i.HAL_RCC_GetSysClockFreq                0x0800091c   Section        0  stm32f1xx_hal_rcc.o(i.HAL_RCC_GetSysClockFreq)
    i.HAL_RCC_OscConfig                      0x08000988   Section        0  stm32f1xx_hal_rcc.o(i.HAL_RCC_OscConfig)
    i.HAL_TIMEx_BreakCallback                0x08000ca8   Section        0  stm32f1xx_hal_tim_ex.o(i.HAL_TIMEx_BreakCallback)
    i.HAL_TIMEx_CommutCallback               0x08000caa   Section        0  stm32f1xx_hal_tim_ex.o(i.HAL_TIMEx_CommutCallback)
    i.HAL_TIMEx_MasterConfigSynchronization  0x08000cac   Section        0  stm32f1xx_hal_tim_ex.o(i.HAL_TIMEx_MasterConfigSynchronization)
    i.HAL_TIM_Base_Init                      0x08000cee   Section        0  stm32f1xx_hal_tim.o(i.HAL_TIM_Base_Init)
    i.HAL_TIM_Base_MspInit                   0x08000d24   Section        0  stm32f1xx_hal_msp.o(i.HAL_TIM_Base_MspInit)
    i.HAL_TIM_Base_Start_IT                  0x08000d60   Section        0  stm32f1xx_hal_tim.o(i.HAL_TIM_Base_Start_IT)
    i.HAL_TIM_ConfigClockSource              0x08000d82   Section        0  stm32f1xx_hal_tim.o(i.HAL_TIM_ConfigClockSource)
    i.HAL_TIM_IC_CaptureCallback             0x08000e58   Section        0  stm32f1xx_hal_tim.o(i.HAL_TIM_IC_CaptureCallback)
    i.HAL_TIM_IRQHandler                     0x08000e5a   Section        0  stm32f1xx_hal_tim.o(i.HAL_TIM_IRQHandler)
    i.HAL_TIM_MspPostInit                    0x08000fc0   Section        0  stm32f1xx_hal_msp.o(i.HAL_TIM_MspPostInit)
    i.HAL_TIM_OC_DelayElapsedCallback        0x08001030   Section        0  stm32f1xx_hal_tim.o(i.HAL_TIM_OC_DelayElapsedCallback)
    i.HAL_TIM_PWM_ConfigChannel              0x08001032   Section        0  stm32f1xx_hal_tim.o(i.HAL_TIM_PWM_ConfigChannel)
    i.HAL_TIM_PWM_Init                       0x08001102   Section        0  stm32f1xx_hal_tim.o(i.HAL_TIM_PWM_Init)
    i.HAL_TIM_PWM_MspInit                    0x08001138   Section        0  stm32f1xx_hal_tim.o(i.HAL_TIM_PWM_MspInit)
    i.HAL_TIM_PWM_PulseFinishedCallback      0x0800113a   Section        0  stm32f1xx_hal_tim.o(i.HAL_TIM_PWM_PulseFinishedCallback)
    i.HAL_TIM_PWM_Start                      0x0800113c   Section        0  stm32f1xx_hal_tim.o(i.HAL_TIM_PWM_Start)
    i.HAL_TIM_PeriodElapsedCallback          0x08001180   Section        0  main.o(i.HAL_TIM_PeriodElapsedCallback)
    i.HAL_TIM_TriggerCallback                0x08001194   Section        0  stm32f1xx_hal_tim.o(i.HAL_TIM_TriggerCallback)
    i.HAL_UART_ErrorCallback                 0x08001196   Section        0  stm32f1xx_hal_uart.o(i.HAL_UART_ErrorCallback)
    i.HAL_UART_GetState                      0x08001198   Section        0  stm32f1xx_hal_uart.o(i.HAL_UART_GetState)
    i.HAL_UART_IRQHandler                    0x080011a4   Section        0  stm32f1xx_hal_uart.o(i.HAL_UART_IRQHandler)
    i.HAL_UART_Init                          0x080012b4   Section        0  stm32f1xx_hal_uart.o(i.HAL_UART_Init)
    i.HAL_UART_MspInit                       0x08001318   Section        0  stm32f1xx_hal_msp.o(i.HAL_UART_MspInit)
    i.HAL_UART_Receive_IT                    0x08001460   Section        0  stm32f1xx_hal_uart.o(i.HAL_UART_Receive_IT)
    i.HAL_UART_RxCpltCallback                0x080014b4   Section        0  util.o(i.HAL_UART_RxCpltCallback)
    i.HAL_UART_TxCpltCallback                0x08001570   Section        0  stm32f1xx_hal_uart.o(i.HAL_UART_TxCpltCallback)
    i.HardFault_Handler                      0x08001572   Section        0  stm32f1xx_it.o(i.HardFault_Handler)
    i.MX_GPIO_Init                           0x08001574   Section        0  main.o(i.MX_GPIO_Init)
    MX_GPIO_Init                             0x08001575   Thumb Code   226  main.o(i.MX_GPIO_Init)
    i.MX_TIM3_Init                           0x0800166c   Section        0  main.o(i.MX_TIM3_Init)
    MX_TIM3_Init                             0x0800166d   Thumb Code   146  main.o(i.MX_TIM3_Init)
    i.MemManage_Handler                      0x08001708   Section        0  stm32f1xx_it.o(i.MemManage_Handler)
    i.NMI_Handler                            0x0800170a   Section        0  stm32f1xx_it.o(i.NMI_Handler)
    i.SysTick_Handler                        0x0800170c   Section        0  port.o(i.SysTick_Handler)
    i.SystemClock_Config                     0x08001738   Section        0  main.o(i.SystemClock_Config)
    i.SystemInit                             0x08001788   Section        0  system_stm32f1xx.o(i.SystemInit)
    i.TIM3_IRQHandler                        0x080017d0   Section        0  stm32f1xx_it.o(i.TIM3_IRQHandler)
    i.TIM4_IRQHandler                        0x080017dc   Section        0  stm32f1xx_it.o(i.TIM4_IRQHandler)
    i.TIM_Base_SetConfig                     0x080017e8   Section        0  stm32f1xx_hal_tim.o(i.TIM_Base_SetConfig)
    i.TIM_CCxChannelCmd                      0x08001874   Section        0  stm32f1xx_hal_tim.o(i.TIM_CCxChannelCmd)
    i.TIM_ETR_SetConfig                      0x0800188e   Section        0  stm32f1xx_hal_tim.o(i.TIM_ETR_SetConfig)
    i.TIM_ITRx_SetConfig                     0x080018a2   Section        0  stm32f1xx_hal_tim.o(i.TIM_ITRx_SetConfig)
    TIM_ITRx_SetConfig                       0x080018a3   Thumb Code    16  stm32f1xx_hal_tim.o(i.TIM_ITRx_SetConfig)
    i.TIM_OC1_SetConfig                      0x080018b4   Section        0  stm32f1xx_hal_tim.o(i.TIM_OC1_SetConfig)
    TIM_OC1_SetConfig                        0x080018b5   Thumb Code    88  stm32f1xx_hal_tim.o(i.TIM_OC1_SetConfig)
    i.TIM_OC2_SetConfig                      0x08001914   Section        0  stm32f1xx_hal_tim.o(i.TIM_OC2_SetConfig)
    i.TIM_OC3_SetConfig                      0x08001980   Section        0  stm32f1xx_hal_tim.o(i.TIM_OC3_SetConfig)
    TIM_OC3_SetConfig                        0x08001981   Thumb Code    96  stm32f1xx_hal_tim.o(i.TIM_OC3_SetConfig)
    i.TIM_OC4_SetConfig                      0x080019e8   Section        0  stm32f1xx_hal_tim.o(i.TIM_OC4_SetConfig)
    TIM_OC4_SetConfig                        0x080019e9   Thumb Code    70  stm32f1xx_hal_tim.o(i.TIM_OC4_SetConfig)
    i.TIM_TI1_ConfigInputStage               0x08001a38   Section        0  stm32f1xx_hal_tim.o(i.TIM_TI1_ConfigInputStage)
    TIM_TI1_ConfigInputStage                 0x08001a39   Thumb Code    34  stm32f1xx_hal_tim.o(i.TIM_TI1_ConfigInputStage)
    i.TIM_TI2_ConfigInputStage               0x08001a5a   Section        0  stm32f1xx_hal_tim.o(i.TIM_TI2_ConfigInputStage)
    TIM_TI2_ConfigInputStage                 0x08001a5b   Thumb Code    36  stm32f1xx_hal_tim.o(i.TIM_TI2_ConfigInputStage)
    i.UART_DMAAbortOnError                   0x08001a7e   Section        0  stm32f1xx_hal_uart.o(i.UART_DMAAbortOnError)
    UART_DMAAbortOnError                     0x08001a7f   Thumb Code    16  stm32f1xx_hal_uart.o(i.UART_DMAAbortOnError)
    i.UART_EndRxTransfer                     0x08001a8e   Section        0  stm32f1xx_hal_uart.o(i.UART_EndRxTransfer)
    UART_EndRxTransfer                       0x08001a8f   Thumb Code    28  stm32f1xx_hal_uart.o(i.UART_EndRxTransfer)
    i.UART_Receive_IT                        0x08001aaa   Section        0  stm32f1xx_hal_uart.o(i.UART_Receive_IT)
    UART_Receive_IT                          0x08001aab   Thumb Code   150  stm32f1xx_hal_uart.o(i.UART_Receive_IT)
    i.UART_SetConfig                         0x08001b40   Section        0  stm32f1xx_hal_uart.o(i.UART_SetConfig)
    UART_SetConfig                           0x08001b41   Thumb Code   178  stm32f1xx_hal_uart.o(i.UART_SetConfig)
    i.UART_Transmit_IT                       0x08001bf8   Section        0  stm32f1xx_hal_uart.o(i.UART_Transmit_IT)
    UART_Transmit_IT                         0x08001bf9   Thumb Code    98  stm32f1xx_hal_uart.o(i.UART_Transmit_IT)
    i.USART1_IRQHandler                      0x08001c5c   Section        0  stm32f1xx_it.o(i.USART1_IRQHandler)
    i.USART2_IRQHandler                      0x08001c68   Section        0  stm32f1xx_it.o(i.USART2_IRQHandler)
    i.USART3_IRQHandler                      0x08001cac   Section        0  stm32f1xx_it.o(i.USART3_IRQHandler)
    i.UsageFault_Handler                     0x08001cf0   Section        0  stm32f1xx_it.o(i.UsageFault_Handler)
    i.__0printf$1                            0x08001cf4   Section        0  printf1.o(i.__0printf$1)
    i.__NVIC_SetPriority                     0x08001d14   Section        0  stm32f1xx_hal_cortex.o(i.__NVIC_SetPriority)
    __NVIC_SetPriority                       0x08001d15   Thumb Code    32  stm32f1xx_hal_cortex.o(i.__NVIC_SetPriority)
    i.__scatterload_copy                     0x08001d34   Section       14  handlers.o(i.__scatterload_copy)
    i.__scatterload_null                     0x08001d42   Section        2  handlers.o(i.__scatterload_null)
    i.__scatterload_zeroinit                 0x08001d44   Section       14  handlers.o(i.__scatterload_zeroinit)
    i._printf_core                           0x08001d54   Section        0  printf1.o(i._printf_core)
    _printf_core                             0x08001d55   Thumb Code   336  printf1.o(i._printf_core)
    i.backward                               0x08001ea8   Section        0  motor.o(i.backward)
    i.forward                                0x08001ebc   Section        0  motor.o(i.forward)
    i.fputc                                  0x08001ed0   Section        0  util.o(i.fputc)
    i.func_LED_blink                         0x08001ee8   Section        0  main.o(i.func_LED_blink)
    i.func_initialize                        0x08001f08   Section        0  main.o(i.func_initialize)
    i.func_lidar                             0x08001f1c   Section        0  main.o(i.func_lidar)
    i.func_mmwave                            0x08001f28   Section        0  main.o(i.func_mmwave)
    i.func_motor                             0x08001f8c   Section        0  main.o(i.func_motor)
    i.func_servo                             0x08002014   Section        0  main.o(i.func_servo)
    i.inHandlerMode                          0x08002020   Section        0  cmsis_os.o(i.inHandlerMode)
    inHandlerMode                            0x08002021   Thumb Code    12  cmsis_os.o(i.inHandlerMode)
    i.left_steel                             0x0800202c   Section        0  motor.o(i.left_steel)
    i.main                                   0x0800203c   Section        0  main.o(i.main)
    i.makeFreeRtosPriority                   0x080021e4   Section        0  cmsis_os.o(i.makeFreeRtosPriority)
    makeFreeRtosPriority                     0x080021e5   Thumb Code    12  cmsis_os.o(i.makeFreeRtosPriority)
    i.mmwave_process_data                    0x080021f0   Section        0  mmwave.o(i.mmwave_process_data)
    i.osDelay                                0x08002390   Section        0  cmsis_os.o(i.osDelay)
    i.osKernelStart                          0x0800239e   Section        0  cmsis_os.o(i.osKernelStart)
    i.osMessageCreate                        0x080023a8   Section        0  cmsis_os.o(i.osMessageCreate)
    i.osMessageGet                           0x080023d0   Section        0  cmsis_os.o(i.osMessageGet)
    i.osMessagePut                           0x08002464   Section        0  cmsis_os.o(i.osMessagePut)
    i.osSemaphoreCreate                      0x080024c0   Section        0  cmsis_os.o(i.osSemaphoreCreate)
    i.osThreadCreate                         0x080024fe   Section        0  cmsis_os.o(i.osThreadCreate)
    i.osThreadTerminate                      0x08002552   Section        0  cmsis_os.o(i.osThreadTerminate)
    i.process_obstacle_array                 0x0800255c   Section        0  mmwave.o(i.process_obstacle_array)
    i.prvAddCurrentTaskToDelayedList         0x080025d8   Section        0  tasks.o(i.prvAddCurrentTaskToDelayedList)
    prvAddCurrentTaskToDelayedList           0x080025d9   Thumb Code   102  tasks.o(i.prvAddCurrentTaskToDelayedList)
    i.prvAddNewTaskToReadyList               0x08002648   Section        0  tasks.o(i.prvAddNewTaskToReadyList)
    prvAddNewTaskToReadyList                 0x08002649   Thumb Code   194  tasks.o(i.prvAddNewTaskToReadyList)
    i.prvCopyDataFromQueue                   0x08002718   Section        0  queue.o(i.prvCopyDataFromQueue)
    prvCopyDataFromQueue                     0x08002719   Thumb Code    38  queue.o(i.prvCopyDataFromQueue)
    i.prvCopyDataToQueue                     0x0800273e   Section        0  queue.o(i.prvCopyDataToQueue)
    prvCopyDataToQueue                       0x0800273f   Thumb Code   108  queue.o(i.prvCopyDataToQueue)
    i.prvDeleteTCB                           0x080027aa   Section        0  tasks.o(i.prvDeleteTCB)
    prvDeleteTCB                             0x080027ab   Thumb Code    52  tasks.o(i.prvDeleteTCB)
    i.prvHeapInit                            0x080027e0   Section        0  heap_4.o(i.prvHeapInit)
    prvHeapInit                              0x080027e1   Thumb Code    66  heap_4.o(i.prvHeapInit)
    i.prvIdleTask                            0x0800282c   Section        0  tasks.o(i.prvIdleTask)
    prvIdleTask                              0x0800282d   Thumb Code    82  tasks.o(i.prvIdleTask)
    i.prvInitialiseNewQueue                  0x0800288c   Section        0  queue.o(i.prvInitialiseNewQueue)
    prvInitialiseNewQueue                    0x0800288d   Thumb Code    22  queue.o(i.prvInitialiseNewQueue)
    i.prvInitialiseNewTask                   0x080028a2   Section        0  tasks.o(i.prvInitialiseNewTask)
    prvInitialiseNewTask                     0x080028a3   Thumb Code   142  tasks.o(i.prvInitialiseNewTask)
    i.prvInsertBlockIntoFreeList             0x08002930   Section        0  heap_4.o(i.prvInsertBlockIntoFreeList)
    prvInsertBlockIntoFreeList               0x08002931   Thumb Code    72  heap_4.o(i.prvInsertBlockIntoFreeList)
    i.prvIsQueueEmpty                        0x0800297c   Section        0  queue.o(i.prvIsQueueEmpty)
    prvIsQueueEmpty                          0x0800297d   Thumb Code    28  queue.o(i.prvIsQueueEmpty)
    i.prvResetNextTaskUnblockTime            0x08002998   Section        0  tasks.o(i.prvResetNextTaskUnblockTime)
    prvResetNextTaskUnblockTime              0x08002999   Thumb Code    26  tasks.o(i.prvResetNextTaskUnblockTime)
    i.prvTaskExitError                       0x080029b8   Section        0  port.o(i.prvTaskExitError)
    prvTaskExitError                         0x080029b9   Thumb Code    36  port.o(i.prvTaskExitError)
    i.prvUnlockQueue                         0x080029e0   Section        0  queue.o(i.prvUnlockQueue)
    prvUnlockQueue                           0x080029e1   Thumb Code   106  queue.o(i.prvUnlockQueue)
    i.pvPortMalloc                           0x08002a4c   Section        0  heap_4.o(i.pvPortMalloc)
    i.pxPortInitialiseStack                  0x08002b24   Section        0  port.o(i.pxPortInitialiseStack)
    i.right_steel                            0x08002b48   Section        0  motor.o(i.right_steel)
    i.uxListRemove                           0x08002b58   Section        0  list.o(i.uxListRemove)
    i.vApplicationGetIdleTaskMemory          0x08002b80   Section        0  freertos.o(i.vApplicationGetIdleTaskMemory)
    i.vListInitialise                        0x08002b94   Section        0  list.o(i.vListInitialise)
    i.vListInitialiseItem                    0x08002baa   Section        0  list.o(i.vListInitialiseItem)
    i.vListInsert                            0x08002bb0   Section        0  list.o(i.vListInsert)
    i.vListInsertEnd                         0x08002be0   Section        0  list.o(i.vListInsertEnd)
    i.vPortEnterCritical                     0x08002bf8   Section        0  port.o(i.vPortEnterCritical)
    i.vPortExitCritical                      0x08002c38   Section        0  port.o(i.vPortExitCritical)
    i.vPortFree                              0x08002c60   Section        0  heap_4.o(i.vPortFree)
    i.vPortSetupTimerInterrupt               0x08002cbc   Section        0  port.o(i.vPortSetupTimerInterrupt)
    i.vPortValidateInterruptPriority         0x08002ce0   Section        0  port.o(i.vPortValidateInterruptPriority)
    i.vTaskDelay                             0x08002d34   Section        0  tasks.o(i.vTaskDelay)
    i.vTaskDelete                            0x08002d80   Section        0  tasks.o(i.vTaskDelete)
    i.vTaskInternalSetTimeOutState           0x08002e2c   Section        0  tasks.o(i.vTaskInternalSetTimeOutState)
    i.vTaskMissedYield                       0x08002e3c   Section        0  tasks.o(i.vTaskMissedYield)
    i.vTaskPlaceOnEventList                  0x08002e48   Section        0  tasks.o(i.vTaskPlaceOnEventList)
    i.vTaskStartScheduler                    0x08002e78   Section        0  tasks.o(i.vTaskStartScheduler)
    i.vTaskSuspendAll                        0x08002ee4   Section        0  tasks.o(i.vTaskSuspendAll)
    i.vTaskSwitchContext                     0x08002ef4   Section        0  tasks.o(i.vTaskSwitchContext)
    i.xPortStartScheduler                    0x08002f50   Section        0  port.o(i.xPortStartScheduler)
    i.xQueueGenericCreate                    0x08002ff8   Section        0  queue.o(i.xQueueGenericCreate)
    i.xQueueGenericCreateStatic              0x08003040   Section        0  queue.o(i.xQueueGenericCreateStatic)
    i.xQueueGenericReset                     0x080030a8   Section        0  queue.o(i.xQueueGenericReset)
    i.xQueueGenericSend                      0x08003130   Section        0  queue.o(i.xQueueGenericSend)
    i.xQueueGenericSendFromISR               0x08003290   Section        0  queue.o(i.xQueueGenericSendFromISR)
    i.xQueueReceive                          0x0800334c   Section        0  queue.o(i.xQueueReceive)
    i.xQueueReceiveFromISR                   0x08003484   Section        0  queue.o(i.xQueueReceiveFromISR)
    i.xTaskCheckForTimeOut                   0x08003520   Section        0  tasks.o(i.xTaskCheckForTimeOut)
    i.xTaskCreate                            0x08003594   Section        0  tasks.o(i.xTaskCreate)
    i.xTaskCreateStatic                      0x080035ee   Section        0  tasks.o(i.xTaskCreateStatic)
    i.xTaskGetSchedulerState                 0x08003644   Section        0  tasks.o(i.xTaskGetSchedulerState)
    i.xTaskIncrementTick                     0x08003660   Section        0  tasks.o(i.xTaskIncrementTick)
    i.xTaskPriorityDisinherit                0x08003728   Section        0  tasks.o(i.xTaskPriorityDisinherit)
    i.xTaskRemoveFromEventList               0x080037c0   Section        0  tasks.o(i.xTaskRemoveFromEventList)
    i.xTaskResumeAll                         0x08003834   Section        0  tasks.o(i.xTaskResumeAll)
    .constdata                               0x080038f8   Section      250  main.o(.constdata)
    .constdata                               0x080039f2   Section       16  system_stm32f1xx.o(.constdata)
    .constdata                               0x08003a02   Section        8  system_stm32f1xx.o(.constdata)
    .conststring                             0x08003a0c   Section       79  main.o(.conststring)
    .data                                    0x20000000   Section       48  main.o(.data)
    .data                                    0x20000030   Section       12  stm32f1xx_hal.o(.data)
    .data                                    0x2000003c   Section        4  system_stm32f1xx.o(.data)
    .data                                    0x20000040   Section       60  tasks.o(.data)
    pxDelayedTaskList                        0x20000044   Data           4  tasks.o(.data)
    pxOverflowDelayedTaskList                0x20000048   Data           4  tasks.o(.data)
    uxDeletedTasksWaitingCleanUp             0x2000004c   Data           4  tasks.o(.data)
    uxCurrentNumberOfTasks                   0x20000050   Data           4  tasks.o(.data)
    xTickCount                               0x20000054   Data           4  tasks.o(.data)
    uxTopReadyPriority                       0x20000058   Data           4  tasks.o(.data)
    xSchedulerRunning                        0x2000005c   Data           4  tasks.o(.data)
    uxPendedTicks                            0x20000060   Data           4  tasks.o(.data)
    xYieldPending                            0x20000064   Data           4  tasks.o(.data)
    xNumOfOverflows                          0x20000068   Data           4  tasks.o(.data)
    uxTaskNumber                             0x2000006c   Data           4  tasks.o(.data)
    xNextTaskUnblockTime                     0x20000070   Data           4  tasks.o(.data)
    xIdleTaskHandle                          0x20000074   Data           4  tasks.o(.data)
    uxSchedulerSuspended                     0x20000078   Data           4  tasks.o(.data)
    .data                                    0x2000007c   Section       24  heap_4.o(.data)
    pxEnd                                    0x2000007c   Data           4  heap_4.o(.data)
    xFreeBytesRemaining                      0x20000080   Data           4  heap_4.o(.data)
    xMinimumEverFreeBytesRemaining           0x20000084   Data           4  heap_4.o(.data)
    xBlockAllocatedBit                       0x20000088   Data           4  heap_4.o(.data)
    xStart                                   0x2000008c   Data           8  heap_4.o(.data)
    .data                                    0x20000094   Section       12  port.o(.data)
    ucMaxSysCallPriority                     0x20000094   Data           1  port.o(.data)
    uxCriticalNesting                        0x20000098   Data           4  port.o(.data)
    ulMaxPRIGROUPValue                       0x2000009c   Data           4  port.o(.data)
    .data                                    0x200000a0   Section        6  util.o(.data)
    usart_buff_last_rx_byte                  0x200000a0   Data           1  util.o(.data)
    usart_buff_current_rx_byte               0x200000a1   Data           1  util.o(.data)
    package_head_received                    0x200000a2   Data           1  util.o(.data)
    in_rx_progress_flag                      0x200000a3   Data           1  util.o(.data)
    rx_data_counter                          0x200000a4   Data           1  util.o(.data)
    .data                                    0x200000a6   Section       16  mmwave.o(.data)
    frames_rx_counter                        0x200000a6   Data           1  mmwave.o(.data)
    rx_data_header                           0x200000a7   Data           2  mmwave.o(.data)
    obstacle_array_counter                   0x200000a9   Data           5  mmwave.o(.data)
    rx_data_package                          0x200000ae   Data           8  mmwave.o(.data)
    .data                                    0x200000b8   Section        4  stdout.o(.data)
    .bss                                     0x200000bc   Section      256  main.o(.bss)
    .bss                                     0x200001bc   Section      596  freertos.o(.bss)
    xIdleTaskTCBBuffer                       0x200001bc   Data          84  freertos.o(.bss)
    xIdleStack                               0x20000210   Data         512  freertos.o(.bss)
    .bss                                     0x20000410   Section       64  stm32f1xx_hal_timebase_tim.o(.bss)
    .bss                                     0x20000450   Section      240  tasks.o(.bss)
    pxReadyTasksLists                        0x20000450   Data         140  tasks.o(.bss)
    xDelayedTaskList1                        0x200004dc   Data          20  tasks.o(.bss)
    xDelayedTaskList2                        0x200004f0   Data          20  tasks.o(.bss)
    xPendingReadyList                        0x20000504   Data          20  tasks.o(.bss)
    xTasksWaitingTermination                 0x20000518   Data          20  tasks.o(.bss)
    xSuspendedTaskList                       0x2000052c   Data          20  tasks.o(.bss)
    .bss                                     0x20000540   Section    10240  heap_4.o(.bss)
    ucHeap                                   0x20000540   Data       10240  heap_4.o(.bss)
    .bss                                     0x20002d40   Section       10  mmwave.o(.bss)
    STACK                                    0x20002d50   Section     1024  startup_stm32f103xe.o(STACK)

    Global Symbols

    Symbol Name                              Value     Ov Type        Size  Object(Section)

    BuildAttributes$$THM_ISAv4$P$D$K$B$S$PE$A:L22UL41UL21$X:L11$S22US41US21$IEEE1$IW$USESV6$~STKCKD$USESV7$~SHL$OSPACE$ROPI$EBA8$MICROLIB$REQ8$PRES8$EABIv2 0x00000000   Number         0  anon$$obj.o ABSOLUTE
    __ARM_use_no_argv                        0x00000000   Number         0  main.o ABSOLUTE
    _printf_a                                0x00000000   Number         0  stubs.o ABSOLUTE
    _printf_c                                0x00000000   Number         0  stubs.o ABSOLUTE
    _printf_charcount                        0x00000000   Number         0  stubs.o ABSOLUTE
    _printf_d                                0x00000000   Number         0  stubs.o ABSOLUTE
    _printf_e                                0x00000000   Number         0  stubs.o ABSOLUTE
    _printf_f                                0x00000000   Number         0  stubs.o ABSOLUTE
    _printf_flags                            0x00000000   Number         0  stubs.o ABSOLUTE
    _printf_fp_dec                           0x00000000   Number         0  stubs.o ABSOLUTE
    _printf_fp_hex                           0x00000000   Number         0  stubs.o ABSOLUTE
    _printf_g                                0x00000000   Number         0  stubs.o ABSOLUTE
    _printf_i                                0x00000000   Number         0  stubs.o ABSOLUTE
    _printf_int_dec                          0x00000000   Number         0  stubs.o ABSOLUTE
    _printf_l                                0x00000000   Number         0  stubs.o ABSOLUTE
    _printf_lc                               0x00000000   Number         0  stubs.o ABSOLUTE
    _printf_ll                               0x00000000   Number         0  stubs.o ABSOLUTE
    _printf_lld                              0x00000000   Number         0  stubs.o ABSOLUTE
    _printf_lli                              0x00000000   Number         0  stubs.o ABSOLUTE
    _printf_llo                              0x00000000   Number         0  stubs.o ABSOLUTE
    _printf_llu                              0x00000000   Number         0  stubs.o ABSOLUTE
    _printf_llx                              0x00000000   Number         0  stubs.o ABSOLUTE
    _printf_longlong_dec                     0x00000000   Number         0  stubs.o ABSOLUTE
    _printf_longlong_hex                     0x00000000   Number         0  stubs.o ABSOLUTE
    _printf_longlong_oct                     0x00000000   Number         0  stubs.o ABSOLUTE
    _printf_ls                               0x00000000   Number         0  stubs.o ABSOLUTE
    _printf_mbtowc                           0x00000000   Number         0  stubs.o ABSOLUTE
    _printf_n                                0x00000000   Number         0  stubs.o ABSOLUTE
    _printf_o                                0x00000000   Number         0  stubs.o ABSOLUTE
    _printf_p                                0x00000000   Number         0  stubs.o ABSOLUTE
    _printf_percent                          0x00000000   Number         0  stubs.o ABSOLUTE
    _printf_pre_padding                      0x00000000   Number         0  stubs.o ABSOLUTE
    _printf_return_value                     0x00000000   Number         0  stubs.o ABSOLUTE
    _printf_s                                0x00000000   Number         0  stubs.o ABSOLUTE
    _printf_sizespec                         0x00000000   Number         0  stubs.o ABSOLUTE
    _printf_str                              0x00000000   Number         0  stubs.o ABSOLUTE
    _printf_truncate_signed                  0x00000000   Number         0  stubs.o ABSOLUTE
    _printf_truncate_unsigned                0x00000000   Number         0  stubs.o ABSOLUTE
    _printf_u                                0x00000000   Number         0  stubs.o ABSOLUTE
    _printf_wc                               0x00000000   Number         0  stubs.o ABSOLUTE
    _printf_wctomb                           0x00000000   Number         0  stubs.o ABSOLUTE
    _printf_widthprec                        0x00000000   Number         0  stubs.o ABSOLUTE
    _printf_x                                0x00000000   Number         0  stubs.o ABSOLUTE
    __cpp_initialize__aeabi_                  - Undefined Weak Reference
    __cxa_finalize                            - Undefined Weak Reference
    __decompress                              - Undefined Weak Reference
    _clock_init                               - Undefined Weak Reference
    _microlib_exit                            - Undefined Weak Reference
    __Vectors_Size                           0x00000130   Number         0  startup_stm32f103xe.o ABSOLUTE
    __Vectors                                0x08000000   Data           4  startup_stm32f103xe.o(RESET)
    __Vectors_End                            0x08000130   Data           0  startup_stm32f103xe.o(RESET)
    __main                                   0x08000131   Thumb Code     0  entry.o(.ARM.Collect$$$$00000000)
    _main_stk                                0x08000131   Thumb Code     0  entry2.o(.ARM.Collect$$$$00000001)
    _main_scatterload                        0x08000135   Thumb Code     0  entry5.o(.ARM.Collect$$$$00000004)
    __main_after_scatterload                 0x08000139   Thumb Code     0  entry5.o(.ARM.Collect$$$$00000004)
    _main_clock                              0x08000139   Thumb Code     0  entry7b.o(.ARM.Collect$$$$00000008)
    _main_cpp_init                           0x08000139   Thumb Code     0  entry8b.o(.ARM.Collect$$$$0000000A)
    _main_init                               0x08000139   Thumb Code     0  entry9a.o(.ARM.Collect$$$$0000000B)
    __rt_final_cpp                           0x08000141   Thumb Code     0  entry10a.o(.ARM.Collect$$$$0000000D)
    __rt_final_exit                          0x08000141   Thumb Code     0  entry11a.o(.ARM.Collect$$$$0000000F)
    SVC_Handler                              0x08000145   Thumb Code    32  port.o(.emb_text)
    __asm___6_port_c_39a90d8d__prvStartFirstTask 0x08000169   Thumb Code    28  port.o(.emb_text)
    PendSV_Handler                           0x08000189   Thumb Code    72  port.o(.emb_text)
    vPortGetIPSR                             0x080001d5   Thumb Code     6  port.o(.emb_text)
    Reset_Handler                            0x080001dd   Thumb Code     8  startup_stm32f103xe.o(.text)
    ADC1_2_IRQHandler                        0x080001f7   Thumb Code     0  startup_stm32f103xe.o(.text)
    ADC3_IRQHandler                          0x080001f7   Thumb Code     0  startup_stm32f103xe.o(.text)
    CAN1_RX1_IRQHandler                      0x080001f7   Thumb Code     0  startup_stm32f103xe.o(.text)
    CAN1_SCE_IRQHandler                      0x080001f7   Thumb Code     0  startup_stm32f103xe.o(.text)
    DMA1_Channel1_IRQHandler                 0x080001f7   Thumb Code     0  startup_stm32f103xe.o(.text)
    DMA1_Channel2_IRQHandler                 0x080001f7   Thumb Code     0  startup_stm32f103xe.o(.text)
    DMA1_Channel3_IRQHandler                 0x080001f7   Thumb Code     0  startup_stm32f103xe.o(.text)
    DMA1_Channel4_IRQHandler                 0x080001f7   Thumb Code     0  startup_stm32f103xe.o(.text)
    DMA1_Channel5_IRQHandler                 0x080001f7   Thumb Code     0  startup_stm32f103xe.o(.text)
    DMA1_Channel6_IRQHandler                 0x080001f7   Thumb Code     0  startup_stm32f103xe.o(.text)
    DMA1_Channel7_IRQHandler                 0x080001f7   Thumb Code     0  startup_stm32f103xe.o(.text)
    DMA2_Channel1_IRQHandler                 0x080001f7   Thumb Code     0  startup_stm32f103xe.o(.text)
    DMA2_Channel2_IRQHandler                 0x080001f7   Thumb Code     0  startup_stm32f103xe.o(.text)
    DMA2_Channel3_IRQHandler                 0x080001f7   Thumb Code     0  startup_stm32f103xe.o(.text)
    DMA2_Channel4_5_IRQHandler               0x080001f7   Thumb Code     0  startup_stm32f103xe.o(.text)
    EXTI0_IRQHandler                         0x080001f7   Thumb Code     0  startup_stm32f103xe.o(.text)
    EXTI15_10_IRQHandler                     0x080001f7   Thumb Code     0  startup_stm32f103xe.o(.text)
    EXTI1_IRQHandler                         0x080001f7   Thumb Code     0  startup_stm32f103xe.o(.text)
    EXTI2_IRQHandler                         0x080001f7   Thumb Code     0  startup_stm32f103xe.o(.text)
    EXTI3_IRQHandler                         0x080001f7   Thumb Code     0  startup_stm32f103xe.o(.text)
    EXTI4_IRQHandler                         0x080001f7   Thumb Code     0  startup_stm32f103xe.o(.text)
    EXTI9_5_IRQHandler                       0x080001f7   Thumb Code     0  startup_stm32f103xe.o(.text)
    FLASH_IRQHandler                         0x080001f7   Thumb Code     0  startup_stm32f103xe.o(.text)
    FSMC_IRQHandler                          0x080001f7   Thumb Code     0  startup_stm32f103xe.o(.text)
    I2C1_ER_IRQHandler                       0x080001f7   Thumb Code     0  startup_stm32f103xe.o(.text)
    I2C1_EV_IRQHandler                       0x080001f7   Thumb Code     0  startup_stm32f103xe.o(.text)
    I2C2_ER_IRQHandler                       0x080001f7   Thumb Code     0  startup_stm32f103xe.o(.text)
    I2C2_EV_IRQHandler                       0x080001f7   Thumb Code     0  startup_stm32f103xe.o(.text)
    PVD_IRQHandler                           0x080001f7   Thumb Code     0  startup_stm32f103xe.o(.text)
    RCC_IRQHandler                           0x080001f7   Thumb Code     0  startup_stm32f103xe.o(.text)
    RTC_Alarm_IRQHandler                     0x080001f7   Thumb Code     0  startup_stm32f103xe.o(.text)
    RTC_IRQHandler                           0x080001f7   Thumb Code     0  startup_stm32f103xe.o(.text)
    SDIO_IRQHandler                          0x080001f7   Thumb Code     0  startup_stm32f103xe.o(.text)
    SPI1_IRQHandler                          0x080001f7   Thumb Code     0  startup_stm32f103xe.o(.text)
    SPI2_IRQHandler                          0x080001f7   Thumb Code     0  startup_stm32f103xe.o(.text)
    SPI3_IRQHandler                          0x080001f7   Thumb Code     0  startup_stm32f103xe.o(.text)
    TAMPER_IRQHandler                        0x080001f7   Thumb Code     0  startup_stm32f103xe.o(.text)
    TIM1_BRK_IRQHandler                      0x080001f7   Thumb Code     0  startup_stm32f103xe.o(.text)
    TIM1_CC_IRQHandler                       0x080001f7   Thumb Code     0  startup_stm32f103xe.o(.text)
    TIM1_TRG_COM_IRQHandler                  0x080001f7   Thumb Code     0  startup_stm32f103xe.o(.text)
    TIM1_UP_IRQHandler                       0x080001f7   Thumb Code     0  startup_stm32f103xe.o(.text)
    TIM2_IRQHandler                          0x080001f7   Thumb Code     0  startup_stm32f103xe.o(.text)
    TIM5_IRQHandler                          0x080001f7   Thumb Code     0  startup_stm32f103xe.o(.text)
    TIM6_IRQHandler                          0x080001f7   Thumb Code     0  startup_stm32f103xe.o(.text)
    TIM7_IRQHandler                          0x080001f7   Thumb Code     0  startup_stm32f103xe.o(.text)
    TIM8_BRK_IRQHandler                      0x080001f7   Thumb Code     0  startup_stm32f103xe.o(.text)
    TIM8_CC_IRQHandler                       0x080001f7   Thumb Code     0  startup_stm32f103xe.o(.text)
    TIM8_TRG_COM_IRQHandler                  0x080001f7   Thumb Code     0  startup_stm32f103xe.o(.text)
    TIM8_UP_IRQHandler                       0x080001f7   Thumb Code     0  startup_stm32f103xe.o(.text)
    UART4_IRQHandler                         0x080001f7   Thumb Code     0  startup_stm32f103xe.o(.text)
    UART5_IRQHandler                         0x080001f7   Thumb Code     0  startup_stm32f103xe.o(.text)
    USBWakeUp_IRQHandler                     0x080001f7   Thumb Code     0  startup_stm32f103xe.o(.text)
    USB_HP_CAN1_TX_IRQHandler                0x080001f7   Thumb Code     0  startup_stm32f103xe.o(.text)
    USB_LP_CAN1_RX0_IRQHandler               0x080001f7   Thumb Code     0  startup_stm32f103xe.o(.text)
    WWDG_IRQHandler                          0x080001f7   Thumb Code     0  startup_stm32f103xe.o(.text)
    __aeabi_memcpy                           0x08000201   Thumb Code    36  memcpya.o(.text)
    __aeabi_memcpy4                          0x08000201   Thumb Code     0  memcpya.o(.text)
    __aeabi_memcpy8                          0x08000201   Thumb Code     0  memcpya.o(.text)
    __aeabi_memset                           0x08000225   Thumb Code    14  memseta.o(.text)
    __aeabi_memset4                          0x08000225   Thumb Code     0  memseta.o(.text)
    __aeabi_memset8                          0x08000225   Thumb Code     0  memseta.o(.text)
    __aeabi_memclr                           0x08000233   Thumb Code     4  memseta.o(.text)
    __aeabi_memclr4                          0x08000233   Thumb Code     0  memseta.o(.text)
    __aeabi_memclr8                          0x08000233   Thumb Code     0  memseta.o(.text)
    memset                                   0x08000237   Thumb Code    18  memseta.o(.text)
    __aeabi_uidiv                            0x08000249   Thumb Code     0  uidiv.o(.text)
    __aeabi_uidivmod                         0x08000249   Thumb Code    44  uidiv.o(.text)
    __scatterload                            0x08000275   Thumb Code    28  init.o(.text)
    __scatterload_rt2                        0x08000275   Thumb Code     0  init.o(.text)
    BusFault_Handler                         0x08000299   Thumb Code     2  stm32f1xx_it.o(i.BusFault_Handler)
    DebugMon_Handler                         0x0800029b   Thumb Code     2  stm32f1xx_it.o(i.DebugMon_Handler)
    HAL_DMA_Abort_IT                         0x0800029d   Thumb Code   296  stm32f1xx_hal_dma.o(i.HAL_DMA_Abort_IT)
    HAL_Delay                                0x080003cd   Thumb Code    32  stm32f1xx_hal.o(i.HAL_Delay)
    HAL_GPIO_Init                            0x080003f1   Thumb Code   462  stm32f1xx_hal_gpio.o(i.HAL_GPIO_Init)
    HAL_GPIO_TogglePin                       0x080005e9   Thumb Code    14  stm32f1xx_hal_gpio.o(i.HAL_GPIO_TogglePin)
    HAL_GPIO_WritePin                        0x080005f7   Thumb Code    10  stm32f1xx_hal_gpio.o(i.HAL_GPIO_WritePin)
    HAL_GetTick                              0x08000601   Thumb Code     6  stm32f1xx_hal.o(i.HAL_GetTick)
    HAL_IncTick                              0x0800060d   Thumb Code    12  stm32f1xx_hal.o(i.HAL_IncTick)
    HAL_Init                                 0x0800061d   Thumb Code    32  stm32f1xx_hal.o(i.HAL_Init)
    HAL_InitTick                             0x08000641   Thumb Code   100  stm32f1xx_hal_timebase_tim.o(i.HAL_InitTick)
    HAL_MspInit                              0x080006b5   Thumb Code    52  stm32f1xx_hal_msp.o(i.HAL_MspInit)
    HAL_NVIC_EnableIRQ                       0x080006f1   Thumb Code    26  stm32f1xx_hal_cortex.o(i.HAL_NVIC_EnableIRQ)
    HAL_NVIC_SetPriority                     0x0800070d   Thumb Code    60  stm32f1xx_hal_cortex.o(i.HAL_NVIC_SetPriority)
    HAL_NVIC_SetPriorityGrouping             0x0800074d   Thumb Code    26  stm32f1xx_hal_cortex.o(i.HAL_NVIC_SetPriorityGrouping)
    HAL_RCC_ClockConfig                      0x08000771   Thumb Code   280  stm32f1xx_hal_rcc.o(i.HAL_RCC_ClockConfig)
    HAL_RCC_GetClockConfig                   0x0800089d   Thumb Code    54  stm32f1xx_hal_rcc.o(i.HAL_RCC_GetClockConfig)
    HAL_RCC_GetPCLK1Freq                     0x080008dd   Thumb Code    20  stm32f1xx_hal_rcc.o(i.HAL_RCC_GetPCLK1Freq)
    HAL_RCC_GetPCLK2Freq                     0x080008fd   Thumb Code    20  stm32f1xx_hal_rcc.o(i.HAL_RCC_GetPCLK2Freq)
    HAL_RCC_GetSysClockFreq                  0x0800091d   Thumb Code    74  stm32f1xx_hal_rcc.o(i.HAL_RCC_GetSysClockFreq)
    HAL_RCC_OscConfig                        0x08000989   Thumb Code   778  stm32f1xx_hal_rcc.o(i.HAL_RCC_OscConfig)
    HAL_TIMEx_BreakCallback                  0x08000ca9   Thumb Code     2  stm32f1xx_hal_tim_ex.o(i.HAL_TIMEx_BreakCallback)
    HAL_TIMEx_CommutCallback                 0x08000cab   Thumb Code     2  stm32f1xx_hal_tim_ex.o(i.HAL_TIMEx_CommutCallback)
    HAL_TIMEx_MasterConfigSynchronization    0x08000cad   Thumb Code    66  stm32f1xx_hal_tim_ex.o(i.HAL_TIMEx_MasterConfigSynchronization)
    HAL_TIM_Base_Init                        0x08000cef   Thumb Code    54  stm32f1xx_hal_tim.o(i.HAL_TIM_Base_Init)
    HAL_TIM_Base_MspInit                     0x08000d25   Thumb Code    50  stm32f1xx_hal_msp.o(i.HAL_TIM_Base_MspInit)
    HAL_TIM_Base_Start_IT                    0x08000d61   Thumb Code    34  stm32f1xx_hal_tim.o(i.HAL_TIM_Base_Start_IT)
    HAL_TIM_ConfigClockSource                0x08000d83   Thumb Code   214  stm32f1xx_hal_tim.o(i.HAL_TIM_ConfigClockSource)
    HAL_TIM_IC_CaptureCallback               0x08000e59   Thumb Code     2  stm32f1xx_hal_tim.o(i.HAL_TIM_IC_CaptureCallback)
    HAL_TIM_IRQHandler                       0x08000e5b   Thumb Code   358  stm32f1xx_hal_tim.o(i.HAL_TIM_IRQHandler)
    HAL_TIM_MspPostInit                      0x08000fc1   Thumb Code    94  stm32f1xx_hal_msp.o(i.HAL_TIM_MspPostInit)
    HAL_TIM_OC_DelayElapsedCallback          0x08001031   Thumb Code     2  stm32f1xx_hal_tim.o(i.HAL_TIM_OC_DelayElapsedCallback)
    HAL_TIM_PWM_ConfigChannel                0x08001033   Thumb Code   208  stm32f1xx_hal_tim.o(i.HAL_TIM_PWM_ConfigChannel)
    HAL_TIM_PWM_Init                         0x08001103   Thumb Code    54  stm32f1xx_hal_tim.o(i.HAL_TIM_PWM_Init)
    HAL_TIM_PWM_MspInit                      0x08001139   Thumb Code     2  stm32f1xx_hal_tim.o(i.HAL_TIM_PWM_MspInit)
    HAL_TIM_PWM_PulseFinishedCallback        0x0800113b   Thumb Code     2  stm32f1xx_hal_tim.o(i.HAL_TIM_PWM_PulseFinishedCallback)
    HAL_TIM_PWM_Start                        0x0800113d   Thumb Code    58  stm32f1xx_hal_tim.o(i.HAL_TIM_PWM_Start)
    HAL_TIM_PeriodElapsedCallback            0x08001181   Thumb Code    14  main.o(i.HAL_TIM_PeriodElapsedCallback)
    HAL_TIM_TriggerCallback                  0x08001195   Thumb Code     2  stm32f1xx_hal_tim.o(i.HAL_TIM_TriggerCallback)
    HAL_UART_ErrorCallback                   0x08001197   Thumb Code     2  stm32f1xx_hal_uart.o(i.HAL_UART_ErrorCallback)
    HAL_UART_GetState                        0x08001199   Thumb Code    10  stm32f1xx_hal_uart.o(i.HAL_UART_GetState)
    HAL_UART_IRQHandler                      0x080011a5   Thumb Code   266  stm32f1xx_hal_uart.o(i.HAL_UART_IRQHandler)
    HAL_UART_Init                            0x080012b5   Thumb Code    98  stm32f1xx_hal_uart.o(i.HAL_UART_Init)
    HAL_UART_MspInit                         0x08001319   Thumb Code   300  stm32f1xx_hal_msp.o(i.HAL_UART_MspInit)
    HAL_UART_Receive_IT                      0x08001461   Thumb Code    82  stm32f1xx_hal_uart.o(i.HAL_UART_Receive_IT)
    HAL_UART_RxCpltCallback                  0x080014b5   Thumb Code   166  util.o(i.HAL_UART_RxCpltCallback)
    HAL_UART_TxCpltCallback                  0x08001571   Thumb Code     2  stm32f1xx_hal_uart.o(i.HAL_UART_TxCpltCallback)
    HardFault_Handler                        0x08001573   Thumb Code     2  stm32f1xx_it.o(i.HardFault_Handler)
    MemManage_Handler                        0x08001709   Thumb Code     2  stm32f1xx_it.o(i.MemManage_Handler)
    NMI_Handler                              0x0800170b   Thumb Code     2  stm32f1xx_it.o(i.NMI_Handler)
    SysTick_Handler                          0x0800170d   Thumb Code    38  port.o(i.SysTick_Handler)
    SystemClock_Config                       0x08001739   Thumb Code    78  main.o(i.SystemClock_Config)
    SystemInit                               0x08001789   Thumb Code    56  system_stm32f1xx.o(i.SystemInit)
    TIM3_IRQHandler                          0x080017d1   Thumb Code     6  stm32f1xx_it.o(i.TIM3_IRQHandler)
    TIM4_IRQHandler                          0x080017dd   Thumb Code     6  stm32f1xx_it.o(i.TIM4_IRQHandler)
    TIM_Base_SetConfig                       0x080017e9   Thumb Code   120  stm32f1xx_hal_tim.o(i.TIM_Base_SetConfig)
    TIM_CCxChannelCmd                        0x08001875   Thumb Code    26  stm32f1xx_hal_tim.o(i.TIM_CCxChannelCmd)
    TIM_ETR_SetConfig                        0x0800188f   Thumb Code    20  stm32f1xx_hal_tim.o(i.TIM_ETR_SetConfig)
    TIM_OC2_SetConfig                        0x08001915   Thumb Code    98  stm32f1xx_hal_tim.o(i.TIM_OC2_SetConfig)
    USART1_IRQHandler                        0x08001c5d   Thumb Code     6  stm32f1xx_it.o(i.USART1_IRQHandler)
    USART2_IRQHandler                        0x08001c69   Thumb Code    56  stm32f1xx_it.o(i.USART2_IRQHandler)
    USART3_IRQHandler                        0x08001cad   Thumb Code    56  stm32f1xx_it.o(i.USART3_IRQHandler)
    UsageFault_Handler                       0x08001cf1   Thumb Code     2  stm32f1xx_it.o(i.UsageFault_Handler)
    __0printf$1                              0x08001cf5   Thumb Code    22  printf1.o(i.__0printf$1)
    __1printf$1                              0x08001cf5   Thumb Code     0  printf1.o(i.__0printf$1)
    __2printf                                0x08001cf5   Thumb Code     0  printf1.o(i.__0printf$1)
    __scatterload_copy                       0x08001d35   Thumb Code    14  handlers.o(i.__scatterload_copy)
    __scatterload_null                       0x08001d43   Thumb Code     2  handlers.o(i.__scatterload_null)
    __scatterload_zeroinit                   0x08001d45   Thumb Code    14  handlers.o(i.__scatterload_zeroinit)
    backward                                 0x08001ea9   Thumb Code     6  motor.o(i.backward)
    forward                                  0x08001ebd   Thumb Code     6  motor.o(i.forward)
    fputc                                    0x08001ed1   Thumb Code    18  util.o(i.fputc)
    func_LED_blink                           0x08001ee9   Thumb Code    26  main.o(i.func_LED_blink)
    func_initialize                          0x08001f09   Thumb Code    16  main.o(i.func_initialize)
    func_lidar                               0x08001f1d   Thumb Code     8  main.o(i.func_lidar)
    func_mmwave                              0x08001f29   Thumb Code    90  main.o(i.func_mmwave)
    func_motor                               0x08001f8d   Thumb Code   126  main.o(i.func_motor)
    func_servo                               0x08002015   Thumb Code     8  main.o(i.func_servo)
    left_steel                               0x0800202d   Thumb Code     6  motor.o(i.left_steel)
    main                                     0x0800203d   Thumb Code   396  main.o(i.main)
    mmwave_process_data                      0x080021f1   Thumb Code   390  mmwave.o(i.mmwave_process_data)
    osDelay                                  0x08002391   Thumb Code    14  cmsis_os.o(i.osDelay)
    osKernelStart                            0x0800239f   Thumb Code    10  cmsis_os.o(i.osKernelStart)
    osMessageCreate                          0x080023a9   Thumb Code    38  cmsis_os.o(i.osMessageCreate)
    osMessageGet                             0x080023d1   Thumb Code   144  cmsis_os.o(i.osMessageGet)
    osMessagePut                             0x08002465   Thumb Code    86  cmsis_os.o(i.osMessagePut)
    osSemaphoreCreate                        0x080024c1   Thumb Code    62  cmsis_os.o(i.osSemaphoreCreate)
    osThreadCreate                           0x080024ff   Thumb Code    84  cmsis_os.o(i.osThreadCreate)
    osThreadTerminate                        0x08002553   Thumb Code    10  cmsis_os.o(i.osThreadTerminate)
    process_obstacle_array                   0x0800255d   Thumb Code   112  mmwave.o(i.process_obstacle_array)
    pvPortMalloc                             0x08002a4d   Thumb Code   210  heap_4.o(i.pvPortMalloc)
    pxPortInitialiseStack                    0x08002b25   Thumb Code    32  port.o(i.pxPortInitialiseStack)
    right_steel                              0x08002b49   Thumb Code     6  motor.o(i.right_steel)
    uxListRemove                             0x08002b59   Thumb Code    38  list.o(i.uxListRemove)
    vApplicationGetIdleTaskMemory            0x08002b81   Thumb Code    16  freertos.o(i.vApplicationGetIdleTaskMemory)
    vListInitialise                          0x08002b95   Thumb Code    22  list.o(i.vListInitialise)
    vListInitialiseItem                      0x08002bab   Thumb Code     6  list.o(i.vListInitialiseItem)
    vListInsert                              0x08002bb1   Thumb Code    48  list.o(i.vListInsert)
    vListInsertEnd                           0x08002be1   Thumb Code    24  list.o(i.vListInsertEnd)
    vPortEnterCritical                       0x08002bf9   Thumb Code    54  port.o(i.vPortEnterCritical)
    vPortExitCritical                        0x08002c39   Thumb Code    34  port.o(i.vPortExitCritical)
    vPortFree                                0x08002c61   Thumb Code    88  heap_4.o(i.vPortFree)
    vPortSetupTimerInterrupt                 0x08002cbd   Thumb Code    32  port.o(i.vPortSetupTimerInterrupt)
    vPortValidateInterruptPriority           0x08002ce1   Thumb Code    74  port.o(i.vPortValidateInterruptPriority)
    vTaskDelay                               0x08002d35   Thumb Code    66  tasks.o(i.vTaskDelay)
    vTaskDelete                              0x08002d81   Thumb Code   158  tasks.o(i.vTaskDelete)
    vTaskInternalSetTimeOutState             0x08002e2d   Thumb Code    12  tasks.o(i.vTaskInternalSetTimeOutState)
    vTaskMissedYield                         0x08002e3d   Thumb Code     8  tasks.o(i.vTaskMissedYield)
    vTaskPlaceOnEventList                    0x08002e49   Thumb Code    44  tasks.o(i.vTaskPlaceOnEventList)
    vTaskStartScheduler                      0x08002e79   Thumb Code    90  tasks.o(i.vTaskStartScheduler)
    vTaskSuspendAll                          0x08002ee5   Thumb Code    10  tasks.o(i.vTaskSuspendAll)
    vTaskSwitchContext                       0x08002ef5   Thumb Code    82  tasks.o(i.vTaskSwitchContext)
    xPortStartScheduler                      0x08002f51   Thumb Code   154  port.o(i.xPortStartScheduler)
    xQueueGenericCreate                      0x08002ff9   Thumb Code    72  queue.o(i.xQueueGenericCreate)
    xQueueGenericCreateStatic                0x08003041   Thumb Code   102  queue.o(i.xQueueGenericCreateStatic)
    xQueueGenericReset                       0x080030a9   Thumb Code   132  queue.o(i.xQueueGenericReset)
    xQueueGenericSend                        0x08003131   Thumb Code   346  queue.o(i.xQueueGenericSend)
    xQueueGenericSendFromISR                 0x08003291   Thumb Code   188  queue.o(i.xQueueGenericSendFromISR)
    xQueueReceive                            0x0800334d   Thumb Code   308  queue.o(i.xQueueReceive)
    xQueueReceiveFromISR                     0x08003485   Thumb Code   154  queue.o(i.xQueueReceiveFromISR)
    xTaskCheckForTimeOut                     0x08003521   Thumb Code   112  tasks.o(i.xTaskCheckForTimeOut)
    xTaskCreate                              0x08003595   Thumb Code    90  tasks.o(i.xTaskCreate)
    xTaskCreateStatic                        0x080035ef   Thumb Code    86  tasks.o(i.xTaskCreateStatic)
    xTaskGetSchedulerState                   0x08003645   Thumb Code    22  tasks.o(i.xTaskGetSchedulerState)
    xTaskIncrementTick                       0x08003661   Thumb Code   192  tasks.o(i.xTaskIncrementTick)
    xTaskPriorityDisinherit                  0x08003729   Thumb Code   144  tasks.o(i.xTaskPriorityDisinherit)
    xTaskRemoveFromEventList                 0x080037c1   Thumb Code   108  tasks.o(i.xTaskRemoveFromEventList)
    xTaskResumeAll                           0x08003835   Thumb Code   182  tasks.o(i.xTaskResumeAll)
    avoid_params                             0x080038f8   Data           6  main.o(.constdata)
    AHBPrescTable                            0x080039f2   Data          16  system_stm32f1xx.o(.constdata)
    APBPrescTable                            0x08003a02   Data           8  system_stm32f1xx.o(.constdata)
    Region$$Table$$Base                      0x08003a5c   Number         0  anon$$obj.o(Region$$Table)
    Region$$Table$$Limit                     0x08003a7c   Number         0  anon$$obj.o(Region$$Table)
    task_LED_blinkHandle                     0x20000000   Data           4  main.o(.data)
    task_motorHandle                         0x20000004   Data           4  main.o(.data)
    task_initializeHandle                    0x20000008   Data           4  main.o(.data)
    task_servoHandle                         0x2000000c   Data           4  main.o(.data)
    task_lidarHandle                         0x20000010   Data           4  main.o(.data)
    task_mmwaveHandle                        0x20000014   Data           4  main.o(.data)
    byte_form_data_queueHandle               0x20000018   Data           4  main.o(.data)
    min_dist_queueHandle                     0x2000001c   Data           4  main.o(.data)
    lidar_data_transmission_queueHandle      0x20000020   Data           4  main.o(.data)
    mmwave_data_transmission_queueHandle     0x20000024   Data           4  main.o(.data)
    servo_moved_flagHandle                   0x20000028   Data           4  main.o(.data)
    initial_array_fill_flagHandle            0x2000002c   Data           4  main.o(.data)
    uwTickFreq                               0x20000030   Data           1  stm32f1xx_hal.o(.data)
    uwTickPrio                               0x20000034   Data           4  stm32f1xx_hal.o(.data)
    uwTick                                   0x20000038   Data           4  stm32f1xx_hal.o(.data)
    SystemCoreClock                          0x2000003c   Data           4  system_stm32f1xx.o(.data)
    pxCurrentTCB                             0x20000040   Data           4  tasks.o(.data)
    aRxBuffer                                0x200000a5   Data           1  util.o(.data)
    __stdout                                 0x200000b8   Data           4  stdout.o(.data)
    htim3                                    0x200000bc   Data          64  main.o(.bss)
    huart1                                   0x200000fc   Data          64  main.o(.bss)
    huart2                                   0x2000013c   Data          64  main.o(.bss)
    huart3                                   0x2000017c   Data          64  main.o(.bss)
    htim4                                    0x20000410   Data          64  stm32f1xx_hal_timebase_tim.o(.bss)
    obstacle_array                           0x20002d40   Data          10  mmwave.o(.bss)
    __initial_sp                             0x20003150   Data           0  startup_stm32f103xe.o(STACK)



==============================================================================

Memory Map of the image

  Image Entry point : 0x08000131

  Load Region LR_IROM1 (Base: 0x08000000, Size: 0x00003b38, Max: 0x00040000, ABSOLUTE)

    Execution Region ER_IROM1 (Exec base: 0x08000000, Load base: 0x08000000, Size: 0x00003a7c, Max: 0x00040000, ABSOLUTE)

    Exec Addr    Load Addr    Size         Type   Attr      Idx    E Section Name        Object

    0x08000000   0x08000000   0x00000130   Data   RO            3    RESET               startup_stm32f103xe.o
    0x08000130   0x08000130   0x00000000   Code   RO         4338  * .ARM.Collect$$$$00000000  mc_w.l(entry.o)
    0x08000130   0x08000130   0x00000004   Code   RO         4618    .ARM.Collect$$$$00000001  mc_w.l(entry2.o)
    0x08000134   0x08000134   0x00000004   Code   RO         4621    .ARM.Collect$$$$00000004  mc_w.l(entry5.o)
    0x08000138   0x08000138   0x00000000   Code   RO         4623    .ARM.Collect$$$$00000008  mc_w.l(entry7b.o)
    0x08000138   0x08000138   0x00000000   Code   RO         4625    .ARM.Collect$$$$0000000A  mc_w.l(entry8b.o)
    0x08000138   0x08000138   0x00000008   Code   RO         4626    .ARM.Collect$$$$0000000B  mc_w.l(entry9a.o)
    0x08000140   0x08000140   0x00000000   Code   RO         4628    .ARM.Collect$$$$0000000D  mc_w.l(entry10a.o)
    0x08000140   0x08000140   0x00000000   Code   RO         4630    .ARM.Collect$$$$0000000F  mc_w.l(entry11a.o)
    0x08000140   0x08000140   0x00000004   Code   RO         4619    .ARM.Collect$$$$00002712  mc_w.l(entry2.o)
    0x08000144   0x08000144   0x00000096   Code   RO         3979    .emb_text           port.o
    0x080001da   0x080001da   0x00000002   PAD
    0x080001dc   0x080001dc   0x00000024   Code   RO            4    .text               startup_stm32f103xe.o
    0x08000200   0x08000200   0x00000024   Code   RO         4343    .text               mc_w.l(memcpya.o)
    0x08000224   0x08000224   0x00000024   Code   RO         4347    .text               mc_w.l(memseta.o)
    0x08000248   0x08000248   0x0000002c   Code   RO         4633    .text               mc_w.l(uidiv.o)
    0x08000274   0x08000274   0x00000024   Code   RO         4648    .text               mc_w.l(init.o)
    0x08000298   0x08000298   0x00000002   Code   RO          301    i.BusFault_Handler  stm32f1xx_it.o
    0x0800029a   0x0800029a   0x00000002   Code   RO          302    i.DebugMon_Handler  stm32f1xx_it.o
    0x0800029c   0x0800029c   0x00000130   Code   RO          905    i.HAL_DMA_Abort_IT  stm32f1xx_hal_dma.o
    0x080003cc   0x080003cc   0x00000024   Code   RO          532    i.HAL_Delay         stm32f1xx_hal.o
    0x080003f0   0x080003f0   0x000001f8   Code   RO          840    i.HAL_GPIO_Init     stm32f1xx_hal_gpio.o
    0x080005e8   0x080005e8   0x0000000e   Code   RO          843    i.HAL_GPIO_TogglePin  stm32f1xx_hal_gpio.o
    0x080005f6   0x080005f6   0x0000000a   Code   RO          844    i.HAL_GPIO_WritePin  stm32f1xx_hal_gpio.o
    0x08000600   0x08000600   0x0000000c   Code   RO          536    i.HAL_GetTick       stm32f1xx_hal.o
    0x0800060c   0x0800060c   0x00000010   Code   RO          542    i.HAL_IncTick       stm32f1xx_hal.o
    0x0800061c   0x0800061c   0x00000024   Code   RO          543    i.HAL_Init          stm32f1xx_hal.o
    0x08000640   0x08000640   0x00000074   Code   RO          450    i.HAL_InitTick      stm32f1xx_hal_timebase_tim.o
    0x080006b4   0x080006b4   0x0000003c   Code   RO          396    i.HAL_MspInit       stm32f1xx_hal_msp.o
    0x080006f0   0x080006f0   0x0000001a   Code   RO         1000    i.HAL_NVIC_EnableIRQ  stm32f1xx_hal_cortex.o
    0x0800070a   0x0800070a   0x00000002   PAD
    0x0800070c   0x0800070c   0x00000040   Code   RO         1006    i.HAL_NVIC_SetPriority  stm32f1xx_hal_cortex.o
    0x0800074c   0x0800074c   0x00000024   Code   RO         1007    i.HAL_NVIC_SetPriorityGrouping  stm32f1xx_hal_cortex.o
    0x08000770   0x08000770   0x0000012c   Code   RO          700    i.HAL_RCC_ClockConfig  stm32f1xx_hal_rcc.o
    0x0800089c   0x0800089c   0x00000040   Code   RO          704    i.HAL_RCC_GetClockConfig  stm32f1xx_hal_rcc.o
    0x080008dc   0x080008dc   0x00000020   Code   RO          707    i.HAL_RCC_GetPCLK1Freq  stm32f1xx_hal_rcc.o
    0x080008fc   0x080008fc   0x00000020   Code   RO          708    i.HAL_RCC_GetPCLK2Freq  stm32f1xx_hal_rcc.o
    0x0800091c   0x0800091c   0x0000006c   Code   RO          709    i.HAL_RCC_GetSysClockFreq  stm32f1xx_hal_rcc.o
    0x08000988   0x08000988   0x00000320   Code   RO          712    i.HAL_RCC_OscConfig  stm32f1xx_hal_rcc.o
    0x08000ca8   0x08000ca8   0x00000002   Code   RO         2177    i.HAL_TIMEx_BreakCallback  stm32f1xx_hal_tim_ex.o
    0x08000caa   0x08000caa   0x00000002   Code   RO         2178    i.HAL_TIMEx_CommutCallback  stm32f1xx_hal_tim_ex.o
    0x08000cac   0x08000cac   0x00000042   Code   RO         2195    i.HAL_TIMEx_MasterConfigSynchronization  stm32f1xx_hal_tim_ex.o
    0x08000cee   0x08000cee   0x00000036   Code   RO         1502    i.HAL_TIM_Base_Init  stm32f1xx_hal_tim.o
    0x08000d24   0x08000d24   0x0000003c   Code   RO          398    i.HAL_TIM_Base_MspInit  stm32f1xx_hal_msp.o
    0x08000d60   0x08000d60   0x00000022   Code   RO         1507    i.HAL_TIM_Base_Start_IT  stm32f1xx_hal_tim.o
    0x08000d82   0x08000d82   0x000000d6   Code   RO         1511    i.HAL_TIM_ConfigClockSource  stm32f1xx_hal_tim.o
    0x08000e58   0x08000e58   0x00000002   Code   RO         1531    i.HAL_TIM_IC_CaptureCallback  stm32f1xx_hal_tim.o
    0x08000e5a   0x08000e5a   0x00000166   Code   RO         1545    i.HAL_TIM_IRQHandler  stm32f1xx_hal_tim.o
    0x08000fc0   0x08000fc0   0x00000070   Code   RO          399    i.HAL_TIM_MspPostInit  stm32f1xx_hal_msp.o
    0x08001030   0x08001030   0x00000002   Code   RO         1548    i.HAL_TIM_OC_DelayElapsedCallback  stm32f1xx_hal_tim.o
    0x08001032   0x08001032   0x000000d0   Code   RO         1569    i.HAL_TIM_PWM_ConfigChannel  stm32f1xx_hal_tim.o
    0x08001102   0x08001102   0x00000036   Code   RO         1572    i.HAL_TIM_PWM_Init  stm32f1xx_hal_tim.o
    0x08001138   0x08001138   0x00000002   Code   RO         1574    i.HAL_TIM_PWM_MspInit  stm32f1xx_hal_tim.o
    0x0800113a   0x0800113a   0x00000002   Code   RO         1575    i.HAL_TIM_PWM_PulseFinishedCallback  stm32f1xx_hal_tim.o
    0x0800113c   0x0800113c   0x00000044   Code   RO         1577    i.HAL_TIM_PWM_Start  stm32f1xx_hal_tim.o
    0x08001180   0x08001180   0x00000014   Code   RO           14    i.HAL_TIM_PeriodElapsedCallback  main.o
    0x08001194   0x08001194   0x00000002   Code   RO         1588    i.HAL_TIM_TriggerCallback  stm32f1xx_hal_tim.o
    0x08001196   0x08001196   0x00000002   Code   RO         2449    i.HAL_UART_ErrorCallback  stm32f1xx_hal_uart.o
    0x08001198   0x08001198   0x0000000a   Code   RO         2451    i.HAL_UART_GetState  stm32f1xx_hal_uart.o
    0x080011a2   0x080011a2   0x00000002   PAD
    0x080011a4   0x080011a4   0x00000110   Code   RO         2452    i.HAL_UART_IRQHandler  stm32f1xx_hal_uart.o
    0x080012b4   0x080012b4   0x00000062   Code   RO         2453    i.HAL_UART_Init     stm32f1xx_hal_uart.o
    0x08001316   0x08001316   0x00000002   PAD
    0x08001318   0x08001318   0x00000148   Code   RO          401    i.HAL_UART_MspInit  stm32f1xx_hal_msp.o
    0x08001460   0x08001460   0x00000052   Code   RO         2458    i.HAL_UART_Receive_IT  stm32f1xx_hal_uart.o
    0x080014b2   0x080014b2   0x00000002   PAD
    0x080014b4   0x080014b4   0x000000bc   Code   RO         4059    i.HAL_UART_RxCpltCallback  util.o
    0x08001570   0x08001570   0x00000002   Code   RO         2464    i.HAL_UART_TxCpltCallback  stm32f1xx_hal_uart.o
    0x08001572   0x08001572   0x00000002   Code   RO          303    i.HardFault_Handler  stm32f1xx_it.o
    0x08001574   0x08001574   0x000000f8   Code   RO           15    i.MX_GPIO_Init      main.o
    0x0800166c   0x0800166c   0x0000009c   Code   RO           16    i.MX_TIM3_Init      main.o
    0x08001708   0x08001708   0x00000002   Code   RO          304    i.MemManage_Handler  stm32f1xx_it.o
    0x0800170a   0x0800170a   0x00000002   Code   RO          305    i.NMI_Handler       stm32f1xx_it.o
    0x0800170c   0x0800170c   0x0000002c   Code   RO         3980    i.SysTick_Handler   port.o
    0x08001738   0x08001738   0x0000004e   Code   RO           17    i.SystemClock_Config  main.o
    0x08001786   0x08001786   0x00000002   PAD
    0x08001788   0x08001788   0x00000048   Code   RO         2755    i.SystemInit        system_stm32f1xx.o
    0x080017d0   0x080017d0   0x0000000c   Code   RO          306    i.TIM3_IRQHandler   stm32f1xx_it.o
    0x080017dc   0x080017dc   0x0000000c   Code   RO          307    i.TIM4_IRQHandler   stm32f1xx_it.o
    0x080017e8   0x080017e8   0x0000008c   Code   RO         1590    i.TIM_Base_SetConfig  stm32f1xx_hal_tim.o
    0x08001874   0x08001874   0x0000001a   Code   RO         1591    i.TIM_CCxChannelCmd  stm32f1xx_hal_tim.o
    0x0800188e   0x0800188e   0x00000014   Code   RO         1601    i.TIM_ETR_SetConfig  stm32f1xx_hal_tim.o
    0x080018a2   0x080018a2   0x00000010   Code   RO         1602    i.TIM_ITRx_SetConfig  stm32f1xx_hal_tim.o
    0x080018b2   0x080018b2   0x00000002   PAD
    0x080018b4   0x080018b4   0x00000060   Code   RO         1603    i.TIM_OC1_SetConfig  stm32f1xx_hal_tim.o
    0x08001914   0x08001914   0x0000006c   Code   RO         1604    i.TIM_OC2_SetConfig  stm32f1xx_hal_tim.o
    0x08001980   0x08001980   0x00000068   Code   RO         1605    i.TIM_OC3_SetConfig  stm32f1xx_hal_tim.o
    0x080019e8   0x080019e8   0x00000050   Code   RO         1606    i.TIM_OC4_SetConfig  stm32f1xx_hal_tim.o
    0x08001a38   0x08001a38   0x00000022   Code   RO         1608    i.TIM_TI1_ConfigInputStage  stm32f1xx_hal_tim.o
    0x08001a5a   0x08001a5a   0x00000024   Code   RO         1610    i.TIM_TI2_ConfigInputStage  stm32f1xx_hal_tim.o
    0x08001a7e   0x08001a7e   0x00000010   Code   RO         2466    i.UART_DMAAbortOnError  stm32f1xx_hal_uart.o
    0x08001a8e   0x08001a8e   0x0000001c   Code   RO         2476    i.UART_EndRxTransfer  stm32f1xx_hal_uart.o
    0x08001aaa   0x08001aaa   0x00000096   Code   RO         2478    i.UART_Receive_IT   stm32f1xx_hal_uart.o
    0x08001b40   0x08001b40   0x000000b8   Code   RO         2479    i.UART_SetConfig    stm32f1xx_hal_uart.o
    0x08001bf8   0x08001bf8   0x00000062   Code   RO         2480    i.UART_Transmit_IT  stm32f1xx_hal_uart.o
    0x08001c5a   0x08001c5a   0x00000002   PAD
    0x08001c5c   0x08001c5c   0x0000000c   Code   RO          308    i.USART1_IRQHandler  stm32f1xx_it.o
    0x08001c68   0x08001c68   0x00000044   Code   RO          309    i.USART2_IRQHandler  stm32f1xx_it.o
    0x08001cac   0x08001cac   0x00000044   Code   RO          310    i.USART3_IRQHandler  stm32f1xx_it.o
    0x08001cf0   0x08001cf0   0x00000002   Code   RO          311    i.UsageFault_Handler  stm32f1xx_it.o
    0x08001cf2   0x08001cf2   0x00000002   PAD
    0x08001cf4   0x08001cf4   0x00000020   Code   RO         4396    i.__0printf$1       mc_w.l(printf1.o)
    0x08001d14   0x08001d14   0x00000020   Code   RO         1013    i.__NVIC_SetPriority  stm32f1xx_hal_cortex.o
    0x08001d34   0x08001d34   0x0000000e   Code   RO         4656    i.__scatterload_copy  mc_w.l(handlers.o)
    0x08001d42   0x08001d42   0x00000002   Code   RO         4657    i.__scatterload_null  mc_w.l(handlers.o)
    0x08001d44   0x08001d44   0x0000000e   Code   RO         4658    i.__scatterload_zeroinit  mc_w.l(handlers.o)
    0x08001d52   0x08001d52   0x00000002   PAD
    0x08001d54   0x08001d54   0x00000154   Code   RO         4403    i._printf_core      mc_w.l(printf1.o)
    0x08001ea8   0x08001ea8   0x00000014   Code   RO         4119    i.backward          motor.o
    0x08001ebc   0x08001ebc   0x00000014   Code   RO         4120    i.forward           motor.o
    0x08001ed0   0x08001ed0   0x00000018   Code   RO         4060    i.fputc             util.o
    0x08001ee8   0x08001ee8   0x00000020   Code   RO           18    i.func_LED_blink    main.o
    0x08001f08   0x08001f08   0x00000014   Code   RO           19    i.func_initialize   main.o
    0x08001f1c   0x08001f1c   0x0000000c   Code   RO           20    i.func_lidar        main.o
    0x08001f28   0x08001f28   0x00000064   Code   RO           21    i.func_mmwave       main.o
    0x08001f8c   0x08001f8c   0x00000088   Code   RO           22    i.func_motor        main.o
    0x08002014   0x08002014   0x0000000c   Code   RO           23    i.func_servo        main.o
    0x08002020   0x08002020   0x0000000c   Code   RO         3549    i.inHandlerMode     cmsis_os.o
    0x0800202c   0x0800202c   0x00000010   Code   RO         4121    i.left_steel        motor.o
    0x0800203c   0x0800203c   0x000001a8   Code   RO           24    i.main              main.o
    0x080021e4   0x080021e4   0x0000000c   Code   RO         3551    i.makeFreeRtosPriority  cmsis_os.o
    0x080021f0   0x080021f0   0x000001a0   Code   RO         4300    i.mmwave_process_data  mmwave.o
    0x08002390   0x08002390   0x0000000e   Code   RO         3553    i.osDelay           cmsis_os.o
    0x0800239e   0x0800239e   0x0000000a   Code   RO         3556    i.osKernelStart     cmsis_os.o
    0x080023a8   0x080023a8   0x00000026   Code   RO         3565    i.osMessageCreate   cmsis_os.o
    0x080023ce   0x080023ce   0x00000002   PAD
    0x080023d0   0x080023d0   0x00000094   Code   RO         3567    i.osMessageGet      cmsis_os.o
    0x08002464   0x08002464   0x0000005c   Code   RO         3569    i.osMessagePut      cmsis_os.o
    0x080024c0   0x080024c0   0x0000003e   Code   RO         3582    i.osSemaphoreCreate  cmsis_os.o
    0x080024fe   0x080024fe   0x00000054   Code   RO         3590    i.osThreadCreate    cmsis_os.o
    0x08002552   0x08002552   0x0000000a   Code   RO         3599    i.osThreadTerminate  cmsis_os.o
    0x0800255c   0x0800255c   0x0000007c   Code   RO         4301    i.process_obstacle_array  mmwave.o
    0x080025d8   0x080025d8   0x00000070   Code   RO         3248    i.prvAddCurrentTaskToDelayedList  tasks.o
    0x08002648   0x08002648   0x000000d0   Code   RO         3249    i.prvAddNewTaskToReadyList  tasks.o
    0x08002718   0x08002718   0x00000026   Code   RO         2933    i.prvCopyDataFromQueue  queue.o
    0x0800273e   0x0800273e   0x0000006c   Code   RO         2934    i.prvCopyDataToQueue  queue.o
    0x080027aa   0x080027aa   0x00000034   Code   RO         3250    i.prvDeleteTCB      tasks.o
    0x080027de   0x080027de   0x00000002   PAD
    0x080027e0   0x080027e0   0x0000004c   Code   RO         3918    i.prvHeapInit       heap_4.o
    0x0800282c   0x0800282c   0x00000060   Code   RO         3251    i.prvIdleTask       tasks.o
    0x0800288c   0x0800288c   0x00000016   Code   RO         2936    i.prvInitialiseNewQueue  queue.o
    0x080028a2   0x080028a2   0x0000008e   Code   RO         3252    i.prvInitialiseNewTask  tasks.o
    0x08002930   0x08002930   0x0000004c   Code   RO         3919    i.prvInsertBlockIntoFreeList  heap_4.o
    0x0800297c   0x0800297c   0x0000001c   Code   RO         2937    i.prvIsQueueEmpty   queue.o
    0x08002998   0x08002998   0x00000020   Code   RO         3253    i.prvResetNextTaskUnblockTime  tasks.o
    0x080029b8   0x080029b8   0x00000028   Code   RO         3981    i.prvTaskExitError  port.o
    0x080029e0   0x080029e0   0x0000006a   Code   RO         2938    i.prvUnlockQueue    queue.o
    0x08002a4a   0x08002a4a   0x00000002   PAD
    0x08002a4c   0x08002a4c   0x000000d8   Code   RO         3920    i.pvPortMalloc      heap_4.o
    0x08002b24   0x08002b24   0x00000024   Code   RO         3982    i.pxPortInitialiseStack  port.o
    0x08002b48   0x08002b48   0x00000010   Code   RO         4125    i.right_steel       motor.o
    0x08002b58   0x08002b58   0x00000026   Code   RO         2893    i.uxListRemove      list.o
    0x08002b7e   0x08002b7e   0x00000002   PAD
    0x08002b80   0x08002b80   0x00000014   Code   RO          260    i.vApplicationGetIdleTaskMemory  freertos.o
    0x08002b94   0x08002b94   0x00000016   Code   RO         2894    i.vListInitialise   list.o
    0x08002baa   0x08002baa   0x00000006   Code   RO         2895    i.vListInitialiseItem  list.o
    0x08002bb0   0x08002bb0   0x00000030   Code   RO         2896    i.vListInsert       list.o
    0x08002be0   0x08002be0   0x00000018   Code   RO         2897    i.vListInsertEnd    list.o
    0x08002bf8   0x08002bf8   0x00000040   Code   RO         3984    i.vPortEnterCritical  port.o
    0x08002c38   0x08002c38   0x00000028   Code   RO         3985    i.vPortExitCritical  port.o
    0x08002c60   0x08002c60   0x0000005c   Code   RO         3921    i.vPortFree         heap_4.o
    0x08002cbc   0x08002cbc   0x00000024   Code   RO         3986    i.vPortSetupTimerInterrupt  port.o
    0x08002ce0   0x08002ce0   0x00000054   Code   RO         3987    i.vPortValidateInterruptPriority  port.o
    0x08002d34   0x08002d34   0x0000004c   Code   RO         3261    i.vTaskDelay        tasks.o
    0x08002d80   0x08002d80   0x000000ac   Code   RO         3262    i.vTaskDelete       tasks.o
    0x08002e2c   0x08002e2c   0x00000010   Code   RO         3264    i.vTaskInternalSetTimeOutState  tasks.o
    0x08002e3c   0x08002e3c   0x0000000c   Code   RO         3265    i.vTaskMissedYield  tasks.o
    0x08002e48   0x08002e48   0x00000030   Code   RO         3267    i.vTaskPlaceOnEventList  tasks.o
    0x08002e78   0x08002e78   0x0000006c   Code   RO         3274    i.vTaskStartScheduler  tasks.o
    0x08002ee4   0x08002ee4   0x00000010   Code   RO         3276    i.vTaskSuspendAll   tasks.o
    0x08002ef4   0x08002ef4   0x0000005c   Code   RO         3277    i.vTaskSwitchContext  tasks.o
    0x08002f50   0x08002f50   0x000000a8   Code   RO         3988    i.xPortStartScheduler  port.o
    0x08002ff8   0x08002ff8   0x00000048   Code   RO         2947    i.xQueueGenericCreate  queue.o
    0x08003040   0x08003040   0x00000066   Code   RO         2948    i.xQueueGenericCreateStatic  queue.o
    0x080030a6   0x080030a6   0x00000002   PAD
    0x080030a8   0x080030a8   0x00000088   Code   RO         2949    i.xQueueGenericReset  queue.o
    0x08003130   0x08003130   0x00000160   Code   RO         2950    i.xQueueGenericSend  queue.o
    0x08003290   0x08003290   0x000000bc   Code   RO         2951    i.xQueueGenericSendFromISR  queue.o
    0x0800334c   0x0800334c   0x00000138   Code   RO         2957    i.xQueueReceive     queue.o
    0x08003484   0x08003484   0x0000009a   Code   RO         2958    i.xQueueReceiveFromISR  queue.o
    0x0800351e   0x0800351e   0x00000002   PAD
    0x08003520   0x08003520   0x00000074   Code   RO         3278    i.xTaskCheckForTimeOut  tasks.o
    0x08003594   0x08003594   0x0000005a   Code   RO         3279    i.xTaskCreate       tasks.o
    0x080035ee   0x080035ee   0x00000056   Code   RO         3280    i.xTaskCreateStatic  tasks.o
    0x08003644   0x08003644   0x0000001c   Code   RO         3284    i.xTaskGetSchedulerState  tasks.o
    0x08003660   0x08003660   0x000000c8   Code   RO         3287    i.xTaskIncrementTick  tasks.o
    0x08003728   0x08003728   0x00000098   Code   RO         3290    i.xTaskPriorityDisinherit  tasks.o
    0x080037c0   0x080037c0   0x00000074   Code   RO         3292    i.xTaskRemoveFromEventList  tasks.o
    0x08003834   0x08003834   0x000000c4   Code   RO         3293    i.xTaskResumeAll    tasks.o
    0x080038f8   0x080038f8   0x000000fa   Data   RO           26    .constdata          main.o
    0x080039f2   0x080039f2   0x00000010   Data   RO         2756    .constdata          system_stm32f1xx.o
    0x08003a02   0x08003a02   0x00000008   Data   RO         2757    .constdata          system_stm32f1xx.o
    0x08003a0a   0x08003a0a   0x00000002   PAD
    0x08003a0c   0x08003a0c   0x0000004f   Data   RO           27    .conststring        main.o
    0x08003a5b   0x08003a5b   0x00000001   PAD
    0x08003a5c   0x08003a5c   0x00000020   Data   RO         4654    Region$$Table       anon$$obj.o


    Execution Region RW_IRAM1 (Exec base: 0x20000000, Load base: 0x08003a7c, Size: 0x00003150, Max: 0x0000c000, ABSOLUTE)

    Exec Addr    Load Addr    Size         Type   Attr      Idx    E Section Name        Object

    0x20000000   0x08003a7c   0x00000030   Data   RW           29    .data               main.o
    0x20000030   0x08003aac   0x0000000c   Data   RW          550    .data               stm32f1xx_hal.o
    0x2000003c   0x08003ab8   0x00000004   Data   RW         2758    .data               system_stm32f1xx.o
    0x20000040   0x08003abc   0x0000003c   Data   RW         3296    .data               tasks.o
    0x2000007c   0x08003af8   0x00000018   Data   RW         3926    .data               heap_4.o
    0x20000094   0x08003b10   0x0000000c   Data   RW         3989    .data               port.o
    0x200000a0   0x08003b1c   0x00000006   Data   RW         4062    .data               util.o
    0x200000a6   0x08003b22   0x00000010   Data   RW         4303    .data               mmwave.o
    0x200000b6   0x08003b32   0x00000002   PAD
    0x200000b8   0x08003b34   0x00000004   Data   RW         4632    .data               mc_w.l(stdout.o)
    0x200000bc        -       0x00000100   Zero   RW           25    .bss                main.o
    0x200001bc        -       0x00000254   Zero   RW          261    .bss                freertos.o
    0x20000410        -       0x00000040   Zero   RW          453    .bss                stm32f1xx_hal_timebase_tim.o
    0x20000450        -       0x000000f0   Zero   RW         3295    .bss                tasks.o
    0x20000540        -       0x00002800   Zero   RW         3925    .bss                heap_4.o
    0x20002d40        -       0x0000000a   Zero   RW         4302    .bss                mmwave.o
    0x20002d4a   0x08003b38   0x00000006   PAD
    0x20002d50        -       0x00000400   Zero   RW            1    STACK               startup_stm32f103xe.o


==============================================================================

Image component sizes


      Code (inc. data)   RO Data    RW Data    ZI Data      Debug   Object Name

       482         10          0          0          0      29761   cmsis_os.o
         0          0          0          0          0      17432   event_groups.o
        20          4          0          0        596       1284   freertos.o
       460         24          0         24      10240       7331   heap_4.o
       138          0          0          0          0       3478   list.o
      1238        104        329         48        256     521150   main.o
       540         38          0         16         10       7608   mmwave.o
        72         48          0          0          0       1720   motor.o
       662         70          0         12          0      11337   port.o
      1618         14          0          0          0      15249   queue.o
        36          8        304          0       1024        816   startup_stm32f103xe.o
       100         18          0         12          0       5954   stm32f1xx_hal.o
       158         14          0          0          0      28250   stm32f1xx_hal_cortex.o
       304          8          0          0          0       1191   stm32f1xx_hal_dma.o
       528         42          0          0          0       3557   stm32f1xx_hal_gpio.o
       560         64          0          0          0       3242   stm32f1xx_hal_msp.o
      1336        110          0          0          0       5917   stm32f1xx_hal_rcc.o
      1660         66          0          0          0      16102   stm32f1xx_hal_tim.o
        70          0          0          0          0       2405   stm32f1xx_hal_tim_ex.o
       116         16          0          0         64       1463   stm32f1xx_hal_timebase_tim.o
       942         12          0          0          0       8059   stm32f1xx_hal_uart.o
       184         42          0          0          0       5229   stm32f1xx_it.o
         0          0          0          0          0        392   stream_buffer.o
        72         16         24          4          0       1219   system_stm32f1xx.o
      2166        162          0         60        240      22700   tasks.o
       212         28          0          6          0       3231   util.o

    ----------------------------------------------------------------------
     13704        918        692        184      12436     726077   Object Totals
         0          0         32          0          0          0   (incl. Generated)
        30          0          3          2          6          0   (incl. Padding)

    ----------------------------------------------------------------------

      Code (inc. data)   RO Data    RW Data    ZI Data      Debug   Library Member Name

         0          0          0          0          0          0   entry.o
         0          0          0          0          0          0   entry10a.o
         0          0          0          0          0          0   entry11a.o
         8          4          0          0          0          0   entry2.o
         4          0          0          0          0          0   entry5.o
         0          0          0          0          0          0   entry7b.o
         0          0          0          0          0          0   entry8b.o
         8          4          0          0          0          0   entry9a.o
        30          0          0          0          0          0   handlers.o
        36          8          0          0          0         68   init.o
        36          0          0          0          0         68   memcpya.o
        36          0          0          0          0        108   memseta.o
       372         14          0          0          0        184   printf1.o
         0          0          0          4          0          0   stdout.o
        44          0          0          0          0         80   uidiv.o

    ----------------------------------------------------------------------
       576         30          0          4          0        508   Library Totals
         2          0          0          0          0          0   (incl. Padding)

    ----------------------------------------------------------------------

      Code (inc. data)   RO Data    RW Data    ZI Data      Debug   Library Name

       574         30          0          4          0        508   mc_w.l

    ----------------------------------------------------------------------
       576         30          0          4          0        508   Library Totals

    ----------------------------------------------------------------------

==============================================================================


      Code (inc. data)   RO Data    RW Data    ZI Data      Debug   

     14280        948        692        188      12436     718833   Grand Totals
     14280        948        692        188      12436     718833   ELF Image Totals
     14280        948        692        188          0          0   ROM Totals

==============================================================================

    Total RO  Size (Code + RO Data)                14972 (  14.62kB)
    Total RW  Size (RW Data + ZI Data)             12624 (  12.33kB)
    Total ROM Size (Code + RO Data + RW Data)      15160 (  14.80kB)

==============================================================================

