:020000040800F2
:1000000050310020DD0100080B17000873150008AF
:100010000917000899020008F11C00080000000000
:100020000000000000000000000000004501000882
:100030009B02000800000000890100080D1700085D
:10004000F7010008F7010008F7010008F7010008B0
:10005000F7010008F7010008F7010008F7010008A0
:10006000F7010008F7010008F7010008F701000890
:10007000F7010008F7010008F7010008F701000880
:10008000F7010008F7010008F7010008F701000870
:10009000F7010008F7010008F7010008F701000860
:1000A000F7010008F7010008F7010008F701000850
:1000B000F7010008D1170008DD170008F701000854
:1000C000F7010008F7010008F7010008F701000830
:1000D000F70100085D1C0008691C0008AD1C000841
:1000E000F7010008F7010008F7010008F701000810
:1000F000F7010008F7010008F7010008F701000800
:10010000F7010008F7010008F7010008F7010008EF
:10011000F7010008F7010008F7010008F7010008DF
:10012000F7010008F7010008F7010008F7010008CF
:10013000DFF80CD000F09EF8004800473D20000892
:1001400050310020224B19680868B0E8F00F80F3A6
:100150000988BFF36F8F4FF0000080F311884EF0D5
:100160000D0E70470000000006480068006880F32C
:10017000088862B661B6BFF34F8FBFF36F8F00DFA1
:1001800000BF00BF08ED00E0EFF30980BFF36F8F01
:100190000F4B1A6820E9F00F106008B54FF05000BF
:1001A00080F31188BFF34F8FBFF36F8F02F0A2FE71
:1001B0004FF0000080F31188BDE808401968086816
:1001C000B0E8F00F80F30988BFF36F8F704700BF6E
:1001D00040000020EFF3058070470000064880478C
:1001E00006480047FEE7FEE7FEE7FEE7FEE7FEE71C
:1001F000FEE7FEE7FEE7FEE7891700083101000889
:1002000040EA01039B0703D009E008C9121F08C098
:10021000042AFAD203E011F8013B00F8013B521E18
:10022000F9D27047D2B201E000F8012B491EFBD28F
:1002300070470022F6E710B513460A4604461946F1
:10024000FFF7F0FF204610BD30B50B4601460020F9
:100250002022012409E021FA02F59D4205D303FA88
:1002600002F5491B04FA02F52844151EA2F1010209
:10027000F1DC30BD064C074D06E0E06840F00103BC
:1002800094E8070098471034AC42F6D3FFF754FFC8
:100290005C3A00087C3A0008FEE770472DE9F05F01
:1002A00090F821100024022903D004218163012445
:1002B00085E001680A6822F00E020A6001680A6897
:1002C00022F001020A603F4E3E4FB215DFF8F4C043
:1002D000DFF8F090DFF8ECA0DFF8E8B0DFF8E4E05A
:1002E0000168783F13011502ACF1640CA9F15009C3
:1002F000AAF13C0AABF1280BAEF1140E4FF48018B2
:10030000B14227D9B9420ED0614512D049451DD01E
:10031000514518D0594518D0714501D1424615E0D4
:10032000294EB14201D1012210E0274E1436B142CC
:1003300001D110220AE0244E2836B14206D0224ACA
:100340003C32914201D11A4600E02A461E49091F5B
:100350000A602BE0B94213D0614517D0494522D03D
:1003600051451DD059451DD0714501D142461AE075
:10037000B14202D14FF0807215E0134EB14201D16B
:10038000012210E0104E1436B14201D110220AE0D1
:100390000D4E2836B14206D00B4A3C32914201D173
:1003A0001A4600E02A46074980394A60012180F850
:1003B0002110002180F82010416B01B188472046B0
:1003C000BDE8F09F800002400804024070B504467A
:1003D00000F016F90546601C02D004480078044479
:1003E00000F00EF9401BA042FAD370BD300000208F
:1003F0002DE9F84FDFF8C891002409F1040A0AF149
:10040000040B23460F270BF1040ED1E00125A54074
:1004100006EA0502AA4276D1DFF8A8C14E68A6EB2B
:100420000C0866452BD00DDC032E34D005DC36B32A
:10043000012E19D0022E2FD11BE0112E16D0122E14
:100440002AD119E0B8F5881F19D006DCB8F5803F2D
:1004500015D0B8F5801F1FD111E0B8F5001F0ED0E0
:10046000B8F5041F18D10AE0CB6815E0CB681B1D56
:1004700012E0CB6808330FE0CB680C330CE08B68DC
:100480002BB1012B4FF0080303D0456104E0042396
:1004900002E0056100E00023FF2A01D8064601E0E2
:1004A00000F104064FEA840501D9A5F12005D6F82C
:1004B000008007FA05FC28EA0C0803FA05F548EA6B
:1004C0000508C6F800804D68ED0070D53E4DAE6958
:1004D00046F00106AE61AD6924F0030605F00105A2
:1004E00000953A4D06EB050CDCF80850A607360FD0
:1004F00007FA06F825EA0805DFF8D480404503D15D
:100500004FF0000825E052E0DFF8C880404502D1F6
:100510004FF001081DE0DFF8C080404502D14FF0E8
:10052000020816E0DFF8B480404502D14FF003081E
:100530000FE0DFF8AC80404502D14FF0040808E03E
:10054000DFF8A080404502D14FF0050801E04FF0F0
:10055000060808FA06F848EA0508CCF808804D684D
:10056000D9F80060ED034D4601D5164300E09643EF
:100570002E604D68DAF80060AD03554601D516438C
:1005800000E096432E604D68DBF80060ED025D46AA
:1005900001D5164300E096432E604D68DEF80060FA
:1005A000AD02754601D5164300E096432E60641CEB
:1005B0000A681646E2407FF429AFBDE8F88F0000D4
:1005C0000004014000001110001002400000014032
:1005D00000080140000C01400010014000140140DF
:1005E00000180140001C0140C2680A4201D041616C
:1005F0007047016170470AB1016170470904FBE768
:10060000014880687047000030000020024881687F
:10061000027811448160704730000020074810B50F
:10062000016841F010010160032000F08FF8002004
:1006300000F006F800F03EF8002010BD0020024057
:1006400000B5014687B000221E2000F05FF81E2092
:1006500000F04EF81348C16941F00401C161C0695E
:1006600005A900F004000690684600F017F900F0B4
:1006700035F90D494000B0FBF1F10D480B4A491E18
:100680000260416040F2E7320021C0E9032181604D
:1006900000F02DFB10B1012007B000BD044800F0B0
:1006A0005FFBF9E70010024040420F0000080040E5
:1006B000100400200C4808B5816941F001018161F6
:1006C000816901F001010091C16941F08051C1616E
:1006D000C06900F0805000900448416821F0E0615A
:1006E00041F00071416008BD00100240000001406F
:1006F000002809DB00F01F02012191404009800021
:1007000000F1E020C0F8001170470000F0B40E4B7B
:100710001B680C46C3F30223C3F10705042D00D95F
:100720000425191D072901D2002300E0DB1E012644
:1007300006FA05F1491E214099409E40761E16405A
:100740003143F0BC01F0E6BA0CED00E0064900F0E0
:10075000070208684FF6FF03184040EA0220034AE8
:1007600010430860704700000CED00E00000FA053F
:100770002DE9F0470F46050061D0434E306800F088
:100780000700B84209D2306820F0070038433060D3
:10079000306800F00700B84251D128683B4C81070F
:1007A00012D5400703D5606840F4E06060602878A7
:1007B000000703D5606840F4605060606068A96815
:1007C00020F0F000084360602878C00728D06868EF
:1007D000012810D02168022810D0890700292EDABC
:1007E000616821F0030101436160FFF709FF804662
:1007F00041F288390DE021688903EFE78901EDE7CF
:10080000FFF7FEFEA0EB0801494502D90320BDE831
:10081000F0876068696800F00C00B0EB810FEFD1E1
:10082000306800F00700B8420BD9306820F00700AC
:1008300038433060306800F00700B84201D0012032
:10084000E5E72878400705D56068E96820F4E060AE
:10085000084360602878000706D56068296920F49D
:10086000605040EAC100606000F058F86168084AD2
:10087000C1F30311515CC84006490860064800688E
:10088000FFF7DEFE0020C2E7002002400010024019
:10089000F23900083C000020340000200F220260E2
:1008A0000C4A536803F003034360536803F0F003FA
:1008B0008360536803F4E063C36052684FF4E063FD
:1008C00003EAD20202610448006800F007000860F1
:1008D0007047000000100240002002400448054913
:1008E00000684968044AC1F30221515CC84070475E
:1008F0003C00002000100240023A0008044805496C
:1009000000684968044AC1F3C221515CC84070477D
:100910003C00002000100240023A000812A185B0FD
:100920000FC98DE80F0014A0144A006804905168A4
:10093000134801F00C03042B10D0082B0ED1C1F387
:100940008343C9031DF803000AD5516804AAC1F303
:100950004041515C0A4A5043B0FBF1F005B070478A
:1009600008494843FAE7000002030405060708099E
:100970000A0B0C0D0E0F10100102000000100240B7
:1009800000127A0000093D002DE9F84F040070D0F4
:100990002078C04DC00749D06868C0F381000128A5
:1009A00007D06868C0F38100022809D16868C003D5
:1009B00006D52868800339D560680028E7D035E07F
:1009C0006068B0F5803F0BD010B1B0F5A02F11D00A
:1009D000286820F480302860286820F4802002E015
:1009E000286840F480302860606890B1FFF708FE06
:1009F00006460AE0286840F480202860F0E700BF3F
:100A0000FFF7FEFD801B642873D828688003F7D5A4
:100A10000CE0FFF7F5FD064605E000BFFFF7F0FD2F
:100A2000801B6428F0D828688003F7D420789A4E79
:100A300080074FF001094FF0000839D5686810F0C1
:100A40000C0F07D06868C0F38100022809D16868DC
:100A5000C00306D42868800714D52069012808D16E
:100A600010E02069B0B1C6F80090FFF7C9FD074655
:100A700005E00AE1FFF7C4FDC01B0228C4D82868BE
:100A80008007F7D52868616920F0F80040EAC100C6
:100A900028600DE0C6F80080FFF7B2FD074604E0CD
:100AA000FFF7AEFDC01B022823D828688007F7D4C3
:100AB000207800072CD57948A169D9B1C0F80090F9
:100AC000FFF79EFD074604E0FFF79AFDC01B0228D2
:100AD0000FD8686A8007F7D571484FF4FA5100685B
:100AE000B0FBF1F0009000BF0098411E0091FAD2D7
:100AF0000EE080E0C0F80080FFF782FD074604E0CA
:100B0000FFF77EFDC01B022875D8686A8007F7D4FE
:100B10002078400760D5E8690027C00008D4E8695C
:100B200040F08050E861E869012700F080500090B3
:100B30005C480168C90513D40168834641F480719B
:100B40000160FFF75DFD824606E000BFFFF758FD3C
:100B5000A0EB0A0064284ED8DBF80000C005F5D5EC
:100B6000E06801280AD008B1052813D0286A20F0CF
:100B700001002862286A20F0040002E0286A40F0A0
:100B800001002862E06841F2883B98B1FFF738FD28
:100B900082460BE0286A40F004002862EEE700BFBE
:100BA000FFF72EFDA0EB0A0159455AD8286A8007A5
:100BB000F6D50CE0FFF724FD824605E0FFF720FDA7
:100BC000A0EB0A0159454CD8286A8007F6D41FB11A
:100BD000E86920F08050E861E06988B36968C1F392
:100BE0008101022944D00228C6F8608004D0FFF7B2
:100BF00007FD044638E034E0FFF702FD074604E055
:100C0000FFF7FEFCC01B02282BD828688001F7D410
:100C1000206AB0F5803F05D16868A16820F40030F3
:100C200008436860D4E908010843696821F4741135
:100C300008436860C6F86090FFF7E2FC044606E0EF
:100C400025E000BFFFF7DCFC001B022809D828685C
:100C50008001F7D51BE000BFFFF7D2FC001B022884
:100C600002D90320BDE8F88F28688001F4D40EE093
:100C70000128F7D06868226A00F48031914204D1DB
:100C8000616A00F47010884201D00120EAE7002078
:100C9000E8E70000001002400000424280044242A7
:100CA0003C000020007000407047704770B590F81D
:100CB0003C20012A19D0012400F83C4F0222427046
:100CC00050F83C3C5A689D6822F070060A684968F2
:100CD000324325F0800529435A6050F83C2C91603E
:100CE000447000210170084670BD022070BD10B52F
:100CF000040003D094F83D0010B107E0012010BDBE
:100D0000002084F83C00204600F00CF8022084F813
:100D10003D00211D206800F067FD012084F83D00A2
:100D2000002010BD08B500680B49884212D10B485D
:100D3000C16941F00201C161C069002200F00200F6
:100D4000009003211D20FFF7E1FCBDE808401D20B5
:100D5000FFF7CEBC08BD00000004004000100240B8
:100D60000168CA6842F00102CA600068816801F047
:100D70000701062903D0016841F00101016000204C
:100D8000704770B5044690F83C00012817D0012543
:100D900084F83C50022084F83D002068826822F0EC
:100DA000770222F47F4282600868502830D00DDC40
:100DB00020284DD005DC98B310283BD148E0022014
:100DC00070BD302844D0402834D139E0602828D084
:100DD000702806D0B0F5805F2CD0B0F5005F29D127
:100DE0000AE0CB68D1E90121206800F050FD2068BD
:100DF000816841F0770109E0CB68D1E901212068E1
:100E000000F045FD2068816841F48041816011E077
:100E1000CA684968206800F00FFE5021206807E08A
:100E200016E0CA684968206800F017FE6021206853
:100E300000F037FD84F83D50002084F83C0070BD80
:100E4000CA684968206800F0F7FD40212068EFE794
:100E5000226801461046EBE7704770B5044600680B
:100E600001694FF00005C943890715D4C168C9431A
:100E7000890711D4E91E016101202077206880696B
:100E80008007204602D0FFF7E7FF04E000F0D0F82B
:100E9000204600F052F9257720680169C9434907C7
:100EA00017D4C168C943490713D46FF00401016125
:100EB000022020772068806910F4407F204602D00D
:100EC000FFF7CAFF04E000F0B3F8204600F035F960
:100ED000257720680169C943090716D4C168C94349
:100EE000090712D46FF008010161042020772068FF
:100EF000C0698007204602D0FFF7AEFF04E000F093
:100F000097F8204600F019F9257720680169C94350
:100F1000C90617D4C168C943C90613D46FF01001BC
:100F20000161082020772068C06910F4407F2046C6
:100F300002D0FFF791FF04E000F07AF8204600F0BD
:100F4000FCF8257720680169C943C90708D1C16841
:100F5000C943C90704D1891E0161204600F010F978
:100F600020680169C943090609D4C168C943090653
:100F700005D46FF0800101612046FFF795FE2068DF
:100F80000169C943490609D4C168C943490605D462
:100F90006FF040010161204600F0FCF82068016913
:100FA000C94389060BD4C168C943890607D46FF0C9
:100FB000200101612046BDE87040FFF776BE70BD9C
:100FC00010B586B000210091019102910391006853
:100FD0001349884221D11348816941F0040181619C
:100FE000816901F004010491816941F00801816186
:100FF0008069022400F008000490C020CDE90004BC
:10100000694609480394FFF7F3F90120CDE900048C
:10101000694606480394FFF7EBF906B010BD0000DF
:10102000000400400010024000080140000C014094
:10103000704770B5044690F83C000D4601280DD06D
:10104000012684F83C60022084F83D0042B1042A65
:1010500018D0082A2AD00C2A4DD139E0022070BDC0
:10106000206800F027FC2068816941F00801816157
:101070002068816921F004018161206881692A6901
:10108000114311E0206800F045FC2068816941F4BB
:10109000006181612068816921F48061816120683B
:1010A00081692A6941EA0221816124E0206800F017
:1010B00067FC2068C16941F00801C1612068C1690D
:1010C00021F00401C1612068C1692A69114311E05E
:1010D000206800F089FC2068C16941F40061C161A9
:1010E0002068C16921F48061C1612068C1692A69F1
:1010F00041EA0221C16184F83D60002084F83C008F
:1011000070BD10B5040003D094F83D0010B107E0A5
:10111000012010BD002084F83C00204600F00CF8AF
:10112000022084F83D00211D206800F05DFB0120B5
:1011300084F83D00002010BD7047704710B504468C
:101140000068012200F096FB0B492068884202D01B
:101150000A49884203D1416C41F40041416420684E
:10116000816801F00701062903D0016841F00101FF
:101170000160002010BD0000002C0140003401403F
:1011800000680349884201D1FFF740BA7047000068
:10119000000800407047704710F8391F4078084336
:1011A0007047000070B5026804461068D168536942
:1011B00010F00F0F50D003F0010501F49076354385
:1011C0005DD0C20705D0CA0503D5E26B42F001022B
:1011D000E263420705D5DA0703D0E26B42F0020270
:1011E000E263820705D5DA0703D0E26B42F004021E
:1011F000E263020705D5DA0703D0E26B42F008028A
:10120000E263E26B002A33D0800604D5880602D55B
:10121000204600F04AFC20684069E16BC0F3801072
:10122000090700D428B3204600F031FC206841694A
:1012300049061AD5416921F040014161606BA0B1B6
:101240001B494163606BFFF729F8002810D0606BE1
:10125000416BBDE870400847830610D58B060ED55C
:101260002046BDE8704000F020BC2046FFF793FF09
:1012700070BD2046FFF78FFF0020E06370BD0306BE
:1012800006D50B0604D52046BDE8704000F0B4BC7E
:101290004006F3D54806F1D5D168204621F040013B
:1012A000D160202184F8391000F062F970BD00008F
:1012B0007F1A000870B5040004D094F839000025A6
:1012C00010B106E0012070BD84F83850204600F0CF
:1012D00023F8242084F839002068C16821F40051E3
:1012E000C160204600F02CFC2068016921F4904187
:1012F00001612068416921F02A0141612068C168CB
:1013000041F40051C160E563202084F8390084F87D
:101310003A00002070BD0000F0B585B000240094B4
:101320000194029403940368464F02204649032225
:10133000464D4602BB4225D18B6943F480438B6105
:101340008B6903F4804304938B6943F004038B613E
:101350008969039201F0040104910102CDE90010B2
:1013600069462846FFF744F8CDE9006469462846F7
:101370000294FFF73DF8002207212520FFF7C6F968
:10138000252028E0324FBB4229D1CB6943F40033FA
:10139000CB61CB6903F4003304938B6943F00403FE
:1013A0008B618969039201F0040104910421CDE964
:1013B000001069462846FFF71BF80820CDE9000415
:1013C000694628460294FFF713F8002207212620D9
:1013D000FFF79CF92620FFF78BF905B0F0BD1D4DF6
:1013E000AB42FAD1CB6943F48023CB61CB6903F4E0
:1013F000802304938B6943F010038B618969164D38
:1014000001F01001CDE90321CDE9006069462846CD
:10141000FEF7EEFFE814CDE9000469462846029481
:10142000FEF7E6FF0D48416821F0300141F0E06130
:1014300041F010014160002206212720FFF766F9E4
:101440002720C8E700380140001002400008014092
:1014500000440040004800400010014000000140EE
:1014600090F83A30202B22D1F9B1F2B190F838300F
:10147000012B1CD081628285C2850021C16322229A
:1014800080F83A2080F838100168CA6842F4807207
:10149000CA6001684A6942F001024A610068C16895
:1014A00041F02001C16000207047012070470220F8
:1014B000704700002DE9F041044600682749284D97
:1014C000884205D1274829783222006800F0CAFFF7
:1014D0002549206888421ED1214C0127641F60786D
:1014E00020702978617022790025521C2271AA2966
:1014F00002D0552905D006E0AA2804D1E570A770CE
:1015000008E0552804D0E078184E012805D008E0FE
:10151000E570A5702571BDE8F0819622306800F075
:10152000A1FFA0780128F6D160780728F3D12079AF
:101530000228F0D821780B2904D00C2902D0E570BC
:10154000A570E8E79622306800F08CFF3222072170
:10155000306800F087FFE770DDE7000000440040DE
:10156000A5000020200000200048004024000020AA
:101570007047FEE72DE9F04786B000253648009514
:10158000019502950395816941F01001816181699E
:1015900001F010010491816941F0200181618169AC
:1015A00001F020010491816941F0040181618169A8
:1015B00001F004010491816941F0080181618069B1
:1015C000DFF8989000F008004FF4006604900022C5
:1015D00031464846FFF70FF8DFF884A04FF47078E3
:1015E000002241465046FFF706F84FF23F00032421
:1015F000CDE9000469465046FEF7FAFE49F633107D
:10160000CDE9000469461748FEF7F2FE4FF2F67086
:10161000CDE9000469464846FEF7EAFE0096022737
:1016200001260397CDE9016569464846FEF7E0FECD
:10163000CDF800800397CDE9016569465046FEF775
:10164000D7FE0420CDE9000469460748FEF7D0FE26
:1016500006B0BDE8F087000000100240000C014019
:1016600000100140000801400014014010B58EB088
:1016700000240794089409940A940B941C2168464A
:101680000C94FEF7D6FD1F481D49016041F61F412D
:10169000C0E90114C721C0E903148461FFF727FBE7
:1016A0004FF48050079007A91648FFF76AFB1548CA
:1016B000FFF727FD0B940BA912480C94FFF7F6FADD
:1016C000602000900F20CDE90104002269460D48FA
:1016D0000494FFF7AEFC042269460A480194FFF720
:1016E000A8FC082269460748FFF7A3FC002105482B
:1016F000FFF724FD0348FFF763FC0EB010BD0000A8
:1017000000040040BC000020FEE7704710B55020E8
:1017100080F31188BFF34F8FBFF36F8F01F0A0FFED
:1017200018B104494FF080500860002080F3118800
:1017300010BD000004ED00E030B58FB028216846F0
:10174000FEF777FD14210AA8FEF773FD01210804B6
:10175000CDE900100024029402250491CDE9075040
:101760004FF4E01009906846FFF70EF90F20CDE91D
:101770000A056802CDE90C4002210AA80E94FEF782
:10178000F7FF0FB030BD00000D48016841F00101C6
:10179000016041680B4A1140416001680A4A1140EA
:1017A0000160016821F480210160416821F4FE019B
:1017B00041604FF41F0181600449C0030860704715
:1017C000001002400000FFF8FFFFF6FE08ED00E009
:1017D0000148FFF742BB0000BC0000200148FFF7B2
:1017E0003CBB000010040020F0B502681C4B1D4DEE
:1017F0001D4E1E4F1E4C4FF0804C984209D0A04207
:1018000007D0604505D0A84203D0B04201D0B8420D
:1018100004D122F0700E4A6842EA0E02984209D0C2
:10182000A04207D0604505D0A84203D0B04201D005
:10183000B84203D122F44075CA682A434D6922F0A8
:1018400080022A4302608A68C2620A688262984201
:1018500001D0A04201D10969016301214161F0BDBC
:10186000002C01400004004000080040000C004033
:101870000034014010B501F01F030121046A9940B2
:101880008C430462016A9A401143016210BD10B595
:10189000846842EA032224F47F440A43224382609C
:1018A00010BD826822F070020A4342F00701816095
:1018B00070470000F0B5026A22F001020262036A7A
:1018C00042688469124E24F073050C682C4323F09F
:1018D00002058B682B430D4DA84201D0B04205D1C3
:1018E00023F00807CB683B4323F00403A84201D050
:1018F000B04205D14D6922F4407215438A692A43EA
:1019000042608461496841630362F0BD002C01407C
:1019100000340140F0B5026A22F010020262026A4D
:10192000436884690D6824F4E64444EA05248D681C
:1019300022F0200242EA05120F4D104EA84201D0BB
:10194000B04206D1CF6822F0800242EA071222F0AC
:101950004002A84201D0B04207D14D6923F4406350
:1019600043EA85038D6943EA8503436084614968DE
:1019700081630262F0BD0000002C01400034014090
:10198000F0B5026A22F480720262026A4368C46996
:1019900022F4007224F073050C68124E2C438D68FB
:1019A00042EA05220E4DA84201D0B04206D1CF68CE
:1019B00022F4006242EA072222F48062A84201D0A7
:1019C000B04207D14D6923F4405343EA05138D69B2
:1019D00043EA05134360C4614968C1630262F0BD14
:1019E000002C01400034014030B5026A22F48052DC
:1019F0000262046A4268C3690D6823F4E64343EA5D
:101A000005238D6824F4005444EA0534084DA842A7
:101A100002D0084DA84204D14D6922F4804242EA26
:101A200085124260C36149680164046230BD0000F0
:101A3000002C01400034014010B5036A046A24F010
:101A400001040462846924F0F00444EA021423F0DF
:101A50000A020A438461026210BD10B5036A23F0D2
:101A6000100303628369046A23F4704343EA023279
:101A700024F0A00343EA01118261016210BD10B598
:101A8000406A0021C185C184FFF785FB10BD016854
:101A9000CA6822F49072CA6001684A6922F00102A1
:101AA0004A61202180F83A10704710B590F83A103A
:101AB000222901D0022010BD8168B1F5805F11D0CC
:101AC0000169002901681FD0496801F07F03816A1C
:101AD0004A1C82620B70C18D491E0904090CC18524
:101AE00018D02BE00269816A002A0268526805D08A
:101AF000D2B20A80816A491C8162ECE7C2F3080213
:101B00000A80816A891CF7E74A68816A4B1C8362F4
:101B10000A70E0E70168CA6822F02002CA60016822
:101B2000CA6822F48072CA6001684A6922F0010220
:101B30004A61202180F83A10FFF7BCFC002010BD5C
:101B40002DE9F041044600680169E26821F4405142
:101B5000114301612169A068084361690843216854
:101B6000CA6841F20C639A430243CA602068416923
:101B7000A26921F44071114341611E492068642526
:101B80003226884202D1FEF7B9FE01E0FEF7A6FE3A
:101B900000EBC00101EB001160686FF018078000D6
:101BA000B1FBF0F2B2FBF5F2B1FBF0F37A4303EBD9
:101BB0008202B1FBF0F306EB0212B2FBF5F2B3FBCB
:101BC000F5F302F0F00202EB0312B1FBF0F3B1FB0C
:101BD000F0F0B0FBF5F0784303EB800006EB00106B
:101BE000B0FBF5F0216800F00F0010448860BDE8FC
:101BF000F08100000038014090F83910212901D00F
:101C0000022070478168B1F5805F016A0BD04A1CE1
:101C10000262026809785160C18C491E0904090CEE
:101C2000C1840ED017E009880268C1F30801516031
:101C300001690029016A02D0491C0162ECE7891C94
:101C4000FBE70168CA6822F08002CA600068C168C8
:101C500041F04001C1600020704700000148FFF7DB
:101C6000A1BA0000FC00002070B500240C4D0D4806
:101C7000FFF798FA02E0641CAC4204D80948FFF769
:101C80008BFA2028F7D1002402E0641CAC4206D86D
:101C9000012205490348FFF7E3FB0028F5D170BD99
:101CA000FFFF01003C010020A500002070B50024CA
:101CB0000C4D0D48FFF776FA02E0641CAC4204D8E4
:101CC0000948FFF769FA2028F7D1002402E0641CD4
:101CD000AC4206D8012205490348FFF7C1FB0028A2
:101CE000F5D170BDFFFF01007C010020A5000020A0
:101CF000FEE700000FB4054B10B503A9044A029893
:101D000000F028F810BC5DF814FB0000D11E00089C
:101D1000B80000200907090E002804DB00F1E020CC
:101D200080F80014704700F00F0000F1E02080F808
:101D3000141D704702E008C8121F08C1002AFAD11A
:101D400070477047002001E001C1121F002AFBD13B
:101D5000704700002DE9FF4F89B09B4604460025DF
:101D600006E025280BD05A460B999047641C6D1C41
:101D700020780028F5D10DB02846BDE8F08F002767
:101D8000B8460122474900E0074314F8013F203BD1
:101D900002FA03F00842F7D120782E2819D114F85E
:101DA000010F47F004072A280ED06FF02F02207889
:101DB000A0F1300109290CD808EB880102EB4101A0
:101DC00000EB0108641CF2E70A98641C50F8048BCD
:101DD0000A9020780028CED0642808D0692806D040
:101DE00075281ED05A460B9990476D1C58E00A99E9
:101DF0004FF00A0901C90A91002802DA40422D2158
:101E000002E0390504D52B218DF82010012103E0D3
:101E1000F90704D02021F7E78A4608AE0DE000213B
:101E2000FAE70A994FF00A0901C90A91F7E749460A
:101E3000FEF70AFA303106F8011D0028F7D1ADEBA4
:101E4000060000F12009780701D44FF00108C845C9
:101E500002DDA8EB090000E000208046002706E034
:101E600008A85A46C05D0B9990476D1C7F1C5745CA
:101E7000F6DB04E030205A460B9990476D1CB8F110
:101E80000001A8F10108F5DC05E016F8010B5A463F
:101E90000B9990476D1CB9F10001A9F10109F4DC1F
:101EA000641C65E70928010001A0FFF723BF0000BB
:101EB0006261636B776172640A00000001A0FFF742
:101EC00019BF0000666F72776172640A000000003B
:101ED00004490A685206FCD5024AC1B2121D1160BB
:101EE0007047000000380140064E4FF4FA744FF47A
:101EF0000065204600F04CFA29463046FEF774FB98
:101F0000F7E70000000C0140034C3220FEF75EFAB8
:101F1000A06800F01EFBF8E70000002001480069FF
:101F200000F017BB00000020164A86B001AB07CABC
:101F3000144C83E80700144DF03C05220A2101A847
:101F400000F056F9C8B12088ADF810006088ADF8EF
:101F50001200A088ADF81400DDE9041201AB684658
:101F600000F0FCFA01463222A86900F07BFA322226
:101F7000BDF80010E86900F075FA012000F008FAD9
:101F8000DBE70000E8390008000000200EB500245F
:101F90001E4D2646671E3A466846A96900F018FAA3
:101FA000DDE90010102900D1044664226846E96981
:101FB00000F00EFADDE90010102900D186B2172CCE
:101FC00009D0152C07D01D2C05D01F2C03D010488C
:101FD0008088B04203D31220FFF766FF11E014F0AF
:101FE0000E0F08D004F00700C4F3C101884206D8E0
:101FF00000F0AAFD05E01120FFF760FF01E000F00E
:1020000015F8322000F0C4F9C5E7000000000020F8
:10201000F83800080148C06800F09BBA00000020B2
:10202000EFF30580002800D00120704701A0FFF7E2
:1020300061BE00006C6566740A000000BEB0FEF769
:10204000EDFAFFF779FBFFF795FAFFF70FFB5F4813
:102050005D494FF4E13500240160C0E901540C26CC
:10206000C460C0E904468461C461FFF723F957489E
:10207000574940300160C0E90154C460C0E90446DA
:102080008461C461FFF716F950480122514940307C
:10209000FFF7E6F94D48504980300160C0E901542E
:1020A000C460C0E904468461C461FFF703F947488E
:1020B000012248498030FFF7D3F93A9401213AA828
:1020C0003B9400F0FDF9454D0121A8623C943CA8E9
:1020D0003D9400F0F5F9424CE8620DF1A80C94E84B
:1020E0000F008CE80F0000212AA8083C00F05CF9E2
:1020F0001834A86194E80F000DF1B80C183C8CE876
:102100000F0000212EA800F04FF92834E86194E870
:102110000F000DF1C80C283C8CE80F00002132A8FC
:1021200000F042F93834286294E80F000DF1D80C21
:102130008CE80F00002136A800F036F968621C22F6
:1021400004F110016846FEF75BF80021684600F0D4
:10215000D6F928601C2204F12C0107A8FEF750F8DC
:10216000002107A800F0CBF968601C2204F14801A7
:102170000EA8FEF745F800210EA800F0C0F9A860EF
:102180001C2204F1640115A8FEF73AF8002115A8F5
:1021900000F0B5F9E8601C2204F180011CA8FEF7EC
:1021A0002FF800211CA800F0AAF928611C2204F1D4
:1021B0009C0123A8FEF724F8002123A800F09FF932
:1021C000686100F0ECF8FEE700380140FC000020F8
:1021D00000440040A500002000480040000000200E
:1021E0000039000801460020842900D0C81C70472F
:1021F0002DE9FE4F604E04464FF0000886F800803F
:102200000120A6F1010A70709AF8000093468946F1
:10221000B51C50B9002041464FF6FF72295424F8EE
:102220001020401CC0B20528F8D3544F4FF0FF32A5
:102230006846396800F0CCF8DDE90010102900D1BB
:10224000307030780C2801D00B280AD14FF0FF32C3
:102250006846396800F0BCF8DDE90010102900D1AB
:102260007070707807287DD130780B287AD00C28D0
:102270007FD100264FF0FF326846396800F0A8F899
:10228000DDE90010102902D13B49C91D8855761C93
:10229000F6B2082EEED39AF800103748491CC9B29E
:1022A0008AF80010C01DD6468A46C1788278007927
:1022B00001EB02218AB2A62101EB400043B2DFF814
:1022C000C0C00020464600BF2CF81060401CC0B2C1
:1022D0000528F9D30021052064274F43B7FBF0F709
:1022E000323F9F4214DC4F1C4FF0640807FB08F795
:1022F000B7FBF0F7323F9F420ADB685C401C685432
:1023000034F81100104424F811002CF8112003E0D7
:10231000491CC9B20529DFD3CA452AD38EF800600B
:1023200000214FF6FF706B5C5B4506D334F811302B
:10233000B3FBF9F224F8112001E024F81100491C44
:10234000C9B20529EFD30FA0FFF7D4FC5FF0000559
:102350000DA034F81510FFF7CDFC6D1CEDB2052D66
:10236000F6D300E005E007A0FFF7C4FC0120BDE8BC
:10237000FE8F0020FBE70000A700002024000020C3
:10238000402D00200A0000002025642000000000ED
:1023900010B500B9012000F0CDFC002010BD10B533
:1023A00000F06AFD002010BD38B5D0E901120468C4
:1023B0003AB1C3682BB100200090204600F040FEE7
:1023C00038BD2046BDE83840002200F015BE0000B0
:1023D0002DE9FF410D004FF00006CDE901650746EC
:1023E0001ED000240396501C1FD002B11446FFF7E4
:1023F00017FE69464FF01008E8B103AA2846091DE8
:1024000001F040F8012813D000960398E8B1144970
:102410004FF080500860BFF34F8FBFF36F8F14E011
:10242000802031462A46009011E04FF0FF34DEE76D
:10243000CDF80080E9E722462846091D00F086FF16
:10244000012808D054B1402000909DE8070087E89B
:102450000700BDE8FF81CDF80080F6E70020F3E734
:1024600004ED00E037B5054682B00020009014006E
:1024700000D10124FFF7D4FD4FF0000388B16A4674
:1024800003A9284600F004FF012811D1009890B15B
:102490000A494FF080500860BFF34F8FBFF36F8F32
:1024A00009E0224603A9284600F042FE012802D096
:1024B000FF2005B030BD0020FBE7000004ED00E088
:1024C00038B543684BB1012909D10320002200909F
:1024D0001146012000F0B4FD38BD012901D00020D3
:1024E00038BD03220021012000F086FD040004D045
:1024F00000231A46194600F01BFE204638BD7FB562
:102500000D4604464169B0F9080081B1A16971B175
:10251000FFF768FED4E905128DE80700D4E9001042
:102520002B46226901F063F8039004B070BDFFF7F9
:1025300059FE03A9CDE90001208A2B4682B2D4E9D5
:10254000001001F027F8012801D00020EDE70398E2
:10255000EBE710B500F014FC002010BDFFB583B010
:1025600019880180002101240E466D4633F81120A0
:102570000788BA4200D8028033F81120BDF81070E5
:10258000BA4201D86C5400E06E54491CC9B2052906
:10259000ECD30EA0FFF7AEFB00240DA0295DFFF7E2
:1025A000A9FB641CE4B2052CF7D308A0FFF7A2FB3B
:1025B00000200146C1F104036A5C9A400243491CB1
:1025C000C9B290B20529F5D307B0F0BD0A000000EA
:1025D00020256420000000002DE9F041184C0F4632
:1025E000054666692068001D00F0B6FA38B9206813
:1025F00090F82C1001208840A1698143A161681CDA
:1026000007D137B12168BDE8F0410E48091D00F03F
:10261000E7BA20683544B5424560216805D2A06814
:10262000BDE8F041091D00F0C3BA6068091D00F063
:10263000BFFA206B854200D22563BDE8F08100001F
:10264000400000202C0500202DE9F041054600F057
:10265000D3FA2E4C2069401C206120682C4F10B109
:10266000E06940B32DE025602069012829D10026CA
:1026700006EB860007EB800000F08CFA761C072E34
:10268000F6D323488C3000F085FA2148A03000F0C2
:1026900081FA1F48B43000F07DFA1D48C83000F0C0
:1026A00079FA1B48DC3000F075FA19488C3060600C
:1026B0001430A06005E02068E96AC06A884200D84A
:1026C0002560E06A401CE062E96A0120A269884056
:1026D0001043A06101EB810007EB8000291D00F091
:1026E0007FFA00F0A9FAE06900280CD02068E96AB6
:1026F000C06A884207D207494FF080500860BFF394
:102700004F8FBFF36F8FBDE8F081000040000020C5
:102710005004002004ED00E030B4026C0B46002AA7
:102720000BD0C1681144C1604468A14201D3016863
:10273000C16030BC1846FDF763BD30BC70472DE961
:10274000F041856B174604460026026C82B1C7B182
:10275000E068FDF755FDE168206C091AE160226828
:10276000914202D26168081AE060022F16D017E089
:102770002068A8B9606800F0D7FF064600206060B6
:102780000EE0A068FDF73CFD216CA0680844A06045
:102790006168884204D32068A06001E005B16D1E25
:1027A0006D1CA5633046BDE8F08110B5044690F875
:1027B000510058B101280CD002280FD0502080F3CE
:1027C0001188BFF34F8FBFF36F8FFEE7206B00F0D0
:1027D00047FA2046BDE8104000F042BA10BD0000A4
:1027E00010484FF42051420706D0C01D0D4920F07B
:1027F0000700411AC1F520510B4A00230144C2E9E8
:1028000000030839103A21F0070111604B600B609A
:102810000B1AC0E9001393604FF000405360D06082
:1028200070470000400500208C000020144E154C1D
:10283000A6F1C8074FF08058DFF84C9012E000BFB7
:1028400000F0DAF9F068C568281D00F085F9206904
:10285000401E2061E068401EE06000F0EDF928466F
:10286000FFF7A3FFE0680028EAD138680128F9D90A
:10287000C9F80080BFF34F8FBFF36F8FF2E70000FE
:10288000180500204000002004ED00E003460098F9
:1028900029B10260C0E90F31012100F005BC0060E0
:1028A000F8E72DE9F0479A46DDE9098481466FF0A3
:1028B0000303206B03EB82021044089D20F00706FF
:1028C000700707D0502080F31188BFF34F8FBFF3FC
:1028D0006F8FFEE723180A5C83F834200A5C12B17C
:1028E000401C1028F6D3002784F84370072D00D32E
:1028F0000625E562C4E91157201D00F056F904F1E0
:10290000180000F052F92461C5F107006462A0616B
:10291000E76484F8507052464946304600F002F9A8
:102920002060B8F1000F01D0C8F80040BDE8F08782
:1029300030B5114900E011460A688242FBD34B686A
:102940005C18844203D140681844486008464368D4
:102950001C18944209D1084C103C2468A24209D0AA
:1029600052681A4442600A6812680260814200D0CC
:10297000086030BD0460F9E78C00002010B5044603
:1029800000F03AF9A06B28B15FF0000400F054F9B0
:10299000204610BD0124F9E706484168096829B1BD
:1029A0004168C968C9684968016370474FF0FF31E1
:1029B000FAE700004000002008484068401C4FF043
:1029C000500080F3118804D0BFF34F8FBFF36F8F97
:1029D000FEE7BFF34F8FBFF36F8FFEE79400002039
:1029E0002DE9F041044600F007F994F9455004F14F
:1029F000240609E0606A48B1304600F0E1FE08B103
:102A000000F01CFA6D1E6DB2002DF3DC4FF0FF36A6
:102A100084F8456000F010F900F0EEF894F94450A5
:102A200004F1100709E0206948B1384600F0C8FEFB
:102A300008B100F003FA6D1E6DB2002DF3DC84F8CE
:102A40004460BDE8F04100F0F7B800002DE9F04126
:102A50000546002700F046FA314E306808B9FFF706
:102A6000BFFEF06805424BD1C5B3083568070ED0EC
:102A700005F00700C0F108000544680707D05020A2
:102A800080F31188BFF34F8FBFF36F8FFEE72DB335
:102A90007068854234D82248103001460C6801E045
:102AA00020460C466168A94202D221680029F7D16C
:102AB00031688C4224D0076821680160606808375B
:102AC000411B10290FD96019420708D0502080F30C
:102AD0001188BFF34F8FBFF36F8FFEE710E04160A7
:102AE0006560FFF725FF61687068401A7060B26822
:102AF000904200D2B060F06801430020C4E90001B8
:102B000000F098FE780707D0502080F31188BFF3BB
:102B10004F8FBFF36F8FFEE73846BDE8F0810000AE
:102B20007C00002010B5031F4FF080741C601B1F39
:102B300021F001011960191F024B0B601439403854
:102B40000A6010BDB929000801A0FFF7D3B8000042
:102B500072696768740A0000D0E9013201699A60FD
:102B6000D0E901235A604A68824201D182684A60F2
:102B7000002202610868401E086008687047000073
:102B8000034B036003F1540008608020106070471D
:102B9000BC01002000F108014FF0FF32C0E9011232
:102BA000C16001610021016070470021016170472F
:102BB00030B50B685A1C02D000F1080202E002692D
:102BC00004E02246546825689D42FAD953684B6058
:102BD00099608A60516008610168491C016030BDDC
:102BE00042684A6093688B6093685960916008619D
:102BF0000168491C01607047502080F31188BFF3C1
:102C00004F8FBFF36F8F0A494868401C4860012806
:102C10000CD10848006810F0FF0F07D0502080F357
:102C20001188BFF34F8FBFF36F8FFEE7704700002F
:102C30009400002004ED00E00849486828B1401ED7
:102C4000486001D180F311887047502080F31188CB
:102C5000BFF34F8FBFF36F8FFEE70000940000209B
:102C600070B5002827D0144DA0F108046168E86809
:102C7000014207D1502080F31188BFF34F8FBFF37B
:102C80006F8FFEE722683AB1502080F31188BFF3BE
:102C90004F8FBFF36F8FFEE78143616000F022F931
:102CA00060686968084468602046FFF741FEBDE837
:102CB000704000F0BFBD70BD7C0000204FF0E020F0
:102CC00000210161816105494FF47A720968B1FB05
:102CD000F2F1491E41610721016170473C0000206B
:102CE00010B5FDF777FA114910280ED300F1E02056
:102CF00090F8F0030A78904207D2502080F31188B0
:102D0000BFF34F8FBFF36F8FFEE7094800688968F4
:102D100000F4E060884207D9502080F31188BFF3A7
:102D20004F8FBFF36F8FFEE710BD000094000020AF
:102D30000CED00E010B5020014D00F48806B38B1E4
:102D4000502080F31188BFF34F8FBFF36F8FFEE7E2
:102D500000F0C8F800211046FFF73EFC00F06AFDC5
:102D6000002807D105494FF080500860BFF34F8F0E
:102D7000BFF36F8F10BD00004000002004ED00E0A5
:102D800070B50546FFF738FF254C05B92568281DA5
:102D9000FFF7E2FE58B9E86A224A00EB800152F8D8
:102DA000211021B901218140A0698843A061A86A4E
:102DB00018B105F11800FFF7CFFEE06A401CE06291
:102DC0002068854208D11748291DC830FFF708FF41
:102DD000E068401CE06007E02069401E2061284652
:102DE000FFF7E3FCFFF7D8FDFFF726FFE0690028B7
:102DF00014D02068854211D1A06B38B1502080F3E7
:102E00001188BFF34F8FBFF36F8FFEE706494FF076
:102E100080500860BFF34F8FBFF36F8F70BD00000D
:102E2000400000205004002004ED00E002498A6ABE
:102E3000026049694160704740000020014901205B
:102E4000486270474000002010B50C4650B1094957
:102E500009681831FFF7ACFE2046BDE8104001219B
:102E6000FFF7BABB502080F31188BFF34F8FBFF339
:102E70006F8FFEE74000002010B586B00024039459
:102E800005AA04A903A80494FFF77AFEDDE903016B
:102E90000094CDE9011000230EA11048059A00F01E
:102EA000A6FB0F490028486311D0502080F31188F9
:102EB000BFF34F8FBFF36F8F4FF0FF3008630120D8
:102EC000C8614C6106B0BDE8104000F041B806B0E2
:102ED00010BD000049444C45000000002D280008AA
:102EE000400000200248816B491C8163704700004C
:102EF000400000201448816B11B1012141627047EC
:102F0000002141628169B1FA81F1C1F11F0101EB38
:102F100081020E4951F822306BB101EB820101F1BF
:102F200008034A6852684A609A4201D152684A606E
:102F3000D16801607047502080F31188BFF34F8F34
:102F4000BFF36F8FFEE70000400000205004002018
:102F50001CB5264908780190FF20087008788DF884
:102F600000009DF800009DF8002000F0F000904265
:102F700007D0502080F31188BFF34F8FBFF36F8FBE
:102F8000FEE79DF800001A4B00F050001870072073
:102F9000986005E09DF8002052008DF80020401E4A
:102FA0009DF800201206F5D49860032807D0502021
:102FB00080F31188BFF34F8FBFF36F8FFEE74FF49D
:102FC00040709860019808700A48016841F47001E7
:102FD0000160016841F070410160FFF76FFE002061
:102FE0005860FDF7C1F800201CBD000000E400E0BF
:102FF0009400002020ED00E0F8B517460E460500CD
:1030000014D0DEB105FB06F04830FFF71FFD0400C9
:103010000AD0002084F8460004F148023B463146BD
:1030200028460094FFF732FC2046F8BD502080F37C
:103030001188BFF34F8FBFF36F8FFEE70020E3E7E8
:1030400038B5049D18B153B1CAB181B120E0502008
:1030500080F31188BFF34F8FBFF36F8FFEE75020CF
:1030600080F31188BFF34F8FBFF36F8FFEE75020BF
:1030700080F31188BFF34F8FBFF36F8FFEE739B135
:10308000502080F31188BFF34F8FBFF36F8FFEE79F
:1030900048241C46012384F846302B460094FFF751
:1030A000F5FB204638BD000070B50D46040025D064
:1030B000FFF7A2FDD4E90F20216802FB0011616037
:1030C0000021A1632168A1600A46D4E90F01401ED6
:1030D00000FB0121E16021464FF0FF3001F8440F71
:1030E000487004F110008DB1FFF754FD04F1240085
:1030F000FFF750FDFFF7A0FD012070BD502080F3C9
:103100001188BFF34F8FBFF36F8FFEE7216900294E
:10311000F0D000F055FB0028ECD004494FF080506F
:103120000860BFF34F8FBFF36F8FE3E704ED00E05C
:103130002DE9FF4782B01D468A464FF00008040083
:1031400003D0BAF1000F08D011E0502080F31188AD
:10315000BFF34F8FBFF36F8FFEE7206C38B1502065
:1031600080F31188BFF34F8FBFF36F8FFEE7022DFF
:103170000AD1E06B012807D0502080F31188BFF3FB
:103180004F8FBFF36F8FFEE700F05CFA3F4F4FF0B9
:1031900000094FF0805648B9049838B1502080F3A8
:1031A0001188BFF34F8FBFF36F8FFEE7FFF724FD4A
:1031B000A06BE16B884207D3022D05D00498D0B1F3
:1031C000B8F1000F1AD01EE02A4651462046FFF7FC
:1031D000B6FA616A19B104F1240000F0F1FA20B1E5
:1031E0003E60BFF34F8FBFF36F8FFFF725FD0120C8
:1031F00006B0BDE8F087FFF71FFD22E06846FFF745
:1032000015FE4FF00108FFF717FDFFF76BFEFFF704
:10321000F3FC94F94400401C01D184F8449094F9E3
:103220004500401C01D184F84590FFF705FD04A935
:10323000684600F075F930B12046FFF7D1FB00F089
:10324000F9FA0020D4E7FFF7D7FCA06BE16B8842C6
:1032500013D1FFF7F1FC04F110000499FFF7F4FD1E
:103260002046FFF7BDFB00F0E5FA00289ED13E6046
:10327000BFF34F8FBFF36F8F98E7FFF7DDFC20465A
:10328000FFF7AEFB00F0D6FA90E7000004ED00E097
:103290002DE9F0471F4690468946040003D0B9F156
:1032A000000F08D011E0502080F31188BFF34F8F3A
:1032B000BFF36F8FFEE7206C38B1502080F3118888
:1032C000BFF34F8FBFF36F8FFEE7022F0AD1E06B82
:1032D000012807D0502080F31188BFF34F8FBFF330
:1032E0006F8FFEE7FFF7FCFC5020EFF3118680F3B1
:1032F0001188BFF34F8FBFF36F8FA06BE16B8842D4
:1033000006D3022F04D0002086F31188BDE8F08791
:1033100094F945503A4649462046FFF710FA681C92
:1033200004D06D1C84F845500120EDE7606A002848
:10333000FAD004F1240000F043FA0028F4D0B8F1E8
:10334000000FF1D00121C8F80010EDE72DE9F74793
:10335000002683B08A46040003D0BAF1000F08D0DB
:1033600011E0502080F31188BFF34F8FBFF36F8FB0
:10337000FEE7206C38B1502080F31188BFF34F8FE7
:10338000BFF36F8FFEE700F05DF9DFF8F4804FF0D8
:1033900000094FF0805748B9059838B1502080F3A4
:1033A0001188BFF34F8FBFF36F8FFEE7FFF724FC49
:1033B000A56BC5B151462046FFF7AEF96D1EA5635A
:1033C000206950B104F1100000F0FAF928B1C8F8F2
:1033D0000070BFF34F8FBFF36F8FFFF72DFC0120FD
:1033E00006B0BDE8F087059808B11EB106E0FFF70A
:1033F00023FC27E06846FFF719FD0126FFF71CFCB8
:10340000FFF770FDFFF7F8FB94F94400401C01D171
:1034100084F8449094F94500401C01D184F845900B
:10342000FFF70AFC05A9684600F07AF80028204654
:103430000AD0FFF7D5FA00F0FDF92046FFF79EFA13
:103440000028B3D00020CBE7FFF798FA90B104F141
:1034500024000599FFF7F8FC2046FFF7C1FA00F0B9
:10346000E9F90028A2D1C8F80070BFF34F8FBFF36D
:103470006F8F9BE72046FFF7B3FA00F0DBF995E783
:1034800004ED00E02DE9F04790468946040003D0A2
:10349000B9F1000F08D011E0502080F31188BFF37C
:1034A0004F8FBFF36F8FFEE7206C38B1502080F351
:1034B0001188BFF34F8FBFF36F8FFEE7FFF710FC4C
:1034C0005020EFF3118680F31188BFF34F8FBFF3C5
:1034D0006F8FA76BF7B194F9445049462046FFF728
:1034E0001BF97F1EA763681C04D06D1C84F8445030
:1034F000012010E020690028FAD004F1100000F04B
:103500005FF90028F4D0B8F1000FF1D00121C8F81C
:103510000010EDE7002086F31188BDE8F087000079
:103520002DE9F0410C46050011D0C4B1FFF764FB52
:10353000174B5A696E682068911B471C17D02F687B
:103540009B6A9F4219D0964217D8012410E0502060
:1035500080F31188BFF34F8FBFF36F8FFEE75020CA
:1035600080F31188BFF34F8FBFF36F8FFEE7002406
:10357000FFF762FB2046BDE8F081884205D9401A7A
:1035800020602846FFF752FCF1E700202060DCE7CE
:10359000400000202DE9FF5F8346DDE90E87994654
:1035A00016468A469000FFF751FA05001CD05420B9
:1035B000FFF74CFA040014D00020256384F8510072
:1035C000CDE90240CDE900874B4632465146584688
:1035D000FFF767F92046FFF737F8012004B0BDE890
:1035E000F09F2846FFF73CFB4FF0FF30F6E7F0B5C1
:1035F00085B0DDE90B640A9DA6B1DCB154270097C4
:103600002663022684F85160002604AFCDE9024605
:10361000CDE90057FFF745F92046FFF715F8049864
:1036200005B0F0BD502080F31188BFF34F8FBFF37A
:103630006F8FFEE7502080F31188BFF34F8FBFF3E9
:103640006F8FFEE70548C16919B1806B18B1002082
:1036500070470120704702207047000040000020A2
:103660002DE9F0412E4C0027A06B40B1206A401C90
:103670002062606A00B101273846BDE8F0816669C2
:10368000761C666113D16068006838B1502080F301
:103690001188BFF34F8FBFF36F8FFEE76068A1689B
:1036A0006160A060A06A401CA062FFF775F9206B02
:1036B000DFF87080864209D36068006880B1606876
:1036C000C068C568686886420DD220632068C06AF9
:1036D00000EB800158F821000128CAD90127C8E76A
:1036E0004FF0FF30F1E7281DFFF736FAA86A18B14E
:1036F00005F11800FFF730FAE86A0121A26981405C
:103700001143A16100EB800108EB8100291DFFF747
:1037100067FAE86A2168C96A8842CDD30127CBE7F6
:10372000400000205004002070B504004FF000015C
:1037300040D0214D2868844207D0502080F3118862
:10374000BFF34F8FBFF36F8FFEE7A06C38B1401E01
:10375000A064636CE26A9A422CD040B12AE0502007
:1037600080F31188BFF34F8FBFF36F8FFEE7201DEB
:10377000FFF7F2F9114A012150B9E06A00EB80032A
:1037800052F8233023B9AB6901FA00F08343AB61EF
:10379000606CE062C0F10700A061E06AAB69814043
:1037A0001943A96100EB800002EB8000211DFFF7A7
:1037B00017FA0121084670BD400000205004002087
:1037C0002DE9F041C068C468ACB104F118000746A7
:1037D000FFF7C2F9154DA86B0126A0B13946144870
:1037E000FFF7FEF9E06A2968C96A88421CD90120FE
:1037F0006E62BDE8F081502080F31188BFF34F8FD7
:10380000BFF36F8FFEE7201DFFF7A6F9E16AAA69F3
:1038100006FA01F01043A86101EB81000449B439B4
:1038200001EB8000211DDBE70020E2E740000020E3
:10383000040500202DE9F0472C4D00242746A86BF5
:1038400038B1FFF7D9F9A86B401EA863A86B40B147
:1038500046E0502080F31188BFF34F8FBFF36F8F86
:10386000FEE72969224E0120D1B3A6F1B4098046B2
:103870003068E8B1F068C46804F11800FFF76CF92B
:10388000201DFFF769F9E06AAA6908FA00F11143FF
:10389000A96100EB800109EB8100211DFFF7A0F970
:1038A000E06A2968C96A8842E2D3C5F82480DFE764
:1038B0000CB1FFF771F82C6A44B14646FFF7D0FE11
:1038C00000B16E62641EF9D100202862686A38B1C6
:1038D0000849012738070860BFF34F8FBFF36F8F88
:1038E000FFF7AAF93846BDE8F08700004000002045
:1038F0000405002004ED00E0C80032000A000000CA
:1039000001000000040000000000000000000000B2
:1039100001000000020000000000000000000000A4
:103920002000000001000000000000000000000076
:103930008000000001000000000000000000000006
:10394000283A0008E91E0008FDFF00000000000002
:10395000800000000000000000000000503A000855
:103960008D1F000800000000000000008000000023
:103970000000000000000000183A0008091F0008BD
:1039800002000000000000008000000000000000B5
:1039900000000000383A000815200008010000006F
:1039A0000000000080000000000000000000000097
:1039B000443A00081D1F000800000000000000003D
:1039C0008000000000000000000000000C3A000829
:1039D000291F000801000000000000008000000016
:1039E0000000000000000000FFFFFFFFFFFFFFFFDF
:1039F000FFFF0000000000000000010203040607B2
:103A00000809000000000102030400007461736BE8
:103A10005F6D6D77617665007461736B5F696E6968
:103A20007469616C697A65007461736B5F4C4544BD
:103A30005F626C696E6B00007461736B5F736572BB
:103A4000766F00007461736B5F6C69646172000073
:103A50007461736B5F6D6F746F7200007C3A000865
:103A600000000020BC000000341D0008383B0008A6
:103A7000BC00002094300000441D0008000000003D
:103A80000000000000000000000000000000000036
:103A90000000000000000000000000000000000026
:103AA0000000000000000000000000000100000015
:103AB00010000000000000000024F40000000000DE
:103AC00000000000000000000000000000000000F6
:103AD00000000000000000000000000000000000E6
:103AE00000000000000000000000000000000000D6
:103AF00000000000000000000000000000000000C6
:103B000000000000000000000000000000000000B5
:103B100000000000AAAAAAAA0000000000000000FD
:103B20000000000000000000000000000000000095
:083B300000000000000000008D
:0400000508000131BD
:00000001FF
