Component: ARM Compiler 5.06 update 6 (build 750) Tool: armlink [4d35ed]

==============================================================================

Section Cross References

    startup_stm32f103xe.o(RESET) refers to startup_stm32f103xe.o(STACK) for __initial_sp
    startup_stm32f103xe.o(RESET) refers to startup_stm32f103xe.o(.text) for Reset_Handler
    startup_stm32f103xe.o(RESET) refers to stm32f1xx_it.o(i.NMI_Handler) for NMI_Handler
    startup_stm32f103xe.o(RESET) refers to stm32f1xx_it.o(i.HardFault_Handler) for HardFault_Handler
    startup_stm32f103xe.o(RESET) refers to stm32f1xx_it.o(i.MemManage_Handler) for MemManage_Handler
    startup_stm32f103xe.o(RESET) refers to stm32f1xx_it.o(i.BusFault_Handler) for BusFault_Handler
    startup_stm32f103xe.o(RESET) refers to stm32f1xx_it.o(i.UsageFault_Handler) for UsageFault_Handler
    startup_stm32f103xe.o(RESET) refers to port.o(.emb_text) for SVC_Handler
    startup_stm32f103xe.o(RESET) refers to stm32f1xx_it.o(i.DebugMon_Handler) for DebugMon_Handler
    startup_stm32f103xe.o(RESET) refers to port.o(i.SysTick_Handler) for SysTick_Handler
    startup_stm32f103xe.o(RESET) refers to stm32f1xx_it.o(i.TIM3_IRQHandler) for TIM3_IRQHandler
    startup_stm32f103xe.o(RESET) refers to stm32f1xx_it.o(i.TIM4_IRQHandler) for TIM4_IRQHandler
    startup_stm32f103xe.o(RESET) refers to stm32f1xx_it.o(i.USART1_IRQHandler) for USART1_IRQHandler
    startup_stm32f103xe.o(RESET) refers to stm32f1xx_it.o(i.USART3_IRQHandler) for USART3_IRQHandler
    startup_stm32f103xe.o(.text) refers to system_stm32f1xx.o(i.SystemInit) for SystemInit
    startup_stm32f103xe.o(.text) refers to entry.o(.ARM.Collect$$$$00000000) for __main
    main.o(i.HAL_TIM_PeriodElapsedCallback) refers to stm32f1xx_hal.o(i.HAL_IncTick) for HAL_IncTick
    main.o(i.MX_GPIO_Init) refers to stm32f1xx_hal_gpio.o(i.HAL_GPIO_WritePin) for HAL_GPIO_WritePin
==============================================================================

Removing Unused input sections from the image.

    Removing startup_stm32f103xe.o(HEAP), (512 bytes).
    Removing main.o(.rev16_text), (4 bytes).
    Removing main.o(.revsh_text), (4 bytes).
    Removing main.o(.rrx_text), (6 bytes).
    Removing main.o(i.Error_Handler), (2 bytes).
    Removing main.o(.data), (1 bytes).
    Removing freertos.o(.rev16_text), (4 bytes).
    Removing freertos.o(.revsh_text), (4 bytes).
    Removing freertos.o(.rrx_text), (6 bytes).
    Removing stm32f1xx_it.o(.rev16_text), (4 bytes).
    Removing stm32f1xx_it.o(.revsh_text), (4 bytes).
    Removing stm32f1xx_it.o(.rrx_text), (6 bytes).
    Removing stm32f1xx_hal_msp.o(.rev16_text), (4 bytes).
    Removing stm32f1xx_hal_msp.o(.revsh_text), (4 bytes).
    Removing stm32f1xx_hal_msp.o(.rrx_text), (6 bytes).
    Removing stm32f1xx_hal_msp.o(i.HAL_TIM_Base_MspDeInit), (36 bytes).
    Removing stm32f1xx_hal_msp.o(i.HAL_UART_MspDeInit), (92 bytes).
    Removing stm32f1xx_hal_timebase_tim.o(.rev16_text), (4 bytes).
==============================================================================

Image Symbol Table

    Local Symbols

    Symbol Name                              Value     Ov Type        Size  Object(Section)

    ../Core/Src/freertos.c                   0x00000000   Number         0  freertos.o ABSOLUTE
    ../Core/Src/main.c                       0x00000000   Number         0  main.o ABSOLUTE
    ../Core/Src/stm32f1xx_hal_msp.c          0x00000000   Number         0  stm32f1xx_hal_msp.o ABSOLUTE
    ../Core/Src/stm32f1xx_hal_timebase_tim.c 0x00000000   Number         0  stm32f1xx_hal_timebase_tim.o ABSOLUTE
    ../Core/Src/stm32f1xx_it.c               0x00000000   Number         0  stm32f1xx_it.o ABSOLUTE
    ../Core/Src/system_stm32f1xx.c           0x00000000   Number         0  system_stm32f1xx.o ABSOLUTE
    ../Drivers/STM32F1xx_HAL_Driver/Src/stm32f1xx_hal.c 0x00000000   Number         0  stm32f1xx_hal.o ABSOLUTE
    ../Drivers/STM32F1xx_HAL_Driver/Src/stm32f1xx_hal_cortex.c 0x00000000   Number         0  stm32f1xx_hal_cortex.o ABSOLUTE
    ../Drivers/STM32F1xx_HAL_Driver/Src/stm32f1xx_hal_dma.c 0x00000000   Number         0  stm32f1xx_hal_dma.o ABSOLUTE
    ../Drivers/STM32F1xx_HAL_Driver/Src/stm32f1xx_hal_exti.c 0x00000000   Number         0  stm32f1xx_hal_exti.o ABSOLUTE
    ../Drivers/STM32F1xx_HAL_Driver/Src/stm32f1xx_hal_flash.c 0x00000000   Number         0  stm32f1xx_hal_flash.o ABSOLUTE
    ../Drivers/STM32F1xx_HAL_Driver/Src/stm32f1xx_hal_flash_ex.c 0x00000000   Number         0  stm32f1xx_hal_flash_ex.o ABSOLUTE
    ../Drivers/STM32F1xx_HAL_Driver/Src/stm32f1xx_hal_gpio.c 0x00000000   Number         0  stm32f1xx_hal_gpio.o ABSOLUTE
    ../Drivers/STM32F1xx_HAL_Driver/Src/stm32f1xx_hal_gpio_ex.c 0x00000000   Number         0  stm32f1xx_hal_gpio_ex.o ABSOLUTE
    ../Drivers/STM32F1xx_HAL_Driver/Src/stm32f1xx_hal_pwr.c 0x00000000   Number         0  stm32f1xx_hal_pwr.o ABSOLUTE
    ../Drivers/STM32F1xx_HAL_Driver/Src/stm32f1xx_hal_rcc.c 0x00000000   Number         0  stm32f1xx_hal_rcc.o ABSOLUTE
    ../Drivers/STM32F1xx_HAL_Driver/Src/stm32f1xx_hal_rcc_ex.c 0x00000000   Number         0  stm32f1xx_hal_rcc_ex.o ABSOLUTE
    ../Drivers/STM32F1xx_HAL_Driver/Src/stm32f1xx_hal_tim.c 0x00000000   Number         0  stm32f1xx_hal_tim.o ABSOLUTE
    ../Drivers/STM32F1xx_HAL_Driver/Src/stm32f1xx_hal_tim_ex.c 0x00000000   Number         0  stm32f1xx_hal_tim_ex.o ABSOLUTE
    ../Drivers/STM32F1xx_HAL_Driver/Src/stm32f1xx_hal_uart.c 0x00000000   Number         0  stm32f1xx_hal_uart.o ABSOLUTE
    ../Middlewares/Third_Party/FreeRTOS/Source/CMSIS_RTOS/cmsis_os.c 0x00000000   Number         0  cmsis_os.o ABSOLUTE
    ../Middlewares/Third_Party/FreeRTOS/Source/croutine.c 0x00000000   Number         0  croutine.o ABSOLUTE
    ../Middlewares/Third_Party/FreeRTOS/Source/event_groups.c 0x00000000   Number         0  event_groups.o ABSOLUTE
    ../Middlewares/Third_Party/FreeRTOS/Source/list.c 0x00000000   Number         0  list.o ABSOLUTE
    ../Middlewares/Third_Party/FreeRTOS/Source/portable/MemMang/heap_4.c 0x00000000   Number         0  heap_4.o ABSOLUTE
    ../Middlewares/Third_Party/FreeRTOS/Source/portable/RVDS/ARM_CM3/port.c 0x00000000   Number         0  port.o ABSOLUTE
    ../Middlewares/Third_Party/FreeRTOS/Source/queue.c 0x00000000   Number         0  queue.o ABSOLUTE
    ../Middlewares/Third_Party/FreeRTOS/Source/stream_buffer.c 0x00000000   Number         0  stream_buffer.o ABSOLUTE
    ../Middlewares/Third_Party/FreeRTOS/Source/tasks.c 0x00000000   Number         0  tasks.o ABSOLUTE
    ../Middlewares/Third_Party/FreeRTOS/Source/timers.c 0x00000000   Number         0  timers.o ABSOLUTE
    ../clib/microlib/division.c              0x00000000   Number         0  uldiv.o ABSOLUTE
    ../clib/microlib/division.c              0x00000000   Number         0  uidiv.o ABSOLUTE
    ../clib/microlib/init/entry.s            0x00000000   Number         0  entry10a.o ABSOLUTE
    ../clib/microlib/init/entry.s            0x00000000   Number         0  entry7a.o ABSOLUTE
    ../clib/microlib/init/entry.s            0x00000000   Number         0  entry5.o ABSOLUTE
    ../clib/microlib/init/entry.s            0x00000000   Number         0  entry.o ABSOLUTE
    ../clib/microlib/init/entry.s            0x00000000   Number         0  entry10b.o ABSOLUTE
    ../clib/microlib/init/entry.s            0x00000000   Number         0  entry9b.o ABSOLUTE
    ../clib/microlib/init/entry.s            0x00000000   Number         0  entry11a.o ABSOLUTE
    ../clib/microlib/init/entry.s            0x00000000   Number         0  entry9a.o ABSOLUTE
    ../clib/microlib/init/entry.s            0x00000000   Number         0  entry2.o ABSOLUTE
    ../clib/microlib/init/entry.s            0x00000000   Number         0  entry8b.o ABSOLUTE
    ../clib/microlib/init/entry.s            0x00000000   Number         0  entry8a.o ABSOLUTE
    ../clib/microlib/init/entry.s            0x00000000   Number         0  entry11b.o ABSOLUTE
    ../clib/microlib/init/entry.s            0x00000000   Number         0  entry7b.o ABSOLUTE
    ../clib/microlib/longlong.c              0x00000000   Number         0  llshl.o ABSOLUTE
    ../clib/microlib/longlong.c              0x00000000   Number         0  llushr.o ABSOLUTE
    ../clib/microlib/longlong.c              0x00000000   Number         0  llsshr.o ABSOLUTE
    ../clib/microlib/printf/printf.c         0x00000000   Number         0  printf7.o ABSOLUTE
    ../clib/microlib/printf/printf.c         0x00000000   Number         0  printfa.o ABSOLUTE
    ../clib/microlib/printf/printf.c         0x00000000   Number         0  printf3.o ABSOLUTE
    ../clib/microlib/printf/printf.c         0x00000000   Number         0  printf8.o ABSOLUTE
    ../clib/microlib/printf/printf.c         0x00000000   Number         0  printf0.o ABSOLUTE
    ../clib/microlib/printf/printf.c         0x00000000   Number         0  printfb.o ABSOLUTE
    ../clib/microlib/printf/printf.c         0x00000000   Number         0  printf1.o ABSOLUTE
    ../clib/microlib/printf/printf.c         0x00000000   Number         0  printf2.o ABSOLUTE
    ../clib/microlib/printf/printf.c         0x00000000   Number         0  printf4.o ABSOLUTE
    ../clib/microlib/printf/printf.c         0x00000000   Number         0  printf5.o ABSOLUTE
    ../clib/microlib/printf/printf.c         0x00000000   Number         0  printf6.o ABSOLUTE
    ../clib/microlib/printf/stubs.s          0x00000000   Number         0  stubs.o ABSOLUTE
    ../clib/microlib/stdio/streams.c         0x00000000   Number         0  stdout.o ABSOLUTE
    ../clib/microlib/string/memcpy.c         0x00000000   Number         0  memcpya.o ABSOLUTE
    ../clib/microlib/string/memcpy.c         0x00000000   Number         0  memcpyb.o ABSOLUTE
    ../clib/microlib/string/memset.c         0x00000000   Number         0  memseta.o ABSOLUTE
    ../clib/microlib/string/memset.c         0x00000000   Number         0  memset.o ABSOLUTE
    ../clib/microlib/stubs.s                 0x00000000   Number         0  iusefp.o ABSOLUTE
    ../fplib/microlib/fpadd.c                0x00000000   Number         0  dadd.o ABSOLUTE
    ../fplib/microlib/fpdiv.c                0x00000000   Number         0  ddiv.o ABSOLUTE
    ../fplib/microlib/fpepilogue.c           0x00000000   Number         0  depilogue.o ABSOLUTE
    ../fplib/microlib/fpfix.c                0x00000000   Number         0  dfixul.o ABSOLUTE
    ../fplib/microlib/fpfix.c                0x00000000   Number         0  dfixui.o ABSOLUTE
    ../fplib/microlib/fpflt.c                0x00000000   Number         0  dfltui.o ABSOLUTE
    ../fplib/microlib/fpmul.c                0x00000000   Number         0  dmul.o ABSOLUTE
    ..\Core\Src\freertos.c                   0x00000000   Number         0  freertos.o ABSOLUTE
    ..\Core\Src\main.c                       0x00000000   Number         0  main.o ABSOLUTE
    ..\Core\Src\stm32f1xx_hal_msp.c          0x00000000   Number         0  stm32f1xx_hal_msp.o ABSOLUTE
    ..\Core\Src\stm32f1xx_hal_timebase_tim.c 0x00000000   Number         0  stm32f1xx_hal_timebase_tim.o ABSOLUTE
    ..\Core\Src\stm32f1xx_it.c               0x00000000   Number         0  stm32f1xx_it.o ABSOLUTE
    ..\Core\Src\system_stm32f1xx.c           0x00000000   Number         0  system_stm32f1xx.o ABSOLUTE
    ..\Drivers\STM32F1xx_HAL_Driver\Src\stm32f1xx_hal.c 0x00000000   Number         0  stm32f1xx_hal.o ABSOLUTE
    ..\Drivers\STM32F1xx_HAL_Driver\Src\stm32f1xx_hal_cortex.c 0x00000000   Number         0  stm32f1xx_hal_cortex.o ABSOLUTE
    ..\Drivers\STM32F1xx_HAL_Driver\Src\stm32f1xx_hal_dma.c 0x00000000   Number         0  stm32f1xx_hal_dma.o ABSOLUTE
    ..\Drivers\STM32F1xx_HAL_Driver\Src\stm32f1xx_hal_exti.c 0x00000000   Number         0  stm32f1xx_hal_exti.o ABSOLUTE
    ..\Drivers\STM32F1xx_HAL_Driver\Src\stm32f1xx_hal_flash.c 0x00000000   Number         0  stm32f1xx_hal_flash.o ABSOLUTE
    ..\Drivers\STM32F1xx_HAL_Driver\Src\stm32f1xx_hal_flash_ex.c 0x00000000   Number         0  stm32f1xx_hal_flash_ex.o ABSOLUTE
    ..\Drivers\STM32F1xx_HAL_Driver\Src\stm32f1xx_hal_gpio.c 0x00000000   Number         0  stm32f1xx_hal_gpio.o ABSOLUTE
    ..\Drivers\STM32F1xx_HAL_Driver\Src\stm32f1xx_hal_gpio_ex.c 0x00000000   Number         0  stm32f1xx_hal_gpio_ex.o ABSOLUTE
    ..\Drivers\STM32F1xx_HAL_Driver\Src\stm32f1xx_hal_pwr.c 0x00000000   Number         0  stm32f1xx_hal_pwr.o ABSOLUTE
    ..\Drivers\STM32F1xx_HAL_Driver\Src\stm32f1xx_hal_rcc.c 0x00000000   Number         0  stm32f1xx_hal_rcc.o ABSOLUTE
    ..\Drivers\STM32F1xx_HAL_Driver\Src\stm32f1xx_hal_rcc_ex.c 0x00000000   Number         0  stm32f1xx_hal_rcc_ex.o ABSOLUTE
    ..\Drivers\STM32F1xx_HAL_Driver\Src\stm32f1xx_hal_tim.c 0x00000000   Number         0  stm32f1xx_hal_tim.o ABSOLUTE
    ..\Drivers\STM32F1xx_HAL_Driver\Src\stm32f1xx_hal_tim_ex.c 0x00000000   Number         0  stm32f1xx_hal_tim_ex.o ABSOLUTE
    ..\Drivers\STM32F1xx_HAL_Driver\Src\stm32f1xx_hal_uart.c 0x00000000   Number         0  stm32f1xx_hal_uart.o ABSOLUTE
    ..\Middlewares\Third_Party\FreeRTOS\Source\CMSIS_RTOS\cmsis_os.c 0x00000000   Number         0  cmsis_os.o ABSOLUTE
    ..\Middlewares\Third_Party\FreeRTOS\Source\portable\RVDS\ARM_CM3\port.c 0x00000000   Number         0  port.o ABSOLUTE
    ..\USER\MMwave\MMWAVE.c                  0x00000000   Number         0  mmwave.o ABSOLUTE
    ..\USER\Motor\MOTOR.c                    0x00000000   Number         0  motor.o ABSOLUTE
    ..\USER\Utilities\util.c                 0x00000000   Number         0  util.o ABSOLUTE
    ..\\USER\\MMwave\\MMWAVE.c               0x00000000   Number         0  mmwave.o ABSOLUTE
    ..\\USER\\Motor\\MOTOR.c                 0x00000000   Number         0  motor.o ABSOLUTE
    ..\\USER\\Utilities\\util.c              0x00000000   Number         0  util.o ABSOLUTE
    cdrcmple.s                               0x00000000   Number         0  cdrcmple.o ABSOLUTE
    dc.s                                     0x00000000   Number         0  dc.o ABSOLUTE
    handlers.s                               0x00000000   Number         0  handlers.o ABSOLUTE
    init.s                                   0x00000000   Number         0  init.o ABSOLUTE
    startup_stm32f103xe.s                    0x00000000   Number         0  startup_stm32f103xe.o ABSOLUTE
    RESET                                    0x08000000   Section      304  startup_stm32f103xe.o(RESET)
    .ARM.Collect$$$$00000000                 0x08000130   Section        0  entry.o(.ARM.Collect$$$$00000000)
    .ARM.Collect$$$$00000001                 0x08000130   Section        4  entry2.o(.ARM.Collect$$$$00000001)
    .ARM.Collect$$$$00000004                 0x08000134   Section        4  entry5.o(.ARM.Collect$$$$00000004)
    .ARM.Collect$$$$00000008                 0x08000138   Section        0  entry7b.o(.ARM.Collect$$$$00000008)
    .ARM.Collect$$$$0000000A                 0x08000138   Section        0  entry8b.o(.ARM.Collect$$$$0000000A)
    .ARM.Collect$$$$0000000B                 0x08000138   Section        8  entry9a.o(.ARM.Collect$$$$0000000B)
    .ARM.Collect$$$$0000000D                 0x08000140   Section        0  entry10a.o(.ARM.Collect$$$$0000000D)
    .ARM.Collect$$$$0000000F                 0x08000140   Section        0  entry11a.o(.ARM.Collect$$$$0000000F)
    .ARM.Collect$$$$00002712                 0x08000140   Section        4  entry2.o(.ARM.Collect$$$$00002712)
    __lit__00000000                          0x08000140   Data           4  entry2.o(.ARM.Collect$$$$00002712)
    .emb_text                                0x08000144   Section      150  port.o(.emb_text)
    .text                                    0x080001dc   Section       36  startup_stm32f103xe.o(.text)
    .text                                    0x08000200   Section        0  memcpya.o(.text)
    .text                                    0x08000224   Section        0  memseta.o(.text)
    .text                                    0x08000248   Section        0  uidiv.o(.text)
    .text                                    0x08000274   Section       36  init.o(.text)
    i.BusFault_Handler                       0x08000298   Section        0  stm32f1xx_it.o(i.BusFault_Handler)
    i.DebugMon_Handler                       0x0800029a   Section        0  stm32f1xx_it.o(i.DebugMon_Handler)
    i.HAL_DMA_Abort_IT                       0x0800029c   Section        0  stm32f1xx_hal_dma.o(i.HAL_DMA_Abort_IT)
    i.HAL_GPIO_Init                          0x080003cc   Section        0  stm32f1xx_hal_gpio.o(i.HAL_GPIO_Init)
    i.HAL_GPIO_TogglePin                     0x080005c4   Section        0  stm32f1xx_hal_gpio.o(i.HAL_GPIO_TogglePin)
    i.HAL_GPIO_WritePin                      0x080005d2   Section        0  stm32f1xx_hal_gpio.o(i.HAL_GPIO_WritePin)
    i.HAL_GetTick                            0x080005dc   Section        0  stm32f1xx_hal.o(i.HAL_GetTick)
    i.HAL_IncTick                            0x080005e8   Section        0  stm32f1xx_hal.o(i.HAL_IncTick)
    i.HAL_Init                               0x080005f8   Section        0  stm32f1xx_hal.o(i.HAL_Init)
    i.HAL_InitTick                           0x0800061c   Section        0  stm32f1xx_hal_timebase_tim.o(i.HAL_InitTick)
    i.HAL_MspInit                            0x08000690   Section        0  stm32f1xx_hal_msp.o(i.HAL_MspInit)
    i.HAL_NVIC_EnableIRQ                     0x080006cc   Section        0  stm32f1xx_hal_cortex.o(i.HAL_NVIC_EnableIRQ)
    i.HAL_NVIC_SetPriority                   0x080006e8   Section        0  stm32f1xx_hal_cortex.o(i.HAL_NVIC_SetPriority)
    i.HAL_NVIC_SetPriorityGrouping           0x08000728   Section        0  stm32f1xx_hal_cortex.o(i.HAL_NVIC_SetPriorityGrouping)
    i.HAL_RCC_ClockConfig                    0x0800074c   Section        0  stm32f1xx_hal_rcc.o(i.HAL_RCC_ClockConfig)
    i.HAL_RCC_GetClockConfig                 0x08000878   Section        0  stm32f1xx_hal_rcc.o(i.HAL_RCC_GetClockConfig)
    i.HAL_RCC_GetPCLK1Freq                   0x080008b8   Section        0  stm32f1xx_hal_rcc.o(i.HAL_RCC_GetPCLK1Freq)
    i.HAL_RCC_GetPCLK2Freq                   0x080008d8   Section        0  stm32f1xx_hal_rcc.o(i.HAL_RCC_GetPCLK2Freq)
    i.HAL_RCC_GetSysClockFreq                0x080008f8   Section        0  stm32f1xx_hal_rcc.o(i.HAL_RCC_GetSysClockFreq)
    i.HAL_RCC_OscConfig                      0x08000964   Section        0  stm32f1xx_hal_rcc.o(i.HAL_RCC_OscConfig)
    i.HAL_TIMEx_BreakCallback                0x08000c84   Section        0  stm32f1xx_hal_tim_ex.o(i.HAL_TIMEx_BreakCallback)
    i.HAL_TIMEx_CommutCallback               0x08000c86   Section        0  stm32f1xx_hal_tim_ex.o(i.HAL_TIMEx_CommutCallback)
    i.HAL_TIMEx_MasterConfigSynchronization  0x08000c88   Section        0  stm32f1xx_hal_tim_ex.o(i.HAL_TIMEx_MasterConfigSynchronization)
    i.HAL_TIM_Base_Init                      0x08000cca   Section        0  stm32f1xx_hal_tim.o(i.HAL_TIM_Base_Init)
    i.HAL_TIM_Base_MspInit                   0x08000d00   Section        0  stm32f1xx_hal_msp.o(i.HAL_TIM_Base_MspInit)
    i.HAL_TIM_Base_Start_IT                  0x08000d3c   Section        0  stm32f1xx_hal_tim.o(i.HAL_TIM_Base_Start_IT)
    i.HAL_TIM_ConfigClockSource              0x08000d5e   Section        0  stm32f1xx_hal_tim.o(i.HAL_TIM_ConfigClockSource)
    i.HAL_TIM_IC_CaptureCallback             0x08000e34   Section        0  stm32f1xx_hal_tim.o(i.HAL_TIM_IC_CaptureCallback)
    i.HAL_TIM_IRQHandler                     0x08000e36   Section        0  stm32f1xx_hal_tim.o(i.HAL_TIM_IRQHandler)
    i.HAL_TIM_MspPostInit                    0x08000f9c   Section        0  stm32f1xx_hal_msp.o(i.HAL_TIM_MspPostInit)
    i.HAL_TIM_OC_DelayElapsedCallback        0x0800100c   Section        0  stm32f1xx_hal_tim.o(i.HAL_TIM_OC_DelayElapsedCallback)
    i.HAL_TIM_PWM_ConfigChannel              0x0800100e   Section        0  stm32f1xx_hal_tim.o(i.HAL_TIM_PWM_ConfigChannel)
    i.HAL_TIM_PWM_Init                       0x080010de   Section        0  stm32f1xx_hal_tim.o(i.HAL_TIM_PWM_Init)
    i.HAL_TIM_PWM_MspInit                    0x08001114   Section        0  stm32f1xx_hal_tim.o(i.HAL_TIM_PWM_MspInit)
    i.HAL_TIM_PWM_PulseFinishedCallback      0x08001116   Section        0  stm32f1xx_hal_tim.o(i.HAL_TIM_PWM_PulseFinishedCallback)
    i.HAL_TIM_PWM_Start                      0x08001118   Section        0  stm32f1xx_hal_tim.o(i.HAL_TIM_PWM_Start)
    i.HAL_TIM_PeriodElapsedCallback          0x0800115c   Section        0  main.o(i.HAL_TIM_PeriodElapsedCallback)
    i.HAL_TIM_TriggerCallback                0x08001170   Section        0  stm32f1xx_hal_tim.o(i.HAL_TIM_TriggerCallback)
    i.HAL_UART_ErrorCallback                 0x08001172   Section        0  stm32f1xx_hal_uart.o(i.HAL_UART_ErrorCallback)
    i.HAL_UART_GetState                      0x08001174   Section        0  stm32f1xx_hal_uart.o(i.HAL_UART_GetState)
    i.HAL_UART_IRQHandler                    0x08001180   Section        0  stm32f1xx_hal_uart.o(i.HAL_UART_IRQHandler)
    i.HAL_UART_Init                          0x08001290   Section        0  stm32f1xx_hal_uart.o(i.HAL_UART_Init)
    i.HAL_UART_MspInit                       0x080012f4   Section        0  stm32f1xx_hal_msp.o(i.HAL_UART_MspInit)
    i.HAL_UART_Receive_IT                    0x080013e4   Section        0  stm32f1xx_hal_uart.o(i.HAL_UART_Receive_IT)
    i.HAL_UART_RxCpltCallback                0x08001438   Section        0  util.o(i.HAL_UART_RxCpltCallback)
    i.HAL_UART_TxCpltCallback                0x080014d4   Section        0  stm32f1xx_hal_uart.o(i.HAL_UART_TxCpltCallback)
    i.HardFault_Handler                      0x080014d6   Section        0  stm32f1xx_it.o(i.HardFault_Handler)
    i.MX_GPIO_Init                           0x080014d8   Section        0  main.o(i.MX_GPIO_Init)
    MX_GPIO_Init                             0x080014d9   Thumb Code   160  main.o(i.MX_GPIO_Init)
    i.MX_TIM3_Init                           0x08001584   Section        0  main.o(i.MX_TIM3_Init)
    MX_TIM3_Init                             0x08001585   Thumb Code   146  main.o(i.MX_TIM3_Init)
    i.MemManage_Handler                      0x08001620   Section        0  stm32f1xx_it.o(i.MemManage_Handler)
    i.NMI_Handler                            0x08001622   Section        0  stm32f1xx_it.o(i.NMI_Handler)
    i.SysTick_Handler                        0x08001624   Section        0  port.o(i.SysTick_Handler)
    i.SystemClock_Config                     0x08001650   Section        0  main.o(i.SystemClock_Config)
    i.SystemInit                             0x080016a0   Section        0  system_stm32f1xx.o(i.SystemInit)
    i.TIM3_IRQHandler                        0x080016e8   Section        0  stm32f1xx_it.o(i.TIM3_IRQHandler)
    i.TIM4_IRQHandler                        0x080016f4   Section        0  stm32f1xx_it.o(i.TIM4_IRQHandler)
    i.TIM_Base_SetConfig                     0x08001700   Section        0  stm32f1xx_hal_tim.o(i.TIM_Base_SetConfig)
    i.TIM_CCxChannelCmd                      0x0800178c   Section        0  stm32f1xx_hal_tim.o(i.TIM_CCxChannelCmd)
    i.TIM_ETR_SetConfig                      0x080017a6   Section        0  stm32f1xx_hal_tim.o(i.TIM_ETR_SetConfig)
    i.TIM_ITRx_SetConfig                     0x080017ba   Section        0  stm32f1xx_hal_tim.o(i.TIM_ITRx_SetConfig)
    TIM_ITRx_SetConfig                       0x080017bb   Thumb Code    16  stm32f1xx_hal_tim.o(i.TIM_ITRx_SetConfig)
    i.TIM_OC1_SetConfig                      0x080017cc   Section        0  stm32f1xx_hal_tim.o(i.TIM_OC1_SetConfig)
    TIM_OC1_SetConfig                        0x080017cd   Thumb Code    88  stm32f1xx_hal_tim.o(i.TIM_OC1_SetConfig)
    i.TIM_OC2_SetConfig                      0x0800182c   Section        0  stm32f1xx_hal_tim.o(i.TIM_OC2_SetConfig)
    i.TIM_OC3_SetConfig                      0x08001898   Section        0  stm32f1xx_hal_tim.o(i.TIM_OC3_SetConfig)
    TIM_OC3_SetConfig                        0x08001899   Thumb Code    96  stm32f1xx_hal_tim.o(i.TIM_OC3_SetConfig)
    i.TIM_OC4_SetConfig                      0x08001900   Section        0  stm32f1xx_hal_tim.o(i.TIM_OC4_SetConfig)
    TIM_OC4_SetConfig                        0x08001901   Thumb Code    70  stm32f1xx_hal_tim.o(i.TIM_OC4_SetConfig)
    i.TIM_TI1_ConfigInputStage               0x08001950   Section        0  stm32f1xx_hal_tim.o(i.TIM_TI1_ConfigInputStage)
    TIM_TI1_ConfigInputStage                 0x08001951   Thumb Code    34  stm32f1xx_hal_tim.o(i.TIM_TI1_ConfigInputStage)
    i.TIM_TI2_ConfigInputStage               0x08001972   Section        0  stm32f1xx_hal_tim.o(i.TIM_TI2_ConfigInputStage)
    TIM_TI2_ConfigInputStage                 0x08001973   Thumb Code    36  stm32f1xx_hal_tim.o(i.TIM_TI2_ConfigInputStage)
    i.UART_DMAAbortOnError                   0x08001996   Section        0  stm32f1xx_hal_uart.o(i.UART_DMAAbortOnError)
    UART_DMAAbortOnError                     0x08001997   Thumb Code    16  stm32f1xx_hal_uart.o(i.UART_DMAAbortOnError)
    i.UART_EndRxTransfer                     0x080019a6   Section        0  stm32f1xx_hal_uart.o(i.UART_EndRxTransfer)
    UART_EndRxTransfer                       0x080019a7   Thumb Code    28  stm32f1xx_hal_uart.o(i.UART_EndRxTransfer)
    i.UART_Receive_IT                        0x080019c2   Section        0  stm32f1xx_hal_uart.o(i.UART_Receive_IT)
    UART_Receive_IT                          0x080019c3   Thumb Code   150  stm32f1xx_hal_uart.o(i.UART_Receive_IT)
    i.UART_SetConfig                         0x08001a58   Section        0  stm32f1xx_hal_uart.o(i.UART_SetConfig)
    UART_SetConfig                           0x08001a59   Thumb Code   178  stm32f1xx_hal_uart.o(i.UART_SetConfig)
    i.UART_Transmit_IT                       0x08001b10   Section        0  stm32f1xx_hal_uart.o(i.UART_Transmit_IT)
    UART_Transmit_IT                         0x08001b11   Thumb Code    98  stm32f1xx_hal_uart.o(i.UART_Transmit_IT)
    i.USART1_IRQHandler                      0x08001b74   Section        0  stm32f1xx_it.o(i.USART1_IRQHandler)
    i.USART3_IRQHandler                      0x08001b80   Section        0  stm32f1xx_it.o(i.USART3_IRQHandler)
    i.UsageFault_Handler                     0x08001bc4   Section        0  stm32f1xx_it.o(i.UsageFault_Handler)
    i.__0printf$1                            0x08001bc8   Section        0  printf1.o(i.__0printf$1)
    i.__NVIC_SetPriority                     0x08001be8   Section        0  stm32f1xx_hal_cortex.o(i.__NVIC_SetPriority)
    __NVIC_SetPriority                       0x08001be9   Thumb Code    32  stm32f1xx_hal_cortex.o(i.__NVIC_SetPriority)
    i.__scatterload_copy                     0x08001c08   Section       14  handlers.o(i.__scatterload_copy)
    i.__scatterload_null                     0x08001c16   Section        2  handlers.o(i.__scatterload_null)
    i.__scatterload_zeroinit                 0x08001c18   Section       14  handlers.o(i.__scatterload_zeroinit)
    i._printf_core                           0x08001c28   Section        0  printf1.o(i._printf_core)
    _printf_core                             0x08001c29   Thumb Code   336  printf1.o(i._printf_core)
    i.backward                               0x08001d7c   Section        0  motor.o(i.backward)
    i.forward                                0x08001d90   Section        0  motor.o(i.forward)
    i.fputc                                  0x08001da4   Section        0  util.o(i.fputc)
    i.func_LED_blink                         0x08001dbc   Section        0  main.o(i.func_LED_blink)
    i.func_mmwave                            0x08001ddc   Section        0  main.o(i.func_mmwave)
    i.func_motor                             0x08001e40   Section        0  main.o(i.func_motor)
    i.inHandlerMode                          0x08001ec8   Section        0  cmsis_os.o(i.inHandlerMode)
    inHandlerMode                            0x08001ec9   Thumb Code    12  cmsis_os.o(i.inHandlerMode)
    i.left_steel                             0x08001ed4   Section        0  motor.o(i.left_steel)
    i.main                                   0x08001ee4   Section        0  main.o(i.main)
    i.makeFreeRtosPriority                   0x08001fec   Section        0  cmsis_os.o(i.makeFreeRtosPriority)
    makeFreeRtosPriority                     0x08001fed   Thumb Code    12  cmsis_os.o(i.makeFreeRtosPriority)
    i.mmwave_process_data                    0x08001ff8   Section        0  mmwave.o(i.mmwave_process_data)
    i.osDelay                                0x08002198   Section        0  cmsis_os.o(i.osDelay)
    i.osKernelStart                          0x080021a6   Section        0  cmsis_os.o(i.osKernelStart)
    i.osMessageCreate                        0x080021b0   Section        0  cmsis_os.o(i.osMessageCreate)
    i.osMessageGet                           0x080021d8   Section        0  cmsis_os.o(i.osMessageGet)
    i.osMessagePut                           0x0800226c   Section        0  cmsis_os.o(i.osMessagePut)
    i.osThreadCreate                         0x080022c8   Section        0  cmsis_os.o(i.osThreadCreate)
    i.process_obstacle_array                 0x0800231c   Section        0  mmwave.o(i.process_obstacle_array)
    i.prvAddCurrentTaskToDelayedList         0x08002398   Section        0  tasks.o(i.prvAddCurrentTaskToDelayedList)
    prvAddCurrentTaskToDelayedList           0x08002399   Thumb Code   102  tasks.o(i.prvAddCurrentTaskToDelayedList)
    i.prvAddNewTaskToReadyList               0x08002408   Section        0  tasks.o(i.prvAddNewTaskToReadyList)
    prvAddNewTaskToReadyList                 0x08002409   Thumb Code   194  tasks.o(i.prvAddNewTaskToReadyList)
    i.prvCopyDataFromQueue                   0x080024d8   Section        0  queue.o(i.prvCopyDataFromQueue)
    prvCopyDataFromQueue                     0x080024d9   Thumb Code    38  queue.o(i.prvCopyDataFromQueue)
    i.prvCopyDataToQueue                     0x080024fe   Section        0  queue.o(i.prvCopyDataToQueue)
    prvCopyDataToQueue                       0x080024ff   Thumb Code   108  queue.o(i.prvCopyDataToQueue)
    i.prvDeleteTCB                           0x0800256a   Section        0  tasks.o(i.prvDeleteTCB)
    prvDeleteTCB                             0x0800256b   Thumb Code    52  tasks.o(i.prvDeleteTCB)
    i.prvHeapInit                            0x080025a0   Section        0  heap_4.o(i.prvHeapInit)
    prvHeapInit                              0x080025a1   Thumb Code    66  heap_4.o(i.prvHeapInit)
    i.prvIdleTask                            0x080025ec   Section        0  tasks.o(i.prvIdleTask)
    prvIdleTask                              0x080025ed   Thumb Code    82  tasks.o(i.prvIdleTask)
    i.prvInitialiseNewQueue                  0x0800264c   Section        0  queue.o(i.prvInitialiseNewQueue)
    prvInitialiseNewQueue                    0x0800264d   Thumb Code    22  queue.o(i.prvInitialiseNewQueue)
    i.prvInitialiseNewTask                   0x08002662   Section        0  tasks.o(i.prvInitialiseNewTask)
    prvInitialiseNewTask                     0x08002663   Thumb Code   142  tasks.o(i.prvInitialiseNewTask)
    i.prvInsertBlockIntoFreeList             0x080026f0   Section        0  heap_4.o(i.prvInsertBlockIntoFreeList)
    prvInsertBlockIntoFreeList               0x080026f1   Thumb Code    72  heap_4.o(i.prvInsertBlockIntoFreeList)
    i.prvIsQueueEmpty                        0x0800273c   Section        0  queue.o(i.prvIsQueueEmpty)
    prvIsQueueEmpty                          0x0800273d   Thumb Code    28  queue.o(i.prvIsQueueEmpty)
    i.prvResetNextTaskUnblockTime            0x08002758   Section        0  tasks.o(i.prvResetNextTaskUnblockTime)
    prvResetNextTaskUnblockTime              0x08002759   Thumb Code    26  tasks.o(i.prvResetNextTaskUnblockTime)
    i.prvTaskExitError                       0x08002778   Section        0  port.o(i.prvTaskExitError)
    prvTaskExitError                         0x08002779   Thumb Code    36  port.o(i.prvTaskExitError)
    i.prvUnlockQueue                         0x080027a0   Section        0  queue.o(i.prvUnlockQueue)
    prvUnlockQueue                           0x080027a1   Thumb Code   106  queue.o(i.prvUnlockQueue)
    i.pvPortMalloc                           0x0800280c   Section        0  heap_4.o(i.pvPortMalloc)
    i.pxPortInitialiseStack                  0x080028e4   Section        0  port.o(i.pxPortInitialiseStack)
    i.right_steel                            0x08002908   Section        0  motor.o(i.right_steel)
    i.uxListRemove                           0x08002918   Section        0  list.o(i.uxListRemove)
    i.vApplicationGetIdleTaskMemory          0x08002940   Section        0  freertos.o(i.vApplicationGetIdleTaskMemory)
    i.vListInitialise                        0x08002954   Section        0  list.o(i.vListInitialise)
    i.vListInitialiseItem                    0x0800296a   Section        0  list.o(i.vListInitialiseItem)
    i.vListInsert                            0x08002970   Section        0  list.o(i.vListInsert)
    i.vListInsertEnd                         0x080029a0   Section        0  list.o(i.vListInsertEnd)
    i.vPortEnterCritical                     0x080029b8   Section        0  port.o(i.vPortEnterCritical)
    i.vPortExitCritical                      0x080029f8   Section        0  port.o(i.vPortExitCritical)
    i.vPortFree                              0x08002a20   Section        0  heap_4.o(i.vPortFree)
    i.vPortSetupTimerInterrupt               0x08002a7c   Section        0  port.o(i.vPortSetupTimerInterrupt)
    i.vPortValidateInterruptPriority         0x08002aa0   Section        0  port.o(i.vPortValidateInterruptPriority)
    i.vTaskDelay                             0x08002af4   Section        0  tasks.o(i.vTaskDelay)
    i.vTaskInternalSetTimeOutState           0x08002b40   Section        0  tasks.o(i.vTaskInternalSetTimeOutState)
    i.vTaskMissedYield                       0x08002b50   Section        0  tasks.o(i.vTaskMissedYield)
    i.vTaskPlaceOnEventList                  0x08002b5c   Section        0  tasks.o(i.vTaskPlaceOnEventList)
    i.vTaskStartScheduler                    0x08002b8c   Section        0  tasks.o(i.vTaskStartScheduler)
    i.vTaskSuspendAll                        0x08002bf8   Section        0  tasks.o(i.vTaskSuspendAll)
    i.vTaskSwitchContext                     0x08002c08   Section        0  tasks.o(i.vTaskSwitchContext)
    i.xPortStartScheduler                    0x08002c64   Section        0  port.o(i.xPortStartScheduler)
    i.xQueueGenericCreate                    0x08002d0c   Section        0  queue.o(i.xQueueGenericCreate)
    i.xQueueGenericCreateStatic              0x08002d54   Section        0  queue.o(i.xQueueGenericCreateStatic)
    i.xQueueGenericReset                     0x08002dbc   Section        0  queue.o(i.xQueueGenericReset)
    i.xQueueGenericSend                      0x08002e44   Section        0  queue.o(i.xQueueGenericSend)
    i.xQueueGenericSendFromISR               0x08002fa4   Section        0  queue.o(i.xQueueGenericSendFromISR)
    i.xQueueReceive                          0x08003060   Section        0  queue.o(i.xQueueReceive)
    i.xQueueReceiveFromISR                   0x08003198   Section        0  queue.o(i.xQueueReceiveFromISR)
    i.xTaskCheckForTimeOut                   0x08003234   Section        0  tasks.o(i.xTaskCheckForTimeOut)
    i.xTaskCreate                            0x080032a8   Section        0  tasks.o(i.xTaskCreate)
    i.xTaskCreateStatic                      0x08003302   Section        0  tasks.o(i.xTaskCreateStatic)
    i.xTaskGetSchedulerState                 0x08003358   Section        0  tasks.o(i.xTaskGetSchedulerState)
    i.xTaskIncrementTick                     0x08003374   Section        0  tasks.o(i.xTaskIncrementTick)
    i.xTaskPriorityDisinherit                0x0800343c   Section        0  tasks.o(i.xTaskPriorityDisinherit)
    i.xTaskRemoveFromEventList               0x080034d4   Section        0  tasks.o(i.xTaskRemoveFromEventList)
    i.xTaskResumeAll                         0x08003548   Section        0  tasks.o(i.xTaskResumeAll)
    .constdata                               0x0800360c   Section      150  main.o(.constdata)
    .constdata                               0x080036a2   Section       16  system_stm32f1xx.o(.constdata)
    .constdata                               0x080036b2   Section        8  system_stm32f1xx.o(.constdata)
    .conststring                             0x080036bc   Section       39  main.o(.conststring)
    .data                                    0x20000000   Section       24  main.o(.data)
    .data                                    0x20000018   Section       12  stm32f1xx_hal.o(.data)
    .data                                    0x20000024   Section        4  system_stm32f1xx.o(.data)
    .data                                    0x20000028   Section       60  tasks.o(.data)
    pxDelayedTaskList                        0x2000002c   Data           4  tasks.o(.data)
    pxOverflowDelayedTaskList                0x20000030   Data           4  tasks.o(.data)
    uxDeletedTasksWaitingCleanUp             0x20000034   Data           4  tasks.o(.data)
    uxCurrentNumberOfTasks                   0x20000038   Data           4  tasks.o(.data)
    xTickCount                               0x2000003c   Data           4  tasks.o(.data)
    uxTopReadyPriority                       0x20000040   Data           4  tasks.o(.data)
    xSchedulerRunning                        0x20000044   Data           4  tasks.o(.data)
    uxPendedTicks                            0x20000048   Data           4  tasks.o(.data)
    xYieldPending                            0x2000004c   Data           4  tasks.o(.data)
    xNumOfOverflows                          0x20000050   Data           4  tasks.o(.data)
    uxTaskNumber                             0x20000054   Data           4  tasks.o(.data)
    xNextTaskUnblockTime                     0x20000058   Data           4  tasks.o(.data)
    xIdleTaskHandle                          0x2000005c   Data           4  tasks.o(.data)
    uxSchedulerSuspended                     0x20000060   Data           4  tasks.o(.data)
    .data                                    0x20000064   Section       24  heap_4.o(.data)
    pxEnd                                    0x20000064   Data           4  heap_4.o(.data)
    xFreeBytesRemaining                      0x20000068   Data           4  heap_4.o(.data)
    xMinimumEverFreeBytesRemaining           0x2000006c   Data           4  heap_4.o(.data)
    xBlockAllocatedBit                       0x20000070   Data           4  heap_4.o(.data)
    xStart                                   0x20000074   Data           8  heap_4.o(.data)
    .data                                    0x2000007c   Section       12  port.o(.data)
    ucMaxSysCallPriority                     0x2000007c   Data           1  port.o(.data)
    uxCriticalNesting                        0x20000080   Data           4  port.o(.data)
    ulMaxPRIGROUPValue                       0x20000084   Data           4  port.o(.data)
    .data                                    0x20000088   Section        6  util.o(.data)
    usart_buff_last_rx_byte                  0x20000088   Data           1  util.o(.data)
    usart_buff_current_rx_byte               0x20000089   Data           1  util.o(.data)
    package_head_received                    0x2000008a   Data           1  util.o(.data)
    in_rx_progress_flag                      0x2000008b   Data           1  util.o(.data)
    rx_data_counter                          0x2000008c   Data           1  util.o(.data)
    .data                                    0x2000008e   Section       16  mmwave.o(.data)
    frames_rx_counter                        0x2000008e   Data           1  mmwave.o(.data)
    rx_data_header                           0x2000008f   Data           2  mmwave.o(.data)
    obstacle_array_counter                   0x20000091   Data           5  mmwave.o(.data)
    rx_data_package                          0x20000096   Data           8  mmwave.o(.data)
    .data                                    0x200000a0   Section        4  stdout.o(.data)
    .bss                                     0x200000a4   Section      192  main.o(.bss)
    .bss                                     0x20000164   Section      596  freertos.o(.bss)
    xIdleTaskTCBBuffer                       0x20000164   Data          84  freertos.o(.bss)
    xIdleStack                               0x200001b8   Data         512  freertos.o(.bss)
    .bss                                     0x200003b8   Section       64  stm32f1xx_hal_timebase_tim.o(.bss)
    .bss                                     0x200003f8   Section      240  tasks.o(.bss)
    pxReadyTasksLists                        0x200003f8   Data         140  tasks.o(.bss)
    xDelayedTaskList1                        0x20000484   Data          20  tasks.o(.bss)
    xDelayedTaskList2                        0x20000498   Data          20  tasks.o(.bss)
    xPendingReadyList                        0x200004ac   Data          20  tasks.o(.bss)
    xTasksWaitingTermination                 0x200004c0   Data          20  tasks.o(.bss)
    xSuspendedTaskList                       0x200004d4   Data          20  tasks.o(.bss)
    .bss                                     0x200004e8   Section    10240  heap_4.o(.bss)
    ucHeap                                   0x200004e8   Data       10240  heap_4.o(.bss)
    .bss                                     0x20002ce8   Section       10  mmwave.o(.bss)
    STACK                                    0x20002cf8   Section     1024  startup_stm32f103xe.o(STACK)

    Global Symbols

    Symbol Name                              Value     Ov Type        Size  Object(Section)

    BuildAttributes$$THM_ISAv4$P$D$K$B$S$PE$A:L22UL41UL21$X:L11$S22US41US21$IEEE1$IW$USESV6$~STKCKD$USESV7$~SHL$OSPACE$ROPI$EBA8$MICROLIB$REQ8$PRES8$EABIv2 0x00000000   Number         0  anon$$obj.o ABSOLUTE
    __ARM_use_no_argv                        0x00000000   Number         0  main.o ABSOLUTE
    _printf_a                                0x00000000   Number         0  stubs.o ABSOLUTE
    _printf_c                                0x00000000   Number         0  stubs.o ABSOLUTE
    _printf_charcount                        0x00000000   Number         0  stubs.o ABSOLUTE
    _printf_d                                0x00000000   Number         0  stubs.o ABSOLUTE
    _printf_e                                0x00000000   Number         0  stubs.o ABSOLUTE
    _printf_f                                0x00000000   Number         0  stubs.o ABSOLUTE
    _printf_flags                            0x00000000   Number         0  stubs.o ABSOLUTE
    _printf_fp_dec                           0x00000000   Number         0  stubs.o ABSOLUTE
    _printf_fp_hex                           0x00000000   Number         0  stubs.o ABSOLUTE
    _printf_g                                0x00000000   Number         0  stubs.o ABSOLUTE
    _printf_i                                0x00000000   Number         0  stubs.o ABSOLUTE
    _printf_int_dec                          0x00000000   Number         0  stubs.o ABSOLUTE
    _printf_l                                0x00000000   Number         0  stubs.o ABSOLUTE
    _printf_lc                               0x00000000   Number         0  stubs.o ABSOLUTE
    _printf_ll                               0x00000000   Number         0  stubs.o ABSOLUTE
    _printf_lld                              0x00000000   Number         0  stubs.o ABSOLUTE
    _printf_lli                              0x00000000   Number         0  stubs.o ABSOLUTE
    _printf_llo                              0x00000000   Number         0  stubs.o ABSOLUTE
    _printf_llu                              0x00000000   Number         0  stubs.o ABSOLUTE
    _printf_llx                              0x00000000   Number         0  stubs.o ABSOLUTE
    _printf_longlong_dec                     0x00000000   Number         0  stubs.o ABSOLUTE
    _printf_longlong_hex                     0x00000000   Number         0  stubs.o ABSOLUTE
    _printf_longlong_oct                     0x00000000   Number         0  stubs.o ABSOLUTE
    _printf_ls                               0x00000000   Number         0  stubs.o ABSOLUTE
    _printf_mbtowc                           0x00000000   Number         0  stubs.o ABSOLUTE
    _printf_n                                0x00000000   Number         0  stubs.o ABSOLUTE
    _printf_o                                0x00000000   Number         0  stubs.o ABSOLUTE
    _printf_p                                0x00000000   Number         0  stubs.o ABSOLUTE
    _printf_percent                          0x00000000   Number         0  stubs.o ABSOLUTE
    _printf_pre_padding                      0x00000000   Number         0  stubs.o ABSOLUTE
    _printf_return_value                     0x00000000   Number         0  stubs.o ABSOLUTE
    _printf_s                                0x00000000   Number         0  stubs.o ABSOLUTE
    _printf_sizespec                         0x00000000   Number         0  stubs.o ABSOLUTE
    _printf_str                              0x00000000   Number         0  stubs.o ABSOLUTE
    _printf_truncate_signed                  0x00000000   Number         0  stubs.o ABSOLUTE
    _printf_truncate_unsigned                0x00000000   Number         0  stubs.o ABSOLUTE
    _printf_u                                0x00000000   Number         0  stubs.o ABSOLUTE
    _printf_wc                               0x00000000   Number         0  stubs.o ABSOLUTE
    _printf_wctomb                           0x00000000   Number         0  stubs.o ABSOLUTE
    _printf_widthprec                        0x00000000   Number         0  stubs.o ABSOLUTE
    _printf_x                                0x00000000   Number         0  stubs.o ABSOLUTE
    __cpp_initialize__aeabi_                  - Undefined Weak Reference
    __cxa_finalize                            - Undefined Weak Reference
    __decompress                              - Undefined Weak Reference
    _clock_init                               - Undefined Weak Reference
    _microlib_exit                            - Undefined Weak Reference
    __Vectors_Size                           0x00000130   Number         0  startup_stm32f103xe.o ABSOLUTE
    __Vectors                                0x08000000   Data           4  startup_stm32f103xe.o(RESET)
    __Vectors_End                            0x08000130   Data           0  startup_stm32f103xe.o(RESET)
    __main                                   0x08000131   Thumb Code     0  entry.o(.ARM.Collect$$$$00000000)
    _main_stk                                0x08000131   Thumb Code     0  entry2.o(.ARM.Collect$$$$00000001)
    _main_scatterload                        0x08000135   Thumb Code     0  entry5.o(.ARM.Collect$$$$00000004)
    __main_after_scatterload                 0x08000139   Thumb Code     0  entry5.o(.ARM.Collect$$$$00000004)
    _main_clock                              0x08000139   Thumb Code     0  entry7b.o(.ARM.Collect$$$$00000008)
    _main_cpp_init                           0x08000139   Thumb Code     0  entry8b.o(.ARM.Collect$$$$0000000A)
    _main_init                               0x08000139   Thumb Code     0  entry9a.o(.ARM.Collect$$$$0000000B)
    __rt_final_cpp                           0x08000141   Thumb Code     0  entry10a.o(.ARM.Collect$$$$0000000D)
    __rt_final_exit                          0x08000141   Thumb Code     0  entry11a.o(.ARM.Collect$$$$0000000F)
    SVC_Handler                              0x08000145   Thumb Code    32  port.o(.emb_text)
    __asm___6_port_c_39a90d8d__prvStartFirstTask 0x08000169   Thumb Code    28  port.o(.emb_text)
    PendSV_Handler                           0x08000189   Thumb Code    72  port.o(.emb_text)
    vPortGetIPSR                             0x080001d5   Thumb Code     6  port.o(.emb_text)
    Reset_Handler                            0x080001dd   Thumb Code     8  startup_stm32f103xe.o(.text)
    ADC1_2_IRQHandler                        0x080001f7   Thumb Code     0  startup_stm32f103xe.o(.text)
    ADC3_IRQHandler                          0x080001f7   Thumb Code     0  startup_stm32f103xe.o(.text)
    CAN1_RX1_IRQHandler                      0x080001f7   Thumb Code     0  startup_stm32f103xe.o(.text)
    CAN1_SCE_IRQHandler                      0x080001f7   Thumb Code     0  startup_stm32f103xe.o(.text)
    DMA1_Channel1_IRQHandler                 0x080001f7   Thumb Code     0  startup_stm32f103xe.o(.text)
    DMA1_Channel2_IRQHandler                 0x080001f7   Thumb Code     0  startup_stm32f103xe.o(.text)
    DMA1_Channel3_IRQHandler                 0x080001f7   Thumb Code     0  startup_stm32f103xe.o(.text)
    DMA1_Channel4_IRQHandler                 0x080001f7   Thumb Code     0  startup_stm32f103xe.o(.text)
    DMA1_Channel5_IRQHandler                 0x080001f7   Thumb Code     0  startup_stm32f103xe.o(.text)
    DMA1_Channel6_IRQHandler                 0x080001f7   Thumb Code     0  startup_stm32f103xe.o(.text)
    DMA1_Channel7_IRQHandler                 0x080001f7   Thumb Code     0  startup_stm32f103xe.o(.text)
    DMA2_Channel1_IRQHandler                 0x080001f7   Thumb Code     0  startup_stm32f103xe.o(.text)
    DMA2_Channel2_IRQHandler                 0x080001f7   Thumb Code     0  startup_stm32f103xe.o(.text)
    DMA2_Channel3_IRQHandler                 0x080001f7   Thumb Code     0  startup_stm32f103xe.o(.text)
    DMA2_Channel4_5_IRQHandler               0x080001f7   Thumb Code     0  startup_stm32f103xe.o(.text)
    EXTI0_IRQHandler                         0x080001f7   Thumb Code     0  startup_stm32f103xe.o(.text)
    EXTI15_10_IRQHandler                     0x080001f7   Thumb Code     0  startup_stm32f103xe.o(.text)
    EXTI1_IRQHandler                         0x080001f7   Thumb Code     0  startup_stm32f103xe.o(.text)
    EXTI2_IRQHandler                         0x080001f7   Thumb Code     0  startup_stm32f103xe.o(.text)
    EXTI3_IRQHandler                         0x080001f7   Thumb Code     0  startup_stm32f103xe.o(.text)
    EXTI4_IRQHandler                         0x080001f7   Thumb Code     0  startup_stm32f103xe.o(.text)
    EXTI9_5_IRQHandler                       0x080001f7   Thumb Code     0  startup_stm32f103xe.o(.text)
    FLASH_IRQHandler                         0x080001f7   Thumb Code     0  startup_stm32f103xe.o(.text)
    FSMC_IRQHandler                          0x080001f7   Thumb Code     0  startup_stm32f103xe.o(.text)
    I2C1_ER_IRQHandler                       0x080001f7   Thumb Code     0  startup_stm32f103xe.o(.text)
    I2C1_EV_IRQHandler                       0x080001f7   Thumb Code     0  startup_stm32f103xe.o(.text)
    I2C2_ER_IRQHandler                       0x080001f7   Thumb Code     0  startup_stm32f103xe.o(.text)
    I2C2_EV_IRQHandler                       0x080001f7   Thumb Code     0  startup_stm32f103xe.o(.text)
    PVD_IRQHandler                           0x080001f7   Thumb Code     0  startup_stm32f103xe.o(.text)
    RCC_IRQHandler                           0x080001f7   Thumb Code     0  startup_stm32f103xe.o(.text)
    RTC_Alarm_IRQHandler                     0x080001f7   Thumb Code     0  startup_stm32f103xe.o(.text)
    RTC_IRQHandler                           0x080001f7   Thumb Code     0  startup_stm32f103xe.o(.text)
    SDIO_IRQHandler                          0x080001f7   Thumb Code     0  startup_stm32f103xe.o(.text)
    SPI1_IRQHandler                          0x080001f7   Thumb Code     0  startup_stm32f103xe.o(.text)
    SPI2_IRQHandler                          0x080001f7   Thumb Code     0  startup_stm32f103xe.o(.text)
    SPI3_IRQHandler                          0x080001f7   Thumb Code     0  startup_stm32f103xe.o(.text)
    TAMPER_IRQHandler                        0x080001f7   Thumb Code     0  startup_stm32f103xe.o(.text)
    TIM1_BRK_IRQHandler                      0x080001f7   Thumb Code     0  startup_stm32f103xe.o(.text)
    TIM1_CC_IRQHandler                       0x080001f7   Thumb Code     0  startup_stm32f103xe.o(.text)
    TIM1_TRG_COM_IRQHandler                  0x080001f7   Thumb Code     0  startup_stm32f103xe.o(.text)
    TIM1_UP_IRQHandler                       0x080001f7   Thumb Code     0  startup_stm32f103xe.o(.text)
    TIM2_IRQHandler                          0x080001f7   Thumb Code     0  startup_stm32f103xe.o(.text)
    TIM5_IRQHandler                          0x080001f7   Thumb Code     0  startup_stm32f103xe.o(.text)
    TIM6_IRQHandler                          0x080001f7   Thumb Code     0  startup_stm32f103xe.o(.text)
    TIM7_IRQHandler                          0x080001f7   Thumb Code     0  startup_stm32f103xe.o(.text)
    TIM8_BRK_IRQHandler                      0x080001f7   Thumb Code     0  startup_stm32f103xe.o(.text)
    TIM8_CC_IRQHandler                       0x080001f7   Thumb Code     0  startup_stm32f103xe.o(.text)
    TIM8_TRG_COM_IRQHandler                  0x080001f7   Thumb Code     0  startup_stm32f103xe.o(.text)
    TIM8_UP_IRQHandler                       0x080001f7   Thumb Code     0  startup_stm32f103xe.o(.text)
    UART4_IRQHandler                         0x080001f7   Thumb Code     0  startup_stm32f103xe.o(.text)
    UART5_IRQHandler                         0x080001f7   Thumb Code     0  startup_stm32f103xe.o(.text)
    USART2_IRQHandler                        0x080001f7   Thumb Code     0  startup_stm32f103xe.o(.text)
    USBWakeUp_IRQHandler                     0x080001f7   Thumb Code     0  startup_stm32f103xe.o(.text)
    USB_HP_CAN1_TX_IRQHandler                0x080001f7   Thumb Code     0  startup_stm32f103xe.o(.text)
    USB_LP_CAN1_RX0_IRQHandler               0x080001f7   Thumb Code     0  startup_stm32f103xe.o(.text)
    WWDG_IRQHandler                          0x080001f7   Thumb Code     0  startup_stm32f103xe.o(.text)
    __aeabi_memcpy                           0x08000201   Thumb Code    36  memcpya.o(.text)
    __aeabi_memcpy4                          0x08000201   Thumb Code     0  memcpya.o(.text)
    __aeabi_memcpy8                          0x08000201   Thumb Code     0  memcpya.o(.text)
    __aeabi_memset                           0x08000225   Thumb Code    14  memseta.o(.text)
    __aeabi_memset4                          0x08000225   Thumb Code     0  memseta.o(.text)
    __aeabi_memset8                          0x08000225   Thumb Code     0  memseta.o(.text)
    __aeabi_memclr                           0x08000233   Thumb Code     4  memseta.o(.text)
    __aeabi_memclr4                          0x08000233   Thumb Code     0  memseta.o(.text)
    __aeabi_memclr8                          0x08000233   Thumb Code     0  memseta.o(.text)
    memset                                   0x08000237   Thumb Code    18  memseta.o(.text)
    __aeabi_uidiv                            0x08000249   Thumb Code     0  uidiv.o(.text)
    __aeabi_uidivmod                         0x08000249   Thumb Code    44  uidiv.o(.text)
    __scatterload                            0x08000275   Thumb Code    28  init.o(.text)
    __scatterload_rt2                        0x08000275   Thumb Code     0  init.o(.text)
    BusFault_Handler                         0x08000299   Thumb Code     2  stm32f1xx_it.o(i.BusFault_Handler)
    DebugMon_Handler                         0x0800029b   Thumb Code     2  stm32f1xx_it.o(i.DebugMon_Handler)
    HAL_DMA_Abort_IT                         0x0800029d   Thumb Code   296  stm32f1xx_hal_dma.o(i.HAL_DMA_Abort_IT)
    HAL_GPIO_Init                            0x080003cd   Thumb Code   462  stm32f1xx_hal_gpio.o(i.HAL_GPIO_Init)
    HAL_GPIO_TogglePin                       0x080005c5   Thumb Code    14  stm32f1xx_hal_gpio.o(i.HAL_GPIO_TogglePin)
    HAL_GPIO_WritePin                        0x080005d3   Thumb Code    10  stm32f1xx_hal_gpio.o(i.HAL_GPIO_WritePin)
    HAL_GetTick                              0x080005dd   Thumb Code     6  stm32f1xx_hal.o(i.HAL_GetTick)
    HAL_IncTick                              0x080005e9   Thumb Code    12  stm32f1xx_hal.o(i.HAL_IncTick)
    HAL_Init                                 0x080005f9   Thumb Code    32  stm32f1xx_hal.o(i.HAL_Init)
    HAL_InitTick                             0x0800061d   Thumb Code   100  stm32f1xx_hal_timebase_tim.o(i.HAL_InitTick)
    HAL_MspInit                              0x08000691   Thumb Code    52  stm32f1xx_hal_msp.o(i.HAL_MspInit)
    HAL_NVIC_EnableIRQ                       0x080006cd   Thumb Code    26  stm32f1xx_hal_cortex.o(i.HAL_NVIC_EnableIRQ)
    HAL_NVIC_SetPriority                     0x080006e9   Thumb Code    60  stm32f1xx_hal_cortex.o(i.HAL_NVIC_SetPriority)
    HAL_NVIC_SetPriorityGrouping             0x08000729   Thumb Code    26  stm32f1xx_hal_cortex.o(i.HAL_NVIC_SetPriorityGrouping)
    HAL_RCC_ClockConfig                      0x0800074d   Thumb Code   280  stm32f1xx_hal_rcc.o(i.HAL_RCC_ClockConfig)
    HAL_RCC_GetClockConfig                   0x08000879   Thumb Code    54  stm32f1xx_hal_rcc.o(i.HAL_RCC_GetClockConfig)
    HAL_RCC_GetPCLK1Freq                     0x080008b9   Thumb Code    20  stm32f1xx_hal_rcc.o(i.HAL_RCC_GetPCLK1Freq)
    HAL_RCC_GetPCLK2Freq                     0x080008d9   Thumb Code    20  stm32f1xx_hal_rcc.o(i.HAL_RCC_GetPCLK2Freq)
    HAL_RCC_GetSysClockFreq                  0x080008f9   Thumb Code    74  stm32f1xx_hal_rcc.o(i.HAL_RCC_GetSysClockFreq)
    HAL_RCC_OscConfig                        0x08000965   Thumb Code   778  stm32f1xx_hal_rcc.o(i.HAL_RCC_OscConfig)
    HAL_TIMEx_BreakCallback                  0x08000c85   Thumb Code     2  stm32f1xx_hal_tim_ex.o(i.HAL_TIMEx_BreakCallback)
    HAL_TIMEx_CommutCallback                 0x08000c87   Thumb Code     2  stm32f1xx_hal_tim_ex.o(i.HAL_TIMEx_CommutCallback)
    HAL_TIMEx_MasterConfigSynchronization    0x08000c89   Thumb Code    66  stm32f1xx_hal_tim_ex.o(i.HAL_TIMEx_MasterConfigSynchronization)
    HAL_TIM_Base_Init                        0x08000ccb   Thumb Code    54  stm32f1xx_hal_tim.o(i.HAL_TIM_Base_Init)
    HAL_TIM_Base_MspInit                     0x08000d01   Thumb Code    50  stm32f1xx_hal_msp.o(i.HAL_TIM_Base_MspInit)
    HAL_TIM_Base_Start_IT                    0x08000d3d   Thumb Code    34  stm32f1xx_hal_tim.o(i.HAL_TIM_Base_Start_IT)
    HAL_TIM_ConfigClockSource                0x08000d5f   Thumb Code   214  stm32f1xx_hal_tim.o(i.HAL_TIM_ConfigClockSource)
    HAL_TIM_IC_CaptureCallback               0x08000e35   Thumb Code     2  stm32f1xx_hal_tim.o(i.HAL_TIM_IC_CaptureCallback)
    HAL_TIM_IRQHandler                       0x08000e37   Thumb Code   358  stm32f1xx_hal_tim.o(i.HAL_TIM_IRQHandler)
    HAL_TIM_MspPostInit                      0x08000f9d   Thumb Code    94  stm32f1xx_hal_msp.o(i.HAL_TIM_MspPostInit)
    HAL_TIM_OC_DelayElapsedCallback          0x0800100d   Thumb Code     2  stm32f1xx_hal_tim.o(i.HAL_TIM_OC_DelayElapsedCallback)
    HAL_TIM_PWM_ConfigChannel                0x0800100f   Thumb Code   208  stm32f1xx_hal_tim.o(i.HAL_TIM_PWM_ConfigChannel)
    HAL_TIM_PWM_Init                         0x080010df   Thumb Code    54  stm32f1xx_hal_tim.o(i.HAL_TIM_PWM_Init)
    HAL_TIM_PWM_MspInit                      0x08001115   Thumb Code     2  stm32f1xx_hal_tim.o(i.HAL_TIM_PWM_MspInit)
    HAL_TIM_PWM_PulseFinishedCallback        0x08001117   Thumb Code     2  stm32f1xx_hal_tim.o(i.HAL_TIM_PWM_PulseFinishedCallback)
    HAL_TIM_PWM_Start                        0x08001119   Thumb Code    58  stm32f1xx_hal_tim.o(i.HAL_TIM_PWM_Start)
    HAL_TIM_PeriodElapsedCallback            0x0800115d   Thumb Code    14  main.o(i.HAL_TIM_PeriodElapsedCallback)
    HAL_TIM_TriggerCallback                  0x08001171   Thumb Code     2  stm32f1xx_hal_tim.o(i.HAL_TIM_TriggerCallback)
    HAL_UART_ErrorCallback                   0x08001173   Thumb Code     2  stm32f1xx_hal_uart.o(i.HAL_UART_ErrorCallback)
    HAL_UART_GetState                        0x08001175   Thumb Code    10  stm32f1xx_hal_uart.o(i.HAL_UART_GetState)
    HAL_UART_IRQHandler                      0x08001181   Thumb Code   266  stm32f1xx_hal_uart.o(i.HAL_UART_IRQHandler)
    HAL_UART_Init                            0x08001291   Thumb Code    98  stm32f1xx_hal_uart.o(i.HAL_UART_Init)
    HAL_UART_MspInit                         0x080012f5   Thumb Code   216  stm32f1xx_hal_msp.o(i.HAL_UART_MspInit)
    HAL_UART_Receive_IT                      0x080013e5   Thumb Code    82  stm32f1xx_hal_uart.o(i.HAL_UART_Receive_IT)
    HAL_UART_RxCpltCallback                  0x08001439   Thumb Code   142  util.o(i.HAL_UART_RxCpltCallback)
    HAL_UART_TxCpltCallback                  0x080014d5   Thumb Code     2  stm32f1xx_hal_uart.o(i.HAL_UART_TxCpltCallback)
    HardFault_Handler                        0x080014d7   Thumb Code     2  stm32f1xx_it.o(i.HardFault_Handler)
    MemManage_Handler                        0x08001621   Thumb Code     2  stm32f1xx_it.o(i.MemManage_Handler)
    NMI_Handler                              0x08001623   Thumb Code     2  stm32f1xx_it.o(i.NMI_Handler)
    SysTick_Handler                          0x08001625   Thumb Code    38  port.o(i.SysTick_Handler)
    SystemClock_Config                       0x08001651   Thumb Code    78  main.o(i.SystemClock_Config)
    SystemInit                               0x080016a1   Thumb Code    56  system_stm32f1xx.o(i.SystemInit)
    TIM3_IRQHandler                          0x080016e9   Thumb Code     6  stm32f1xx_it.o(i.TIM3_IRQHandler)
    TIM4_IRQHandler                          0x080016f5   Thumb Code     6  stm32f1xx_it.o(i.TIM4_IRQHandler)
    TIM_Base_SetConfig                       0x08001701   Thumb Code   120  stm32f1xx_hal_tim.o(i.TIM_Base_SetConfig)
    TIM_CCxChannelCmd                        0x0800178d   Thumb Code    26  stm32f1xx_hal_tim.o(i.TIM_CCxChannelCmd)
    TIM_ETR_SetConfig                        0x080017a7   Thumb Code    20  stm32f1xx_hal_tim.o(i.TIM_ETR_SetConfig)
    TIM_OC2_SetConfig                        0x0800182d   Thumb Code    98  stm32f1xx_hal_tim.o(i.TIM_OC2_SetConfig)
    USART1_IRQHandler                        0x08001b75   Thumb Code     6  stm32f1xx_it.o(i.USART1_IRQHandler)
    USART3_IRQHandler                        0x08001b81   Thumb Code    56  stm32f1xx_it.o(i.USART3_IRQHandler)
    UsageFault_Handler                       0x08001bc5   Thumb Code     2  stm32f1xx_it.o(i.UsageFault_Handler)
    __0printf$1                              0x08001bc9   Thumb Code    22  printf1.o(i.__0printf$1)
    __1printf$1                              0x08001bc9   Thumb Code     0  printf1.o(i.__0printf$1)
    __2printf                                0x08001bc9   Thumb Code     0  printf1.o(i.__0printf$1)
    __scatterload_copy                       0x08001c09   Thumb Code    14  handlers.o(i.__scatterload_copy)
    __scatterload_null                       0x08001c17   Thumb Code     2  handlers.o(i.__scatterload_null)
    __scatterload_zeroinit                   0x08001c19   Thumb Code    14  handlers.o(i.__scatterload_zeroinit)
    backward                                 0x08001d7d   Thumb Code     6  motor.o(i.backward)
    forward                                  0x08001d91   Thumb Code     6  motor.o(i.forward)
    fputc                                    0x08001da5   Thumb Code    18  util.o(i.fputc)
    func_LED_blink                           0x08001dbd   Thumb Code    26  main.o(i.func_LED_blink)
    func_mmwave                              0x08001ddd   Thumb Code    90  main.o(i.func_mmwave)
    func_motor                               0x08001e41   Thumb Code   126  main.o(i.func_motor)
    left_steel                               0x08001ed5   Thumb Code     6  motor.o(i.left_steel)
    main                                     0x08001ee5   Thumb Code   238  main.o(i.main)
    mmwave_process_data                      0x08001ff9   Thumb Code   390  mmwave.o(i.mmwave_process_data)
    osDelay                                  0x08002199   Thumb Code    14  cmsis_os.o(i.osDelay)
    osKernelStart                            0x080021a7   Thumb Code    10  cmsis_os.o(i.osKernelStart)
    osMessageCreate                          0x080021b1   Thumb Code    38  cmsis_os.o(i.osMessageCreate)
    osMessageGet                             0x080021d9   Thumb Code   144  cmsis_os.o(i.osMessageGet)
    osMessagePut                             0x0800226d   Thumb Code    86  cmsis_os.o(i.osMessagePut)
    osThreadCreate                           0x080022c9   Thumb Code    84  cmsis_os.o(i.osThreadCreate)
    process_obstacle_array                   0x0800231d   Thumb Code   112  mmwave.o(i.process_obstacle_array)
    pvPortMalloc                             0x0800280d   Thumb Code   210  heap_4.o(i.pvPortMalloc)
    pxPortInitialiseStack                    0x080028e5   Thumb Code    32  port.o(i.pxPortInitialiseStack)
    right_steel                              0x08002909   Thumb Code     6  motor.o(i.right_steel)
    uxListRemove                             0x08002919   Thumb Code    38  list.o(i.uxListRemove)
    vApplicationGetIdleTaskMemory            0x08002941   Thumb Code    16  freertos.o(i.vApplicationGetIdleTaskMemory)
    vListInitialise                          0x08002955   Thumb Code    22  list.o(i.vListInitialise)
    vListInitialiseItem                      0x0800296b   Thumb Code     6  list.o(i.vListInitialiseItem)
    vListInsert                              0x08002971   Thumb Code    48  list.o(i.vListInsert)
    vListInsertEnd                           0x080029a1   Thumb Code    24  list.o(i.vListInsertEnd)
    vPortEnterCritical                       0x080029b9   Thumb Code    54  port.o(i.vPortEnterCritical)
    vPortExitCritical                        0x080029f9   Thumb Code    34  port.o(i.vPortExitCritical)
    vPortFree                                0x08002a21   Thumb Code    88  heap_4.o(i.vPortFree)
    vPortSetupTimerInterrupt                 0x08002a7d   Thumb Code    32  port.o(i.vPortSetupTimerInterrupt)
    vPortValidateInterruptPriority           0x08002aa1   Thumb Code    74  port.o(i.vPortValidateInterruptPriority)
    vTaskDelay                               0x08002af5   Thumb Code    66  tasks.o(i.vTaskDelay)
    vTaskInternalSetTimeOutState             0x08002b41   Thumb Code    12  tasks.o(i.vTaskInternalSetTimeOutState)
    vTaskMissedYield                         0x08002b51   Thumb Code     8  tasks.o(i.vTaskMissedYield)
    vTaskPlaceOnEventList                    0x08002b5d   Thumb Code    44  tasks.o(i.vTaskPlaceOnEventList)
    vTaskStartScheduler                      0x08002b8d   Thumb Code    90  tasks.o(i.vTaskStartScheduler)
    vTaskSuspendAll                          0x08002bf9   Thumb Code    10  tasks.o(i.vTaskSuspendAll)
    vTaskSwitchContext                       0x08002c09   Thumb Code    82  tasks.o(i.vTaskSwitchContext)
    xPortStartScheduler                      0x08002c65   Thumb Code   154  port.o(i.xPortStartScheduler)
    xQueueGenericCreate                      0x08002d0d   Thumb Code    72  queue.o(i.xQueueGenericCreate)
    xQueueGenericCreateStatic                0x08002d55   Thumb Code   102  queue.o(i.xQueueGenericCreateStatic)
    xQueueGenericReset                       0x08002dbd   Thumb Code   132  queue.o(i.xQueueGenericReset)
    xQueueGenericSend                        0x08002e45   Thumb Code   346  queue.o(i.xQueueGenericSend)
    xQueueGenericSendFromISR                 0x08002fa5   Thumb Code   188  queue.o(i.xQueueGenericSendFromISR)
    xQueueReceive                            0x08003061   Thumb Code   308  queue.o(i.xQueueReceive)
    xQueueReceiveFromISR                     0x08003199   Thumb Code   154  queue.o(i.xQueueReceiveFromISR)
    xTaskCheckForTimeOut                     0x08003235   Thumb Code   112  tasks.o(i.xTaskCheckForTimeOut)
    xTaskCreate                              0x080032a9   Thumb Code    90  tasks.o(i.xTaskCreate)
    xTaskCreateStatic                        0x08003303   Thumb Code    86  tasks.o(i.xTaskCreateStatic)
    xTaskGetSchedulerState                   0x08003359   Thumb Code    22  tasks.o(i.xTaskGetSchedulerState)
    xTaskIncrementTick                       0x08003375   Thumb Code   192  tasks.o(i.xTaskIncrementTick)
    xTaskPriorityDisinherit                  0x0800343d   Thumb Code   144  tasks.o(i.xTaskPriorityDisinherit)
    xTaskRemoveFromEventList                 0x080034d5   Thumb Code   108  tasks.o(i.xTaskRemoveFromEventList)
    xTaskResumeAll                           0x08003549   Thumb Code   182  tasks.o(i.xTaskResumeAll)
    avoid_params                             0x0800360c   Data           6  main.o(.constdata)
    AHBPrescTable                            0x080036a2   Data          16  system_stm32f1xx.o(.constdata)
    APBPrescTable                            0x080036b2   Data           8  system_stm32f1xx.o(.constdata)
    Region$$Table$$Base                      0x080036e4   Number         0  anon$$obj.o(Region$$Table)
    Region$$Table$$Limit                     0x08003704   Number         0  anon$$obj.o(Region$$Table)
    task_LED_blinkHandle                     0x20000000   Data           4  main.o(.data)
    task_motorHandle                         0x20000004   Data           4  main.o(.data)
    task_mmwaveHandle                        0x20000008   Data           4  main.o(.data)
    byte_form_data_queueHandle               0x2000000c   Data           4  main.o(.data)
    min_dist_queueHandle                     0x20000010   Data           4  main.o(.data)
    mmwave_data_transmission_queueHandle     0x20000014   Data           4  main.o(.data)
    uwTickFreq                               0x20000018   Data           1  stm32f1xx_hal.o(.data)
    uwTickPrio                               0x2000001c   Data           4  stm32f1xx_hal.o(.data)
    uwTick                                   0x20000020   Data           4  stm32f1xx_hal.o(.data)
    SystemCoreClock                          0x20000024   Data           4  system_stm32f1xx.o(.data)
    pxCurrentTCB                             0x20000028   Data           4  tasks.o(.data)
    aRxBuffer                                0x2000008d   Data           1  util.o(.data)
    __stdout                                 0x200000a0   Data           4  stdout.o(.data)
    htim3                                    0x200000a4   Data          64  main.o(.bss)
    huart1                                   0x200000e4   Data          64  main.o(.bss)
    huart3                                   0x20000124   Data          64  main.o(.bss)
    htim4                                    0x200003b8   Data          64  stm32f1xx_hal_timebase_tim.o(.bss)
    obstacle_array                           0x20002ce8   Data          10  mmwave.o(.bss)
    __initial_sp                             0x200030f8   Data           0  startup_stm32f103xe.o(STACK)



==============================================================================

Memory Map of the image

  Image Entry point : 0x08000131

  Load Region LR_IROM1 (Base: 0x08000000, Size: 0x000037a8, Max: 0x00040000, ABSOLUTE)

    Execution Region ER_IROM1 (Exec base: 0x08000000, Load base: 0x08000000, Size: 0x00003704, Max: 0x00040000, ABSOLUTE)

    Exec Addr    Load Addr    Size         Type   Attr      Idx    E Section Name        Object

    0x08000000   0x08000000   0x00000130   Data   RO            3    RESET               startup_stm32f103xe.o
    0x08000130   0x08000130   0x00000000   Code   RO         4231  * .ARM.Collect$$$$00000000  mc_w.l(entry.o)
    0x08000130   0x08000130   0x00000004   Code   RO         4511    .ARM.Collect$$$$00000001  mc_w.l(entry2.o)
    0x08000134   0x08000134   0x00000004   Code   RO         4514    .ARM.Collect$$$$00000004  mc_w.l(entry5.o)
    0x08000138   0x08000138   0x00000000   Code   RO         4516    .ARM.Collect$$$$00000008  mc_w.l(entry7b.o)
    0x08000138   0x08000138   0x00000000   Code   RO         4518    .ARM.Collect$$$$0000000A  mc_w.l(entry8b.o)
    0x08000138   0x08000138   0x00000008   Code   RO         4519    .ARM.Collect$$$$0000000B  mc_w.l(entry9a.o)
    0x08000140   0x08000140   0x00000000   Code   RO         4521    .ARM.Collect$$$$0000000D  mc_w.l(entry10a.o)
    0x08000140   0x08000140   0x00000000   Code   RO         4523    .ARM.Collect$$$$0000000F  mc_w.l(entry11a.o)
    0x08000140   0x08000140   0x00000004   Code   RO         4512    .ARM.Collect$$$$00002712  mc_w.l(entry2.o)
    0x08000144   0x08000144   0x00000096   Code   RO         3956    .emb_text           port.o
    0x080001da   0x080001da   0x00000002   PAD
    0x080001dc   0x080001dc   0x00000024   Code   RO            4    .text               startup_stm32f103xe.o
    0x08000200   0x08000200   0x00000024   Code   RO         4236    .text               mc_w.l(memcpya.o)
    0x08000224   0x08000224   0x00000024   Code   RO         4240    .text               mc_w.l(memseta.o)
    0x08000248   0x08000248   0x0000002c   Code   RO         4526    .text               mc_w.l(uidiv.o)
    0x08000274   0x08000274   0x00000024   Code   RO         4541    .text               mc_w.l(init.o)
    0x08000298   0x08000298   0x00000002   Code   RO          284    i.BusFault_Handler  stm32f1xx_it.o
    0x0800029a   0x0800029a   0x00000002   Code   RO          285    i.DebugMon_Handler  stm32f1xx_it.o
    0x0800029c   0x0800029c   0x00000130   Code   RO          882    i.HAL_DMA_Abort_IT  stm32f1xx_hal_dma.o
    0x080003cc   0x080003cc   0x000001f8   Code   RO          817    i.HAL_GPIO_Init     stm32f1xx_hal_gpio.o
    0x080005c4   0x080005c4   0x0000000e   Code   RO          820    i.HAL_GPIO_TogglePin  stm32f1xx_hal_gpio.o
    0x080005d2   0x080005d2   0x0000000a   Code   RO          821    i.HAL_GPIO_WritePin  stm32f1xx_hal_gpio.o
    0x080005dc   0x080005dc   0x0000000c   Code   RO          513    i.HAL_GetTick       stm32f1xx_hal.o
    0x080005e8   0x080005e8   0x00000010   Code   RO          519    i.HAL_IncTick       stm32f1xx_hal.o
    0x080005f8   0x080005f8   0x00000024   Code   RO          520    i.HAL_Init          stm32f1xx_hal.o
    0x0800061c   0x0800061c   0x00000074   Code   RO          427    i.HAL_InitTick      stm32f1xx_hal_timebase_tim.o
    0x08000690   0x08000690   0x0000003c   Code   RO          373    i.HAL_MspInit       stm32f1xx_hal_msp.o
    0x080006cc   0x080006cc   0x0000001a   Code   RO          977    i.HAL_NVIC_EnableIRQ  stm32f1xx_hal_cortex.o
    0x080006e6   0x080006e6   0x00000002   PAD
    0x080006e8   0x080006e8   0x00000040   Code   RO          983    i.HAL_NVIC_SetPriority  stm32f1xx_hal_cortex.o
    0x08000728   0x08000728   0x00000024   Code   RO          984    i.HAL_NVIC_SetPriorityGrouping  stm32f1xx_hal_cortex.o
    0x0800074c   0x0800074c   0x0000012c   Code   RO          677    i.HAL_RCC_ClockConfig  stm32f1xx_hal_rcc.o
    0x08000878   0x08000878   0x00000040   Code   RO          681    i.HAL_RCC_GetClockConfig  stm32f1xx_hal_rcc.o
    0x080008b8   0x080008b8   0x00000020   Code   RO          684    i.HAL_RCC_GetPCLK1Freq  stm32f1xx_hal_rcc.o
    0x080008d8   0x080008d8   0x00000020   Code   RO          685    i.HAL_RCC_GetPCLK2Freq  stm32f1xx_hal_rcc.o
    0x080008f8   0x080008f8   0x0000006c   Code   RO          686    i.HAL_RCC_GetSysClockFreq  stm32f1xx_hal_rcc.o
    0x08000964   0x08000964   0x00000320   Code   RO          689    i.HAL_RCC_OscConfig  stm32f1xx_hal_rcc.o
    0x08000c84   0x08000c84   0x00000002   Code   RO         2154    i.HAL_TIMEx_BreakCallback  stm32f1xx_hal_tim_ex.o
    0x08000c86   0x08000c86   0x00000002   Code   RO         2155    i.HAL_TIMEx_CommutCallback  stm32f1xx_hal_tim_ex.o
    0x08000c88   0x08000c88   0x00000042   Code   RO         2172    i.HAL_TIMEx_MasterConfigSynchronization  stm32f1xx_hal_tim_ex.o
    0x08000cca   0x08000cca   0x00000036   Code   RO         1479    i.HAL_TIM_Base_Init  stm32f1xx_hal_tim.o
    0x08000d00   0x08000d00   0x0000003c   Code   RO          375    i.HAL_TIM_Base_MspInit  stm32f1xx_hal_msp.o
    0x08000d3c   0x08000d3c   0x00000022   Code   RO         1484    i.HAL_TIM_Base_Start_IT  stm32f1xx_hal_tim.o
    0x08000d5e   0x08000d5e   0x000000d6   Code   RO         1488    i.HAL_TIM_ConfigClockSource  stm32f1xx_hal_tim.o
    0x08000e34   0x08000e34   0x00000002   Code   RO         1508    i.HAL_TIM_IC_CaptureCallback  stm32f1xx_hal_tim.o
    0x08000e36   0x08000e36   0x00000166   Code   RO         1522    i.HAL_TIM_IRQHandler  stm32f1xx_hal_tim.o
    0x08000f9c   0x08000f9c   0x00000070   Code   RO          376    i.HAL_TIM_MspPostInit  stm32f1xx_hal_msp.o
    0x0800100c   0x0800100c   0x00000002   Code   RO         1525    i.HAL_TIM_OC_DelayElapsedCallback  stm32f1xx_hal_tim.o
    0x0800100e   0x0800100e   0x000000d0   Code   RO         1546    i.HAL_TIM_PWM_ConfigChannel  stm32f1xx_hal_tim.o
    0x080010de   0x080010de   0x00000036   Code   RO         1549    i.HAL_TIM_PWM_Init  stm32f1xx_hal_tim.o
    0x08001114   0x08001114   0x00000002   Code   RO         1551    i.HAL_TIM_PWM_MspInit  stm32f1xx_hal_tim.o
    0x08001116   0x08001116   0x00000002   Code   RO         1552    i.HAL_TIM_PWM_PulseFinishedCallback  stm32f1xx_hal_tim.o
    0x08001118   0x08001118   0x00000044   Code   RO         1554    i.HAL_TIM_PWM_Start  stm32f1xx_hal_tim.o
    0x0800115c   0x0800115c   0x00000014   Code   RO           14    i.HAL_TIM_PeriodElapsedCallback  main.o
    0x08001170   0x08001170   0x00000002   Code   RO         1565    i.HAL_TIM_TriggerCallback  stm32f1xx_hal_tim.o
    0x08001172   0x08001172   0x00000002   Code   RO         2426    i.HAL_UART_ErrorCallback  stm32f1xx_hal_uart.o
    0x08001174   0x08001174   0x0000000a   Code   RO         2428    i.HAL_UART_GetState  stm32f1xx_hal_uart.o
    0x0800117e   0x0800117e   0x00000002   PAD
    0x08001180   0x08001180   0x00000110   Code   RO         2429    i.HAL_UART_IRQHandler  stm32f1xx_hal_uart.o
    0x08001290   0x08001290   0x00000062   Code   RO         2430    i.HAL_UART_Init     stm32f1xx_hal_uart.o
    0x080012f2   0x080012f2   0x00000002   PAD
    0x080012f4   0x080012f4   0x000000f0   Code   RO          378    i.HAL_UART_MspInit  stm32f1xx_hal_msp.o
    0x080013e4   0x080013e4   0x00000052   Code   RO         2435    i.HAL_UART_Receive_IT  stm32f1xx_hal_uart.o
    0x08001436   0x08001436   0x00000002   PAD
    0x08001438   0x08001438   0x0000009c   Code   RO         4036    i.HAL_UART_RxCpltCallback  util.o
    0x080014d4   0x080014d4   0x00000002   Code   RO         2441    i.HAL_UART_TxCpltCallback  stm32f1xx_hal_uart.o
    0x080014d6   0x080014d6   0x00000002   Code   RO          286    i.HardFault_Handler  stm32f1xx_it.o
    0x080014d8   0x080014d8   0x000000ac   Code   RO           15    i.MX_GPIO_Init      main.o
    0x08001584   0x08001584   0x0000009c   Code   RO           16    i.MX_TIM3_Init      main.o
    0x08001620   0x08001620   0x00000002   Code   RO          287    i.MemManage_Handler  stm32f1xx_it.o
    0x08001622   0x08001622   0x00000002   Code   RO          288    i.NMI_Handler       stm32f1xx_it.o
    0x08001624   0x08001624   0x0000002c   Code   RO         3957    i.SysTick_Handler   port.o
    0x08001650   0x08001650   0x0000004e   Code   RO           17    i.SystemClock_Config  main.o
    0x0800169e   0x0800169e   0x00000002   PAD
    0x080016a0   0x080016a0   0x00000048   Code   RO         2732    i.SystemInit        system_stm32f1xx.o
    0x080016e8   0x080016e8   0x0000000c   Code   RO          289    i.TIM3_IRQHandler   stm32f1xx_it.o
    0x080016f4   0x080016f4   0x0000000c   Code   RO          290    i.TIM4_IRQHandler   stm32f1xx_it.o
    0x08001700   0x08001700   0x0000008c   Code   RO         1567    i.TIM_Base_SetConfig  stm32f1xx_hal_tim.o
    0x0800178c   0x0800178c   0x0000001a   Code   RO         1568    i.TIM_CCxChannelCmd  stm32f1xx_hal_tim.o
    0x080017a6   0x080017a6   0x00000014   Code   RO         1578    i.TIM_ETR_SetConfig  stm32f1xx_hal_tim.o
    0x080017ba   0x080017ba   0x00000010   Code   RO         1579    i.TIM_ITRx_SetConfig  stm32f1xx_hal_tim.o
    0x080017ca   0x080017ca   0x00000002   PAD
    0x080017cc   0x080017cc   0x00000060   Code   RO         1580    i.TIM_OC1_SetConfig  stm32f1xx_hal_tim.o
    0x0800182c   0x0800182c   0x0000006c   Code   RO         1581    i.TIM_OC2_SetConfig  stm32f1xx_hal_tim.o
    0x08001898   0x08001898   0x00000068   Code   RO         1582    i.TIM_OC3_SetConfig  stm32f1xx_hal_tim.o
    0x08001900   0x08001900   0x00000050   Code   RO         1583    i.TIM_OC4_SetConfig  stm32f1xx_hal_tim.o
    0x08001950   0x08001950   0x00000022   Code   RO         1585    i.TIM_TI1_ConfigInputStage  stm32f1xx_hal_tim.o
    0x08001972   0x08001972   0x00000024   Code   RO         1587    i.TIM_TI2_ConfigInputStage  stm32f1xx_hal_tim.o
    0x08001996   0x08001996   0x00000010   Code   RO         2443    i.UART_DMAAbortOnError  stm32f1xx_hal_uart.o
    0x080019a6   0x080019a6   0x0000001c   Code   RO         2453    i.UART_EndRxTransfer  stm32f1xx_hal_uart.o
    0x080019c2   0x080019c2   0x00000096   Code   RO         2455    i.UART_Receive_IT   stm32f1xx_hal_uart.o
    0x08001a58   0x08001a58   0x000000b8   Code   RO         2456    i.UART_SetConfig    stm32f1xx_hal_uart.o
    0x08001b10   0x08001b10   0x00000062   Code   RO         2457    i.UART_Transmit_IT  stm32f1xx_hal_uart.o
    0x08001b72   0x08001b72   0x00000002   PAD
    0x08001b74   0x08001b74   0x0000000c   Code   RO          291    i.USART1_IRQHandler  stm32f1xx_it.o
    0x08001b80   0x08001b80   0x00000044   Code   RO          292    i.USART3_IRQHandler  stm32f1xx_it.o
    0x08001bc4   0x08001bc4   0x00000002   Code   RO          293    i.UsageFault_Handler  stm32f1xx_it.o
    0x08001bc6   0x08001bc6   0x00000002   PAD
    0x08001bc8   0x08001bc8   0x00000020   Code   RO         4289    i.__0printf$1       mc_w.l(printf1.o)
    0x08001be8   0x08001be8   0x00000020   Code   RO          990    i.__NVIC_SetPriority  stm32f1xx_hal_cortex.o
    0x08001c08   0x08001c08   0x0000000e   Code   RO         4549    i.__scatterload_copy  mc_w.l(handlers.o)
    0x08001c16   0x08001c16   0x00000002   Code   RO         4550    i.__scatterload_null  mc_w.l(handlers.o)
    0x08001c18   0x08001c18   0x0000000e   Code   RO         4551    i.__scatterload_zeroinit  mc_w.l(handlers.o)
    0x08001c26   0x08001c26   0x00000002   PAD
    0x08001c28   0x08001c28   0x00000154   Code   RO         4296    i._printf_core      mc_w.l(printf1.o)
    0x08001d7c   0x08001d7c   0x00000014   Code   RO         4096    i.backward          motor.o
    0x08001d90   0x08001d90   0x00000014   Code   RO         4097    i.forward           motor.o
    0x08001da4   0x08001da4   0x00000018   Code   RO         4037    i.fputc             util.o
    0x08001dbc   0x08001dbc   0x00000020   Code   RO           18    i.func_LED_blink    main.o
    0x08001ddc   0x08001ddc   0x00000064   Code   RO           19    i.func_mmwave       main.o
    0x08001e40   0x08001e40   0x00000088   Code   RO           20    i.func_motor        main.o
    0x08001ec8   0x08001ec8   0x0000000c   Code   RO         3526    i.inHandlerMode     cmsis_os.o
    0x08001ed4   0x08001ed4   0x00000010   Code   RO         4098    i.left_steel        motor.o
    0x08001ee4   0x08001ee4   0x00000108   Code   RO           21    i.main              main.o
    0x08001fec   0x08001fec   0x0000000c   Code   RO         3528    i.makeFreeRtosPriority  cmsis_os.o
    0x08001ff8   0x08001ff8   0x000001a0   Code   RO         4193    i.mmwave_process_data  mmwave.o
    0x08002198   0x08002198   0x0000000e   Code   RO         3530    i.osDelay           cmsis_os.o
    0x080021a6   0x080021a6   0x0000000a   Code   RO         3533    i.osKernelStart     cmsis_os.o
    0x080021b0   0x080021b0   0x00000026   Code   RO         3542    i.osMessageCreate   cmsis_os.o
    0x080021d6   0x080021d6   0x00000002   PAD
    0x080021d8   0x080021d8   0x00000094   Code   RO         3544    i.osMessageGet      cmsis_os.o
    0x0800226c   0x0800226c   0x0000005c   Code   RO         3546    i.osMessagePut      cmsis_os.o
    0x080022c8   0x080022c8   0x00000054   Code   RO         3567    i.osThreadCreate    cmsis_os.o
    0x0800231c   0x0800231c   0x0000007c   Code   RO         4194    i.process_obstacle_array  mmwave.o
    0x08002398   0x08002398   0x00000070   Code   RO         3225    i.prvAddCurrentTaskToDelayedList  tasks.o
    0x08002408   0x08002408   0x000000d0   Code   RO         3226    i.prvAddNewTaskToReadyList  tasks.o
    0x080024d8   0x080024d8   0x00000026   Code   RO         2910    i.prvCopyDataFromQueue  queue.o
    0x080024fe   0x080024fe   0x0000006c   Code   RO         2911    i.prvCopyDataToQueue  queue.o
    0x0800256a   0x0800256a   0x00000034   Code   RO         3227    i.prvDeleteTCB      tasks.o
    0x0800259e   0x0800259e   0x00000002   PAD
    0x080025a0   0x080025a0   0x0000004c   Code   RO         3895    i.prvHeapInit       heap_4.o
    0x080025ec   0x080025ec   0x00000060   Code   RO         3228    i.prvIdleTask       tasks.o
    0x0800264c   0x0800264c   0x00000016   Code   RO         2913    i.prvInitialiseNewQueue  queue.o
    0x08002662   0x08002662   0x0000008e   Code   RO         3229    i.prvInitialiseNewTask  tasks.o
    0x080026f0   0x080026f0   0x0000004c   Code   RO         3896    i.prvInsertBlockIntoFreeList  heap_4.o
    0x0800273c   0x0800273c   0x0000001c   Code   RO         2914    i.prvIsQueueEmpty   queue.o
    0x08002758   0x08002758   0x00000020   Code   RO         3230    i.prvResetNextTaskUnblockTime  tasks.o
    0x08002778   0x08002778   0x00000028   Code   RO         3958    i.prvTaskExitError  port.o
    0x080027a0   0x080027a0   0x0000006a   Code   RO         2915    i.prvUnlockQueue    queue.o
    0x0800280a   0x0800280a   0x00000002   PAD
    0x0800280c   0x0800280c   0x000000d8   Code   RO         3897    i.pvPortMalloc      heap_4.o
    0x080028e4   0x080028e4   0x00000024   Code   RO         3959    i.pxPortInitialiseStack  port.o
    0x08002908   0x08002908   0x00000010   Code   RO         4102    i.right_steel       motor.o
    0x08002918   0x08002918   0x00000026   Code   RO         2870    i.uxListRemove      list.o
    0x0800293e   0x0800293e   0x00000002   PAD
    0x08002940   0x08002940   0x00000014   Code   RO          243    i.vApplicationGetIdleTaskMemory  freertos.o
    0x08002954   0x08002954   0x00000016   Code   RO         2871    i.vListInitialise   list.o
    0x0800296a   0x0800296a   0x00000006   Code   RO         2872    i.vListInitialiseItem  list.o
    0x08002970   0x08002970   0x00000030   Code   RO         2873    i.vListInsert       list.o
    0x080029a0   0x080029a0   0x00000018   Code   RO         2874    i.vListInsertEnd    list.o
    0x080029b8   0x080029b8   0x00000040   Code   RO         3961    i.vPortEnterCritical  port.o
    0x080029f8   0x080029f8   0x00000028   Code   RO         3962    i.vPortExitCritical  port.o
    0x08002a20   0x08002a20   0x0000005c   Code   RO         3898    i.vPortFree         heap_4.o
    0x08002a7c   0x08002a7c   0x00000024   Code   RO         3963    i.vPortSetupTimerInterrupt  port.o
    0x08002aa0   0x08002aa0   0x00000054   Code   RO         3964    i.vPortValidateInterruptPriority  port.o
    0x08002af4   0x08002af4   0x0000004c   Code   RO         3238    i.vTaskDelay        tasks.o
    0x08002b40   0x08002b40   0x00000010   Code   RO         3241    i.vTaskInternalSetTimeOutState  tasks.o
    0x08002b50   0x08002b50   0x0000000c   Code   RO         3242    i.vTaskMissedYield  tasks.o
    0x08002b5c   0x08002b5c   0x00000030   Code   RO         3244    i.vTaskPlaceOnEventList  tasks.o
    0x08002b8c   0x08002b8c   0x0000006c   Code   RO         3251    i.vTaskStartScheduler  tasks.o
    0x08002bf8   0x08002bf8   0x00000010   Code   RO         3253    i.vTaskSuspendAll   tasks.o
    0x08002c08   0x08002c08   0x0000005c   Code   RO         3254    i.vTaskSwitchContext  tasks.o
    0x08002c64   0x08002c64   0x000000a8   Code   RO         3965    i.xPortStartScheduler  port.o
    0x08002d0c   0x08002d0c   0x00000048   Code   RO         2924    i.xQueueGenericCreate  queue.o
    0x08002d54   0x08002d54   0x00000066   Code   RO         2925    i.xQueueGenericCreateStatic  queue.o
    0x08002dba   0x08002dba   0x00000002   PAD
    0x08002dbc   0x08002dbc   0x00000088   Code   RO         2926    i.xQueueGenericReset  queue.o
    0x08002e44   0x08002e44   0x00000160   Code   RO         2927    i.xQueueGenericSend  queue.o
    0x08002fa4   0x08002fa4   0x000000bc   Code   RO         2928    i.xQueueGenericSendFromISR  queue.o
    0x08003060   0x08003060   0x00000138   Code   RO         2934    i.xQueueReceive     queue.o
    0x08003198   0x08003198   0x0000009a   Code   RO         2935    i.xQueueReceiveFromISR  queue.o
    0x08003232   0x08003232   0x00000002   PAD
    0x08003234   0x08003234   0x00000074   Code   RO         3255    i.xTaskCheckForTimeOut  tasks.o
    0x080032a8   0x080032a8   0x0000005a   Code   RO         3256    i.xTaskCreate       tasks.o
    0x08003302   0x08003302   0x00000056   Code   RO         3257    i.xTaskCreateStatic  tasks.o
    0x08003358   0x08003358   0x0000001c   Code   RO         3261    i.xTaskGetSchedulerState  tasks.o
    0x08003374   0x08003374   0x000000c8   Code   RO         3264    i.xTaskIncrementTick  tasks.o
    0x0800343c   0x0800343c   0x00000098   Code   RO         3267    i.xTaskPriorityDisinherit  tasks.o
    0x080034d4   0x080034d4   0x00000074   Code   RO         3269    i.xTaskRemoveFromEventList  tasks.o
    0x08003548   0x08003548   0x000000c4   Code   RO         3270    i.xTaskResumeAll    tasks.o
    0x0800360c   0x0800360c   0x00000096   Data   RO           23    .constdata          main.o
    0x080036a2   0x080036a2   0x00000010   Data   RO         2733    .constdata          system_stm32f1xx.o
    0x080036b2   0x080036b2   0x00000008   Data   RO         2734    .constdata          system_stm32f1xx.o
    0x080036ba   0x080036ba   0x00000002   PAD
    0x080036bc   0x080036bc   0x00000027   Data   RO           24    .conststring        main.o
    0x080036e3   0x080036e3   0x00000001   PAD
    0x080036e4   0x080036e4   0x00000020   Data   RO         4547    Region$$Table       anon$$obj.o


    Execution Region RW_IRAM1 (Exec base: 0x20000000, Load base: 0x08003704, Size: 0x000030f8, Max: 0x0000c000, ABSOLUTE)

    Exec Addr    Load Addr    Size         Type   Attr      Idx    E Section Name        Object

    0x20000000   0x08003704   0x00000018   Data   RW           26    .data               main.o
    0x20000018   0x0800371c   0x0000000c   Data   RW          527    .data               stm32f1xx_hal.o
    0x20000024   0x08003728   0x00000004   Data   RW         2735    .data               system_stm32f1xx.o
    0x20000028   0x0800372c   0x0000003c   Data   RW         3273    .data               tasks.o
    0x20000064   0x08003768   0x00000018   Data   RW         3903    .data               heap_4.o
    0x2000007c   0x08003780   0x0000000c   Data   RW         3966    .data               port.o
    0x20000088   0x0800378c   0x00000006   Data   RW         4039    .data               util.o
    0x2000008e   0x08003792   0x00000010   Data   RW         4196    .data               mmwave.o
    0x2000009e   0x080037a2   0x00000002   PAD
    0x200000a0   0x080037a4   0x00000004   Data   RW         4525    .data               mc_w.l(stdout.o)
    0x200000a4        -       0x000000c0   Zero   RW           22    .bss                main.o
    0x20000164        -       0x00000254   Zero   RW          244    .bss                freertos.o
    0x200003b8        -       0x00000040   Zero   RW          430    .bss                stm32f1xx_hal_timebase_tim.o
    0x200003f8        -       0x000000f0   Zero   RW         3272    .bss                tasks.o
    0x200004e8        -       0x00002800   Zero   RW         3902    .bss                heap_4.o
    0x20002ce8        -       0x0000000a   Zero   RW         4195    .bss                mmwave.o
    0x20002cf2   0x080037a8   0x00000006   PAD
    0x20002cf8        -       0x00000400   Zero   RW            1    STACK               startup_stm32f103xe.o


==============================================================================

Image component sizes


      Code (inc. data)   RO Data    RW Data    ZI Data      Debug   Object Name

       410         10          0          0          0      28097   cmsis_os.o
         0          0          0          0          0      17360   event_groups.o
        20          4          0          0        596       1224   freertos.o
       460         24          0         24      10240       7203   heap_4.o
       138          0          0          0          0       3366   list.o
       958         80        189         24        192     518418   main.o
       540         38          0         16         10       7520   mmwave.o
        72         48          0          0          0       1652   motor.o
       662         70          0         12          0      11113   port.o
      1618         14          0          0          0      15017   queue.o
        36          8        304          0       1024        800   startup_stm32f103xe.o
        64         14          0         12          0       5222   stm32f1xx_hal.o
       158         14          0          0          0      28158   stm32f1xx_hal_cortex.o
       304          8          0          0          0       1159   stm32f1xx_hal_dma.o
       528         42          0          0          0       3489   stm32f1xx_hal_gpio.o
       472         60          0          0          0       3006   stm32f1xx_hal_msp.o
      1336        110          0          0          0       5785   stm32f1xx_hal_rcc.o
      1660         66          0          0          0      15690   stm32f1xx_hal_tim.o
        70          0          0          0          0       2333   stm32f1xx_hal_tim_ex.o
       116         16          0          0         64       1411   stm32f1xx_hal_timebase_tim.o
       942         12          0          0          0       7851   stm32f1xx_hal_uart.o
       116         30          0          0          0       4437   stm32f1xx_it.o
         0          0          0          0          0        392   stream_buffer.o
        72         16         24          4          0       1171   system_stm32f1xx.o
      1994        148          0         60        240      21418   tasks.o
       180         20          0          6          0       3127   util.o

    ----------------------------------------------------------------------
     12956        852        552        160      12372     716419   Object Totals
         0          0         32          0          0          0   (incl. Generated)
        30          0          3          2          6          0   (incl. Padding)

    ----------------------------------------------------------------------

      Code (inc. data)   RO Data    RW Data    ZI Data      Debug   Library Member Name

         0          0          0          0          0          0   entry.o
         0          0          0          0          0          0   entry10a.o
         0          0          0          0          0          0   entry11a.o
         8          4          0          0          0          0   entry2.o
         4          0          0          0          0          0   entry5.o
         0          0          0          0          0          0   entry7b.o
         0          0          0          0          0          0   entry8b.o
         8          4          0          0          0          0   entry9a.o
        30          0          0          0          0          0   handlers.o
        36          8          0          0          0         68   init.o
        36          0          0          0          0         68   memcpya.o
        36          0          0          0          0        108   memseta.o
       372         14          0          0          0        184   printf1.o
         0          0          0          4          0          0   stdout.o
        44          0          0          0          0         80   uidiv.o

    ----------------------------------------------------------------------
       576         30          0          4          0        508   Library Totals
         2          0          0          0          0          0   (incl. Padding)

    ----------------------------------------------------------------------

      Code (inc. data)   RO Data    RW Data    ZI Data      Debug   Library Name

       574         30          0          4          0        508   mc_w.l

    ----------------------------------------------------------------------
       576         30          0          4          0        508   Library Totals

    ----------------------------------------------------------------------

==============================================================================


      Code (inc. data)   RO Data    RW Data    ZI Data      Debug   

     13532        882        552        164      12372     709591   Grand Totals
     13532        882        552        164      12372     709591   ELF Image Totals
     13532        882        552        164          0          0   ROM Totals

==============================================================================

    Total RO  Size (Code + RO Data)                14084 (  13.75kB)
    Total RW  Size (RW Data + ZI Data)             12536 (  12.24kB)
    Total ROM Size (Code + RO Data + RW Data)      14248 (  13.91kB)

==============================================================================

