Component: ARM Compiler 5.06 update 6 (build 750) Tool: armlink [4d35ed]

==============================================================================

Section Cross References

    startup_stm32f103xe.o(RESET) refers to startup_stm32f103xe.o(STACK) for __initial_sp
    startup_stm32f103xe.o(RESET) refers to startup_stm32f103xe.o(.text) for Reset_Handler
    startup_stm32f103xe.o(RESET) refers to stm32f1xx_it.o(i.NMI_Handler) for NMI_Handler
    startup_stm32f103xe.o(RESET) refers to stm32f1xx_it.o(i.HardFault_Handler) for HardFault_Handler
    startup_stm32f103xe.o(RESET) refers to stm32f1xx_it.o(i.MemManage_Handler) for MemManage_Handler
    startup_stm32f103xe.o(RESET) refers to stm32f1xx_it.o(i.BusFault_Handler) for BusFault_Handler
    startup_stm32f103xe.o(RESET) refers to stm32f1xx_it.o(i.UsageFault_Handler) for UsageFault_Handler
    startup_stm32f103xe.o(RESET) refers to stm32f1xx_it.o(i.SVC_Handler) for SVC_Handler
    startup_stm32f103xe.o(RESET) refers to stm32f1xx_it.o(i.DebugMon_Handler) for DebugMon_Handler
    startup_stm32f103xe.o(RESET) refers to stm32f1xx_it.o(i.PendSV_Handler) for PendSV_Handler
    startup_stm32f103xe.o(RESET) refers to stm32f1xx_it.o(i.SysTick_Handler) for SysTick_Handler
    startup_stm32f103xe.o(RESET) refers to stm32f1xx_it.o(i.TIM3_IRQHandler) for TIM3_IRQHandler
    startup_stm32f103xe.o(RESET) refers to stm32f1xx_it.o(i.TIM4_IRQHandler) for TIM4_IRQHandler
    startup_stm32f103xe.o(RESET) refers to stm32f1xx_it.o(i.USART2_IRQHandler) for USART2_IRQHandler
    startup_stm32f103xe.o(RESET) refers to stm32f1xx_it.o(i.USART3_IRQHandler) for USART3_IRQHandler
    startup_stm32f103xe.o(.text) refers to system_stm32f1xx.o(i.SystemInit) for SystemInit
    startup_stm32f103xe.o(.text) refers to entry.o(.ARM.Collect$$$$00000000) for __main
    main.o(i.Error_Handler) refers to stm32f1xx_hal.o(i.HAL_Delay) for HAL_Delay
==============================================================================

Removing Unused input sections from the image.

    Removing startup_stm32f103xe.o(HEAP), (512 bytes).
    Removing main.o(.rev16_text), (4 bytes).
    Removing main.o(.revsh_text), (4 bytes).
    Removing main.o(.rrx_text), (6 bytes).
    Removing stm32f1xx_it.o(.rev16_text), (4 bytes).
    Removing stm32f1xx_it.o(.revsh_text), (4 bytes).
    Removing stm32f1xx_it.o(.rrx_text), (6 bytes).
    Removing stm32f1xx_hal_msp.o(.rev16_text), (4 bytes).
    Removing stm32f1xx_hal_msp.o(.revsh_text), (4 bytes).
    Removing stm32f1xx_hal_msp.o(.rrx_text), (6 bytes).
    Removing stm32f1xx_hal_msp.o(i.HAL_TIM_Base_MspDeInit), (56 bytes).
    Removing stm32f1xx_hal_msp.o(i.HAL_UART_MspDeInit), (120 bytes).
    Removing stm32f1xx_hal_gpio_ex.o(.rev16_text), (4 bytes).
    Removing stm32f1xx_hal_gpio_ex.o(.revsh_text), (4 bytes).
    Removing stm32f1xx_hal_gpio_ex.o(.rrx_text), (6 bytes).
    Removing stm32f1xx_hal_gpio_ex.o(i.HAL_GPIOEx_ConfigEventout), (20 bytes).
    Removing stm32f1xx_hal_gpio_ex.o(i.HAL_GPIOEx_DisableEventout), (16 bytes).
    Removing stm32f1xx_hal_gpio_ex.o(i.HAL_GPIOEx_EnableEventout), (16 bytes).
==============================================================================

Image Symbol Table

    Local Symbols

    Symbol Name                              Value     Ov Type        Size  Object(Section)

    ../Core/Src/main.c                       0x00000000   Number         0  main.o ABSOLUTE
    ../Core/Src/stm32f1xx_hal_msp.c          0x00000000   Number         0  stm32f1xx_hal_msp.o ABSOLUTE
    ../Core/Src/stm32f1xx_it.c               0x00000000   Number         0  stm32f1xx_it.o ABSOLUTE
    ../Core/Src/system_stm32f1xx.c           0x00000000   Number         0  system_stm32f1xx.o ABSOLUTE
    ../Drivers/STM32F1xx_HAL_Driver/Src/stm32f1xx_hal.c 0x00000000   Number         0  stm32f1xx_hal.o ABSOLUTE
    ../Drivers/STM32F1xx_HAL_Driver/Src/stm32f1xx_hal_cortex.c 0x00000000   Number         0  stm32f1xx_hal_cortex.o ABSOLUTE
    ../Drivers/STM32F1xx_HAL_Driver/Src/stm32f1xx_hal_dma.c 0x00000000   Number         0  stm32f1xx_hal_dma.o ABSOLUTE
    ../Drivers/STM32F1xx_HAL_Driver/Src/stm32f1xx_hal_exti.c 0x00000000   Number         0  stm32f1xx_hal_exti.o ABSOLUTE
    ../Drivers/STM32F1xx_HAL_Driver/Src/stm32f1xx_hal_flash.c 0x00000000   Number         0  stm32f1xx_hal_flash.o ABSOLUTE
    ../Drivers/STM32F1xx_HAL_Driver/Src/stm32f1xx_hal_flash_ex.c 0x00000000   Number         0  stm32f1xx_hal_flash_ex.o ABSOLUTE
    ../Drivers/STM32F1xx_HAL_Driver/Src/stm32f1xx_hal_gpio.c 0x00000000   Number         0  stm32f1xx_hal_gpio.o ABSOLUTE
    ../Drivers/STM32F1xx_HAL_Driver/Src/stm32f1xx_hal_gpio_ex.c 0x00000000   Number         0  stm32f1xx_hal_gpio_ex.o ABSOLUTE
    ../Drivers/STM32F1xx_HAL_Driver/Src/stm32f1xx_hal_pwr.c 0x00000000   Number         0  stm32f1xx_hal_pwr.o ABSOLUTE
    ../Drivers/STM32F1xx_HAL_Driver/Src/stm32f1xx_hal_rcc.c 0x00000000   Number         0  stm32f1xx_hal_rcc.o ABSOLUTE
    ../Drivers/STM32F1xx_HAL_Driver/Src/stm32f1xx_hal_rcc_ex.c 0x00000000   Number         0  stm32f1xx_hal_rcc_ex.o ABSOLUTE
    ../Drivers/STM32F1xx_HAL_Driver/Src/stm32f1xx_hal_tim.c 0x00000000   Number         0  stm32f1xx_hal_tim.o ABSOLUTE
    ../Drivers/STM32F1xx_HAL_Driver/Src/stm32f1xx_hal_tim_ex.c 0x00000000   Number         0  stm32f1xx_hal_tim_ex.o ABSOLUTE
    ../Drivers/STM32F1xx_HAL_Driver/Src/stm32f1xx_hal_uart.c 0x00000000   Number         0  stm32f1xx_hal_uart.o ABSOLUTE
    ../clib/microlib/division.c              0x00000000   Number         0  uldiv.o ABSOLUTE
    ../clib/microlib/division.c              0x00000000   Number         0  uidiv.o ABSOLUTE
    ../clib/microlib/init/entry.s            0x00000000   Number         0  entry.o ABSOLUTE
    ../clib/microlib/init/entry.s            0x00000000   Number         0  entry7a.o ABSOLUTE
    ../clib/microlib/init/entry.s            0x00000000   Number         0  entry7b.o ABSOLUTE
    ../clib/microlib/init/entry.s            0x00000000   Number         0  entry10b.o ABSOLUTE
    ../clib/microlib/init/entry.s            0x00000000   Number         0  entry8a.o ABSOLUTE
    ../clib/microlib/init/entry.s            0x00000000   Number         0  entry8b.o ABSOLUTE
    ../clib/microlib/init/entry.s            0x00000000   Number         0  entry11a.o ABSOLUTE
    ../clib/microlib/init/entry.s            0x00000000   Number         0  entry10a.o ABSOLUTE
    ../clib/microlib/init/entry.s            0x00000000   Number         0  entry9b.o ABSOLUTE
    ../clib/microlib/init/entry.s            0x00000000   Number         0  entry9a.o ABSOLUTE
    ../clib/microlib/init/entry.s            0x00000000   Number         0  entry2.o ABSOLUTE
    ../clib/microlib/init/entry.s            0x00000000   Number         0  entry5.o ABSOLUTE
    ../clib/microlib/init/entry.s            0x00000000   Number         0  entry11b.o ABSOLUTE
    ../clib/microlib/longlong.c              0x00000000   Number         0  llushr.o ABSOLUTE
    ../clib/microlib/longlong.c              0x00000000   Number         0  llshl.o ABSOLUTE
    ../clib/microlib/longlong.c              0x00000000   Number         0  llsshr.o ABSOLUTE
    ../clib/microlib/printf/printf.c         0x00000000   Number         0  printfb.o ABSOLUTE
    ../clib/microlib/printf/printf.c         0x00000000   Number         0  printf0.o ABSOLUTE
    ../clib/microlib/printf/printf.c         0x00000000   Number         0  printf4.o ABSOLUTE
    ../clib/microlib/printf/printf.c         0x00000000   Number         0  printfa.o ABSOLUTE
    ../clib/microlib/printf/printf.c         0x00000000   Number         0  printf3.o ABSOLUTE
    ../clib/microlib/printf/printf.c         0x00000000   Number         0  printf1.o ABSOLUTE
    ../clib/microlib/printf/printf.c         0x00000000   Number         0  printf8.o ABSOLUTE
    ../clib/microlib/printf/printf.c         0x00000000   Number         0  printf7.o ABSOLUTE
    ../clib/microlib/printf/printf.c         0x00000000   Number         0  printf2.o ABSOLUTE
    ../clib/microlib/printf/printf.c         0x00000000   Number         0  printf5.o ABSOLUTE
    ../clib/microlib/printf/printf.c         0x00000000   Number         0  printf6.o ABSOLUTE
    ../clib/microlib/printf/stubs.s          0x00000000   Number         0  stubs.o ABSOLUTE
    ../clib/microlib/stdio/streams.c         0x00000000   Number         0  stdout.o ABSOLUTE
    ../clib/microlib/string/memset.c         0x00000000   Number         0  memseta.o ABSOLUTE
    ../clib/microlib/stubs.s                 0x00000000   Number         0  iusefp.o ABSOLUTE
    ../fplib/microlib/d2f.c                  0x00000000   Number         0  d2f.o ABSOLUTE
    ../fplib/microlib/f2d.c                  0x00000000   Number         0  f2d.o ABSOLUTE
    ../fplib/microlib/fpadd.c                0x00000000   Number         0  fadd.o ABSOLUTE
    ../fplib/microlib/fpadd.c                0x00000000   Number         0  dadd.o ABSOLUTE
    ../fplib/microlib/fpdiv.c                0x00000000   Number         0  fdiv.o ABSOLUTE
    ../fplib/microlib/fpdiv.c                0x00000000   Number         0  ddiv.o ABSOLUTE
    ../fplib/microlib/fpepilogue.c           0x00000000   Number         0  fepilogue.o ABSOLUTE
    ../fplib/microlib/fpepilogue.c           0x00000000   Number         0  depilogue.o ABSOLUTE
    ../fplib/microlib/fpfix.c                0x00000000   Number         0  dfixui.o ABSOLUTE
    ../fplib/microlib/fpfix.c                0x00000000   Number         0  ffixui.o ABSOLUTE
    ../fplib/microlib/fpfix.c                0x00000000   Number         0  dfixul.o ABSOLUTE
    ../fplib/microlib/fpflt.c                0x00000000   Number         0  dfltui.o ABSOLUTE
    ../fplib/microlib/fpflt.c                0x00000000   Number         0  ffltui.o ABSOLUTE
    ../fplib/microlib/fpmul.c                0x00000000   Number         0  dmul.o ABSOLUTE
    ../fplib/microlib/fpmul.c                0x00000000   Number         0  fmul.o ABSOLUTE
    ..\Core\Src\main.c                       0x00000000   Number         0  main.o ABSOLUTE
    ..\Core\Src\stm32f1xx_hal_msp.c          0x00000000   Number         0  stm32f1xx_hal_msp.o ABSOLUTE
    ..\Core\Src\stm32f1xx_it.c               0x00000000   Number         0  stm32f1xx_it.o ABSOLUTE
    ..\Core\Src\system_stm32f1xx.c           0x00000000   Number         0  system_stm32f1xx.o ABSOLUTE
    ..\Drivers\STM32F1xx_HAL_Driver\Src\stm32f1xx_hal.c 0x00000000   Number         0  stm32f1xx_hal.o ABSOLUTE
    ..\Drivers\STM32F1xx_HAL_Driver\Src\stm32f1xx_hal_cortex.c 0x00000000   Number         0  stm32f1xx_hal_cortex.o ABSOLUTE
    ..\Drivers\STM32F1xx_HAL_Driver\Src\stm32f1xx_hal_dma.c 0x00000000   Number         0  stm32f1xx_hal_dma.o ABSOLUTE
    ..\Drivers\STM32F1xx_HAL_Driver\Src\stm32f1xx_hal_exti.c 0x00000000   Number         0  stm32f1xx_hal_exti.o ABSOLUTE
    ..\Drivers\STM32F1xx_HAL_Driver\Src\stm32f1xx_hal_flash.c 0x00000000   Number         0  stm32f1xx_hal_flash.o ABSOLUTE
    ..\Drivers\STM32F1xx_HAL_Driver\Src\stm32f1xx_hal_flash_ex.c 0x00000000   Number         0  stm32f1xx_hal_flash_ex.o ABSOLUTE
    ..\Drivers\STM32F1xx_HAL_Driver\Src\stm32f1xx_hal_gpio.c 0x00000000   Number         0  stm32f1xx_hal_gpio.o ABSOLUTE
    ..\Drivers\STM32F1xx_HAL_Driver\Src\stm32f1xx_hal_gpio_ex.c 0x00000000   Number         0  stm32f1xx_hal_gpio_ex.o ABSOLUTE
    ..\Drivers\STM32F1xx_HAL_Driver\Src\stm32f1xx_hal_pwr.c 0x00000000   Number         0  stm32f1xx_hal_pwr.o ABSOLUTE
    ..\Drivers\STM32F1xx_HAL_Driver\Src\stm32f1xx_hal_rcc.c 0x00000000   Number         0  stm32f1xx_hal_rcc.o ABSOLUTE
    ..\Drivers\STM32F1xx_HAL_Driver\Src\stm32f1xx_hal_rcc_ex.c 0x00000000   Number         0  stm32f1xx_hal_rcc_ex.o ABSOLUTE
    ..\Drivers\STM32F1xx_HAL_Driver\Src\stm32f1xx_hal_tim.c 0x00000000   Number         0  stm32f1xx_hal_tim.o ABSOLUTE
    ..\Drivers\STM32F1xx_HAL_Driver\Src\stm32f1xx_hal_tim_ex.c 0x00000000   Number         0  stm32f1xx_hal_tim_ex.o ABSOLUTE
    ..\Drivers\STM32F1xx_HAL_Driver\Src\stm32f1xx_hal_uart.c 0x00000000   Number         0  stm32f1xx_hal_uart.o ABSOLUTE
    ..\USR\LiDar\LIDAR.c                     0x00000000   Number         0  lidar.o ABSOLUTE
    ..\USR\Motor\MOTOR.c                     0x00000000   Number         0  motor.o ABSOLUTE
    ..\USR\RingBuff\RINGBUFF.c               0x00000000   Number         0  ringbuff.o ABSOLUTE
    ..\USR\SERVO\SERVO.c                     0x00000000   Number         0  servo.o ABSOLUTE
    ..\USR\Usart\USART.c                     0x00000000   Number         0  usart.o ABSOLUTE
    ..\USR\mmWave\MMWAVE.c                   0x00000000   Number         0  mmwave.o ABSOLUTE
    ..\USR\obstacle_avoidance\OA.c           0x00000000   Number         0  oa.o ABSOLUTE
    ..\\USR\\LiDar\\LIDAR.c                  0x00000000   Number         0  lidar.o ABSOLUTE
    ..\\USR\\Motor\\MOTOR.c                  0x00000000   Number         0  motor.o ABSOLUTE
    ..\\USR\\RingBuff\\RINGBUFF.c            0x00000000   Number         0  ringbuff.o ABSOLUTE
    ..\\USR\\SERVO\\SERVO.c                  0x00000000   Number         0  servo.o ABSOLUTE
    ..\\USR\\Usart\\USART.c                  0x00000000   Number         0  usart.o ABSOLUTE
    ..\\USR\\mmWave\\MMWAVE.c                0x00000000   Number         0  mmwave.o ABSOLUTE
    ..\\USR\\obstacle_avoidance\\OA.c        0x00000000   Number         0  oa.o ABSOLUTE
    cdrcmple.s                               0x00000000   Number         0  cdrcmple.o ABSOLUTE
    dc.s                                     0x00000000   Number         0  dc.o ABSOLUTE
    handlers.s                               0x00000000   Number         0  handlers.o ABSOLUTE
    init.s                                   0x00000000   Number         0  init.o ABSOLUTE
    startup_stm32f103xe.s                    0x00000000   Number         0  startup_stm32f103xe.o ABSOLUTE
    RESET                                    0x08000000   Section      304  startup_stm32f103xe.o(RESET)
    .ARM.Collect$$$$00000000                 0x08000130   Section        0  entry.o(.ARM.Collect$$$$00000000)
    .ARM.Collect$$$$00000001                 0x08000130   Section        4  entry2.o(.ARM.Collect$$$$00000001)
    .ARM.Collect$$$$00000004                 0x08000134   Section        4  entry5.o(.ARM.Collect$$$$00000004)
    .ARM.Collect$$$$00000008                 0x08000138   Section        0  entry7b.o(.ARM.Collect$$$$00000008)
    .ARM.Collect$$$$0000000A                 0x08000138   Section        0  entry8b.o(.ARM.Collect$$$$0000000A)
    .ARM.Collect$$$$0000000B                 0x08000138   Section        8  entry9a.o(.ARM.Collect$$$$0000000B)
    .ARM.Collect$$$$0000000D                 0x08000140   Section        0  entry10a.o(.ARM.Collect$$$$0000000D)
    .ARM.Collect$$$$0000000F                 0x08000140   Section        0  entry11a.o(.ARM.Collect$$$$0000000F)
    .ARM.Collect$$$$00002712                 0x08000140   Section        4  entry2.o(.ARM.Collect$$$$00002712)
    __lit__00000000                          0x08000140   Data           4  entry2.o(.ARM.Collect$$$$00002712)
    .text                                    0x08000144   Section       36  startup_stm32f103xe.o(.text)
    .text                                    0x08000168   Section        0  llushr.o(.text)
    .text                                    0x08000188   Section        0  memseta.o(.text)
    .text                                    0x080001ac   Section        0  dmul.o(.text)
    .text                                    0x08000290   Section        0  dfltui.o(.text)
    .text                                    0x080002aa   Section        0  dfixui.o(.text)
    .text                                    0x080002dc   Section        0  uidiv.o(.text)
    .text                                    0x08000308   Section        0  iusefp.o(.text)
    .text                                    0x08000308   Section        0  depilogue.o(.text)
    .text                                    0x080003c4   Section       36  init.o(.text)
    .text                                    0x080003e8   Section        0  llshl.o(.text)
    i.BusFault_Handler                       0x08000406   Section        0  stm32f1xx_it.o(i.BusFault_Handler)
    i.DebugMon_Handler                       0x08000408   Section        0  stm32f1xx_it.o(i.DebugMon_Handler)
    i.Error_Handler                          0x0800040c   Section        0  main.o(i.Error_Handler)
    i.HAL_DMA_Abort_IT                       0x0800043c   Section        0  stm32f1xx_hal_dma.o(i.HAL_DMA_Abort_IT)
    i.HAL_Delay                              0x0800056c   Section        0  stm32f1xx_hal.o(i.HAL_Delay)
    i.HAL_GPIO_Init                          0x08000590   Section        0  stm32f1xx_hal_gpio.o(i.HAL_GPIO_Init)
    i.HAL_GPIO_TogglePin                     0x08000788   Section        0  stm32f1xx_hal_gpio.o(i.HAL_GPIO_TogglePin)
    i.HAL_GPIO_WritePin                      0x08000796   Section        0  stm32f1xx_hal_gpio.o(i.HAL_GPIO_WritePin)
    i.HAL_GetTick                            0x080007a0   Section        0  stm32f1xx_hal.o(i.HAL_GetTick)
    i.HAL_IncTick                            0x080007ac   Section        0  stm32f1xx_hal.o(i.HAL_IncTick)
    i.HAL_Init                               0x080007bc   Section        0  stm32f1xx_hal.o(i.HAL_Init)
    i.HAL_InitTick                           0x080007e0   Section        0  stm32f1xx_hal.o(i.HAL_InitTick)
    i.HAL_MspInit                            0x08000820   Section        0  stm32f1xx_hal_msp.o(i.HAL_MspInit)
    i.HAL_NVIC_EnableIRQ                     0x08000864   Section        0  stm32f1xx_hal_cortex.o(i.HAL_NVIC_EnableIRQ)
    i.HAL_NVIC_SetPriority                   0x08000880   Section        0  stm32f1xx_hal_cortex.o(i.HAL_NVIC_SetPriority)
    i.HAL_NVIC_SetPriorityGrouping           0x080008c0   Section        0  stm32f1xx_hal_cortex.o(i.HAL_NVIC_SetPriorityGrouping)
    i.HAL_RCC_ClockConfig                    0x080008e4   Section        0  stm32f1xx_hal_rcc.o(i.HAL_RCC_ClockConfig)
    i.HAL_RCC_GetPCLK1Freq                   0x08000a10   Section        0  stm32f1xx_hal_rcc.o(i.HAL_RCC_GetPCLK1Freq)
    i.HAL_RCC_GetPCLK2Freq                   0x08000a30   Section        0  stm32f1xx_hal_rcc.o(i.HAL_RCC_GetPCLK2Freq)
    i.HAL_RCC_GetSysClockFreq                0x08000a50   Section        0  stm32f1xx_hal_rcc.o(i.HAL_RCC_GetSysClockFreq)
    i.HAL_RCC_OscConfig                      0x08000abc   Section        0  stm32f1xx_hal_rcc.o(i.HAL_RCC_OscConfig)
    i.HAL_SYSTICK_Config                     0x08000ddc   Section        0  stm32f1xx_hal_cortex.o(i.HAL_SYSTICK_Config)
    i.HAL_TIMEx_BreakCallback                0x08000e04   Section        0  stm32f1xx_hal_tim_ex.o(i.HAL_TIMEx_BreakCallback)
    i.HAL_TIMEx_CommutCallback               0x08000e06   Section        0  stm32f1xx_hal_tim_ex.o(i.HAL_TIMEx_CommutCallback)
    i.HAL_TIMEx_MasterConfigSynchronization  0x08000e08   Section        0  stm32f1xx_hal_tim_ex.o(i.HAL_TIMEx_MasterConfigSynchronization)
    i.HAL_TIM_Base_Init                      0x08000e4a   Section        0  stm32f1xx_hal_tim.o(i.HAL_TIM_Base_Init)
    i.HAL_TIM_Base_MspInit                   0x08000e80   Section        0  stm32f1xx_hal_msp.o(i.HAL_TIM_Base_MspInit)
    i.HAL_TIM_Base_Start_IT                  0x08000ee4   Section        0  stm32f1xx_hal_tim.o(i.HAL_TIM_Base_Start_IT)
    i.HAL_TIM_ConfigClockSource              0x08000f06   Section        0  stm32f1xx_hal_tim.o(i.HAL_TIM_ConfigClockSource)
    i.HAL_TIM_IC_CaptureCallback             0x08000fdc   Section        0  stm32f1xx_hal_tim.o(i.HAL_TIM_IC_CaptureCallback)
    i.HAL_TIM_IRQHandler                     0x08000fde   Section        0  stm32f1xx_hal_tim.o(i.HAL_TIM_IRQHandler)
    i.HAL_TIM_MspPostInit                    0x08001144   Section        0  stm32f1xx_hal_msp.o(i.HAL_TIM_MspPostInit)
    i.HAL_TIM_OC_DelayElapsedCallback        0x080011b4   Section        0  stm32f1xx_hal_tim.o(i.HAL_TIM_OC_DelayElapsedCallback)
    i.HAL_TIM_PWM_ConfigChannel              0x080011b6   Section        0  stm32f1xx_hal_tim.o(i.HAL_TIM_PWM_ConfigChannel)
    i.HAL_TIM_PWM_Init                       0x08001286   Section        0  stm32f1xx_hal_tim.o(i.HAL_TIM_PWM_Init)
    i.HAL_TIM_PWM_MspInit                    0x080012bc   Section        0  stm32f1xx_hal_tim.o(i.HAL_TIM_PWM_MspInit)
    i.HAL_TIM_PWM_PulseFinishedCallback      0x080012be   Section        0  stm32f1xx_hal_tim.o(i.HAL_TIM_PWM_PulseFinishedCallback)
    i.HAL_TIM_PWM_Start                      0x080012c0   Section        0  stm32f1xx_hal_tim.o(i.HAL_TIM_PWM_Start)
    i.HAL_TIM_PeriodElapsedCallback          0x08001304   Section        0  main.o(i.HAL_TIM_PeriodElapsedCallback)
    i.HAL_TIM_TriggerCallback                0x080013e4   Section        0  stm32f1xx_hal_tim.o(i.HAL_TIM_TriggerCallback)
    i.HAL_UART_ErrorCallback                 0x080013e6   Section        0  stm32f1xx_hal_uart.o(i.HAL_UART_ErrorCallback)
    i.HAL_UART_GetState                      0x080013e8   Section        0  stm32f1xx_hal_uart.o(i.HAL_UART_GetState)
    i.HAL_UART_IRQHandler                    0x080013f4   Section        0  stm32f1xx_hal_uart.o(i.HAL_UART_IRQHandler)
    i.HAL_UART_Init                          0x08001504   Section        0  stm32f1xx_hal_uart.o(i.HAL_UART_Init)
    i.HAL_UART_MspInit                       0x08001568   Section        0  stm32f1xx_hal_msp.o(i.HAL_UART_MspInit)
    i.HAL_UART_Receive_IT                    0x080016a4   Section        0  stm32f1xx_hal_uart.o(i.HAL_UART_Receive_IT)
    i.HAL_UART_RxCpltCallback                0x080016f8   Section        0  usart.o(i.HAL_UART_RxCpltCallback)
    i.HAL_UART_Transmit                      0x0800174c   Section        0  stm32f1xx_hal_uart.o(i.HAL_UART_Transmit)
    i.HAL_UART_TxCpltCallback                0x08001806   Section        0  stm32f1xx_hal_uart.o(i.HAL_UART_TxCpltCallback)
    i.HardFault_Handler                      0x08001808   Section        0  stm32f1xx_it.o(i.HardFault_Handler)
    i.MX_GPIO_Init                           0x0800180c   Section        0  main.o(i.MX_GPIO_Init)
    MX_GPIO_Init                             0x0800180d   Thumb Code   160  main.o(i.MX_GPIO_Init)
    i.MX_TIM3_Init                           0x080018b8   Section        0  main.o(i.MX_TIM3_Init)
    MX_TIM3_Init                             0x080018b9   Thumb Code   188  main.o(i.MX_TIM3_Init)
    i.MX_TIM4_Init                           0x0800197c   Section        0  main.o(i.MX_TIM4_Init)
    MX_TIM4_Init                             0x0800197d   Thumb Code    94  main.o(i.MX_TIM4_Init)
    i.MX_USART2_UART_Init                    0x080019e4   Section        0  main.o(i.MX_USART2_UART_Init)
    MX_USART2_UART_Init                      0x080019e5   Thumb Code    54  main.o(i.MX_USART2_UART_Init)
    i.MX_USART3_UART_Init                    0x08001a28   Section        0  main.o(i.MX_USART3_UART_Init)
    MX_USART3_UART_Init                      0x08001a29   Thumb Code    54  main.o(i.MX_USART3_UART_Init)
    i.MemManage_Handler                      0x08001a6c   Section        0  stm32f1xx_it.o(i.MemManage_Handler)
    i.NMI_Handler                            0x08001a6e   Section        0  stm32f1xx_it.o(i.NMI_Handler)
    i.PendSV_Handler                         0x08001a70   Section        0  stm32f1xx_it.o(i.PendSV_Handler)
    i.Read_ringBuff                          0x08001a72   Section        0  ringbuff.o(i.Read_ringBuff)
    i.RingBuff_Init                          0x08001a9c   Section        0  ringbuff.o(i.RingBuff_Init)
    i.SVC_Handler                            0x08001aa6   Section        0  stm32f1xx_it.o(i.SVC_Handler)
    i.SysTick_Handler                        0x08001aa8   Section        0  stm32f1xx_it.o(i.SysTick_Handler)
    i.SystemClock_Config                     0x08001aac   Section        0  main.o(i.SystemClock_Config)
    i.SystemInit                             0x08001afc   Section        0  system_stm32f1xx.o(i.SystemInit)
    i.TIM3_IRQHandler                        0x08001b44   Section        0  stm32f1xx_it.o(i.TIM3_IRQHandler)
    i.TIM4_IRQHandler                        0x08001b50   Section        0  stm32f1xx_it.o(i.TIM4_IRQHandler)
    i.TIM_Base_SetConfig                     0x08001b5c   Section        0  stm32f1xx_hal_tim.o(i.TIM_Base_SetConfig)
    i.TIM_CCxChannelCmd                      0x08001be8   Section        0  stm32f1xx_hal_tim.o(i.TIM_CCxChannelCmd)
    i.TIM_ETR_SetConfig                      0x08001c02   Section        0  stm32f1xx_hal_tim.o(i.TIM_ETR_SetConfig)
    i.TIM_ITRx_SetConfig                     0x08001c16   Section        0  stm32f1xx_hal_tim.o(i.TIM_ITRx_SetConfig)
    TIM_ITRx_SetConfig                       0x08001c17   Thumb Code    16  stm32f1xx_hal_tim.o(i.TIM_ITRx_SetConfig)
    i.TIM_OC1_SetConfig                      0x08001c28   Section        0  stm32f1xx_hal_tim.o(i.TIM_OC1_SetConfig)
    TIM_OC1_SetConfig                        0x08001c29   Thumb Code    88  stm32f1xx_hal_tim.o(i.TIM_OC1_SetConfig)
    i.TIM_OC2_SetConfig                      0x08001c88   Section        0  stm32f1xx_hal_tim.o(i.TIM_OC2_SetConfig)
    i.TIM_OC3_SetConfig                      0x08001cf4   Section        0  stm32f1xx_hal_tim.o(i.TIM_OC3_SetConfig)
    TIM_OC3_SetConfig                        0x08001cf5   Thumb Code    96  stm32f1xx_hal_tim.o(i.TIM_OC3_SetConfig)
    i.TIM_OC4_SetConfig                      0x08001d5c   Section        0  stm32f1xx_hal_tim.o(i.TIM_OC4_SetConfig)
    TIM_OC4_SetConfig                        0x08001d5d   Thumb Code    70  stm32f1xx_hal_tim.o(i.TIM_OC4_SetConfig)
    i.TIM_TI1_ConfigInputStage               0x08001dac   Section        0  stm32f1xx_hal_tim.o(i.TIM_TI1_ConfigInputStage)
    TIM_TI1_ConfigInputStage                 0x08001dad   Thumb Code    34  stm32f1xx_hal_tim.o(i.TIM_TI1_ConfigInputStage)
    i.TIM_TI2_ConfigInputStage               0x08001dce   Section        0  stm32f1xx_hal_tim.o(i.TIM_TI2_ConfigInputStage)
    TIM_TI2_ConfigInputStage                 0x08001dcf   Thumb Code    36  stm32f1xx_hal_tim.o(i.TIM_TI2_ConfigInputStage)
    i.UART_DMAAbortOnError                   0x08001df2   Section        0  stm32f1xx_hal_uart.o(i.UART_DMAAbortOnError)
    UART_DMAAbortOnError                     0x08001df3   Thumb Code    16  stm32f1xx_hal_uart.o(i.UART_DMAAbortOnError)
    i.UART_EndRxTransfer                     0x08001e02   Section        0  stm32f1xx_hal_uart.o(i.UART_EndRxTransfer)
    UART_EndRxTransfer                       0x08001e03   Thumb Code    28  stm32f1xx_hal_uart.o(i.UART_EndRxTransfer)
    i.UART_Receive_IT                        0x08001e1e   Section        0  stm32f1xx_hal_uart.o(i.UART_Receive_IT)
    UART_Receive_IT                          0x08001e1f   Thumb Code   150  stm32f1xx_hal_uart.o(i.UART_Receive_IT)
    i.UART_SetConfig                         0x08001eb4   Section        0  stm32f1xx_hal_uart.o(i.UART_SetConfig)
    UART_SetConfig                           0x08001eb5   Thumb Code   178  stm32f1xx_hal_uart.o(i.UART_SetConfig)
    i.UART_Transmit_IT                       0x08001f6c   Section        0  stm32f1xx_hal_uart.o(i.UART_Transmit_IT)
    UART_Transmit_IT                         0x08001f6d   Thumb Code    98  stm32f1xx_hal_uart.o(i.UART_Transmit_IT)
    i.UART_WaitOnFlagUntilTimeout            0x08001fce   Section        0  stm32f1xx_hal_uart.o(i.UART_WaitOnFlagUntilTimeout)
    UART_WaitOnFlagUntilTimeout              0x08001fcf   Thumb Code   100  stm32f1xx_hal_uart.o(i.UART_WaitOnFlagUntilTimeout)
    i.USART2_IRQHandler                      0x08002034   Section        0  stm32f1xx_it.o(i.USART2_IRQHandler)
    i.USART3_IRQHandler                      0x08002078   Section        0  stm32f1xx_it.o(i.USART3_IRQHandler)
    i.UsageFault_Handler                     0x080020bc   Section        0  stm32f1xx_it.o(i.UsageFault_Handler)
    i.WriteRingBuff                          0x080020be   Section        0  ringbuff.o(i.WriteRingBuff)
    i.__0printf$1                            0x080020e8   Section        0  printf1.o(i.__0printf$1)
    i.__NVIC_SetPriority                     0x08002108   Section        0  stm32f1xx_hal_cortex.o(i.__NVIC_SetPriority)
    __NVIC_SetPriority                       0x08002109   Thumb Code    32  stm32f1xx_hal_cortex.o(i.__NVIC_SetPriority)
    i.__scatterload_copy                     0x08002128   Section       14  handlers.o(i.__scatterload_copy)
    i.__scatterload_null                     0x08002136   Section        2  handlers.o(i.__scatterload_null)
    i.__scatterload_zeroinit                 0x08002138   Section       14  handlers.o(i.__scatterload_zeroinit)
    i._printf_core                           0x08002148   Section        0  printf1.o(i._printf_core)
    _printf_core                             0x08002149   Thumb Code   336  printf1.o(i._printf_core)
    i.backward                               0x0800229c   Section        0  motor.o(i.backward)
    i.convert_servo_angle                    0x080022d8   Section        0  servo.o(i.convert_servo_angle)
    i.forward                                0x080022e8   Section        0  motor.o(i.forward)
    i.fputc                                  0x08002328   Section        0  usart.o(i.fputc)
    i.initialize_servo                       0x08002340   Section        0  servo.o(i.initialize_servo)
    i.left_steel                             0x08002390   Section        0  motor.o(i.left_steel)
    i.left_wheel_backward                    0x080023ac   Section        0  motor.o(i.left_wheel_backward)
    i.left_wheel_forward                     0x080023d4   Section        0  motor.o(i.left_wheel_forward)
    i.left_wheel_stop                        0x080023fc   Section        0  motor.o(i.left_wheel_stop)
    i.main                                   0x0800241c   Section        0  main.o(i.main)
    i.obstacle_avoidance                     0x080024ac   Section        0  oa.o(i.obstacle_avoidance)
    i.obstacle_detection                     0x08002584   Section        0  oa.o(i.obstacle_detection)
    i.read_one_frame                         0x0800275c   Section        0  lidar.o(i.read_one_frame)
    i.right_steel                            0x080027f0   Section        0  motor.o(i.right_steel)
    i.right_wheel_backward                   0x0800280c   Section        0  motor.o(i.right_wheel_backward)
    i.right_wheel_forward                    0x08002838   Section        0  motor.o(i.right_wheel_forward)
    i.right_wheel_stop                       0x08002860   Section        0  motor.o(i.right_wheel_stop)
    i.spin_servo                             0x08002884   Section        0  servo.o(i.spin_servo)
    i.stop                                   0x080028c8   Section        0  motor.o(i.stop)
    i.turn                                   0x080028e4   Section        0  motor.o(i.turn)
    .constdata                               0x08002910   Section       16  system_stm32f1xx.o(.constdata)
    .constdata                               0x08002920   Section        8  system_stm32f1xx.o(.constdata)
    .data                                    0x20000000   Section        2  main.o(.data)
    .data                                    0x20000004   Section       12  stm32f1xx_hal.o(.data)
    .data                                    0x20000010   Section        4  system_stm32f1xx.o(.data)
    .data                                    0x20000014   Section        1  usart.o(.data)
    .data                                    0x20000015   Section        4  lidar.o(.data)
    .data                                    0x20000019   Section        9  lidar.o(.data)
    .data                                    0x20000022   Section        1  servo.o(.data)
    .data                                    0x20000023   Section        1  servo.o(.data)
    .data                                    0x20000024   Section        1  servo.o(.data)
    .data                                    0x20000025   Section        1  servo.o(.data)
    .data                                    0x20000026   Section        1  servo.o(.data)
    .data                                    0x20000028   Section       11  oa.o(.data)
    .data                                    0x20000034   Section        6  oa.o(.data)
    .data                                    0x2000003c   Section        4  stdout.o(.data)
    .bss                                     0x20000040   Section      320  main.o(.bss)
    .bss                                     0x20000180   Section       46  ringbuff.o(.bss)
    .bss                                     0x200001ae   Section       46  ringbuff.o(.bss)
    .bss                                     0x200001dc   Section       60  oa.o(.bss)
    STACK                                    0x20000218   Section     1024  startup_stm32f103xe.o(STACK)

    Global Symbols

    Symbol Name                              Value     Ov Type        Size  Object(Section)

    BuildAttributes$$THM_ISAv4$P$D$K$B$S$PE$A:L22UL41UL21$X:L11$S22US41US21$IEEE1$IW$USESV6$~STKCKD$USESV7$~SHL$OTIME$ROPI$EBA8$MICROLIB$REQ8$PRES8$EABIv2 0x00000000   Number         0  anon$$obj.o ABSOLUTE
    __ARM_use_no_argv                        0x00000000   Number         0  main.o ABSOLUTE
    _printf_a                                0x00000000   Number         0  stubs.o ABSOLUTE
    _printf_c                                0x00000000   Number         0  stubs.o ABSOLUTE
    _printf_charcount                        0x00000000   Number         0  stubs.o ABSOLUTE
    _printf_d                                0x00000000   Number         0  stubs.o ABSOLUTE
    _printf_e                                0x00000000   Number         0  stubs.o ABSOLUTE
    _printf_f                                0x00000000   Number         0  stubs.o ABSOLUTE
    _printf_flags                            0x00000000   Number         0  stubs.o ABSOLUTE
    _printf_fp_dec                           0x00000000   Number         0  stubs.o ABSOLUTE
    _printf_fp_hex                           0x00000000   Number         0  stubs.o ABSOLUTE
    _printf_g                                0x00000000   Number         0  stubs.o ABSOLUTE
    _printf_i                                0x00000000   Number         0  stubs.o ABSOLUTE
    _printf_int_dec                          0x00000000   Number         0  stubs.o ABSOLUTE
    _printf_l                                0x00000000   Number         0  stubs.o ABSOLUTE
    _printf_lc                               0x00000000   Number         0  stubs.o ABSOLUTE
    _printf_ll                               0x00000000   Number         0  stubs.o ABSOLUTE
    _printf_lld                              0x00000000   Number         0  stubs.o ABSOLUTE
    _printf_lli                              0x00000000   Number         0  stubs.o ABSOLUTE
    _printf_llo                              0x00000000   Number         0  stubs.o ABSOLUTE
    _printf_llu                              0x00000000   Number         0  stubs.o ABSOLUTE
    _printf_llx                              0x00000000   Number         0  stubs.o ABSOLUTE
    _printf_longlong_dec                     0x00000000   Number         0  stubs.o ABSOLUTE
    _printf_longlong_hex                     0x00000000   Number         0  stubs.o ABSOLUTE
    _printf_longlong_oct                     0x00000000   Number         0  stubs.o ABSOLUTE
    _printf_ls                               0x00000000   Number         0  stubs.o ABSOLUTE
    _printf_mbtowc                           0x00000000   Number         0  stubs.o ABSOLUTE
    _printf_n                                0x00000000   Number         0  stubs.o ABSOLUTE
    _printf_o                                0x00000000   Number         0  stubs.o ABSOLUTE
    _printf_p                                0x00000000   Number         0  stubs.o ABSOLUTE
    _printf_percent                          0x00000000   Number         0  stubs.o ABSOLUTE
    _printf_pre_padding                      0x00000000   Number         0  stubs.o ABSOLUTE
    _printf_return_value                     0x00000000   Number         0  stubs.o ABSOLUTE
    _printf_s                                0x00000000   Number         0  stubs.o ABSOLUTE
    _printf_sizespec                         0x00000000   Number         0  stubs.o ABSOLUTE
    _printf_str                              0x00000000   Number         0  stubs.o ABSOLUTE
    _printf_truncate_signed                  0x00000000   Number         0  stubs.o ABSOLUTE
    _printf_truncate_unsigned                0x00000000   Number         0  stubs.o ABSOLUTE
    _printf_u                                0x00000000   Number         0  stubs.o ABSOLUTE
    _printf_wc                               0x00000000   Number         0  stubs.o ABSOLUTE
    _printf_wctomb                           0x00000000   Number         0  stubs.o ABSOLUTE
    _printf_widthprec                        0x00000000   Number         0  stubs.o ABSOLUTE
    _printf_x                                0x00000000   Number         0  stubs.o ABSOLUTE
    __cpp_initialize__aeabi_                  - Undefined Weak Reference
    __cxa_finalize                            - Undefined Weak Reference
    __decompress                              - Undefined Weak Reference
    _clock_init                               - Undefined Weak Reference
    _microlib_exit                            - Undefined Weak Reference
    __Vectors_Size                           0x00000130   Number         0  startup_stm32f103xe.o ABSOLUTE
    __Vectors                                0x08000000   Data           4  startup_stm32f103xe.o(RESET)
    __Vectors_End                            0x08000130   Data           0  startup_stm32f103xe.o(RESET)
    __main                                   0x08000131   Thumb Code     0  entry.o(.ARM.Collect$$$$00000000)
    _main_stk                                0x08000131   Thumb Code     0  entry2.o(.ARM.Collect$$$$00000001)
    _main_scatterload                        0x08000135   Thumb Code     0  entry5.o(.ARM.Collect$$$$00000004)
    __main_after_scatterload                 0x08000139   Thumb Code     0  entry5.o(.ARM.Collect$$$$00000004)
    _main_clock                              0x08000139   Thumb Code     0  entry7b.o(.ARM.Collect$$$$00000008)
    _main_cpp_init                           0x08000139   Thumb Code     0  entry8b.o(.ARM.Collect$$$$0000000A)
    _main_init                               0x08000139   Thumb Code     0  entry9a.o(.ARM.Collect$$$$0000000B)
    __rt_final_cpp                           0x08000141   Thumb Code     0  entry10a.o(.ARM.Collect$$$$0000000D)
    __rt_final_exit                          0x08000141   Thumb Code     0  entry11a.o(.ARM.Collect$$$$0000000F)
    Reset_Handler                            0x08000145   Thumb Code     8  startup_stm32f103xe.o(.text)
    ADC1_2_IRQHandler                        0x0800015f   Thumb Code     0  startup_stm32f103xe.o(.text)
    ADC3_IRQHandler                          0x0800015f   Thumb Code     0  startup_stm32f103xe.o(.text)
    CAN1_RX1_IRQHandler                      0x0800015f   Thumb Code     0  startup_stm32f103xe.o(.text)
    CAN1_SCE_IRQHandler                      0x0800015f   Thumb Code     0  startup_stm32f103xe.o(.text)
    DMA1_Channel1_IRQHandler                 0x0800015f   Thumb Code     0  startup_stm32f103xe.o(.text)
    DMA1_Channel2_IRQHandler                 0x0800015f   Thumb Code     0  startup_stm32f103xe.o(.text)
    DMA1_Channel3_IRQHandler                 0x0800015f   Thumb Code     0  startup_stm32f103xe.o(.text)
    DMA1_Channel4_IRQHandler                 0x0800015f   Thumb Code     0  startup_stm32f103xe.o(.text)
    DMA1_Channel5_IRQHandler                 0x0800015f   Thumb Code     0  startup_stm32f103xe.o(.text)
    DMA1_Channel6_IRQHandler                 0x0800015f   Thumb Code     0  startup_stm32f103xe.o(.text)
    DMA1_Channel7_IRQHandler                 0x0800015f   Thumb Code     0  startup_stm32f103xe.o(.text)
    DMA2_Channel1_IRQHandler                 0x0800015f   Thumb Code     0  startup_stm32f103xe.o(.text)
    DMA2_Channel2_IRQHandler                 0x0800015f   Thumb Code     0  startup_stm32f103xe.o(.text)
    DMA2_Channel3_IRQHandler                 0x0800015f   Thumb Code     0  startup_stm32f103xe.o(.text)
    DMA2_Channel4_5_IRQHandler               0x0800015f   Thumb Code     0  startup_stm32f103xe.o(.text)
    EXTI0_IRQHandler                         0x0800015f   Thumb Code     0  startup_stm32f103xe.o(.text)
    EXTI15_10_IRQHandler                     0x0800015f   Thumb Code     0  startup_stm32f103xe.o(.text)
    EXTI1_IRQHandler                         0x0800015f   Thumb Code     0  startup_stm32f103xe.o(.text)
    EXTI2_IRQHandler                         0x0800015f   Thumb Code     0  startup_stm32f103xe.o(.text)
    EXTI3_IRQHandler                         0x0800015f   Thumb Code     0  startup_stm32f103xe.o(.text)
    EXTI4_IRQHandler                         0x0800015f   Thumb Code     0  startup_stm32f103xe.o(.text)
    EXTI9_5_IRQHandler                       0x0800015f   Thumb Code     0  startup_stm32f103xe.o(.text)
    FLASH_IRQHandler                         0x0800015f   Thumb Code     0  startup_stm32f103xe.o(.text)
    FSMC_IRQHandler                          0x0800015f   Thumb Code     0  startup_stm32f103xe.o(.text)
    I2C1_ER_IRQHandler                       0x0800015f   Thumb Code     0  startup_stm32f103xe.o(.text)
    I2C1_EV_IRQHandler                       0x0800015f   Thumb Code     0  startup_stm32f103xe.o(.text)
    I2C2_ER_IRQHandler                       0x0800015f   Thumb Code     0  startup_stm32f103xe.o(.text)
    I2C2_EV_IRQHandler                       0x0800015f   Thumb Code     0  startup_stm32f103xe.o(.text)
    PVD_IRQHandler                           0x0800015f   Thumb Code     0  startup_stm32f103xe.o(.text)
    RCC_IRQHandler                           0x0800015f   Thumb Code     0  startup_stm32f103xe.o(.text)
    RTC_Alarm_IRQHandler                     0x0800015f   Thumb Code     0  startup_stm32f103xe.o(.text)
    RTC_IRQHandler                           0x0800015f   Thumb Code     0  startup_stm32f103xe.o(.text)
    SDIO_IRQHandler                          0x0800015f   Thumb Code     0  startup_stm32f103xe.o(.text)
    SPI1_IRQHandler                          0x0800015f   Thumb Code     0  startup_stm32f103xe.o(.text)
    SPI2_IRQHandler                          0x0800015f   Thumb Code     0  startup_stm32f103xe.o(.text)
    SPI3_IRQHandler                          0x0800015f   Thumb Code     0  startup_stm32f103xe.o(.text)
    TAMPER_IRQHandler                        0x0800015f   Thumb Code     0  startup_stm32f103xe.o(.text)
    TIM1_BRK_IRQHandler                      0x0800015f   Thumb Code     0  startup_stm32f103xe.o(.text)
    TIM1_CC_IRQHandler                       0x0800015f   Thumb Code     0  startup_stm32f103xe.o(.text)
    TIM1_TRG_COM_IRQHandler                  0x0800015f   Thumb Code     0  startup_stm32f103xe.o(.text)
    TIM1_UP_IRQHandler                       0x0800015f   Thumb Code     0  startup_stm32f103xe.o(.text)
    TIM2_IRQHandler                          0x0800015f   Thumb Code     0  startup_stm32f103xe.o(.text)
    TIM5_IRQHandler                          0x0800015f   Thumb Code     0  startup_stm32f103xe.o(.text)
    TIM6_IRQHandler                          0x0800015f   Thumb Code     0  startup_stm32f103xe.o(.text)
    TIM7_IRQHandler                          0x0800015f   Thumb Code     0  startup_stm32f103xe.o(.text)
    TIM8_BRK_IRQHandler                      0x0800015f   Thumb Code     0  startup_stm32f103xe.o(.text)
    TIM8_CC_IRQHandler                       0x0800015f   Thumb Code     0  startup_stm32f103xe.o(.text)
    TIM8_TRG_COM_IRQHandler                  0x0800015f   Thumb Code     0  startup_stm32f103xe.o(.text)
    TIM8_UP_IRQHandler                       0x0800015f   Thumb Code     0  startup_stm32f103xe.o(.text)
    UART4_IRQHandler                         0x0800015f   Thumb Code     0  startup_stm32f103xe.o(.text)
    UART5_IRQHandler                         0x0800015f   Thumb Code     0  startup_stm32f103xe.o(.text)
    USART1_IRQHandler                        0x0800015f   Thumb Code     0  startup_stm32f103xe.o(.text)
    USBWakeUp_IRQHandler                     0x0800015f   Thumb Code     0  startup_stm32f103xe.o(.text)
    USB_HP_CAN1_TX_IRQHandler                0x0800015f   Thumb Code     0  startup_stm32f103xe.o(.text)
    USB_LP_CAN1_RX0_IRQHandler               0x0800015f   Thumb Code     0  startup_stm32f103xe.o(.text)
    WWDG_IRQHandler                          0x0800015f   Thumb Code     0  startup_stm32f103xe.o(.text)
    __aeabi_llsr                             0x08000169   Thumb Code    32  llushr.o(.text)
    _ll_ushift_r                             0x08000169   Thumb Code     0  llushr.o(.text)
    __aeabi_memset                           0x08000189   Thumb Code    14  memseta.o(.text)
    __aeabi_memset4                          0x08000189   Thumb Code     0  memseta.o(.text)
    __aeabi_memset8                          0x08000189   Thumb Code     0  memseta.o(.text)
    __aeabi_memclr                           0x08000197   Thumb Code     4  memseta.o(.text)
    __aeabi_memclr4                          0x08000197   Thumb Code     0  memseta.o(.text)
    __aeabi_memclr8                          0x08000197   Thumb Code     0  memseta.o(.text)
    _memset$wrapper                          0x0800019b   Thumb Code    18  memseta.o(.text)
    __aeabi_dmul                             0x080001ad   Thumb Code   228  dmul.o(.text)
    __aeabi_ui2d                             0x08000291   Thumb Code    26  dfltui.o(.text)
    __aeabi_d2uiz                            0x080002ab   Thumb Code    50  dfixui.o(.text)
    __aeabi_uidiv                            0x080002dd   Thumb Code     0  uidiv.o(.text)
    __aeabi_uidivmod                         0x080002dd   Thumb Code    44  uidiv.o(.text)
    __I$use$fp                               0x08000309   Thumb Code     0  iusefp.o(.text)
    _double_round                            0x08000309   Thumb Code    30  depilogue.o(.text)
    _double_epilogue                         0x08000327   Thumb Code   156  depilogue.o(.text)
    __scatterload                            0x080003c5   Thumb Code    28  init.o(.text)
    __scatterload_rt2                        0x080003c5   Thumb Code     0  init.o(.text)
    __aeabi_llsl                             0x080003e9   Thumb Code    30  llshl.o(.text)
    _ll_shift_l                              0x080003e9   Thumb Code     0  llshl.o(.text)
    BusFault_Handler                         0x08000407   Thumb Code     2  stm32f1xx_it.o(i.BusFault_Handler)
    DebugMon_Handler                         0x08000409   Thumb Code     2  stm32f1xx_it.o(i.DebugMon_Handler)
    Error_Handler                            0x0800040d   Thumb Code    42  main.o(i.Error_Handler)
    HAL_DMA_Abort_IT                         0x0800043d   Thumb Code   296  stm32f1xx_hal_dma.o(i.HAL_DMA_Abort_IT)
    HAL_Delay                                0x0800056d   Thumb Code    32  stm32f1xx_hal.o(i.HAL_Delay)
    HAL_GPIO_Init                            0x08000591   Thumb Code   462  stm32f1xx_hal_gpio.o(i.HAL_GPIO_Init)
    HAL_GPIO_TogglePin                       0x08000789   Thumb Code    14  stm32f1xx_hal_gpio.o(i.HAL_GPIO_TogglePin)
    HAL_GPIO_WritePin                        0x08000797   Thumb Code    10  stm32f1xx_hal_gpio.o(i.HAL_GPIO_WritePin)
    HAL_GetTick                              0x080007a1   Thumb Code     6  stm32f1xx_hal.o(i.HAL_GetTick)
    HAL_IncTick                              0x080007ad   Thumb Code    12  stm32f1xx_hal.o(i.HAL_IncTick)
    HAL_Init                                 0x080007bd   Thumb Code    32  stm32f1xx_hal.o(i.HAL_Init)
    HAL_InitTick                             0x080007e1   Thumb Code    54  stm32f1xx_hal.o(i.HAL_InitTick)
    HAL_MspInit                              0x08000821   Thumb Code    58  stm32f1xx_hal_msp.o(i.HAL_MspInit)
    HAL_NVIC_EnableIRQ                       0x08000865   Thumb Code    26  stm32f1xx_hal_cortex.o(i.HAL_NVIC_EnableIRQ)
    HAL_NVIC_SetPriority                     0x08000881   Thumb Code    60  stm32f1xx_hal_cortex.o(i.HAL_NVIC_SetPriority)
    HAL_NVIC_SetPriorityGrouping             0x080008c1   Thumb Code    26  stm32f1xx_hal_cortex.o(i.HAL_NVIC_SetPriorityGrouping)
    HAL_RCC_ClockConfig                      0x080008e5   Thumb Code   280  stm32f1xx_hal_rcc.o(i.HAL_RCC_ClockConfig)
    HAL_RCC_GetPCLK1Freq                     0x08000a11   Thumb Code    20  stm32f1xx_hal_rcc.o(i.HAL_RCC_GetPCLK1Freq)
    HAL_RCC_GetPCLK2Freq                     0x08000a31   Thumb Code    20  stm32f1xx_hal_rcc.o(i.HAL_RCC_GetPCLK2Freq)
    HAL_RCC_GetSysClockFreq                  0x08000a51   Thumb Code    74  stm32f1xx_hal_rcc.o(i.HAL_RCC_GetSysClockFreq)
    HAL_RCC_OscConfig                        0x08000abd   Thumb Code   778  stm32f1xx_hal_rcc.o(i.HAL_RCC_OscConfig)
    HAL_SYSTICK_Config                       0x08000ddd   Thumb Code    40  stm32f1xx_hal_cortex.o(i.HAL_SYSTICK_Config)
    HAL_TIMEx_BreakCallback                  0x08000e05   Thumb Code     2  stm32f1xx_hal_tim_ex.o(i.HAL_TIMEx_BreakCallback)
    HAL_TIMEx_CommutCallback                 0x08000e07   Thumb Code     2  stm32f1xx_hal_tim_ex.o(i.HAL_TIMEx_CommutCallback)
    HAL_TIMEx_MasterConfigSynchronization    0x08000e09   Thumb Code    66  stm32f1xx_hal_tim_ex.o(i.HAL_TIMEx_MasterConfigSynchronization)
    HAL_TIM_Base_Init                        0x08000e4b   Thumb Code    54  stm32f1xx_hal_tim.o(i.HAL_TIM_Base_Init)
    HAL_TIM_Base_MspInit                     0x08000e81   Thumb Code    86  stm32f1xx_hal_msp.o(i.HAL_TIM_Base_MspInit)
    HAL_TIM_Base_Start_IT                    0x08000ee5   Thumb Code    34  stm32f1xx_hal_tim.o(i.HAL_TIM_Base_Start_IT)
    HAL_TIM_ConfigClockSource                0x08000f07   Thumb Code   214  stm32f1xx_hal_tim.o(i.HAL_TIM_ConfigClockSource)
    HAL_TIM_IC_CaptureCallback               0x08000fdd   Thumb Code     2  stm32f1xx_hal_tim.o(i.HAL_TIM_IC_CaptureCallback)
    HAL_TIM_IRQHandler                       0x08000fdf   Thumb Code   358  stm32f1xx_hal_tim.o(i.HAL_TIM_IRQHandler)
    HAL_TIM_MspPostInit                      0x08001145   Thumb Code    94  stm32f1xx_hal_msp.o(i.HAL_TIM_MspPostInit)
    HAL_TIM_OC_DelayElapsedCallback          0x080011b5   Thumb Code     2  stm32f1xx_hal_tim.o(i.HAL_TIM_OC_DelayElapsedCallback)
    HAL_TIM_PWM_ConfigChannel                0x080011b7   Thumb Code   208  stm32f1xx_hal_tim.o(i.HAL_TIM_PWM_ConfigChannel)
    HAL_TIM_PWM_Init                         0x08001287   Thumb Code    54  stm32f1xx_hal_tim.o(i.HAL_TIM_PWM_Init)
    HAL_TIM_PWM_MspInit                      0x080012bd   Thumb Code     2  stm32f1xx_hal_tim.o(i.HAL_TIM_PWM_MspInit)
    HAL_TIM_PWM_PulseFinishedCallback        0x080012bf   Thumb Code     2  stm32f1xx_hal_tim.o(i.HAL_TIM_PWM_PulseFinishedCallback)
    HAL_TIM_PWM_Start                        0x080012c1   Thumb Code    58  stm32f1xx_hal_tim.o(i.HAL_TIM_PWM_Start)
    HAL_TIM_PeriodElapsedCallback            0x08001305   Thumb Code   180  main.o(i.HAL_TIM_PeriodElapsedCallback)
    HAL_TIM_TriggerCallback                  0x080013e5   Thumb Code     2  stm32f1xx_hal_tim.o(i.HAL_TIM_TriggerCallback)
    HAL_UART_ErrorCallback                   0x080013e7   Thumb Code     2  stm32f1xx_hal_uart.o(i.HAL_UART_ErrorCallback)
    HAL_UART_GetState                        0x080013e9   Thumb Code    10  stm32f1xx_hal_uart.o(i.HAL_UART_GetState)
    HAL_UART_IRQHandler                      0x080013f5   Thumb Code   266  stm32f1xx_hal_uart.o(i.HAL_UART_IRQHandler)
    HAL_UART_Init                            0x08001505   Thumb Code    98  stm32f1xx_hal_uart.o(i.HAL_UART_Init)
    HAL_UART_MspInit                         0x08001569   Thumb Code   288  stm32f1xx_hal_msp.o(i.HAL_UART_MspInit)
    HAL_UART_Receive_IT                      0x080016a5   Thumb Code    82  stm32f1xx_hal_uart.o(i.HAL_UART_Receive_IT)
    HAL_UART_RxCpltCallback                  0x080016f9   Thumb Code    58  usart.o(i.HAL_UART_RxCpltCallback)
    HAL_UART_Transmit                        0x0800174d   Thumb Code   186  stm32f1xx_hal_uart.o(i.HAL_UART_Transmit)
    HAL_UART_TxCpltCallback                  0x08001807   Thumb Code     2  stm32f1xx_hal_uart.o(i.HAL_UART_TxCpltCallback)
    HardFault_Handler                        0x08001809   Thumb Code     2  stm32f1xx_it.o(i.HardFault_Handler)
    MemManage_Handler                        0x08001a6d   Thumb Code     2  stm32f1xx_it.o(i.MemManage_Handler)
    NMI_Handler                              0x08001a6f   Thumb Code     2  stm32f1xx_it.o(i.NMI_Handler)
    PendSV_Handler                           0x08001a71   Thumb Code     2  stm32f1xx_it.o(i.PendSV_Handler)
    Read_ringBuff                            0x08001a73   Thumb Code    42  ringbuff.o(i.Read_ringBuff)
    RingBuff_Init                            0x08001a9d   Thumb Code    10  ringbuff.o(i.RingBuff_Init)
    SVC_Handler                              0x08001aa7   Thumb Code     2  stm32f1xx_it.o(i.SVC_Handler)
    SysTick_Handler                          0x08001aa9   Thumb Code     4  stm32f1xx_it.o(i.SysTick_Handler)
    SystemClock_Config                       0x08001aad   Thumb Code    80  main.o(i.SystemClock_Config)
    SystemInit                               0x08001afd   Thumb Code    56  system_stm32f1xx.o(i.SystemInit)
    TIM3_IRQHandler                          0x08001b45   Thumb Code     6  stm32f1xx_it.o(i.TIM3_IRQHandler)
    TIM4_IRQHandler                          0x08001b51   Thumb Code     6  stm32f1xx_it.o(i.TIM4_IRQHandler)
    TIM_Base_SetConfig                       0x08001b5d   Thumb Code   120  stm32f1xx_hal_tim.o(i.TIM_Base_SetConfig)
    TIM_CCxChannelCmd                        0x08001be9   Thumb Code    26  stm32f1xx_hal_tim.o(i.TIM_CCxChannelCmd)
    TIM_ETR_SetConfig                        0x08001c03   Thumb Code    20  stm32f1xx_hal_tim.o(i.TIM_ETR_SetConfig)
    TIM_OC2_SetConfig                        0x08001c89   Thumb Code    98  stm32f1xx_hal_tim.o(i.TIM_OC2_SetConfig)
    USART2_IRQHandler                        0x08002035   Thumb Code    56  stm32f1xx_it.o(i.USART2_IRQHandler)
    USART3_IRQHandler                        0x08002079   Thumb Code    56  stm32f1xx_it.o(i.USART3_IRQHandler)
    UsageFault_Handler                       0x080020bd   Thumb Code     2  stm32f1xx_it.o(i.UsageFault_Handler)
    WriteRingBuff                            0x080020bf   Thumb Code    42  ringbuff.o(i.WriteRingBuff)
    __0printf$1                              0x080020e9   Thumb Code    22  printf1.o(i.__0printf$1)
    __1printf$1                              0x080020e9   Thumb Code     0  printf1.o(i.__0printf$1)
    __2printf                                0x080020e9   Thumb Code     0  printf1.o(i.__0printf$1)
    __scatterload_copy                       0x08002129   Thumb Code    14  handlers.o(i.__scatterload_copy)
    __scatterload_null                       0x08002137   Thumb Code     2  handlers.o(i.__scatterload_null)
    __scatterload_zeroinit                   0x08002139   Thumb Code    14  handlers.o(i.__scatterload_zeroinit)
    backward                                 0x0800229d   Thumb Code    44  motor.o(i.backward)
    convert_servo_angle                      0x080022d9   Thumb Code    16  servo.o(i.convert_servo_angle)
    forward                                  0x080022e9   Thumb Code    44  motor.o(i.forward)
    fputc                                    0x08002329   Thumb Code    18  usart.o(i.fputc)
    initialize_servo                         0x08002341   Thumb Code    78  servo.o(i.initialize_servo)
    left_steel                               0x08002391   Thumb Code    20  motor.o(i.left_steel)
    left_wheel_backward                      0x080023ad   Thumb Code    32  motor.o(i.left_wheel_backward)
    left_wheel_forward                       0x080023d5   Thumb Code    32  motor.o(i.left_wheel_forward)
    left_wheel_stop                          0x080023fd   Thumb Code    28  motor.o(i.left_wheel_stop)
    main                                     0x0800241d   Thumb Code   126  main.o(i.main)
    obstacle_avoidance                       0x080024ad   Thumb Code   172  oa.o(i.obstacle_avoidance)
    obstacle_detection                       0x08002585   Thumb Code   444  oa.o(i.obstacle_detection)
    read_one_frame                           0x0800275d   Thumb Code   142  lidar.o(i.read_one_frame)
    right_steel                              0x080027f1   Thumb Code    20  motor.o(i.right_steel)
    right_wheel_backward                     0x0800280d   Thumb Code    34  motor.o(i.right_wheel_backward)
    right_wheel_forward                      0x08002839   Thumb Code    32  motor.o(i.right_wheel_forward)
    right_wheel_stop                         0x08002861   Thumb Code    30  motor.o(i.right_wheel_stop)
    spin_servo                               0x08002885   Thumb Code    64  servo.o(i.spin_servo)
    stop                                     0x080028c9   Thumb Code    20  motor.o(i.stop)
    turn                                     0x080028e5   Thumb Code    38  motor.o(i.turn)
    AHBPrescTable                            0x08002910   Data          16  system_stm32f1xx.o(.constdata)
    APBPrescTable                            0x08002920   Data           8  system_stm32f1xx.o(.constdata)
    Region$$Table$$Base                      0x08002928   Number         0  anon$$obj.o(Region$$Table)
    Region$$Table$$Limit                     0x08002948   Number         0  anon$$obj.o(Region$$Table)
    timer_counter                            0x20000000   Data           2  main.o(.data)
    uwTickFreq                               0x20000004   Data           1  stm32f1xx_hal.o(.data)
    uwTickPrio                               0x20000008   Data           4  stm32f1xx_hal.o(.data)
    uwTick                                   0x2000000c   Data           4  stm32f1xx_hal.o(.data)
    SystemCoreClock                          0x20000010   Data           4  system_stm32f1xx.o(.data)
    aRxBuffer                                0x20000014   Data           1  usart.o(.data)
    read_command                             0x20000015   Data           4  lidar.o(.data)
    frame_data                               0x20000019   Data           9  lidar.o(.data)
    start_angle_pos                          0x20000022   Data           1  servo.o(.data)
    end_angle_pos                            0x20000023   Data           1  servo.o(.data)
    servo_pos                                0x20000024   Data           1  servo.o(.data)
    last_servo_pos                           0x20000025   Data           1  servo.o(.data)
    direction                                0x20000026   Data           1  servo.o(.data)
    ZONE_FLAG                                0x20000028   Data           1  oa.o(.data)
    initial_array_fill_flag                  0x20000029   Data           1  oa.o(.data)
    raw_distance                             0x2000002a   Data           2  oa.o(.data)
    processed_distance                       0x2000002c   Data           2  oa.o(.data)
    deducted_obstacle_array                  0x2000002e   Data           5  oa.o(.data)
    lidar_avoid_params                       0x20000034   Data           6  oa.o(.data)
    __stdout                                 0x2000003c   Data           4  stdout.o(.data)
    htim3                                    0x20000040   Data          64  main.o(.bss)
    htim4                                    0x20000080   Data          64  main.o(.bss)
    huart1                                   0x200000c0   Data          64  main.o(.bss)
    huart2                                   0x20000100   Data          64  main.o(.bss)
    huart3                                   0x20000140   Data          64  main.o(.bss)
    RINGBUFF_UART2                           0x20000180   Data          46  ringbuff.o(.bss)
    RINGBUFF_UART3                           0x200001ae   Data          46  ringbuff.o(.bss)
    obstacle_array                           0x200001dc   Data          40  oa.o(.bss)
    obstacle_array_bitmask                   0x20000204   Data          20  oa.o(.bss)
    __initial_sp                             0x20000618   Data           0  startup_stm32f103xe.o(STACK)



==============================================================================

Memory Map of the image

  Image Entry point : 0x08000131

  Load Region LR_IROM1 (Base: 0x08000000, Size: 0x00002988, Max: 0x00040000, ABSOLUTE)

    Execution Region ER_IROM1 (Exec base: 0x08000000, Load base: 0x08000000, Size: 0x00002948, Max: 0x00040000, ABSOLUTE)

    Exec Addr    Load Addr    Size         Type   Attr      Idx    E Section Name        Object

    0x08000000   0x08000000   0x00000130   Data   RO            3    RESET               startup_stm32f103xe.o
    0x08000130   0x08000130   0x00000000   Code   RO         2994  * .ARM.Collect$$$$00000000  mc_w.l(entry.o)
    0x08000130   0x08000130   0x00000004   Code   RO         3284    .ARM.Collect$$$$00000001  mc_w.l(entry2.o)
    0x08000134   0x08000134   0x00000004   Code   RO         3287    .ARM.Collect$$$$00000004  mc_w.l(entry5.o)
    0x08000138   0x08000138   0x00000000   Code   RO         3289    .ARM.Collect$$$$00000008  mc_w.l(entry7b.o)
    0x08000138   0x08000138   0x00000000   Code   RO         3291    .ARM.Collect$$$$0000000A  mc_w.l(entry8b.o)
    0x08000138   0x08000138   0x00000008   Code   RO         3292    .ARM.Collect$$$$0000000B  mc_w.l(entry9a.o)
    0x08000140   0x08000140   0x00000000   Code   RO         3294    .ARM.Collect$$$$0000000D  mc_w.l(entry10a.o)
    0x08000140   0x08000140   0x00000000   Code   RO         3296    .ARM.Collect$$$$0000000F  mc_w.l(entry11a.o)
    0x08000140   0x08000140   0x00000004   Code   RO         3285    .ARM.Collect$$$$00002712  mc_w.l(entry2.o)
    0x08000144   0x08000144   0x00000024   Code   RO            4    .text               startup_stm32f103xe.o
    0x08000168   0x08000168   0x00000020   Code   RO         2997    .text               mc_w.l(llushr.o)
    0x08000188   0x08000188   0x00000024   Code   RO         2999    .text               mc_w.l(memseta.o)
    0x080001ac   0x080001ac   0x000000e4   Code   RO         3268    .text               mf_w.l(dmul.o)
    0x08000290   0x08000290   0x0000001a   Code   RO         3274    .text               mf_w.l(dfltui.o)
    0x080002aa   0x080002aa   0x00000032   Code   RO         3278    .text               mf_w.l(dfixui.o)
    0x080002dc   0x080002dc   0x0000002c   Code   RO         3299    .text               mc_w.l(uidiv.o)
    0x08000308   0x08000308   0x00000000   Code   RO         3303    .text               mc_w.l(iusefp.o)
    0x08000308   0x08000308   0x000000ba   Code   RO         3306    .text               mf_w.l(depilogue.o)
    0x080003c2   0x080003c2   0x00000002   PAD
    0x080003c4   0x080003c4   0x00000024   Code   RO         3314    .text               mc_w.l(init.o)
    0x080003e8   0x080003e8   0x0000001e   Code   RO         3316    .text               mc_w.l(llshl.o)
    0x08000406   0x08000406   0x00000002   Code   RO          202    i.BusFault_Handler  stm32f1xx_it.o
    0x08000408   0x08000408   0x00000002   Code   RO          203    i.DebugMon_Handler  stm32f1xx_it.o
    0x0800040a   0x0800040a   0x00000002   PAD
    0x0800040c   0x0800040c   0x00000030   Code   RO           13    i.Error_Handler     main.o
    0x0800043c   0x0800043c   0x00000130   Code   RO         1704    i.HAL_DMA_Abort_IT  stm32f1xx_hal_dma.o
    0x0800056c   0x0800056c   0x00000024   Code   RO         1331    i.HAL_Delay         stm32f1xx_hal.o
    0x08000590   0x08000590   0x000001f8   Code   RO         1639    i.HAL_GPIO_Init     stm32f1xx_hal_gpio.o
    0x08000788   0x08000788   0x0000000e   Code   RO         1642    i.HAL_GPIO_TogglePin  stm32f1xx_hal_gpio.o
    0x08000796   0x08000796   0x0000000a   Code   RO         1643    i.HAL_GPIO_WritePin  stm32f1xx_hal_gpio.o
    0x080007a0   0x080007a0   0x0000000c   Code   RO         1335    i.HAL_GetTick       stm32f1xx_hal.o
    0x080007ac   0x080007ac   0x00000010   Code   RO         1341    i.HAL_IncTick       stm32f1xx_hal.o
    0x080007bc   0x080007bc   0x00000024   Code   RO         1342    i.HAL_Init          stm32f1xx_hal.o
    0x080007e0   0x080007e0   0x00000040   Code   RO         1343    i.HAL_InitTick      stm32f1xx_hal.o
    0x08000820   0x08000820   0x00000044   Code   RO          306    i.HAL_MspInit       stm32f1xx_hal_msp.o
    0x08000864   0x08000864   0x0000001a   Code   RO         1799    i.HAL_NVIC_EnableIRQ  stm32f1xx_hal_cortex.o
    0x0800087e   0x0800087e   0x00000002   PAD
    0x08000880   0x08000880   0x00000040   Code   RO         1805    i.HAL_NVIC_SetPriority  stm32f1xx_hal_cortex.o
    0x080008c0   0x080008c0   0x00000024   Code   RO         1806    i.HAL_NVIC_SetPriorityGrouping  stm32f1xx_hal_cortex.o
    0x080008e4   0x080008e4   0x0000012c   Code   RO         1499    i.HAL_RCC_ClockConfig  stm32f1xx_hal_rcc.o
    0x08000a10   0x08000a10   0x00000020   Code   RO         1506    i.HAL_RCC_GetPCLK1Freq  stm32f1xx_hal_rcc.o
    0x08000a30   0x08000a30   0x00000020   Code   RO         1507    i.HAL_RCC_GetPCLK2Freq  stm32f1xx_hal_rcc.o
    0x08000a50   0x08000a50   0x0000006c   Code   RO         1508    i.HAL_RCC_GetSysClockFreq  stm32f1xx_hal_rcc.o
    0x08000abc   0x08000abc   0x00000320   Code   RO         1511    i.HAL_RCC_OscConfig  stm32f1xx_hal_rcc.o
    0x08000ddc   0x08000ddc   0x00000028   Code   RO         1810    i.HAL_SYSTICK_Config  stm32f1xx_hal_cortex.o
    0x08000e04   0x08000e04   0x00000002   Code   RO         1073    i.HAL_TIMEx_BreakCallback  stm32f1xx_hal_tim_ex.o
    0x08000e06   0x08000e06   0x00000002   Code   RO         1074    i.HAL_TIMEx_CommutCallback  stm32f1xx_hal_tim_ex.o
    0x08000e08   0x08000e08   0x00000042   Code   RO         1091    i.HAL_TIMEx_MasterConfigSynchronization  stm32f1xx_hal_tim_ex.o
    0x08000e4a   0x08000e4a   0x00000036   Code   RO          398    i.HAL_TIM_Base_Init  stm32f1xx_hal_tim.o
    0x08000e80   0x08000e80   0x00000064   Code   RO          308    i.HAL_TIM_Base_MspInit  stm32f1xx_hal_msp.o
    0x08000ee4   0x08000ee4   0x00000022   Code   RO          403    i.HAL_TIM_Base_Start_IT  stm32f1xx_hal_tim.o
    0x08000f06   0x08000f06   0x000000d6   Code   RO          407    i.HAL_TIM_ConfigClockSource  stm32f1xx_hal_tim.o
    0x08000fdc   0x08000fdc   0x00000002   Code   RO          427    i.HAL_TIM_IC_CaptureCallback  stm32f1xx_hal_tim.o
    0x08000fde   0x08000fde   0x00000166   Code   RO          441    i.HAL_TIM_IRQHandler  stm32f1xx_hal_tim.o
    0x08001144   0x08001144   0x00000070   Code   RO          309    i.HAL_TIM_MspPostInit  stm32f1xx_hal_msp.o
    0x080011b4   0x080011b4   0x00000002   Code   RO          444    i.HAL_TIM_OC_DelayElapsedCallback  stm32f1xx_hal_tim.o
    0x080011b6   0x080011b6   0x000000d0   Code   RO          465    i.HAL_TIM_PWM_ConfigChannel  stm32f1xx_hal_tim.o
    0x08001286   0x08001286   0x00000036   Code   RO          468    i.HAL_TIM_PWM_Init  stm32f1xx_hal_tim.o
    0x080012bc   0x080012bc   0x00000002   Code   RO          470    i.HAL_TIM_PWM_MspInit  stm32f1xx_hal_tim.o
    0x080012be   0x080012be   0x00000002   Code   RO          471    i.HAL_TIM_PWM_PulseFinishedCallback  stm32f1xx_hal_tim.o
    0x080012c0   0x080012c0   0x00000044   Code   RO          473    i.HAL_TIM_PWM_Start  stm32f1xx_hal_tim.o
    0x08001304   0x08001304   0x000000e0   Code   RO           14    i.HAL_TIM_PeriodElapsedCallback  main.o
    0x080013e4   0x080013e4   0x00000002   Code   RO          484    i.HAL_TIM_TriggerCallback  stm32f1xx_hal_tim.o
    0x080013e6   0x080013e6   0x00000002   Code   RO         2320    i.HAL_UART_ErrorCallback  stm32f1xx_hal_uart.o
    0x080013e8   0x080013e8   0x0000000a   Code   RO         2322    i.HAL_UART_GetState  stm32f1xx_hal_uart.o
    0x080013f2   0x080013f2   0x00000002   PAD
    0x080013f4   0x080013f4   0x00000110   Code   RO         2323    i.HAL_UART_IRQHandler  stm32f1xx_hal_uart.o
    0x08001504   0x08001504   0x00000062   Code   RO         2324    i.HAL_UART_Init     stm32f1xx_hal_uart.o
    0x08001566   0x08001566   0x00000002   PAD
    0x08001568   0x08001568   0x0000013c   Code   RO          311    i.HAL_UART_MspInit  stm32f1xx_hal_msp.o
    0x080016a4   0x080016a4   0x00000052   Code   RO         2329    i.HAL_UART_Receive_IT  stm32f1xx_hal_uart.o
    0x080016f6   0x080016f6   0x00000002   PAD
    0x080016f8   0x080016f8   0x00000054   Code   RO         2663    i.HAL_UART_RxCpltCallback  usart.o
    0x0800174c   0x0800174c   0x000000ba   Code   RO         2332    i.HAL_UART_Transmit  stm32f1xx_hal_uart.o
    0x08001806   0x08001806   0x00000002   Code   RO         2335    i.HAL_UART_TxCpltCallback  stm32f1xx_hal_uart.o
    0x08001808   0x08001808   0x00000002   Code   RO          204    i.HardFault_Handler  stm32f1xx_it.o
    0x0800180a   0x0800180a   0x00000002   PAD
    0x0800180c   0x0800180c   0x000000ac   Code   RO           15    i.MX_GPIO_Init      main.o
    0x080018b8   0x080018b8   0x000000c4   Code   RO           16    i.MX_TIM3_Init      main.o
    0x0800197c   0x0800197c   0x00000068   Code   RO           17    i.MX_TIM4_Init      main.o
    0x080019e4   0x080019e4   0x00000044   Code   RO           18    i.MX_USART2_UART_Init  main.o
    0x08001a28   0x08001a28   0x00000044   Code   RO           19    i.MX_USART3_UART_Init  main.o
    0x08001a6c   0x08001a6c   0x00000002   Code   RO          205    i.MemManage_Handler  stm32f1xx_it.o
    0x08001a6e   0x08001a6e   0x00000002   Code   RO          206    i.NMI_Handler       stm32f1xx_it.o
    0x08001a70   0x08001a70   0x00000002   Code   RO          207    i.PendSV_Handler    stm32f1xx_it.o
    0x08001a72   0x08001a72   0x0000002a   Code   RO         2701    i.Read_ringBuff     ringbuff.o
    0x08001a9c   0x08001a9c   0x0000000a   Code   RO         2702    i.RingBuff_Init     ringbuff.o
    0x08001aa6   0x08001aa6   0x00000002   Code   RO          208    i.SVC_Handler       stm32f1xx_it.o
    0x08001aa8   0x08001aa8   0x00000004   Code   RO          209    i.SysTick_Handler   stm32f1xx_it.o
    0x08001aac   0x08001aac   0x00000050   Code   RO           20    i.SystemClock_Config  main.o
    0x08001afc   0x08001afc   0x00000048   Code   RO         2626    i.SystemInit        system_stm32f1xx.o
    0x08001b44   0x08001b44   0x0000000c   Code   RO          210    i.TIM3_IRQHandler   stm32f1xx_it.o
    0x08001b50   0x08001b50   0x0000000c   Code   RO          211    i.TIM4_IRQHandler   stm32f1xx_it.o
    0x08001b5c   0x08001b5c   0x0000008c   Code   RO          486    i.TIM_Base_SetConfig  stm32f1xx_hal_tim.o
    0x08001be8   0x08001be8   0x0000001a   Code   RO          487    i.TIM_CCxChannelCmd  stm32f1xx_hal_tim.o
    0x08001c02   0x08001c02   0x00000014   Code   RO          497    i.TIM_ETR_SetConfig  stm32f1xx_hal_tim.o
    0x08001c16   0x08001c16   0x00000010   Code   RO          498    i.TIM_ITRx_SetConfig  stm32f1xx_hal_tim.o
    0x08001c26   0x08001c26   0x00000002   PAD
    0x08001c28   0x08001c28   0x00000060   Code   RO          499    i.TIM_OC1_SetConfig  stm32f1xx_hal_tim.o
    0x08001c88   0x08001c88   0x0000006c   Code   RO          500    i.TIM_OC2_SetConfig  stm32f1xx_hal_tim.o
    0x08001cf4   0x08001cf4   0x00000068   Code   RO          501    i.TIM_OC3_SetConfig  stm32f1xx_hal_tim.o
    0x08001d5c   0x08001d5c   0x00000050   Code   RO          502    i.TIM_OC4_SetConfig  stm32f1xx_hal_tim.o
    0x08001dac   0x08001dac   0x00000022   Code   RO          504    i.TIM_TI1_ConfigInputStage  stm32f1xx_hal_tim.o
    0x08001dce   0x08001dce   0x00000024   Code   RO          506    i.TIM_TI2_ConfigInputStage  stm32f1xx_hal_tim.o
    0x08001df2   0x08001df2   0x00000010   Code   RO         2337    i.UART_DMAAbortOnError  stm32f1xx_hal_uart.o
    0x08001e02   0x08001e02   0x0000001c   Code   RO         2347    i.UART_EndRxTransfer  stm32f1xx_hal_uart.o
    0x08001e1e   0x08001e1e   0x00000096   Code   RO         2349    i.UART_Receive_IT   stm32f1xx_hal_uart.o
    0x08001eb4   0x08001eb4   0x000000b8   Code   RO         2350    i.UART_SetConfig    stm32f1xx_hal_uart.o
    0x08001f6c   0x08001f6c   0x00000062   Code   RO         2351    i.UART_Transmit_IT  stm32f1xx_hal_uart.o
    0x08001fce   0x08001fce   0x00000064   Code   RO         2352    i.UART_WaitOnFlagUntilTimeout  stm32f1xx_hal_uart.o
    0x08002032   0x08002032   0x00000002   PAD
    0x08002034   0x08002034   0x00000044   Code   RO          212    i.USART2_IRQHandler  stm32f1xx_it.o
    0x08002078   0x08002078   0x00000044   Code   RO          213    i.USART3_IRQHandler  stm32f1xx_it.o
    0x080020bc   0x080020bc   0x00000002   Code   RO          214    i.UsageFault_Handler  stm32f1xx_it.o
    0x080020be   0x080020be   0x0000002a   Code   RO         2703    i.WriteRingBuff     ringbuff.o
    0x080020e8   0x080020e8   0x00000020   Code   RO         3046    i.__0printf$1       mc_w.l(printf1.o)
    0x08002108   0x08002108   0x00000020   Code   RO         1812    i.__NVIC_SetPriority  stm32f1xx_hal_cortex.o
    0x08002128   0x08002128   0x0000000e   Code   RO         3322    i.__scatterload_copy  mc_w.l(handlers.o)
    0x08002136   0x08002136   0x00000002   Code   RO         3323    i.__scatterload_null  mc_w.l(handlers.o)
    0x08002138   0x08002138   0x0000000e   Code   RO         3324    i.__scatterload_zeroinit  mc_w.l(handlers.o)
    0x08002146   0x08002146   0x00000002   PAD
    0x08002148   0x08002148   0x00000154   Code   RO         3053    i._printf_core      mc_w.l(printf1.o)
    0x0800229c   0x0800229c   0x0000003c   Code   RO         2842    i.backward          motor.o
    0x080022d8   0x080022d8   0x00000010   Code   RO         2789    i.convert_servo_angle  servo.o
    0x080022e8   0x080022e8   0x00000040   Code   RO         2843    i.forward           motor.o
    0x08002328   0x08002328   0x00000018   Code   RO         2664    i.fputc             usart.o
    0x08002340   0x08002340   0x0000004e   Code   RO         2790    i.initialize_servo  servo.o
    0x0800238e   0x0800238e   0x00000002   PAD
    0x08002390   0x08002390   0x0000001c   Code   RO         2844    i.left_steel        motor.o
    0x080023ac   0x080023ac   0x00000028   Code   RO         2845    i.left_wheel_backward  motor.o
    0x080023d4   0x080023d4   0x00000028   Code   RO         2846    i.left_wheel_forward  motor.o
    0x080023fc   0x080023fc   0x00000020   Code   RO         2847    i.left_wheel_stop   motor.o
    0x0800241c   0x0800241c   0x00000090   Code   RO           21    i.main              main.o
    0x080024ac   0x080024ac   0x000000d8   Code   RO         2935    i.obstacle_avoidance  oa.o
    0x08002584   0x08002584   0x000001d8   Code   RO         2936    i.obstacle_detection  oa.o
    0x0800275c   0x0800275c   0x00000094   Code   RO         2746    i.read_one_frame    lidar.o
    0x080027f0   0x080027f0   0x0000001c   Code   RO         2848    i.right_steel       motor.o
    0x0800280c   0x0800280c   0x0000002c   Code   RO         2849    i.right_wheel_backward  motor.o
    0x08002838   0x08002838   0x00000028   Code   RO         2850    i.right_wheel_forward  motor.o
    0x08002860   0x08002860   0x00000024   Code   RO         2851    i.right_wheel_stop  motor.o
    0x08002884   0x08002884   0x00000044   Code   RO         2791    i.spin_servo        servo.o
    0x080028c8   0x080028c8   0x0000001c   Code   RO         2852    i.stop              motor.o
    0x080028e4   0x080028e4   0x0000002c   Code   RO         2853    i.turn              motor.o
    0x08002910   0x08002910   0x00000010   Data   RO         2627    .constdata          system_stm32f1xx.o
    0x08002920   0x08002920   0x00000008   Data   RO         2628    .constdata          system_stm32f1xx.o
    0x08002928   0x08002928   0x00000020   Data   RO         3320    Region$$Table       anon$$obj.o


    Execution Region RW_IRAM1 (Exec base: 0x20000000, Load base: 0x08002948, Size: 0x00000618, Max: 0x0000c000, ABSOLUTE)

    Exec Addr    Load Addr    Size         Type   Attr      Idx    E Section Name        Object

    0x20000000   0x08002948   0x00000002   Data   RW           23    .data               main.o
    0x20000002   0x0800294a   0x00000002   PAD
    0x20000004   0x0800294c   0x0000000c   Data   RW         1349    .data               stm32f1xx_hal.o
    0x20000010   0x08002958   0x00000004   Data   RW         2629    .data               system_stm32f1xx.o
    0x20000014   0x0800295c   0x00000001   Data   RW         2666    .data               usart.o
    0x20000015   0x0800295d   0x00000004   Data   RW         2747    .data               lidar.o
    0x20000019   0x08002961   0x00000009   Data   RW         2748    .data               lidar.o
    0x20000022   0x0800296a   0x00000001   Data   RW         2792    .data               servo.o
    0x20000023   0x0800296b   0x00000001   Data   RW         2793    .data               servo.o
    0x20000024   0x0800296c   0x00000001   Data   RW         2794    .data               servo.o
    0x20000025   0x0800296d   0x00000001   Data   RW         2795    .data               servo.o
    0x20000026   0x0800296e   0x00000001   Data   RW         2796    .data               servo.o
    0x20000027   0x0800296f   0x00000001   PAD
    0x20000028   0x08002970   0x0000000b   Data   RW         2938    .data               oa.o
    0x20000033   0x0800297b   0x00000001   PAD
    0x20000034   0x0800297c   0x00000006   Data   RW         2939    .data               oa.o
    0x2000003a   0x08002982   0x00000002   PAD
    0x2000003c   0x08002984   0x00000004   Data   RW         3298    .data               mc_w.l(stdout.o)
    0x20000040        -       0x00000140   Zero   RW           22    .bss                main.o
    0x20000180        -       0x0000002e   Zero   RW         2704    .bss                ringbuff.o
    0x200001ae        -       0x0000002e   Zero   RW         2705    .bss                ringbuff.o
    0x200001dc        -       0x0000003c   Zero   RW         2937    .bss                oa.o
    0x20000218        -       0x00000400   Zero   RW            1    STACK               startup_stm32f103xe.o


==============================================================================

Image component sizes


      Code (inc. data)   RO Data    RW Data    ZI Data      Debug   Object Name

       148          6          0         13          0       1526   lidar.o
      1104        126          0          2        320     491121   main.o
       484        110          0          0          0       6337   motor.o
       688         72          0         17         60       4067   oa.o
        94          0          0          0         92       2772   ringbuff.o
       162          4          0          5          0       2695   servo.o
        36          8        304          0       1024        792   startup_stm32f103xe.o
       164         28          0         12          0       6433   stm32f1xx_hal.o
       198         14          0          0          0      28875   stm32f1xx_hal_cortex.o
       304          8          0          0          0       1143   stm32f1xx_hal_dma.o
       528         42          0          0          0       3461   stm32f1xx_hal_gpio.o
       596         70          0          0          0       3186   stm32f1xx_hal_msp.o
      1272        100          0          0          0       5132   stm32f1xx_hal_rcc.o
      1660         66          0          0          0      15550   stm32f1xx_hal_tim.o
        70          0          0          0          0       2309   stm32f1xx_hal_tim_ex.o
      1228         12          0          0          0       9759   stm32f1xx_hal_uart.o
       180         36          0          0          0       5794   stm32f1xx_it.o
        72         16         24          4          0       1147   system_stm32f1xx.o
       108         32          0          1          0       1595   usart.o

    ----------------------------------------------------------------------
      9114        750        360         60       1496     593694   Object Totals
         0          0         32          0          0          0   (incl. Generated)
        18          0          0          6          0          0   (incl. Padding)

    ----------------------------------------------------------------------

      Code (inc. data)   RO Data    RW Data    ZI Data      Debug   Library Member Name

         0          0          0          0          0          0   entry.o
         0          0          0          0          0          0   entry10a.o
         0          0          0          0          0          0   entry11a.o
         8          4          0          0          0          0   entry2.o
         4          0          0          0          0          0   entry5.o
         0          0          0          0          0          0   entry7b.o
         0          0          0          0          0          0   entry8b.o
         8          4          0          0          0          0   entry9a.o
        30          0          0          0          0          0   handlers.o
        36          8          0          0          0         68   init.o
         0          0          0          0          0          0   iusefp.o
        30          0          0          0          0         68   llshl.o
        32          0          0          0          0         68   llushr.o
        36          0          0          0          0        108   memseta.o
       372         14          0          0          0        184   printf1.o
         0          0          0          4          0          0   stdout.o
        44          0          0          0          0         80   uidiv.o
       186          0          0          0          0        176   depilogue.o
        50          0          0          0          0         76   dfixui.o
        26          0          0          0          0         76   dfltui.o
       228          0          0          0          0         96   dmul.o

    ----------------------------------------------------------------------
      1094         30          0          4          0       1000   Library Totals
         4          0          0          0          0          0   (incl. Padding)

    ----------------------------------------------------------------------

      Code (inc. data)   RO Data    RW Data    ZI Data      Debug   Library Name

       600         30          0          4          0        576   mc_w.l
       490          0          0          0          0        424   mf_w.l

    ----------------------------------------------------------------------
      1094         30          0          4          0       1000   Library Totals

    ----------------------------------------------------------------------

==============================================================================


      Code (inc. data)   RO Data    RW Data    ZI Data      Debug   

     10208        780        360         64       1496     588970   Grand Totals
     10208        780        360         64       1496     588970   ELF Image Totals
     10208        780        360         64          0          0   ROM Totals

==============================================================================

    Total RO  Size (Code + RO Data)                10568 (  10.32kB)
    Total RW  Size (RW Data + ZI Data)              1560 (   1.52kB)
    Total ROM Size (Code + RO Data + RW Data)      10632 (  10.38kB)

==============================================================================

