:020000040800F2
:1000000018060020450100086F1A000809180008AA
:100010006D1A000807040008BD2000080000000059
:10002000000000000000000000000000A71A000807
:100030000904000800000000711A0008A91A00084D
:100040005F0100085F0100085F0100085F01000810
:100050005F0100085F0100085F0100085F01000800
:100060005F0100085F0100085F0100085F010008F0
:100070005F0100085F0100085F0100085F010008E0
:100080005F0100085F0100085F0100085F010008D0
:100090005F0100085F0100085F0100085F010008C0
:1000A0005F0100085F0100085F0100085F010008B0
:1000B0005F010008451B0008511B00085F01000894
:1000C0005F0100085F0100085F0100085F01000890
:1000D0005F0100085F010008352000087920000852
:1000E0005F0100085F0100085F0100085F01000870
:1000F0005F0100085F0100085F0100085F01000860
:100100005F0100085F0100085F0100085F0100084F
:100110005F0100085F0100085F0100085F0100083F
:100120005F0100085F0100085F0100085F0100082F
:10013000DFF80CD000F046F9004800471D24000805
:10014000180600200648804706480047FEE7FEE7FD
:10015000FEE7FEE7FEE7FEE7FEE7FEE7FEE7FEE777
:10016000FD1A000831010008202A04DB203A21FA98
:1001700002F00021704721FA02F3D040C2F12002C0
:100180009140084319467047D2B201E000F8012BB4
:10019000491EFBD270470022F6E710B513460A4607
:1001A00004461946FFF7F0FF204610BD2DE9FE4F2B
:1001B00081EA030404F0004421F0004100944FF070
:1001C000000B23F0004350EA01045ED052EA03041E
:1001D0005BD0C3F30A54C1F30A552C44A4F2F334A0
:1001E0000194A0FB0254C1F3130141F48011C3F345
:1001F000130343F4801301FB024400FB034E840A03
:10020000970A44EA815447EA8357A4FB076802959A
:100210008D0A05FB07854FEA932C04FB0C54270538
:10022000029D4FEA065847EA1637B5EB08056EEB14
:10023000070C870E920E47EA811742EA8312A7FB4A
:100240000201B6EB0B0164EB00042B0D43EA0C3307
:100250005E1844EB1C50DA465146E7FB0201C5F339
:1002600013044FEA0B3343EA14534FEA0432019C60
:1002700043EA0603A4F10C040294009CCDE900B407
:1002800000F051F803B0BDE8F08F00200146F9E717
:100290000EB540F2334102910021CDE900110A462A
:1002A0000B4600F040F803B000BDC1F30A5210B590
:1002B000C1F3130140F2FF3341F480119A4201DA95
:1002C000002010BD40F233439A42A2F2334203DCD5
:1002D0005242FFF749FF10BD904010BD30B50B46AC
:1002E000014600202022012409E021FA02F59D4266
:1002F00005D303FA02F5491B04FA02F52844151E3A
:10030000A2F10102F1DC30BD10B5141E73F100043E
:1003100008DA401C41F1000192185B411A4301D1F7
:1003200020F0010010BD2DE9F04D92469B4611B121
:10033000B1FA81F202E0B0FA80F22032904600F089
:1003400053F804460F4640EA0A0041EA0B015346BF
:100350005A46084313D0114653EA010019D0C8F198
:1003600040025046FFF700FF05460E4650465946EC
:10037000424600F039F8084305D0012004E0204649
:100380003946BDE8F08D0020054346EAE0762C436F
:1003900037430A986305E40AA0EB08000022FD0A2F
:1003A00044EA47540A3002D500200146E9E7010536
:1003B00010196941DDE9084500196941BDE8F04DB2
:1003C000A2E70000064C074D06E0E06840F001039C
:1003D00094E8070098471034AC42F6D3FFF7ACFE20
:1003E0002829000848290008202A04DB203A00FABE
:1003F00002F1002070479140C2F1200320FA03F37C
:10040000194390407047FEE7704700002DE9F04126
:10041000094F0A244FF4FA754FF40066284600F09D
:10042000A5F83146384600F0AFF9641E14F0FF0419
:10043000F4D1BDE8F0810000000C01402DE9F05F2F
:1004400090F821100024022903D0042181630124A3
:1004500085E001680A6822F00E020A6001680A68F5
:1004600022F001020A603F4E3E4FB215DFF8F4C0A1
:10047000DFF8F090DFF8ECA0DFF8E8B0DFF8E4E0B8
:100480000168783F13011502ACF1640CA9F1500921
:10049000AAF13C0AABF1280BAEF1140E4FF4801810
:1004A000B14227D9B9420ED0614512D049451DD07D
:1004B000514518D0594518D0714501D1424615E033
:1004C000294EB14201D1012210E0274E1436B1422B
:1004D00001D110220AE0244E2836B14206D0224A29
:1004E0003C32914201D11A4600E02A461E49091FBA
:1004F0000A602BE0B94213D0614517D0494522D09C
:1005000051451DD059451DD0714501D142461AE0D3
:10051000B14202D14FF0807215E0134EB14201D1C9
:10052000012210E0104E1436B14201D110220AE02F
:100530000D4E2836B14206D00B4A3C32914201D1D1
:100540001A4600E02A46074980394A60012180F8AE
:100550002110002180F82010416B01B1884720460E
:10056000BDE8F09F800002400804024070B50446D8
:1005700000F016F90546601C02D0044800780444D7
:1005800000F00EF9401BA042FAD370BD0400002019
:100590002DE9F84FDFF8C891002409F1040A0AF1A7
:1005A000040B23460F270BF1040ED1E00125A540D3
:1005B00006EA0502AA4276D1DFF8A8C14E68A6EB8A
:1005C0000C0866452BD00DDC032E34D005DC36B389
:1005D000012E19D0022E2FD11BE0112E16D0122E73
:1005E0002AD119E0B8F5881F19D006DCB8F5803F8C
:1005F00015D0B8F5801F1FD111E0B8F5001F0ED03F
:10060000B8F5041F18D10AE0CB6815E0CB681B1DB4
:1006100012E0CB6808330FE0CB680C330CE08B683A
:100620002BB1012B4FF0080303D0456104E00423F4
:1006300002E0056100E00023FF2A01D8064601E040
:1006400000F104064FEA840501D9A5F12005D6F88A
:10065000008007FA05FC28EA0C0803FA05F548EAC9
:100660000508C6F800804D68ED0070D53E4DAE69B6
:1006700046F00106AE61AD6924F0030605F0010500
:1006800000953A4D06EB050CDCF80850A607360F2E
:1006900007FA06F825EA0805DFF8D480404503D1BB
:1006A0004FF0000825E052E0DFF8C880404502D155
:1006B0004FF001081DE0DFF8C080404502D14FF047
:1006C000020816E0DFF8B480404502D14FF003087D
:1006D0000FE0DFF8AC80404502D14FF0040808E09D
:1006E000DFF8A080404502D14FF0050801E04FF04F
:1006F000060808FA06F848EA0508CCF808804D68AC
:10070000D9F80060ED034D4601D5164300E096434D
:100710002E604D68DAF80060AD03554601D51643EA
:1007200000E096432E604D68DBF80060ED025D4608
:1007300001D5164300E096432E604D68DEF8006058
:10074000AD02754601D5164300E096432E60641C49
:100750000A681646E2407FF429AFBDE8F88F000032
:100760000004014000001110001002400000014090
:1007700000080140000C014000100140001401403D
:1007800000180140001C0140C2680A4201D04161CA
:100790007047016170470AB1016170470904FBE7C6
:1007A000014880687047000004000020024881680A
:1007B000027811448160704704000020074810B59A
:1007C000016841F010010160032000F079F8002079
:1007D00000F006F800F024F8002010BD00200240D0
:1007E00070B50D4D04464FF47A712878B1FBF0F0E6
:1007F0000A490968B1FBF0F000F0F0FA48B9102C92
:1008000007D200222146501E00F03AF800206C600A
:1008100070BD012070BD0000040000201000002009
:100820000E4808B5816941F001018161816901F0DB
:1008300001010091C16941F08051C161C06900F0BE
:1008400080500090052000F03BF80548416821F0F9
:10085000E06141F00071416008BD000000100240FD
:1008600000000140002809DB00F01F020121914037
:100870004009800000F1E020C0F80011704700003E
:10088000F0B40E4B1B680C46C3F30223C3F10705FB
:10089000042D00D90425191D072901D2002300E0E9
:1008A000DB1E012606FA05F1491E214099409E40B3
:1008B000761E16403143F0BC01F026BC0CED00E082
:1008C000064900F0070208684FF6FF03184040EAA7
:1008D0000220034A10430860704700000CED00E05E
:1008E0000000FA052DE9F0470F46050061D0434EA0
:1008F000306800F00700B84209D2306820F00700E5
:1009000038433060306800F00700B84251D12868A1
:100910003B4C810712D5400703D5606840F4E06086
:1009200060602878000703D5606840F4605060601C
:100930006068A96820F0F000084360602878C0076C
:1009400028D06868012810D02168022810D08907B3
:1009500000292EDA616821F0030101436160FFF78D
:100960001FFF804641F288390DE021688903EFE7D7
:100970008901EDE7FFF714FFA0EB0801494502D913
:100980000320BDE8F0876068696800F00C00B0EBF8
:10099000810FEFD1306800F00700B8420BD9306802
:1009A00020F0070038433060306800F00700B8429C
:1009B00001D00120E5E72878400705D56068E9689F
:1009C00020F4E060084360602878000706D560687E
:1009D000296920F4605040EAC100606000F038F8F6
:1009E0006168084AC1F30311515CC84006490860B8
:1009F00006480068FFF7F4FE0020C2E7002002402E
:100A000000100240102900081000002008000020FB
:100A10000448054900684968044AC1F30221515C51
:100A2000C840704710000020001002402029000834
:100A30000448054900684968044AC1F3C221515C71
:100A4000C840704710000020001002402029000814
:100A500012A185B00FC98DE80F0014A0144A0068D8
:100A600004905168134801F00C03042B10D0082B9C
:100A70000ED1C1F38343C9031DF803000AD55168A1
:100A800004AAC1F34041515C0A4A5043B0FBF1F063
:100A900005B0704708494843FAE70000020304051F
:100AA000060708090A0B0C0D0E0F101001020000BA
:100AB0000010024000127A0000093D002DE9F84FB5
:100AC000040070D02078C04DC00749D06868C0F3DA
:100AD0008100012807D06868C0F38100022809D18D
:100AE0006868C00306D52868800339D56068002887
:100AF000E7D035E06068B0F5803F0BD010B1B0F5BD
:100B0000A02F11D0286820F480302860286820F4B5
:100B1000802002E0286840F480302860606890B14E
:100B2000FFF73EFE06460AE0286840F48020286071
:100B3000F0E700BFFFF734FE801B642873D82868F5
:100B40008003F7D50CE0FFF72BFE064605E000BF5B
:100B5000FFF726FE801B6428F0D828688003F7D4AE
:100B600020789A4E80074FF001094FF0000839D5E0
:100B7000686810F00C0F07D06868C0F38100022885
:100B800009D16868C00306D42868800714D5206995
:100B9000012808D110E02069B0B1C6F80090FFF735
:100BA000FFFD074605E00AE1FFF7FAFDC01B02283A
:100BB000C4D828688007F7D52868616920F0F80054
:100BC00040EAC10028600DE0C6F80080FFF7E8FDAC
:100BD000074604E0FFF7E4FDC01B022823D828687D
:100BE0008007F7D4207800072CD57948A169D9B1BE
:100BF000C0F80090FFF7D4FD074604E0FFF7D0FDF2
:100C0000C01B02280FD8686A8007F7D571484FF4D7
:100C1000FA510068B0FBF1F0009000BF0098411E4F
:100C20000091FAD20EE080E0C0F80080FFF7B8FD36
:100C3000074604E0FFF7B4FDC01B022875D8686AB8
:100C40008007F7D42078400760D5E8690027C00006
:100C500008D4E86940F08050E861E869012700F0B5
:100C6000805000905C480168C90513D40168834630
:100C700041F480710160FFF793FD824606E000BFFA
:100C8000FFF78EFDA0EB0A0064284ED8DBF80000C9
:100C9000C005F5D5E06801280AD008B1052813D0B1
:100CA000286A20F001002862286A20F0040002E08F
:100CB000286A40F001002862E06841F2883B98B160
:100CC000FFF76EFD82460BE0286A40F004002862C0
:100CD000EEE700BFFFF764FDA0EB0A0159455AD8C3
:100CE000286A8007F6D50CE0FFF75AFD824605E03A
:100CF000FFF756FDA0EB0A0159454CD8286A80073A
:100D0000F6D41FB1E86920F08050E861E06988B34B
:100D10006968C1F38101022944D00228C6F86080C5
:100D200004D0FFF73DFD044638E034E0FFF738FD1E
:100D3000074604E0FFF734FDC01B02282BD82868C3
:100D40008001F7D4206AB0F5803F05D16868A168BA
:100D500020F4003008436860D4E90801084369685A
:100D600021F4741108436860C6F86090FFF718FD1D
:100D7000044606E025E000BFFFF712FD001B022835
:100D800009D828688001F7D51BE000BFFFF708FDF0
:100D9000001B022802D90320BDE8F88F28688001D3
:100DA000F4D40EE00128F7D06868226A00F480319C
:100DB000914204D1616A00F47010884201D0012090
:100DC000EAE70020E8E7000000100240000042428D
:100DD00080044242100000200070004010B5401E08
:100DE000B0F1807F01D3012010BD4FF0E02460619D
:100DF0000F21601701F088F90020A0610720206111
:100E0000002010BD7047704770B590F83C20012A53
:100E100019D0012400F83C4F0222427050F83C3CAB
:100E20005A689D6822F070060A684968324325F0C6
:100E3000800529435A6050F83C2C91604470002191
:100E40000170084670BD022070BD10B5040003D0CB
:100E500094F83D0010B107E0012010BD002084F897
:100E60003C00204600F00CF8022084F83D00211DD3
:100E7000206800F073FE012084F83D00002010BDC2
:100E800008B5154A0168154891420ED1C16941F073
:100E90000201C161C069012200F00200009002213C
:100EA0001D20FFF7EDFC1D2010E00D4A914211D1ED
:100EB000C16941F00401C161C069022200F004006F
:100EC000009011461E20FFF7DBFC1E20BDE8084005
:100ED000FFF7C8BC08BD000000040040001002403D
:100EE000000800400168CA6842F00102CA60006858
:100EF000816801F00701062903D0016841F0010172
:100F000001600020704770B5044690F83C0001284D
:100F100017D0012584F83C50022084F83D00206859
:100F2000826822F0770222F47F42826008685028AB
:100F300030D00DDC20284DD005DC98B310283BD1F3
:100F400048E0022070BD302844D0402834D139E038
:100F5000602828D0702806D0B0F5805F2CD0B0F57E
:100F6000005F29D10AE0CB68D1E90121206800F0B7
:100F700048FE2068816841F0770109E0CB68D1E93B
:100F80000121206800F03DFE2068816841F4804125
:100F9000816011E0CA684968206800F007FF5021AD
:100FA000206807E016E0CA684968206800F00FFF73
:100FB0006021206800F02FFE84F83D50002084F866
:100FC0003C0070BDCA684968206800F0EFFE40210F
:100FD0002068EFE7226801461046EBE7704770B5DE
:100FE0000446006801694FF00005C943890715D41C
:100FF000C168C943890711D4E91E01610120207726
:10100000206880698007204602D0FFF7E7FF04E0F0
:1010100000F0D0F8204600F052F9257720680169E9
:10102000C943490717D4C168C943490713D46FF0AE
:1010300004010161022020772068806910F4407F5C
:10104000204602D0FFF7CAFF04E000F0B3F82046C4
:1010500000F035F9257720680169C943090716D4DE
:10106000C168C943090712D46FF008010161042067
:1010700020772068C0698007204602D0FFF7AEFFC6
:1010800004E000F097F8204600F019F92577206871
:101090000169C943C90617D4C168C943C90613D435
:1010A0006FF010010161082020772068C06910F4FA
:1010B000407F204602D0FFF791FF04E000F07AF86D
:1010C000204600F0FCF8257720680169C943C9076C
:1010D00008D1C168C943C90704D1891E01612046EE
:1010E00000F010F920680169C943090609D4C168F4
:1010F000C943090605D46FF0800101612046FFF75E
:1011000081FE20680169C943490609D4C168C94301
:10111000490605D46FF040010161204600F062F9F4
:1011200020680169C94389060BD4C168C94389068F
:1011300007D46FF0200101612046BDE87040FFF741
:1011400062BE70BD10B586B0002100910191029180
:10115000039100681349884221D11348816941F005
:1011600004018161816901F004010491816941F008
:10117000080181618069022400F008000490C02009
:10118000CDE90004694609480394FFF701FA0120FC
:10119000CDE90004694606480394FFF7F9F906B063
:1011A00010BD000000040040001002400008014093
:1011B000000C0140704770B5044690F83C000D46A5
:1011C00001280DD0012684F83C60022084F83D00FF
:1011D00042B1042A18D0082A2AD00C2A4DD139E06D
:1011E000022070BD206800F01FFD2068816941F079
:1011F000080181612068816921F004018161206812
:1012000081692A69114311E0206800F03DFD2068E2
:10121000816941F4006181612068816921F4806104
:101220008161206881692A6941EA0221816124E0A3
:10123000206800F05FFD2068C16941F00801C161CC
:101240002068C16921F00401C1612068C1692A696F
:10125000114311E0206800F081FD2068C16941F46C
:101260000061C1612068C16921F48061C1612068A9
:10127000C1692A6941EA0221C16184F83D60002008
:1012800084F83C0070BD10B5040003D094F83D0014
:1012900010B107E0012010BD002084F83C0020467A
:1012A00000F00CF8022084F83D00211D206800F0B9
:1012B00055FC012084F83D00002010BD70477047A8
:1012C00010B504460068012200F08EFC0B4920682E
:1012D000884202D00A49884203D1416C41F400415E
:1012E00041642068816801F00701062903D0016884
:1012F00041F001010160002010BD0000002C014000
:10130000003401402DE9F04F2B4D87B0A84250D159
:101310002868C16821F00101C1602848284A294B8A
:1013200001882A4C491C89B201801778264A284E28
:10133000DFF8A0901B7812784FF0000C4FF02808CF
:1013400005F1800A4FF07E5B17B1012F02D02BE030
:1013500011B929E0022927D3A0F800C01E491F486F
:1013600001F090FA2088ADF810006088ADF8120006
:10137000A088ADF81400CDE900A9CDE90286DDE929
:1013800004015B460A2201F0FDF803462088ADF80F
:1013900014006088ADF81600A088ADF81800DDE9EB
:1013A00005010F4A01F082F82868C16841F0010187
:1013B000C16007B0BDE8F08F800000200000002071
:1013C00028000020220000202300002034000020FC
:1013D00019000020800100202600002024000020A9
:1013E0002E0000207047704710F8391F40780843DE
:1013F0007047000070B5026804461068D1685369F0
:1014000010F00F0F50D003F0010501F49076354332
:101410005DD0C20705D0CA0503D5E26B42F00102D8
:10142000E263420705D5DA0703D0E26B42F002021D
:10143000E263820705D5DA0703D0E26B42F00402CB
:10144000E263020705D5DA0703D0E26B42F0080237
:10145000E263E26B002A33D0800604D5880602D509
:10146000204600F0DCFC20684069E16BC0F380108E
:10147000090700D428B3204600F0C3FC2068416966
:1014800049061AD5416921F040014161606BA0B164
:101490001B494163606BFEF7D1FF002810D0606BE1
:1014A000416BBDE870400847830610D58B060ED50A
:1014B0002046BDE8704000F0B2BC2046FFF793FF25
:1014C00070BD2046FFF78FFF0020E06370BD03066C
:1014D00006D50B0604D52046BDE8704000F046BD99
:1014E0004006F3D54806F1D5D168204621F04001E9
:1014F000D160202184F8391000F085F970BD00001A
:10150000F31D000870B5040004D094F839000025DC
:1015100010B106E0012070BD84F83850204600F07C
:1015200023F8242084F839002068C16821F4005190
:10153000C160204600F0BEFC2068016921F49041A2
:1015400001612068416921F02A0141612068C16878
:1015500041F40051C160E563202084F8390084F82B
:101560003A00002070BD0000F0B585B00024009462
:101570000194029403940368434F022043490322D9
:10158000434D4602BB4220D18B6943F480438B61BB
:101590008B6903F4804304938B6943F004038B61EC
:1015A0008969039201F0040104910102CDE9001060
:1015B00069462846FEF7ECFFCDE9006469462846F7
:1015C0000294FEF7E5FF05B0F0BD324FBB4226D1D5
:1015D000CB6943F40033CB61CB6903F4003304934C
:1015E0008B6943F004038B618969039201F0040164
:1015F00004910421CDE9001069462846FEF7C8FF92
:101600000820CDE90004694628460294FEF7C0FF91
:10161000022201212620FFF733F9262031E01E4D5A
:10162000AB42D0D1CB6943F48023CB61CB6903F4C7
:10163000802304938B6943F010038B618969174DF4
:1016400001F01001CDE90321CDE90060694628468B
:10165000FEF79EFFE814CDE900046946284602948F
:10166000FEF796FF0E48416821F0300141F0E0613D
:1016700041F010014160012211462720FFF700F9D7
:101680002720FFF7EFF89EE70038014000100240E6
:1016900000080140004400400048004000100140A4
:1016A0000000014090F83A30202B22D1F9B1F2B17C
:1016B00090F83830012B1CD081628285C2850021D0
:1016C000C163222280F83A2080F838100168CA6885
:1016D00042F48072CA6001684A6942F001024A61BC
:1016E0000068C16841F02001C160002070470120FE
:1016F000704702207047000070B504464FF4006147
:101700000C48FFF741F80C4920680C4D884204D181
:101710002A7828210A4800F0D2FC0A492068884229
:1017200006D12A78BDE870402821074800F0C7BCE0
:1017300070BD0000000C0140004400401400002077
:101740008001002000480040AE0100202DE9F84350
:10175000044690F839001F4616460D46202850D101
:10176000A5B19EB194F8380001284AD0012084F830
:1017700038004FF00008C4F83C80212084F839007C
:10178000FFF70EF8A6848146E68426E00120BDE836
:10179000F883E08C401EE084A0684B46B0F5805F83
:1017A0004FF000024FF080012046009703D000F078
:1017B0000EFCE8B90DE000F00AFCC8B928882168E1
:1017C000C0F308004860206908B16D1C05E0AD1C3D
:1017D00003E0216815F8010B4860E08C0028D8D19F
:1017E0004B46002240212046009700F0F0FB08B154
:1017F0000320CCE7202084F8390084F838800020CA
:10180000C5E70220C3E77047FEE700002DE9F0437B
:1018100085B00024254800940194029403948169C2
:1018200041F020018161816901F020010491816909
:1018300041F004018161816901F004010491816931
:1018400041F008018161816901F008010491816919
:1018500041F0100181618069DFF8548000F01000D0
:101860004FF400650490002229464046FEF793FF9E
:10187000DFF840904FF47077002239464846FEF773
:101880008AFF0095022601250396CDE90154694699
:101890004046FEF77DFE00970396CDE90154694668
:1018A0004846FEF775FE05B0BDE8F0830010024023
:1018B000000C01400010014010B58EB000240794C8
:1018C000089409940A940B941C2168460C94FEF722
:1018D00062FC29482749016040F21F31C0E9011428
:1018E000C721C0E903148461FFF7AFFA08B1FEF71E
:1018F0008DFD4FF48050079007A91F48FFF703FBA9
:1019000008B1FEF783FD1C48FFF7BDFC08B1FEF7E8
:101910007DFD0B940BA918480C94FFF775FA08B1DC
:10192000FEF774FD602000900F20CDE90104002235
:10193000694611480494FFF73EFC08B1FEF766FDC6
:10194000042269460C480194FFF735FC08B1FEF704
:101950005DFD082269460848FFF72DFC08B1FEF737
:1019600055FD00210448FFF7ABFC0348FFF7EAFBF5
:101970000EB010BD000400404000002010B586B03D
:10198000002417480094019402940394049413498A
:101990000594016041F63F71C0E901146321C0E97B
:1019A00003148461FFF751FA08B1FEF72FFD4FF4DD
:1019B0008050009069460A48FFF7A5FA08B1FEF783
:1019C00025FD049404A906480594FFF71DFA002894
:1019D00001D0FEF71BFD06B010BD0000000800405E
:1019E000800000200E4810B50C4901604FF4E13131
:1019F0004160002181600C22C160C0E90412816154
:101A0000C161FFF77FFD08B1FEF700FDBDE81040A2
:101A1000012204490248FFF745BE0000004400408F
:101A200000010020140000200E4810B50C49016090
:101A30004FF4E1314160002181600C22C160C0E9B6
:101A400004128161C161FFF75DFD08B1FEF7DEFCA4
:101A5000BDE81040012204490248FFF723BE000000
:101A6000004800404001002014000020FEE77047BD
:101A7000704710B583887BB10488831DE35C1370C5
:101A80000288521CB2FBF1F301FB13210180818813
:101A9000491E8180012010BD002010BD0021018061
:101AA0004180818070477047FEF780BE10B590B0CE
:101AB00028216846FEF76FFB14210AA8FEF76BFB8E
:101AC000022000900120049010200024059007942B
:101AD0006846FEF7F3FF08B1FEF798FC0F20CDE94A
:101AE0000A040C940D9400210AA80E94FEF7FAFE45
:101AF000002801D0FEF78AFC10B010BD0D48016827
:101B000041F00101016041680B4A114041600168E8
:101B10000A4A11400160016821F480210160416896
:101B200021F4FE0141604FF41F0181600449C003AC
:101B300008607047001002400000FFF8FFFFF6FE4B
:101B400008ED00E00148FFF74ABA0000400000201D
:101B50000148FFF744BA000080000020F0B5026899
:101B60001C4B1D4D1D4E1E4F1E4C4FF0804C98427D
:101B700009D0A04207D0604505D0A84203D0B042AA
:101B800001D0B84204D122F0700E4A6842EA0E0237
:101B9000984209D0A04207D0604505D0A84203D0A2
:101BA000B04201D0B84203D122F44075CA682A433A
:101BB0004D6922F080022A4302608A68C2620A6884
:101BC0008262984201D0A04201D1096901630121DA
:101BD0004161F0BD002C01400004004000080040BD
:101BE000000C00400034014010B501F01F0301213A
:101BF000046A99408C430462016A9A40114301626D
:101C000010BD10B5846842EA032224F47F440A43DD
:101C10002243826010BD826822F070020A4342F0C3
:101C20000701816070470000F0B5026A22F00102EE
:101C30000262036A42688469124E24F073050C68DC
:101C40002C4323F002058B682B430D4DA84201D095
:101C5000B04205D123F00807CB683B4323F00403CF
:101C6000A84201D0B04205D14D6922F4407215431B
:101C70008A692A4342608461496841630362F0BD16
:101C8000002C014000340140F0B5026A22F010023D
:101C90000262026A436884690D6824F4E64444EAF7
:101CA00005248D6822F0200242EA05120F4D104EE5
:101CB000A84201D0B04206D1CF6822F0800242EAA9
:101CC000071222F04002A84201D0B04207D14D696C
:101CD00023F4406343EA85038D6943EA8503436047
:101CE0008461496881630262F0BD0000002C0140FC
:101CF00000340140F0B5026A22F480720262026A86
:101D00004368C46922F4007224F073050C68124E13
:101D10002C438D6842EA05220E4DA84201D0B04204
:101D200006D1CF6822F4006242EA072222F48062E0
:101D3000A84201D0B04207D14D6923F4405343EA91
:101D400005138D6943EA05134360C4614968C163A3
:101D50000262F0BD002C01400034014030B5026A3F
:101D600022F480520262046A4268C3690D6823F457
:101D7000E64343EA05238D6824F4005444EA05341D
:101D8000084DA84202D0084DA84204D14D6922F462
:101D9000804242EA85124260C3614968016404627C
:101DA00030BD0000002C01400034014010B5036A32
:101DB000046A24F001040462846924F0F00444EA13
:101DC000021423F00A020A438461026210BD10B5B6
:101DD000036A23F0100303628369046A23F47043E7
:101DE00043EA023224F0A00343EA01118261016256
:101DF00010BD10B5406A0021C185C184FFF7F3FA18
:101E000010BD0168CA6822F49072CA6001684A690C
:101E100022F001024A61202180F83A10704710B583
:101E200090F83A10222901D0022010BD8168B1F546
:101E3000805F11D00169002901681FD0496801F055
:101E40007F03816A4A1C82620B70C18D491E09049E
:101E5000090CC18518D02BE00269816A002A02684A
:101E6000526805D0D2B20A80816A491C8162ECE7CF
:101E7000C2F308020A80816A891CF7E74A68816A0E
:101E80004B1C83620A70E0E70168CA6822F02002F6
:101E9000CA600168CA6822F48072CA6001684A692F
:101EA00022F001024A61202180F83A10FFF724FC59
:101EB000002010BD2DE9F041044600680169E26888
:101EC00021F44051114301612169A068084361690F
:101ED00008432168CA6841F20C639A430243CA600E
:101EE00020684169A26921F44071114341611E4992
:101EF000206864253226884202D1FEF799FD01E070
:101F0000FEF786FD00EBC00101EB001160686FF089
:101F100018078000B1FBF0F2B2FBF5F2B1FBF0F371
:101F20007A4303EB8202B1FBF0F306EB0212B2FB41
:101F3000F5F2B3FBF5F302F0F00202EB0312B1FB92
:101F4000F0F3B1FBF0F0B0FBF5F0784303EB800069
:101F500006EB0010B0FBF5F0216800F00F00104414
:101F60008860BDE8F08100000038014090F8391029
:101F7000212901D0022070478168B1F5805F016A94
:101F80000BD04A1C0262026809785160C18C491E5C
:101F90000904090CC1840ED017E009880268C1F356
:101FA0000801516001690029016A02D0491C0162DF
:101FB000ECE7891CFBE70168CA6822F08002CA606E
:101FC0000068C16841F04001C160002070472DE900
:101FD000F041984617460E460446069D1DE0681CD3
:101FE0001BD02DB1FEF7DCFBA0EB0800A84214D9F2
:101FF0002068C16821F4D071C1602068416921F076
:1020000001014161202084F8390084F83A00002061
:1020100084F838000320BDE8F0812068006836EAC3
:10202000000004D00020B842D9D00020F3E70120FE
:10203000F9E7000070B500240C4D0D48FFF7DAF900
:1020400002E0641CAC4204D80948FFF7CDF920280F
:10205000F7D1002402E0641CAC4206D801220549F5
:102060000348FFF71FFB0028F5D170BDFFFF0100FB
:10207000000100201400002070B500240C4D0D4814
:10208000FFF7B8F902E0641CAC4204D80948FFF736
:10209000ABF92028F7D1002402E0641CAC4206D83A
:1020A000012205490348FFF7FDFA0028F5D170BD6C
:1020B000FFFF01004001002014000020FEE710B5E2
:1020C00083888B4201D3002010BD4488831DE254D5
:1020D0004288521CB2FBF1F301FB1321418081883D
:1020E000491C8180012010BD0FB4054B10B503A918
:1020F000044A029800F028F810BC5DF814FB0000B8
:10210000292300083C0000200907090E002804DBF1
:1021100000F1E02080F80014704700F00F0000F19B
:10212000E02080F8141D704702E008C8121F08C1A3
:10213000002AFAD170477047002001E001C1121F48
:10214000002AFBD1704700002DE9FF4F89B09B4664
:102150000446002506E025280BD05A460B999047E7
:10216000641C6D1C20780028F5D10DB02846BDE810
:10217000F08F0027B8460122474900E0074314F8D2
:10218000013F203B02FA03F00842F7D120782E28C5
:1021900019D114F8010F47F004072A280ED06FF068
:1021A0002F022078A0F1300109290CD808EB880112
:1021B00002EB410100EB0108641CF2E70A98641C81
:1021C00050F8048B0A9020780028CED0642808D0DC
:1021D000692806D075281ED05A460B9990476D1C69
:1021E00058E00A994FF00A0901C90A91002802DA59
:1021F00040422D2102E0390504D52B218DF8201015
:10220000012103E0F90704D02021F7E78A4608AE50
:102210000DE00021FAE70A994FF00A0901C90A9175
:10222000F7E74946FEF75AF8303106F8011D002855
:10223000F7D1ADEB060000F12009780701D44FF08B
:102240000108C84502DDA8EB090000E00020804637
:10225000002706E008A85A46C05D0B9990476D1C00
:102260007F1C5745F6DB04E030205A460B99904717
:102270006D1CB8F10001A8F10108F5DC05E016F8C5
:10228000010B5A460B9990476D1CB9F10001A9F159
:102290000109F4DC641C65E70928010010B5044657
:1022A00009A0FFF721FF204600F080F82046FDF747
:1022B000EFFF0022074BFDF779FFFDF7F6FFBDE8C2
:1022C0001040C0B200F0A2BA6261636B77617264C1
:1022D0000A0000000000F83FB4210F3848431421E1
:1022E00090FBF1F000B2704710B5044609A0FFF76B
:1022F000FBFE204600F06EF82046FDF7C9FF084AB5
:10230000084BFDF753FFFDF7D0FFBDE81040C0B20A
:1023100000F092BA666F72776172640A0000000082
:10232000CDCCCCCCCCCCF43F04490A685206FCD5C9
:10233000024AC1B2121D116070470000003801400E
:102340002DE9FC41064605208DF8000001201746C6
:102350000D468DF8040000240523192201A96846C2
:1023600000F090FA0BE03846FEF700F90523192239
:1023700001A9684600F086FA08B1641CE4B2AC42D8
:10238000F1D39DF80000B042EDD1BDE8FC81000022
:1023900010B504A0FFF7A8FE1921BDE810401220D7
:1023A00000F0A0BA6C6566740A00000070B5074DB5
:1023B0000446002240212846FEF7EDF90122802143
:1023C0002846FEF7E8F90248046070BD001001409D
:1023D0003804004070B5074D0446012240212846CC
:1023E000FEF7D9F9002280212846FEF7D4F90248E9
:1023F000046070BD001001403804004010B5064C68
:10240000002240212046FEF7C6F920460022BDE802
:1024100010408021FEF7BFB900100140FEF7CEF951
:102420001E48FFF73BFB1E48FFF738FBFFF73EFB5C
:10243000FFF7ECF91C481B49082201604FF4E13119
:10244000416000218160C160C0E904128161C16105
:10245000FFF758F808B1FDF7D9FFFFF7C3FAFFF708
:102460002BFAFFF78BFAFFF7DFFA00F02DFA4FF4A3
:10247000FA742046FEF77AF8642202210F20FFF753
:102480005FFF2046FEF772F807488038FEF72AFD06
:1024900005484038FEF726FDFEE7000080010020D9
:1024A000AE01002000380140C00000202DE9FF41AE
:1024B0001546BDF804201E460024194626A0FFF745
:1024C00013FE2EA0FFF710FE00272DA0E95DFFF7F9
:1024D0000BFE7F1CFFB2052FF7D328A0FFF704FEE9
:1024E0000020C0F10402295C91402143401CC0B28D
:1024F0008CB20528F5D3172C09D0152C07D01D2C2C
:1025000005D01F2C03D0BDF80400B0420DD300F05D
:10251000DBF96420FEF72AF81020FFF7BFFE04B0B5
:102520006420BDE8F041FEF721B814F00E0F09D089
:1025300004F00700C4F3C101884209D8BDE8FF4197
:10254000FFF726BF04B01020BDE8F041FFF7CCBE76
:10255000BDE8FF4100F04CB96D696E696D756D2085
:1025600064697374616E63653A25642C20736574C5
:1025700020706172616D3A25640000000A0000005D
:10258000256420002DE9FF4F6D4881B06F4A017826
:102590006C48DDE90EBA00780026081A052190FB88
:1025A000F1F1CDB2C0F11400674900EBD070C0F377
:1025B00047040B781078119F83427AD008709146B7
:1025C0002823524659466248009700F0C7F8DFF8C2
:1025D0008081A8F10208B8F80200022809D214206C
:1025E000FDF7C4FF2823524659465948009700F08A
:1025F000B5F8B8F80200A8F8040099F80000FFF751
:102600006BFE544F99F80000B8F8042007EB400027
:10261000614220F80A2C4FF0140A98F801000AEBE6
:102620004101814206DD401CC0B288F80100FF284C
:102630000BD07FE004214848FEF742FE08214648BF
:10264000FEF73EFEFF2088F80100384617F81460B8
:102650002146C4F1140305E030F81120B24200D83D
:10266000D6B2491C8B42F7DC0022214604E000BFB1
:1026700030F81170491C3A448B42F9DC92FBFAF0B5
:10268000BDF8061001270022814202DB88F80020F5
:1026900001E088F80070BDF804002E4BB8F8041073
:1026A0002833884299F80000184403D800F8052C14
:1026B00002E043E000F8057C254804EB850C001D92
:1026C00000210270027110E004EB010813F8088089
:1026D000B8F1010F00D107700CEB010813F8088066
:1026E000B8F1010F00D10771491CA942ECDB0121AF
:1026F000994692465FEA550301FB059700F801A051
:10270000002209E004EB020C10F8018017F80CC05D
:10271000521CC44400F801C0AA42F3DB425CB2FB85
:10272000F3F2012A01D9012200E000224254491C9F
:102730000429E1DB304605B0BDE8F08F0020FAE760
:10274000230000202200002025000020240000207B
:102750002A000020DC010020400000202DE9F04785
:102760000D469946174680460026322304221F490B
:102770002846089CFEF7EAFF0120FDF7F7FEB8881F
:10278000092830D3224649463846FFF772F9B888FF
:1027900010B120785928F5D1621C49463846FFF718
:1027A00068F9607859280AD10025621949463846E7
:1027B000921CFFF75EF96D1CEDB2072DF5D30020DA
:1027C000215C401C3144C0B2CEB20828F8D3207A34
:1027D000B04208D1A078E17800EB0120A8F8000011
:1027E0000120BDE8F0870020FBE700001500002075
:1027F00010B504A0FFF778FC1221BDE810401920A5
:1028000000F070B872696768740A000070B5084D0E
:10281000044600224FF480712846FDF7BCFF0122D8
:1028200051022846FDF7B7FF0248046070BD000062
:10283000001001403C04004070B5074D04460122E1
:1028400011022846FDF7A7FF002269152846FDF76B
:10285000A2FF0248046070BD001001403C0400402B
:1028600010B5074C00224FF480712046FDF793FF0E
:10287000002261152046BDE81040FDF78CBF000026
:102880000010014030B504780025521E944202DB4E
:102890000270002203E09C4203D8037001220A70F8
:1028A0000125097831B1012901D00F2104E0017817
:1028B000491C01E00178491E0170C8B20149086055
:1028C000284630BD3404004010B504A0FFF70CFCCE
:1028D000FFF7C6FFBDE81040FFF790BD73746F703F
:1028E0000A00000010B50C46FFF774FD2046FDF706
:1028F000CFFC4FF06632054BFDF758FCFDF7D5FCD9
:10290000BDE81040C0B2FFF797BF00006666F63F13
:10291000000000000000000001020304060708098F
:102920000000000001020304482900080000002004
:1029300040000000282100088829000840000020ED
:10294000D805000038210008000000000100000048
:1029500010000000000000000024F400005A0404ED
:1029600062FFFFFFFFFFFFFFFFFF0A1405000100EA
:10297000000000000000000000000000230096009E
:08298000190000000000000036
:0400000508000131BD
:00000001FF
